:020000022000DC
:1060000000000420318104007181040073810400C8
:10601000758104007781040079810400000000008C
:10602000000000000000000000000000557F040098
:106030007D81040000000000757F04008181040060
:1060400085830400838104001153040083810400CC
:106050008381040083810400E153040083810400F0
:106060008381040083810400838104008381040010
:106070008381040083810400838104008381040000
:1060800083810400A57C04008381040083810400D3
:1060900083810400838104006D690300838104000F
:1060A00083810400838104008381040083810400D0
:1060B00083810400838104000000000000000000D0
:1060C0008381040083810400838104001586040019
:1060D000838104008381040083810400798C0300A0
:1060E0008381040083810400838104000000000098
:1060F0000000000083810400000000008D86040081
:10610000000000000000000000000000000000008F
:10611000000000000000000000000000000000007F
:10612000000000000000000000000000000000006F
:10613000000000000000000000000000000000005F
:10614000000000000000000000000000000000004F
:10615000000000000000000000000000000000003F
:10616000000000000000000000000000000000002F
:10617000000000000000000000000000000000001F
:10618000000000000000000000000000000000000F
:1061900000000000000000000000000000000000FF
:1061A00000000000000000000000000000000000EF
:1061B00000000000000000000000000000000000DF
:1061C00000000000000000000000000000000000CF
:1061D00000000000000000000000000000000000BF
:1061E00000000000000000000000000000000000AF
:1061F000000000000000000000000000000000009F
:10620000F1EE103A43F08073E1EE103A704700BFB0
:1062100010B5054C237833B9044B13B10448AFF3E0
:1062200000800123237010BD98630020000000004F
:106230001C6C050008B5034B1BB103490348AFF3C1
:10624000008008BD000000009C6300201C6C05005D
:10625000154B002B08BF134B9D46A3F5803A002138
:106260008B460F461348144A121A28F041F90F4B77
:10627000002B00D098470E4B002B00D098470020F1
:10628000002104000D000D48002802D00C48AFF397
:10629000008028F0C3F82000290021F0A1FF28F099
:1062A00097F800BF00000800000004200000000074
:1062B0000000000098630020E0A70020000000001C
:1062C000000000000020704703680021DB681847C9
:1062D0000123416003720020704700BF0020704717
:1062E0000020704700207047114A124938B5D2E9A2
:1062F00000320546D21A01F1540029609108E86580
:1063000009D0043B1A44002153F8040FA84208BFE7
:1063100019609A42F8D1D5E912239B1A1C1F105913
:1063200018B103685B689847AA6C043CF7E700BFA4
:10633000B8630020B03D050038B5124A0368124921
:1063400053F80C5CD2E90032415105445431D21A61
:10635000E965910809D0043B1A44002153F8040F61
:10636000854208BF19609A42F8D1D5E912239B1AD9
:106370001C1F105918B103685B689847AA6C043C4D
:10638000F7E700BFB8630020B03D050008B5FFF790
:10639000ABFF00BF08B5036853F80C3C1844FFF787
:1063A000A3FF00BF10B4D0E90F431B1BB1EBA30F39
:1063B0003DBF54F821305A75002001205DF8044B90
:1063C000704700BF10B4D0E90F431B1BB1EBA30F04
:1063D0003DBF54F821301A75002001205DF8044BB0
:1063E000704700BF406D7047036853F8183C18446D
:1063F000406D7047036853F80C3C1844704700BF69
:10640000036853F8183CC25852F80C2C1844104436
:10641000704700BF036853F80C3C1844704700BF36
:10642000036853F8183CC25852F80C2C1844104416
:10643000704700BF036853F80C3C1844704700BF16
:10644000036853F8183CC25852F80C2C18441044F6
:10645000704700BFD0F85032C2180133B3F5007F47
:10646000A8BF002382F84C10C0F85032704700BF1C
:1064700010B4D0F84C124B1C01445C42024691F817
:106480004C00C4F30801C3F3080358BF4B425DF846
:10649000044BC2F84C327047D0E993308342C3BFFB
:1064A000C3F5FF730133C018C01A7047036853F86F
:1064B0000C3C1844704700BF036853F8183CC2589E
:1064C00052F80C2C18441044704700BF406E7047BF
:1064D000036853F8183C1844406E7047026852F83D
:1064E000103C034410B4596052F80C2C01241C7267
:1064F00010445DF8044B10F09BBC00BF036810B45F
:1065000053F8144C025952F8103C2044034401241F
:10651000596052F80C2C1C7210445DF8044B10F0BA
:1065200087BC00BF026852F8103C034410B45960A5
:1065300052F80C2C01241C7210445DF8044B11F02D
:1065400025B900BF036810B453F8144C025952F82F
:10655000103C204403440124596052F80C2C1C7256
:1065600010445DF8044B11F011B900BF026852F8F5
:10657000103C034410B4596052F80C2C01241C72D6
:1065800010445DF8044B10F073BA00BF036810B4F8
:1065900053F8144C025952F8103C2044034401248F
:1065A000596052F80C2C1C7210445DF8044B10F02A
:1065B0005FBA00BF10B50446006808B121F052FE72
:1065C000204610BD10B50446006808B121F04AFE0F
:1065D000204610BD10B5044B044640F80C3B1FF09C
:1065E00065F8204610BD00BFDC37050010B5054B2F
:1065F000044640F80C3B1FF059F8204621F032FECB
:10660000204610BDDC37050030B4056855F8104C45
:106610000444247A14B9204630BC704755F80C4C19
:10662000114620441A4630BC10F09CBE016870B47C
:1066300051F81C4C065956F8105C04442544287A3D
:1066400008B970BC704756F80C0C114620441A4625
:1066500070BC10F087BE00BF30B4056855F8104C10
:106660000444247A14B9204630BC704755F80C4CC9
:10667000114620441A4630BC10F074BE016870B454
:1066800051F81C4C065956F8105C04442544287AED
:1066900008B970BC704756F80C0C114620441A46D5
:1066A00070BC10F05FBE00BF30B4056855F8104CE8
:1066B0000444247A14B9204630BC704755F80C4C79
:1066C000114620441A4630BC10F04CBE016870B42C
:1066D00051F8204C065956F8105C04442544287A99
:1066E00008B970BC704756F80C0C114620441A4685
:1066F00070BC10F037BE00BF30B4056855F8104CC0
:106700000444247A14B9204630BC704755F80C4C28
:10671000114620441A4630BC10F024BE016870B403
:1067200051F8204C065956F8105C04442544287A48
:1067300008B970BC704756F80C0C114620441A4634
:1067400070BC10F00FBE00BF38B5036853F80C3CA6
:10675000034404460D4603F10C005A6900211FF062
:10676000D3F8236853F80C0C204429460C30BDE8BC
:1067700038401EF0F3BF00BF38B58A680C460546A6
:10678000084600211FF0C0F805F10C0120461EF05C
:10679000E5FF204638BD00BF70B5014688B005460C
:1067A0001448154C154E10F0D9F8154B20221D80B9
:1067B00069460023CDE90033CDE90333CDE9053344
:1067C000029307930EF07AF901230E4933702046A5
:1067D0001EF062F8694620461EF0B0F80A492046CD
:1067E0001EF05AF8317820460A221EF06BFA08B0E3
:1067F00070BD00BF5C6E0020DC7600209D6700202D
:10680000FA6D0020481905007C19050070B50C4C84
:106810000C4E00230D4620460B4933701EF03CF809
:106820002946102220461EF07FFA084920461EF015
:1068300033F8317820460A22BDE870401EF042BA93
:10684000DC7600209D670020901905007C1905006A
:1068500038B50368044653F80C3C406E2344026884
:10686000596001251D729368984794F86010A06ED6
:106870000DF07AFD11221146A06E0DF08DFD94F8F9
:106880003410A06E0DF076FD216FA06E0DF0A6FD08
:10689000A06E03689B68984794F8603013F0120F5D
:1068A00007D094F83410A94238D002294ED00429D8
:1068B00038D094F86110E06E0DF056FD11221146AB
:1068C000E06E0DF069FD94F83410E06E0DF052FDAD
:1068D000E16FE06E0DF082FDE06E03689B68984703
:1068E00094F8613013F0120F07D094F83410012996
:1068F0000ED0022922D0042919D01B0701D4002070
:1069000038BDE06E144901220DF04CFD002038BD69
:10691000E06E0DF087FD94F86130EEE7A06E0DF0AB
:1069200081FDC6E70D49A06E0DF0BCFDC1E70C4925
:10693000E06E0DF0B7FD94F86130DEE7E06E40F2F6
:1069400005410DF08FFD94F86130D6E7A06E4FF44D
:1069500081710DF087FDACE73933030003020100BC
:106960000605040038B5036853F8143CC418C3582E
:10697000606E53F80C3C02682344012559601D7277
:106980009368984794F86010A06E0DF0EDFC11220A
:106990001146A06E0DF000FD94F83410A06E0DF0BD
:1069A000E9FC216FA06E0DF019FDA06E03689B68D5
:1069B000984794F8603013F0120F07D094F8341011
:1069C000A94238D002294ED0042938D094F8611059
:1069D000E06E0DF0C9FC11221146E06E0DF0DCFCFA
:1069E00094F83410E06E0DF0C5FCE16FE06E0DF030
:1069F000F5FCE06E03689B68984794F8613013F0EB
:106A0000120F07D094F8341001290ED0022922D099
:106A1000042919D01B0701D4002038BDE06E1549A8
:106A200001220DF0BFFC002038BDE06E0DF0FAFC35
:106A300094F86130EEE7A06E0DF0F4FCC6E70E4965
:106A4000A06E0DF02FFDC1E70C49E06E0DF02AFDA0
:106A500094F86130DEE7E06E40F205410DF002FD92
:106A600094F86130D6E7A06E4FF481710DF0FAFC16
:106A7000ACE700BF39330300030201000605040040
:106A800008B50368117853F80C3C18440FF0C0FFA8
:106A900008BD00BF08B50368117853F81C3CC25804
:106AA00052F80C2C184410440FF0B2FF08BD00BF80
:106AB00038B504461D46082962D8DFE801F01922DE
:106AC0002B343D464F580500036853F80C0C114613
:106AD0002044EAB210F072F994F82C3033B12DB1A1
:106AE000236853F80C0C204410F0A2F9284638BD56
:106AF000036853F80C0C11462044EAB210F03EF93A
:106B0000EAE7036853F80C0C11462044EAB210F08F
:106B100039F9E1E7036853F80C0C11462044EAB256
:106B200010F034F9D8E7036853F80C0C11462044F0
:106B3000EAB210F02FF9CFE7036853F80C0C1146B6
:106B40002044EAB210F02AF9C6E7036853F80C0CA7
:106B500011462044EAB210F025F9BDE7036853F866
:106B60000C0C11462044EAB210F020F9B4E7036897
:106B700053F80C0C11462044EAB210F01BF9ABE7B5
:106B80000025B3E7F8B50446006850F8206C1D46B0
:106B9000A719082962D8DFE801F019222B343D46F5
:106BA0004F580500A35953F80C0C11463844EAB26B
:106BB00010F004F997F82C3033B12DB1A35953F8E4
:106BC0000C0C384410F034F92846F8BDA35953F89A
:106BD0000C0C11463844EAB210F0D0F8EAE7A35999
:106BE00053F80C0C11463844EAB210F0CBF8E1E748
:106BF000A35953F80C0C11463844EAB210F0C6F809
:106C0000D8E7A35953F80C0C11463844EAB210F0F7
:106C1000C1F8CFE7A35953F80C0C11463844EAB237
:106C200010F0BCF8C6E7A35953F80C0C11463844D1
:106C3000EAB210F0B7F8BDE7A35953F80C0C1146AF
:106C40003844EAB210F0B2F8B4E7A35953F80C0C88
:106C500011463844EAB210F0ADF8ABE70025B3E7CF
:106C600008B50368117853F80C3C18440FF0D8FEAF
:106C700008BD00BF08B50368117853F8203CC2581E
:106C800052F80C2C184410440FF0CAFE08BD00BF87
:106C900010B5D0E90F431B1BB1EBA30F01D30120AB
:106CA00010BD54F82100114618301EF007FD0020D9
:106CB00010BD00BF10B50B4B0B4A044603F1980101
:106CC00003F158002360E0606162C4F8002104F51C
:106CD00086701EF0EBFC04F10C0010F013FD204652
:106CE00010BD00BF1C380500DC37050002680C49E8
:106CF00052F80C2C38B50B4B8350841803F158050F
:106D000098336362C4F80011E56004F586701EF0E4
:106D1000CDFC04F10C0010F0F5FC204638BD00BF9E
:106D2000DC3705001C38050002680C4952F8182CA5
:106D300038B50B4B8350841803F1580598336362C0
:106D4000C4F80011E56004F586701EF0AFFC04F194
:106D50000C0010F0D7FC204638BD00BFDC37050022
:106D60001C3805000C4B0D4A10B5044603F1980180
:106D700003F1580023606162C4F80021E06004F56B
:106D800086701EF093FC04F10C0010F0BBFC204652
:106D900021F068FA204610BD1C380500DC370500DC
:106DA00002680D4952F80C2C38B50C4B83508418EE
:106DB00003F1580598336362C4F80011E56004F5E7
:106DC00086701EF073FC04F10C0010F09BFC204652
:106DD00021F048FA204638BDDC3705001C38050094
:106DE00002680D4952F8182C38B50C4B83508418A2
:106DF00003F1580598336362C4F80011E56004F5A7
:106E000086701EF053FC04F10C0010F07BFC204651
:106E100021F028FA204638BDDC3705001C38050073
:106E200010B50F4B0446406A236003F15C0103F187
:106E30009C02DC332163A264C4F8243110B10368DE
:106E40005B689847074BC4F8243104F598701EF02E
:106E50002DFC04F1300010F055FC204610BD00BFA1
:106E6000CC390500DC370500026852F80C1C38B537
:106E700044180F4B626A435003F15C0503F19C0117
:106E8000DC332563A164C4F824311AB113681046B9
:106E90005B689847074BC4F8243104F598701EF0DE
:106EA00005FC04F1300010F02DFC204638BD00BF79
:106EB000CC390500DC370500026852F8181C38B5DB
:106EC00044180F4B626A435003F15C0503F19C01C7
:106ED000DC332563A164C4F824311AB11368104669
:106EE0005B689847074BC4F8243104F598701EF08E
:106EF000DDFB04F1300010F005FC204638BD00BF7A
:106F0000CC390500DC37050010B5144619B101294C
:106F100007D0002010BD9AB22146806E0DF066FAAF
:106F200010BD9AB22146C06E0DF060FA10BD00BFD0
:106F3000D0F800C0ACF11C0CDCF800C06044E3E702
:106F400010B5144619B1012907D0002010BD9AB21E
:106F50002146806E0DF002FB10BD9AB22146C06E34
:106F60000DF0FCFA10BD00BFD0F800C0ACF1200C51
:106F7000DCF800C06044E3E738B50C1E0EDB1546B4
:106F8000D0E91212521AB4EBA20F07D251F8240022
:106F900018B19AB229460DF029FA38BD002038BD43
:106FA000D0F800C0ACF11C0CDCF800C06044E3E792
:106FB00038B50C1E0EDB1546D0E91212521AB4EB8E
:106FC000A20F07D251F8240018B19AB229460DF049
:106FD000C5FA38BD002038BDD0F800C0ACF1200C97
:106FE000DCF800C06044E3E72DE9F843D0E90F2363
:106FF0009B1A1F2B02D90120BDE8F88305462420E7
:107000000C4621F02DF90646102241F601232B49AA
:10701000326100271830B382C6E90077C6E90277EB
:107020001EF020FA0FCCB446ACE80F00D5E91023CF
:107030002168CCF800109A4205D042F8046B38461B
:107040002A64BDE8F883D5F83C806FF06047A2EB76
:107050000804B7EBA40F4FEAA40216D0012A134686
:1070600038BF01239B1826D2DBB91F469946002C56
:1070700049F804600ADC04344C44B8F1000F0CD128
:10708000C5E90F946F640020B6E7FEE7224641464B
:10709000484627F013FA04344C44404621F0E2F805
:1070A000EEE7BB4228BF3B469F00384621F0D8F8A8
:1070B00081460744DBE7024FF7E700BF04490500BC
:1070C000FCFFFF7F03688A6853F80C3C2DE9F0430E
:1070D00003440F461A63D1E90321C3E90D21397D29
:1070E000FA8ADA8783F83C10D7E90612386A98647E
:1070F000C3E910123D463C463A4655F8266F34F82F
:107100002FCF52F8321FB88CD5F8048097F82EE0B4
:10711000A3F84C0007F13C09A07883F85900C3F8A4
:107120004E60C3F85280A3F857C083F856E0D2F8F7
:1071300004E0C3F85A1099E8030003F1640CC3F8A3
:107140005EE08CE8030097F8441083F86C10D7E9F0
:1071500012E0D7E91416C3E91CE0DE679967B96845
:10716000C3F88810D7E90310C3E92310387DF98AE2
:10717000A3F8961083F89400D7E906013E6AC3F895
:10718000A060C3E92601B98CA3F8A41099E8030014
:10719000D5F80480D5F80090B4F800C0A67815683A
:1071A000546897F82EE083F8AEE003F1BC02C3F810
:1071B000A690C3F8AA80A3F8AFC083F8B160C3F863
:1071C000B250C3F8B64082E8030097F8442083F831
:1071D000C420D7E91201D7E91424C3E93201C3F866
:1071E000D440C3F8D020BDE8F08300BF026852F855
:1071F000181C38B54418104B626A435003F15C0503
:1072000003F19C01DC332563A164C4F824311AB175
:10721000136810465B689847084BC4F8243104F59E
:1072200098701EF043FA04F1300010F06BFA20461B
:1072300021F018F8204638BDCC390500DC370500B0
:10724000026852F80C1C38B54418104B626A43505F
:1072500003F15C0503F19C01DC332563A164C4F8F0
:1072600024311AB1136810465B689847084BC4F87C
:10727000243104F598701EF019FA04F1300010F072
:1072800041FA204620F0EEFF204638BDCC390500FB
:10729000DC37050010B5104B0446406A236003F14B
:1072A0005C0103F19C02DC332163A264C4F8243145
:1072B00010B103685B689847084BC4F8243104F5A3
:1072C00098701EF0F3F904F1300010F01BFA20461C
:1072D00020F0C8FF204610BDCC390500DC37050082
:1072E0002DE9F041456904460B462DBB027C8A42DC
:1072F00029D00668414F7268BA426BD1D0F850224B
:1073000081180132B2F5007FA8BF2A4681F84C30BF
:10731000C0F8502233693A4A93425ED1D4E993309F
:107320008342C3BFC3F5FF730133C018C01A0328DB
:1073300027D00020BDE8F081012D0BD00368BDE807
:10734000F041DB68184703685B6998476561002076
:10735000BDE8F081027C8A4242D00268274D526823
:10736000AA4243D1D0F8502281180132B2F5007FF1
:1073700081F84C30AABF0023C0F85022C0F8503228
:10738000D7E7D4F84C32E21892F84C20422A1ED1AA
:107390005A1CB2F5007F12DA224492F84C204C2A93
:1073A00015D1B3F5FF7F03F1020221D194F84C30DF
:1073B000452B0CD102220023C4E90523B9E794F838
:1073C0004C304C2B03D194F84D30452BF2D0012397
:1073D0006361AEE7904726689CE720469847A6E79A
:1073E00003685B69984700236361A2E79047A0E7C1
:1073F000224492F84C30452BDCD0E8E7556402007B
:10740000996402002DE9F04704460068DFF8E08047
:1074100050F81C6C54F806C0DCF810E0C64504EBCC
:10742000060704D03846F446BDE8F04760471D46DD
:1074300008295AD8DFE801F0514941393129211989
:1074400005005CF80C0C11463844EAB20FF0B6FCAB
:1074500097F82C3033B12DB1A35953F80C0C3844A4
:107460000FF0E6FC2846BDE8F0875CF80C0C1146EE
:107470003844EAB20FF09EFCEAE75CF80C0C1146C7
:107480003844EAB20FF092FCE2E75CF80C0C1146CB
:107490003844EAB20FF086FCDAE75CF80C0C1146CF
:1074A0003844EAB20FF07AFCD2E75CF80C0C1146D3
:1074B0003844EAB20FF06EFCCAE75CF80C0C1146D7
:1074C0003844EAB20FF062FCC2E75CF80C0C1146DB
:1074D0003844EAB20FF056FCBAE75CF80C0C1146DF
:1074E0003844EAB20FF04AFCB2E70025B0E700BF2B
:1074F000B16A02002DE9F0410768DFF8D4C0D7F87F
:1075000010E0E6455ED104461E4608295ED8DFE855
:1075100001F01921293139414951050057F80C0C66
:1075200011462044F2B20FF049FC94F82C3033B1EC
:107530002EB1236853F80C0C20440FF079FC304630
:10754000BDE8F08157F80C0C11462044F2B20FF060
:1075500015FCEAE757F80C0C11462044F2B20FF084
:1075600011FCE2E757F80C0C11462044F2B20FF080
:107570000DFCDAE757F80C0C11462044F2B20FF07C
:1075800009FCD2E757F80C0C11462044F2B20FF078
:1075900005FCCAE757F80C0C11462044F2B20FF074
:1075A00001FCC2E757F80C0C11462044F2B20FF070
:1075B000FDFBBAE757F80C0C11462044F2B20FF06D
:1075C000F9FBB2E7F446BDE8F04160470026B6E7B4
:1075D000B16A0200F8B5036853F8147CC359C519A1
:1075E00053F80C3CEC18EB58064653F80C3C606E14
:1075F000234402689268596001211972904794F8F7
:107600006010A06E0CF0B0FE11221146A06E0CF0BE
:10761000C3FE94F83410A06E0CF0ACFE216FA06E87
:107620000CF0DCFEA06E03689B68984794F860300D
:1076300013F0120F08D094F83410012968D00229F1
:1076400000F09380042974D094F86110E06E0CF07F
:107650008BFE11221146E06E0CF09EFE94F8341061
:10766000E06E0CF087FEE16FE06E0CF0B7FEE06EAE
:1076700003689B68984794F8613013F0120F07D0A5
:1076800094F8341001293DD002295ED0042955D048
:107690001A072AD495F8241068690CF065FE1122A7
:1076A000114668690CF078FE686901210CF062FEF1
:1076B000D5E905010CF092FE686903689B6898475C
:1076C00095F8243013F0120F0BD0F25952F80C2C0D
:1076D0002A4492F8341001291ED002293DD00429F1
:1076E00020D01B0707D40020F8BDE06E22490122FC
:1076F0000CF058FECEE768691F4901220CF052FEDB
:107700000020F8BDE06E0CF08DFE94F86130BFE70C
:10771000A06E0CF087FE97E768690CF083FE95F881
:107720002430DEE7154968690CF0BCFE95F824307A
:10773000D7E71249A06E0CF0B5FE85E71049E06E60
:107740000CF0B0FE94F86130A2E7E06E40F2054123
:107750000CF088FE94F861309AE768694FF4817103
:107760000CF080FE95F82430BBE7A06E4FF48171D9
:107770000CF078FE68E700BF393303000302010014
:107780000605040038B5036853F80C3CC418C35808
:10779000054653F80C3C606E2344026892685960B9
:1077A00001211972904794F86010A06E0CF0DCFD76
:1077B00011221146A06E0CF0EFFD94F83410A06E6B
:1077C0000CF0D8FD216FA06E0CF008FEA06E0368CF
:1077D0009B68984794F8603013F0120F08D094F823
:1077E0003410012968D0022900F09380042974D054
:1077F00094F86110E06E0CF0B7FD11221146E06EB6
:107800000CF0CAFD94F83410E06E0CF0B3FDE16F9B
:10781000E06E0CF0E3FDE06E03689B68984794F817
:10782000613013F0120F07D094F8341001293DD0C5
:1078300002295ED0042955D01A072AD495F82410BD
:1078400068690CF091FD1122114668690CF0A4FDE5
:10785000686901210CF08EFDD5E905010CF0BEFD33
:10786000686903689B68984795F8243013F0120FF5
:107870000BD02A6852F80C2C2A4492F834100129B3
:107880001ED002293DD0042920D01B0707D4002098
:1078900038BDE06E224901220CF084FDCEE7686914
:1078A0001F4901220CF07EFD002038BDE06E0CF077
:1078B000B9FD94F86130BFE7A06E0CF0B3FD97E717
:1078C00068690CF0AFFD95F82430DEE7154968696A
:1078D0000CF0E8FD95F82430D7E71249A06E0CF0C3
:1078E000E1FD85E71049E06E0CF0DCFD94F86130B5
:1078F000A2E7E06E40F205410CF0B4FD94F861306F
:107900009AE768694FF481710CF0ACFD95F824306A
:10791000BBE7A06E4FF481710CF0A4FD68E700BFD7
:107920003933030003020100060504002DE9F04786
:1079300004460025474BC36500F1680746492566A4
:107940008AB0384684F864501DF08CFD434A2260AA
:1079500002F15401424EE1651022C4E90525C4E953
:1079600002552022656004F11C002561294626F09D
:10797000BFFDD6E901239A42C4E90F55C4E9115568
:10798000C4E9135584F8585028D042F8044B72606B
:10799000344904A81DF066FD04A901A81DF07CFD72
:1079A000D6E90031C91A89100A22013907A81DF049
:1079B00015FE07A901A81DF041FF014638461DF03C
:1079C0007DFE07A81DF072FE01A81DF06FFE04A841
:1079D0001DF06CFE20460AB0BDE8F087D6F8009096
:1079E0006FF06048A2EB0905B8EBA50F4FEAA503BD
:1079F00016D0012B1A4638BF01229B1827D2DBB9BB
:107A000098469A46002D4AF805400ADC043555444C
:107A1000B9F1000F0CD1C6E900A5C6F80880B7E798
:107A2000FEE72A464946504626F048FD04355544AF
:107A3000484620F017FCEEE7434528BF43464FEA8F
:107A40008308404620F00CFC82468044DAE7DFF8E9
:107A50001880F6E7DC370500D4190500B03D0500B5
:107A6000B8630020E0190500FCFFFF7F70B5D0F877
:107A70004C32C11896B091F84C20422A04461AD1D3
:107A80005A1CB2F5007F80F2E183024492F84C2048
:107A9000412A10D1B3F5FF7F03F1020240F05A876B
:107AA00090F84C20552A06D190F84D20442A08BF62
:107AB000022200F0C586D4F8585291F84C204E2A84
:107AC00060D15A1CB2F5007F80F29784224492F86C
:107AD0004C20412A40F0CF80B3F5FF7F03F1020232
:107AE00040F0918494F84C204D2A40F0C48001224B
:107AF000224492F84C20452A40F0BD801A1DB2F570
:107B0000007FA4BFA3F5FE73C3F30802D4F850327C
:107B1000934206D02244237C92F84C209A4240F0B3
:107B20004586402206A9DC480EF062FE16AB0344EF
:107B3000DA49E068002503F8405C1CF0FFFE06A966
:107B4000E0681CF0FBFE217CE0681DF02FF8D449B2
:107B500003A81DF087FC06A968461DF083FC694652
:107B600003A81DF06BFE0146CE481CF089FF684655
:107B70001DF09CFD03A81DF099FDD4F85032C4F807
:107B80004C32E11891F84C20522A74D15A1CB2F5AB
:107B9000007F80F24984224492F84C20462A40F02B
:107BA0000982B3F5FF7F03F1020240F0438494F8A9
:107BB0004C20532A40F0FE810122A01890F84C007E
:107BC000542840F0F7810132B2F5007F40F0438441
:107BD00094F84C20412A40F0ED810122A01890F841
:107BE0004C00542840F0E6810132B2F5007F40F0AD
:107BF000438494F84C20452A40F0DC81DA1DB2F52C
:107C0000007F04DB6FF4FC7C6344C3F30802D4F808
:107C10005032A549934206D02244237C92F84C204E
:107C20009A4240F0AE85E068D4F864521CF086FEBB
:107C30009E49E0681CF082FE217CE0681CF0B6FFE3
:107C40009B4906A81DF00EFC984903A81DF00AFCEC
:107C500003A906A81DF0F2FD014692481CF010FF92
:107C600003A81DF023FD06A81DF020FDD4F8503216
:107C7000C4F84C32E11891F84C20412A40F09A8126
:107C8000581CB0F5007F80F26783221892F84C20D0
:107C9000442A40F09580B3F5FF7F03F1020240F0E3
:107CA000618394F84C20562A40F08A800122A6185D
:107CB00096F84C60452E40F083800132B2F5007F8B
:107CC00040F0618394F84C20522A79D10122A61801
:107CD00096F84C60542E73D10132B2F5007F40F01B
:107CE000638394F84C20492A6AD10122A61896F899
:107CF0004C60532E64D10132B2F5007F40F06583B1
:107D000094F84C20492A5BD10122A61896F84C60C1
:107D10004E2E55D10132B2F5007F40F0678394F8C2
:107D20004C20472A4CD103F10B02B2F5007F04DB53
:107D30006FF4FA763344C3F30802D4F85032934216
:107D400006D02244237C92F84C209A4240F0F384DF
:107D500058480BF0A7FD584B584A50490546002D8E
:107D600014BF1D461546E0681CF0E8FD2946E06892
:107D70001CF0E4FD217CE0681CF018FF484906A8CF
:107D80001DF070FB294603A81DF06CFB03A906A893
:107D90001DF054FD014643481CF072FE03A81DF07F
:107DA00085FC06A81DF082FC0025D4F85032C4F8EA
:107DB0004C32E11891F84C20412A40F0FB80581CCD
:107DC000B0F5007F80F25F83204490F84C20442A75
:107DD00040F06C81B3F5FF7F03F1020240F059835C
:107DE00094F84C20562A40F061810122A01890F8A6
:107DF0004C00452840F05A810132B2F5007F40F036
:107E0000598394F84C20522A40F050810122A01846
:107E100090F84C00542840F049810132B2F5007FBF
:107E200040F0598394F84C205F2A40F03F810122B2
:107E3000A01890F84C00532840F038810132B2F578
:107E4000007F40F0598394F84C20452A40F02E8161
:107E50000122A01890F84C00522840F027810132EE
:107E6000B2F5007F40F0598394F84C20562A40F038
:107E70001D810122A01890F84C00492840F016817D
:107E80000132B2F5007F40F0598394F84C20432A28
:107E900040F00C81012213E05C6E00205C1A0500AA
:107EA000601A0500DC760020FC190500901A050018
:107EB000281A05009C740020EC190500F41905002F
:107EC000A01890F84C00452840F0F0800132B2F53F
:107ED000007F40F0448394F84C205F2A40F0E68015
:107EE0000122A01890F84C00492840F0DF800132B0
:107EF000B2F5007F40F0448394F84C20442A40F0CF
:107F0000D58003F11102B2F5007F04DB6FF4F77541
:107F10002B44C3F30802D4F85032934206D02244D3
:107F2000237C92F84C209A4240F0E083BD4DBE493C
:107F30002B68E06830338DF800301CF0FFFC694698
:107F4000E0681CF0FBFC217CE0681CF02FFEB749C8
:107F500006A81DF087FA694603A81DF083FA03A955
:107F600006A81DF06BFC0146B1481CF089FD03A872
:107F70001DF09CFB06A81DF099FBAE4906A81DF05C
:107F800071FA0A22296803A81DF0F4FA03A906A8C9
:107F90001DF054FC0146A6481CF072FD03A81DF01C
:107FA00085FB06A81DF082FB0025D4F85032C4F8EA
:107FB0004C32E11891F84C204C2A77D15A1CB2F57A
:107FC000007F80F29A81224492F84C20452A40F0AA
:107FD000FE80B3F5FF7F03F1020240F0948194F834
:107FE0004C20442A40F0F3800122A01890F84C0065
:107FF0004D2840F0EC800132B2F5007F40F09481D2
:1080000094F84C204F2A40F0E2800122A01890F80A
:108010004C00442840F0DB800132B2F5007F40F094
:10802000948194F84C20452A40F0D180DA1DB2F5B5
:10803000007F04DB6FF4FC700344C3F30802D4F840
:108040005032934206D02244237C92F84C209A422C
:1080500040F03783784B74499D69E068002D40F00B
:1080600009831CF06BFC7549E0681CF067FC217CFF
:10807000E0681CF09BFD6D4906A81DF0F3F96F49FF
:1080800003A81DF0EFF903A906A81DF0D7FB0146D0
:1080900067481CF0F5FC03A81DF008FB06A81DF0BE
:1080A00005FBD4F85032C4F84C32E11891F84C205A
:1080B000432A40F08C805A1CB2F5007F80F2678220
:1080C000224492F84C204F2A40F0A080B3F5FF7F65
:1080D00003F1020240F0618294F84C204E2A40F0F5
:1080E00095800122A11891F84C104E2940F08E8005
:1080F0000132B2F5007F40F0618294F84C20452AAD
:1081000040F084800122A11891F84C1043297DD1C0
:108110000132B2F5007F40F0628294F84C20542A7C
:1081200074D10122A11891F84C1045296ED1013269
:10813000B2F5007F40F0648294F84C20442A65D167
:1081400003F10902B2F5007F04DB6FF4FB710B440D
:10815000C3F30802D4F85032934206D02244237C61
:1081600092F84C209A4240F0468335480EF0CCFB02
:10817000344B354A2C490546002D14BF1D46154683
:10818000E0681CF0DBFB2946E0681CF0D7FB217C93
:10819000E0681CF00BFD254906A81DF063F929468F
:1081A00003A81DF05FF903A906A81DF047FB0146CF
:1081B0001F481CF065FC03A81DF078FA06A81DF006
:1081C00075FA0025D4F85032C4F84C32E11891F811
:1081D0004C20562A1AD15A1CB2F5007F80F2178221
:1081E000224492F84C20452A10D1B3F5FF7F03F1C9
:1081F000020240F0528494F84C20522A06D194F89E
:108200004D20532A08BF022200F0D183D4F85832FF
:10821000AB424FD01DB1D4F85032C4F84C3228468E
:1082200016B070BD2C6E00205C1A0500601A0500A7
:10823000DC760020FC1A0500FC6D0020804405005F
:108240005C6E0020EC190500F419050090F84C2034
:10825000412A7FF430AC90F84D20552A08BF022205
:108260007FF429ACA01890F84C0044287FF423AC8C
:108270000132B2F5007F40F0E38294F84C20522A9C
:108280007FF419AC94F84D20412A08BF02227FF4F4
:1082900012ACA01890F84C0054287FF40CAC0132BA
:1082A000B2F5007F40F0E38294F84C20452A00F0BC
:1082B000E48200E4EB49E0681CF040FBEA49E06836
:1082C0001CF03CFB217CE0681CF070FCE74906A830
:1082D0001DF0C8F8E44903A81DF0C4F803A906A8D6
:1082E0001DF0ACFA0146E2481CF0CAFB03A81DF0E1
:1082F000DDF906A81DF0DAF98CE794F84C20452A40
:108300007FF465AF0122A01890F84C0044287FF458
:108310005EAF0132B2F5007F7FF467AE94F84C2077
:108320004D2A7FF454AF0122A01890F84C004F283A
:108330007FF44DAF0132B2F5007F7FF467AE94F861
:108340004C20442A7FF443AF0122224492F84C206F
:10835000452A3FF46BAE3AE794F84C20442A7FF468
:108360002FAD0122A61896F84C60562E7FF428AD4A
:108370000132B2F5007F7FF49AAC94F84C20452A84
:108380007FF41EAD0122A61896F84C60522E7FF4A1
:1083900017AD0132B2F5007F7FF499AC94F84C2010
:1083A000542A7FF40DAD0122A61896F84C60492E90
:1083B0007FF406AD0132B2F5007F7FF497AC94F8FC
:1083C0004C20532A7FF4FCAC0122A61896F84C608E
:1083D000492E7FF4F5AC0132B2F5007F7FF495AC05
:1083E00094F84C204E2A7FF4EBAC0122224492F800
:1083F0004C20472A3FF497ACE2E494F84C20412A01
:108400007FF439AC0122A01890F84C004D287FF47D
:1084100032AC0132B2F5007F7FF46AAB94F84C20A5
:10842000452A3FF46BAB26E494F84C20462A7FF4AF
:10843000C1AD0122A01890F84C0053287FF4BAADCA
:108440000132B2F5007F7FF4B8AB94F84C20542A87
:108450007FF4B0AD0122A01890F84C0041287FF4C1
:10846000A9AD0132B2F5007F7FF4B8AB94F84C208F
:10847000542A7FF49FAD0122224492F84C20452AD1
:108480003FF4BCAB96E594F84C20442A7FF40EAE42
:108490000122A01890F84C0056287FF407AE013254
:1084A000B2F5007F7FF4A2AC94F84C20452A7FF40B
:1084B000FDAD0122A01890F84C0052287FF4F6ADD3
:1084C0000132B2F5007F7FF4A2AC94F84C20542A1C
:1084D0007FF4ECAD0122A01890F84C005F287FF4E7
:1084E000E5AD0132B2F5007F7FF4A2AC94F84C20E8
:1084F000532A7FF4DBAD0122A01890F84C004528E8
:108500007FF4D4AD0132B2F5007F7FF4A2AC94F8D1
:108510004C20522A7FF4CAAD0122A01890F84C00DA
:1085200056287FF4C3AD0132B2F5007F7FF4A2ACD0
:1085300094F84C20492A7FF4B9AD0122A01890F894
:108540004C0043287FF4B2AD0132B2F5007F7FF4D6
:10855000B7AC94F84C20452A7FF4A8AD0122A018AE
:1085600090F84C005F287FF4A1AD0132B2F5007F96
:108570007FF4B7AC94F84C20492A7FF497AD0122E0
:10858000224492F84C20442A3FF4BBAC8EE594F888
:108590004C204F2A7FF43AAE0122A11891F84C10DA
:1085A0004E297FF433AE0132B2F5007F7FF49AADED
:1085B00094F84C204E2A7FF429AE0122A11891F89C
:1085C0004C1045297FF422AE0132B2F5007F7FF4D2
:1085D0009AAD94F84C20432A7FF418AE0122A118DA
:1085E00091F84C1054297FF411AE0132B2F5007F9E
:1085F0007FF498AD94F84C20452A7FF407AE012211
:10860000224492F84C20442A3FF49AADFEE594F8B7
:108610004C20452A7FF4FAAD94F84D20522A08BF29
:1086200002227FF4F3ADA11891F84C1053297FF486
:10863000EDAD0132B2F5007F40F0B98194F84C20E5
:10864000492A7FF4E3AD94F84D204F2A08BF022257
:108650007FF4DCAD224492F84C204E2A00F0BC811D
:10866000D4E500BFFC190500BC1B0500281A050055
:10867000DC7600201CF062F9A949E0681CF05EF984
:10868000217CE0681CF092FAA64906A81CF0EAFEDC
:10869000A34903A81CF0E6FE03A906A81DF0CEF826
:1086A0000146A1481CF0ECF903A81CF0FFFF06A846
:1086B0001CF0FCFFD4F85032C4F84C320025E1180D
:1086C000F4E49A49E068D4F85C521CF037F9984910
:1086D000E0681CF033F9217CE0681CF067FA9549EA
:1086E00006A81CF0BFFE924903A8CAE48F49E068BF
:1086F000D4F85C521CF022F98F49E0681CF01EF996
:10870000217CE0681CF052FA8A4906A81CF0AAFEF7
:10871000894903A81CF0A6FE03A906A81DF08EF83F
:10872000014681481CF0ACF903A81CF0BFFF06A865
:108730001CF0BCFF39E47D49E068D4F85C521CF0C1
:10874000FDF87E49E0681CF0F9F8217CE0681CF037
:108750002DFA784906A81CF085FE784903A81CF07C
:1087600081FE03A906A81DF069F801466E481CF0B9
:1087700087F903A81CF09AFF06A81CF097FFFFF7E3
:1087800014BBE068D4F85C521CF0D8F86C49E0687F
:108790001CF0D4F8217CE0681CF008FA654906A8B2
:1087A0001CF060FE664903A8FFF750BA5F49E06815
:1087B0001CF0C4F86349E0681CF0C0F8217CE06854
:1087C0001CF0F4F95B4906A81CF04CFE5D4903A8B7
:1087D0001CF048FE03A906A81DF030F801465248D7
:1087E0001CF04EF903A81CF061FF06A81CF05EFF08
:1087F0000225FFF7C2B94D49E068D4F85C521CF07D
:108800009DF85149E0681CF099F8217CE0681CF063
:10881000CDF9484906A81CF025FE4B4903A81CF0D9
:1088200021FE03A906A81DF009F801463E481CF0E8
:1088300027F903A81CF03AFF06A81CF037FFC1E493
:10884000A01890F84C0052287FF435A90132B2F5F7
:10885000007F40F0968094F84C20412A7FF42BA9A9
:1088600094F84D20542A08BF02227FF424A9224400
:1088700092F84C20452A7FF41EA903F10802B2F5B4
:10888000007FA4BFA3F5FC73C3F30802D4F85032F1
:10889000264993422FD02244237C92F84C209A42BE
:1088A00029D0E068D4F85C521CF048F82749E06809
:1088B0001CF044F8217CE0681CF078F91D4906A8FA
:1088C0001CF0D0FD214903A81CF0CCFD03A906A88B
:1088D0001CF0B4FF014614481CF0D2F803A81CF0A9
:1088E000E5FE06A81CF0E2FED4F85032C4F84C3283
:1088F000E118FFF7E2B8E068D4F864521CF01EF803
:108900001349E0681CF01AF8217CE0681CF04EF96D
:10891000084906A81CF0A6FD0D4903A8D4E700BF2E
:108920002C300500601A0500DC760020FC190500DB
:108930004C1B0500281A05001C1B0500D41A050055
:10894000B01A0500701A0500701B0500381A0500E2
:10895000041A0500024492F84C20552A7FF4ABA873
:10896000DA1CB2F5007F7FF47DAC90F84C20442AED
:108970007FF4A1A890F84D20522A08BF02227FF46C
:108980009AA8A01890F84C0041287FF494A80132CE
:10899000B2F5007F7FF47DAC94F84C20542A7FF42C
:1089A0008AA894F84D20452A7FF485A865E7A11888
:1089B00091F84C1049297FF429AC0132B2F5007FBF
:1089C00040F0828094F84C204F2A7FF41FAC94F83A
:1089D0004D204E2A7FF41AACDA1DB2F5007F04DB7D
:1089E0006FF4FC721344C3F30802D4F8503293427C
:1089F0002FD02244237C92F84C209A4229D03B4924
:108A0000E068D4F85C521BF099FF3949E0681BF02C
:108A100095FF217CE0681CF0C9F8364906A81CF0D7
:108A200021FD334903A81CF01DFD03A906A81CF075
:108A300005FF014630481CF023F803A81CF036FE61
:108A400006A81CF033FED4F85032C4F84C32FFF7BD
:108A5000DDBB2A49E0681BF071FF2949E0681BF083
:108A60006DFF217CE0681CF0A1F8264906A81CF0E7
:108A7000F9FC234903A81CF0F5FC03A906A81CF087
:108A8000DDFE01461C481BF0FBFF03A81CF00EFE98
:108A900006A81CF00BFE0025D5E7224492F84C20D6
:108AA000522A7FF4B3ABDA1CB2F5007F7FF4BBAD82
:108AB00094F84C20532A7FF4A9AB94F84D20492A0E
:108AC00008BF02227FF4A2ABA11891F84C104F29E5
:108AD0007FF49CAB0132B2F5007F7FF4BBAD94F81C
:108AE0004C204E2A3FF478AFFFF790BBFC190500ED
:108AF000981B0500281A0500DC7600205C1A05008A
:108B0000243E0500601A050070B5D0F84C32067C92
:108B1000C2188CB092F84C20B24256D00021CDE958
:108B2000071109910A918DF82C1007AC5D1C04F80F
:108B3000012B6FF4FF72B5F5007F134401F10101C1
:108B4000ACBFC3F308032B46102900EB030239D056
:108B500092F84C20964203D0D0F85052AB42E5D167
:108B6000C0F84C3207ABC1F111025818002125F0B2
:108B7000BFFC294904A81CF075FC07A901A81CF03A
:108B800071FC01A904A81CF059FE014623481BF002
:108B900077FF01A81CF08AFD04A81CF087FD20487F
:108BA0000AF066FF1E480AF057FE1E480AF054FEFF
:108BB0001D4807A90DF008FE1C4B1B784BB900207F
:108BC0000CB070BDC0F84C32D3E7D0F860020CB0E6
:108BD00070BD062112480AF02BFE11480AF010FE63
:108BE000134B196811B10E480AF0C6FD0D480AF082
:108BF000D9FD0B4801210AF059FEF4220848202132
:108C00000AF04CFE06481E210AF046FE00210448E8
:108C10000AF0BAFED3E700BFD41B0500DC760020C3
:108C20009C740020E07400205C6E00209C67002093
:108C3000286E0020F8B50368394F1B69D0F86062D0
:108C4000BB4204463ED1D0E993508542C3BFC5F52F
:108C5000FF7201328018401B002807DD621992F86C
:108C60004C20202A04BF0135C4F84C52BB4226D107
:108C7000D4F850028542C3BFC5F5FF730133C01855
:108C8000401B01280DDD6B1CB3F5007F04DB6FF486
:108C9000FF73EB18C3F30803254495F84C204F2AC3
:108CA00001D03046F8BD1C4494F84C304E2B0FD008
:108CB000462BF6D11B480AF0DBFE0026F1E72046E2
:108CC0009847DEE798472368D4F84C521B69C3E7FE
:108CD000154B1E78002EE4D0062112480AF0A8FD9C
:108CE00010480AF08DFD114B196811B10D480AF0BA
:108CF00043FD0F480AF056FD0A4801210AF0D6FD4F
:108D0000F422084820210AF0C9FD06481E210AF075
:108D1000C3FD044800210AF037FE0026C1E700BF6A
:108D2000996402009C7400209C670020286E00203B
:108D3000E0740020036870B51A69274ED0F86052BD
:108D4000B242044644D1D0E993308342C3BFC3F555
:108D5000FF730133C018C01A002809DDD4F84C3263
:108D6000E11891F84C10202904BF0133C4F84C32AB
:108D7000B2422AD1D4E993308342C3BFC3F5FF7313
:108D80000133C018C01A002809DDD4F84C0204448D
:108D900094F84C30A3F13004E2B2092A01D92846F4
:108DA00070BD313B082BFAD80C4B0D4E53F8240004
:108DB000346038B103681B6998473368094AA34295
:108DC0001060ECD10025284670BD20469047DAE7B8
:108DD000904723681A69BFE7996402004C67002036
:108DE0002C6E0020286E0020F8B50368384F1B69F0
:108DF000D0F86062D0F84C52BB42044641D1D0F862
:108E000050028542C3BFC5F5FF7201328018401B76
:108E1000002805DD621992F84C20202A08BF013590
:108E2000B5F5007FA8BFC5F30805BB4226D1D4E93C
:108E300093308342C3BFC3F5FF730133C018C01A18
:108E4000002806DD2C4494F84C30302B03D0312B15
:108E50001BD03046F8BD1F4CFF210023206AC4E917
:108E6000051320F06BF86169606A20F067F86169AA
:108E7000A06A20F063F800263046F8BD20469847E7
:108E8000DEE7984723681B69C2E7124C2568A3698F
:108E90009D4215D0FF21206A616120F04FF8616981
:108EA000606A20F04BF86169A06A20F047F82368F7
:108EB0009D4205D063689D4202D0A3689D42DAD1ED
:108EC0003223A561E3601CF06DFDE061D3E700BFD4
:108ED00099640200FC6D002070B50546D0E993202E
:108EE000904237D01F4B0024A918013291F84C1042
:108EF00003F8011BB2F5007F04F1010409DA904286
:108F0000F2D1C5F84C22184B1B783BB9D5F870024A
:108F100070BD08B10022E7E70246F2E7686880B159
:108F20000268124B16699E4216D152F8103C034457
:108F30001B7A33B152F80C3C0A49184422460EF011
:108F400011FAA86820B1036806491B6A22469847AF
:108F5000204670BD0024D6E7024A23460021B047D0
:108F6000EFE700BF386600209D6700200966020019
:108F700010B504460649C0681BF0E0FC217CE0689F
:108F80001BF014FEBDE81040024903481BF0BEBDB3
:108F90005C1A0500081C0500DC76002030B504468C
:108FA00087B00D46C06811491BF0C8FC2946E0682F
:108FB0001BF0C4FC217CE0681BF0F8FD0C4903A801
:108FC0001CF050FA294668461CF04CFA694603A882
:108FD0001CF034FC014607481BF052FD68461CF0AB
:108FE00065FB03A81CF062FB07B030BDFC1905004F
:108FF000281A0500DC760020F8B503681D4F1B69B0
:10900000BB4204460E46154632D1D0E99330834226
:10901000C3BFC3F5FF730133C018C01AB04225DBCC
:10902000002E19DD013D144F2E4423681B68BB42FE
:1090300014D1D4F84C22531C59422244C1F30801E4
:1090400092F84C20C3F3080358BF4B42C4F84C328B
:1090500005F8012FAE42E8D10020F8BD2046984720
:1090600005F8010FAE42E0D10020F6E70120F8BD7F
:109070009847D3E799640200716402002DE9F84330
:1090800004468A6808460F4600211CF03DFC236810
:109090001F4A1B69934236D1D4E99336B342C3BF0A
:1090A000C3F5FF730133F618F61A002E21DD0025F3
:1090B000DFF86090A84623681B684B451FD1D4F8A1
:1090C0004C22531C5942C1F308012244C3F3080344
:1090D00058BF4B4292F84C10C4F84C32B8F1000F14
:1090E00004D10D29384607D01CF086FB0135AE426D
:1090F000E1D10020BDE8F8834FF00108F6E72046F3
:1091000098470146EAE7204698470646CDE700BF64
:10911000996402007164020002682DE9F843DFF8E7
:10912000C4801369434504460D4658D1D0E99330B5
:109130008342C3BFC3F5FF730133C018C01A0028B0
:109140004AD02268DFF8A090136943454FF000072A
:1091500040F2FF1628D1D4E993308342C6BFF31AF8
:10916000C018C01A002823DD226813684B4529D196
:10917000D4F84C32E118013391F84C005942C1F354
:109180000801A0F1300CC3F3080358BF4B425FFA4B
:109190008CF10929C4F84C320ED8136907EB870704
:1091A00043450CEB4707D6D0204698470028DBDC28
:1091B0002F600020BDE8F8830D2818BF0220F7D0EB
:1091C000BDE8F88320469847A0F1300C5FFA8CF395
:1091D000092BF1D82268E0E70120BDE8F883984721
:1091E000ADE700BF996402007164020003682DE9D5
:1091F000F0471B69244CA34205468946174640D1D7
:10920000D0E993308342C3BFC3F5FF730133C01865
:10921000C01A484532DBB9F1000F4FF0000426DDDB
:10922000DFF868A0A04605E0302827D108F1010842
:10923000C1451CD02B681B6864005345E4B21AD1A9
:10924000D5F84C02431C5E422844C6F30806C3F31B
:10925000080358BF734290F84C00C5F84C323128CF
:10926000E2D108F101080134C145E4B2E2D13C7019
:109270000020BDE8F08728469847F0E70120BDE8C8
:10928000F0879847C5E700BF996402007164020047
:10929000F0B5036883B0DB6A04460E4698470028A1
:1092A0002DD01848184907461BF048FB2368204674
:1092B000DB6A98470A22014638461BF003FD134932
:1092C00038461BF03BFB0CE023685B699847C1B252
:1092D000384601911BF060FB336801991B683046EA
:1092E000984723682046DB6A984705462046002DAC
:1092F000EAD104481BF0A4FB284603B0F0BD4FF0B0
:10930000FF35F9E7DC760020181C0500481C050035
:109310002DE9F04F584BDFF8A4A11B7801228BB048
:109320008AF8002023B9554A117863F34701117078
:10933000534F52495348544DDFF88491DFF88481EC
:109340000DF03AFA514938461BF0F8FA50493846C0
:109350001BF0DCFB4E494B480DF036FA4D494948AD
:109360000BF0F8FD4C4947480BF0F6FD4B480DF06B
:1093700099FC012402E001340A2C1CD015F8013FAD
:10938000002BF8D0494638461BF0D8FA0A2221466D
:1093900038461BF097FC58F8240003682146DB6828
:1093A00098470646D8B93E4B58F8242043F8242065
:1093B00001340A2CE2D13B4B1B685A1E082A08D8FC
:1093C000374A52F8230020B103681B699847364B8F
:1093D00018609AF8003053BB0BB0BDE8F08F3349EA
:1093E00004A81CF03FF80A22214601A81CF0C2F88C
:1093F00001A904A81CF022FA2D491CF04BFA0A22FC
:109400008346314607A81CF01DF907A958461CF0F1
:1094100015FA014638461BF06DFA07A81CF046F90C
:1094200001A81CF043F904A81CF040F9BBE7062191
:1094300020480AF0FDF91F480AF0E2F91A4B1968B2
:1094400011B11C480AF098F91B480AF0ABF9194809
:1094500001210AF02BFAF422164820210AF01EFA04
:1094600014481E210AF018FA002112480AF08CFA5A
:109470000BB0BDE8F08F00BF446E0020306E0020BE
:10948000DC7600205C6E0020F06D00205C1C050086
:1094900004600020996702000D680200806D0020C2
:1094A0004C6700202C6E0020286E0020C41C050094
:1094B000EC1C05009C740020E07400209C670020D8
:1094C0008C1C05007467002038B503682A4D1A69A2
:1094D000AA42044648D1D0E993308342C3BFC3F5C2
:1094E000FF730133C018C01A002809DDD4F84C32CC
:1094F000E11891F84C10202904BF0133C4F84C3214
:10950000AA422ED1D4E993308342C3BFC3F5FF737F
:109510000133C018C01A00281FDDD4F84C32234490
:1095200093F84C00302812D0A0F13003DAB2092AA7
:1095300098BF184609D9A0F14103052B18D9A0F10D
:109540006103052B8CBF0D485738FFF7E1FED4F8B7
:109550005032C4F84C32002038BD0120FFF7D8FE4D
:10956000F5E720469047D6E7904723681A69BBE79E
:109570003738FFF7CDFEEAE79964020019FCFFFFD8
:109580002DE9F041374C384D384F394E20460021F7
:109590000DF090F9204604210CF036FF0022204601
:1095A00001210CF061FF204604210DF035F931490D
:1095B00020460DF0EFF81FF041FC014628461CF054
:1095C000A3F828460B211CF095F90C2103462846E8
:1095D0003B721CF08FF90D21034628467B721CF06C
:1095E00089F90E2103462846BB721CF083F906F167
:1095F0003008214C214903460C224046FB722825A5
:109600000DF0D4FB1E4940461A220DF0BBFB2A4642
:109610000021204624F06CFF2A46002119481A4DEB
:1096200024F066FF194A1A4B1A48A26078361A4A83
:109630001A496660E5601A4E1A4D206162611A4847
:10964000A66100221A600126E561206240F2011540
:1096500002201A815A601A725E705D800860BDE84F
:10966000F08100BF5C6E0020386E00200460002096
:10967000886A0020316E002074670020743D050068
:10968000243E05004C670020A0680020DC69002013
:10969000F06D0020706A0020946C00202C6E002079
:1096A000686D0020746B0020E86B002010B4B84A8D
:1096B00013786FF34703137001784478A1F13003F6
:1096C000DBB2092B40F2BE80A1F14103052B40F231
:1096D000B780A1F16103052B00F2508157390901D0
:1096E000CBB2A4F13001C9B2092900F2B3800B4416
:1096F000DBB293718178C478A1F13003DBB2092B1E
:1097000040F2B980A1F14103052B40F2B280A1F1F2
:109710006103052B00F2368157390901CBB2A4F160
:109720003001C9B2092900F2AE800B44DBB253719B
:1097300001794479A1F13003DBB2092B40F2B38007
:10974000A1F14103052B40F2AC80A1F16103052B8F
:1097500000F21C8157390901CBB2A4F13001C9B222
:10976000092900F2A8800B44DBB213718179C47916
:10977000A1F13003DBB2092B40F2AD80A1F141032E
:10978000052B40F2A680A1F16103052B00F2F480C5
:1097900057390901CBB2A4F13001C9B2092900F24D
:1097A000A2800B44DBB2D370017A447AA1F130037A
:1097B000DBB2092B40F2A780A1F14103052B40F257
:1097C000A080A1F16103052B00F2DE805739090169
:1097D000CBB2A4F13001C9B2092900F29C800B443C
:1097E000DBB2817A9370A1F13003DBB2092BC07A2E
:1097F00040F2BB80A1F14103052B40F29D80A1F115
:109800006103052B00F2BC8057390901CBB2A0F1EE
:109810003001C9B2092940F29980A0F1410105291E
:1098200040F2A680A0F16101052902D8573803440F
:10983000DBB25849537001235DF8044B0B7070473D
:10984000A1F137031B01DBB2A4F13001C9B2092930
:109850007FF64DAFA4F14101052940F28380A4F1C8
:10986000610105293FF645AFA4F157010B44DBB276
:109870003FE7A1F137031B01DBB2A4F13001C9B20C
:1098800009297FF652AFA4F14101052967D9A4F156
:10989000610105293FF64BAFA4F157010B44DBB240
:1098A00045E7A1F137031B01DBB2A4F13001C9B2D6
:1098B00009297FF658AFA4F14101052939D9A4F14E
:1098C000610105293FF651AFA4F157010B44DBB20A
:1098D0004BE7A1F137031B01DBB2A4F13001C9B2A0
:1098E00009297FF65EAFA4F14101052931D9A4F120
:1098F000610105293FF657AFA4F157010B44DBB2D4
:1099000051E7A1F137031B01DBB2A4F13001C9B269
:1099100009297FF664AFA4F1410105291CD9A4F1FE
:10992000610105293FF65DAFA4F157010B44DBB29D
:1099300057E7A4F1370116E7A1F13703A0F1300191
:10994000C9B21B010929DBB23FF667AF0B44DBB29A
:109950006FE7A4F1370124E7A4F137013FE7A4F151
:109960003701E2E6A4F13701C1E61B01DBB24EE7A5
:1099700037380344DBB25CE70023AEE7002363E73C
:10998000002344E7002378E70023BEE700238CE7A9
:10999000306E0020446E002030B5834B1B7885B0BC
:1099A0000446002B40F0F1800368804A1B69934213
:1099B00040F0F780D0E993308342C3BFC3F5FF7313
:1099C0000133C018C01A0B2808DCD4F86852D4F848
:1099D0005032C4F84C32284605B030BDD4F84C02A1
:1099E0002218431C92F84C20A2F13001092912D907
:1099F00022F02001413905290DD9D4F86C52C4F860
:109A00004C326846FFF752FED4F85032C4F84C325C
:109A1000284605B030BD23448DF8002093F84C2033
:109A2000A2F13001092900F1020304D922F020013A
:109A300041390529E1D823448DF8012093F84C20C1
:109A4000A2F13001092900F1030304D922F0200119
:109A500041390529D1D823448DF8022093F84C20B0
:109A6000A2F13001092900F1040304D922F02001F8
:109A700041390529C1D823448DF8032093F84C209F
:109A8000A2F13001092900F1050304D922F02001D7
:109A900041390529B1D823448DF8042093F84C208E
:109AA000A2F13001092900F1060304D922F02001B6
:109AB00041390529A1D823448DF8052093F84C207D
:109AC000A2F13001092900F1070304D922F0200195
:109AD0004139052991D823448DF8062093F84C206C
:109AE000A2F13001092900F1080304D922F0200174
:109AF0004139052981D823448DF8072093F84C205B
:109B0000A2F13001092900F1090305D922F0200151
:109B1000413905293FF671AF23448DF8082093F8A9
:109B20004C20A2F13001092900F10A0305D922F0E5
:109B30002001413905293FF660AF23448DF8092003
:109B400093F84C20A2F13001092900F10B0305D94B
:109B500022F02001413905293FF64FAF23448DF80B
:109B60000A2093F84C20A2F13001092900F10C03DE
:109B700005D922F02001413905293FF63EAF8DF885
:109B80000B20C4F84C3200253BE7094909481AF07C
:109B9000BDFF0025D4F85032C4F84C32284605B039
:109BA00030BD98470FE700BF9C6700209964020012
:109BB000041D0500DC7600202DE9F041D0F84C3280
:109BC000C11886B091F84C20422A04461AD15A1C7A
:109BD000B2F5007F80F24081024492F84C20452A81
:109BE00010D1B3F5FF7F03F1020240F0E98790F84E
:109BF0004C20472A06D190F84D20492A08BF02225E
:109C000000F0FD87D4F8586291F84C20422A7BD1AD
:109C10005A1CB2F5007F80F2A483224492F84C20B3
:109C2000412A40F0CC80B3F5FF7F03F1020240F0FF
:109C30009E8394F84C20552A40F0C1800122A01840
:109C400090F84C00442840F0BA800132B2F5007F11
:109C500040F09E8394F84C20522A40F0B0800122BC
:109C6000A01890F84C00412840F0A9800132B2F5CC
:109C7000007F40F09E8394F84C20542A40F09F804F
:109C80000122A01890F84C00452840F0988001323D
:109C9000B2F5007F40F09E8394F84C203D2A40F0BE
:109CA0008E8009335A42C2F30802C3F3080358BF37
:109CB0005342C4F84C328A49E068D4F864621AF01E
:109CC0003DFE8849E0681AF039FE217CE0681AF010
:109CD0006DFF854968461BF0C5FB824903A81BF050
:109CE000C1FB03A968461BF0A9FD01467F481AF095
:109CF000C7FE03A81BF0DAFC68461BF0D7FCD4F8BB
:109D00005032C4F84C32E11891F84C204D2A56D10B
:109D10005A1CB2F5007F80F20D83224492F84C2049
:109D2000412A40F01681B3F5FF7F03F1020240F0B3
:109D3000078394F84C20432A40F00B8101222244EF
:109D400092F84C203D2A40F00481043368495A427D
:109D5000C2F308020978C3F3080358BF5342C4F89A
:109D60004C32002900F0E484624960481AF0CEFECB
:109D70005B49E0681AF0E2FD5F49E0681AF0DEFD39
:109D8000217CE0681AF012FF574968461BF06AFB15
:109D9000594903A81BF066FB03A968461BF04EFD5A
:109DA000014652481AF06CFE03A81BF07FFC68467F
:109DB0001BF07CFCD4F85032C4F84C32E11891F816
:109DC0004C204E2A40F0C5805A1CB2F5007F80F22C
:109DD000BD83224492F84C20412A40F02981B3F5FA
:109DE000FF7F03F1020240F0B78394F84C204D2A24
:109DF00040F01E810122A01890F84C00452840F048
:109E000017810132B2F5007F40F0B78394F84C20FF
:109E10003D2A40F00D8105335A42C2F30802C3F3D4
:109E2000080358BF534235493048C4F84C321AF041
:109E300085FDD4E99356B54268D02C4F6319384656
:109E400093F84C1001351AF0A7FDB5F5007F5BDBE8
:109E5000002E5BD00025F1E790F84C20452A7FF4D6
:109E6000D1AE90F84D20472A08BF02227FF4CAAE37
:109E7000A01890F84C0049287FF4C4AE0132B2F526
:109E8000007F40F0BC8694F84C204E2A7FF4BAAE96
:109E900094F84D203D2A7FF4B5AE06335A42C2F302
:109EA0000802C3F3080358BF5342C4F84C3220469B
:109EB000FFF70AFB0646002840F05E861049E0687E
:109EC0001AF03CFD217CE0681AF070FE0D4907484D
:109ED0001AF01CFED4F85032C4F84C32E11893E664
:109EE000FC1905006C1D0500281A0500DC76002011
:109EF0009C670020901D0500E41D0500E41F05007F
:109F00005C1A0500081C0500AE4297D1DD481AF026
:109F100097FD2046FEF7F8FDDB490646E0681AF09B
:109F20000DFD217CE0681AF041FED849D5481AF0B1
:109F3000EDFD05201BF042FD1825E06810B1217CE5
:109F40001AF02AFD013DF8D1D4F85032C4F84C3251
:109F5000E11891F84C20522A6AD15A1CB2F5007FC0
:109F600080F21283224492F84C20462A7FD1B3F526
:109F7000FF7F03F1020240F00D8394F84C20532A36
:109F800075D10122A11891F84C1054296FD10132DA
:109F9000B2F5007F40F00F8394F84C20412A66D13F
:109FA0000122A11891F84C10542960D10132B2F568
:109FB000007F40F0118394F84C20452A57D10122AC
:109FC000224492F84C203D2A51D108335A42C2F320
:109FD0000802C3F3080358BF5342C4F84C32AC49DB
:109FE000E068D4F864621AF0A9FCAA49E0681AF0A3
:109FF000A5FC217CE0681AF0D9FDA74968461BF052
:10A0000031FAA44903A81BF02DFA03A968461BF0F6
:10A0100015FC01469B481AF033FD03A81BF046FBD4
:10A0200068461BF043FBD4F85032C4F84C32E118B8
:10A0300091F84C20412A1AD15A1CB2F5007F80F2C7
:10A04000E382224492F84C20442A10D1B3F5FF7FDA
:10A0500003F1020240F0B68494F84C20562A06D14F
:10A0600094F84D20452A08BF022200F006848B494F
:10A070001A4601F11207A51811F8010B95F84C507A
:10A08000854202F1010220D1B2F5007FA8BF002273
:10A09000B942F0D112335A42C2F30802C3F30803A3
:10A0A00058BF5342C4F84C322046FEF743FE0646E2
:10A0B000002800F07B837A49D4F860622046FEF7DE
:10A0C0006DFFD4F85032C4F84C32E11891F84C20AE
:10A0D000452A40F000815A1CB2F5007F80F2818150
:10A0E000224492F84C204E2A40F01481B3F5FF7FB1
:10A0F00003F1020240F07A8194F84C20412A40F0AA
:10A1000009810122A11891F84C10422940F00281E6
:10A110000132B2F5007F40F0788194F84C204C2A4F
:10A1200040F0F8800122A11891F84C10452940F028
:10A13000F1800132B2F5007F40F0788194F84C2034
:10A140005F2A40F0E7800122A11891F84C105329B2
:10A1500040F0E0800132B2F5007F40F0788194F861
:10A160004C20452A40F0D6800122A11891F84C10CD
:10A17000522940F0CF800132B2F5007F40F0788163
:10A1800094F84C20562A40F0C5800122A11891F87D
:10A190004C10492940F0BE800132B2F5007F40F0FA
:10A1A000788194F84C20432A40F0B4800122A11811
:10A1B00091F84C10452940F0AD800132B2F5007F96
:10A1C00040F0788194F84C205F2A40F0A38001226F
:10A1D000A11891F84C10492940F09C800132B2F549
:10A1E000007F40F0788194F84C20442A40F092801F
:10A1F00022682C4D116811335A42C2F30802C3F38E
:10A20000080358BF5342A942C4F84C3240F00F83B0
:10A210005A1C51422344C1F30801C2F3080258BF3B
:10A220004A4293F84C00C4F84C222F283ED9A0F1A2
:10A230003007FBB2092B0DD9A0F14103DBB2052B8E
:10A2400040F2F882A0F16103DBB2052B8CBF164F00
:10A25000A0F1570723681B68AB4240F0EE82D4F8A8
:10A260004C22531C59422244C1F30801C3F3080392
:10A2700058BF4B4292F84C00C4F84C323D2800F0D5
:10A28000A28213E0DC7600205C1A0500081C0500A1
:10A29000FC19050024200500281A05005C20050093
:10A2A000702005007164020019FCFFFF002E40F0D1
:10A2B000B782D249E0681AF041FB217CE0681AF0CD
:10A2C00075FCCF49CF481AF021FC0026D4F8503253
:10A2D000C4F84C32E11891F84C204C2A1AD15A1C7F
:10A2E000B2F5007F80F2FE80224492F84C20452A8D
:10A2F00010D1B3F5FF7F03F1020240F0B08394F870
:10A300004C20442A06D194F84D204D2A08BF022241
:10A3100000F0D283002E40F0C781D4F85832B34207
:10A3200000F0E381D4F85032C4F84C32304606B025
:10A33000BDE8F08194F84C20412A7FF40AAE012256
:10A34000A01890F84C0043287FF403AE0132B2F518
:10A35000007F7FF4F4AC94F84C203D2A3FF4F5AC38
:10A36000F7E594F84C20412A7FF429AD0122A0188A
:10A3700090F84C0055287FF422AD0132B2F5007FF1
:10A380007FF45DAC94F84C20442A7FF418AD012290
:10A39000A01890F84C0052287FF411AD0132B2F5AC
:10A3A000007F7FF45DAC94F84C20412A7FF407AD28
:10A3B0000122A01890F84C0054287FF400AD01321F
:10A3C000B2F5007F7FF45DAC94F84C20452A7FF411
:10A3D000F6AC0122224492F84C203D2A3FF461ACB5
:10A3E000EDE494F84C204E2A94D10122A11891F862
:10A3F0004C1041298ED10132B2F5007F7FF482AE3C
:10A4000094F84C20422A85D10122A11891F84C10D1
:10A410004C297FF47FAF0132B2F5007F7FF483AE29
:10A4200094F84C20452A7FF475AF0122A11891F8C9
:10A430004C105F297FF46EAF0132B2F5007F7FF4DC
:10A4400083AE94F84C20532A7FF464AF0122A11804
:10A4500091F84C1045297FF45DAF0132B2F5007FD1
:10A460007FF483AE94F84C20522A7FF453AF01223C
:10A47000A11891F84C1056297FF44CAF0132B2F577
:10A48000007F7FF483AE94F84C20492A7FF442AFDA
:10A490000122A11891F84C1043297FF43BAF0132FF
:10A4A000B2F5007F7FF483AE94F84C20452A7FF408
:10A4B00031AF0122A11891F84C105F297FF42AAF27
:10A4C0000132B2F5007F7FF483AE94F84C20492A24
:10A4D0007FF420AF0122224492F84C20442A3FF41A
:10A4E00087AE17E794F84C20452A7FF413AF94F811
:10A4F0004D20442A08BF02227FF40CAFA11891F826
:10A500004C104D297FF406AF0132B2F5007F40F0C8
:10A51000D38294F84C204F2A7FF4FCAE94F84D205F
:10A52000442A08BF02227FF4F5AEA11891F84C101E
:10A5300045297FF4EFAE0132B2F5007F40F0D282C0
:10A5400094F84C203D2A00F0D382E3E694F84C20A6
:10A55000412A7FF46DAD0122A01890F84C004D28DF
:10A560007FF466AD0132B2F5007F7FF444AC94F81D
:10A570004C20452A7FF45CAD0122224492F84C2005
:10A580003D2A3FF448AC53E594F84C20462A7FF42A
:10A590006EAD0122A11891F84C1053297FF467ADDC
:10A5A0000132B2F5007F7FF4EDAC94F84C20542AD0
:10A5B0007FF45DAD0122A11891F84C1041297FF480
:10A5C00056AD0132B2F5007F7FF4EBAC94F84C202D
:10A5D000542A7FF44CAD0122A11891F84C10452962
:10A5E0007FF445AD0132B2F5007F7FF4E9AC94F819
:10A5F0004C203D2A3FF4E9AC39E500BF5C1A050068
:10A60000081C0500DC76002094F84C20442A7FF4D6
:10A610002EAD94F84D20562A08BF02227FF427ADB4
:10A62000A11891F84C1045297FF421AD0132B2F503
:10A63000007F40F0228194F84C20522A7FF417AD1D
:10A6400094F84D20542A08BF02227FF410ADA118BF
:10A6500091F84C1049297FF40AAD0132B2F5007F20
:10A6600040F0228194F84C20532A7FF400AD94F8F6
:10A670004D20492A08BF02227FF4F9ACA11891F8B5
:10A680004C104E297FF4F3AC0132B2F5007F40F05C
:10A69000228194F84C20472A7FF4E9AC94F84D20AD
:10A6A0003D2A7FF4E4AC26E1B549B6481AF046F9F4
:10A6B000D4E99357BD423FF430AEDFF8C882631946
:10A6C000404693F84C1001351AF066F9B5F5007F55
:10A6D00004DB002F3FF421AE0025F0E7AF42EED1BE
:10A6E000D4F85832B3427FF41DAEA749E0681AF09F
:10A6F00025F9A649E0681AF021F9217CE0681AF0F2
:10A7000055FAA34968461AF0ADFEA04903A81AF00D
:10A71000A9FE03A968461BF091F8014699481AF072
:10A72000AFF903A81AF0C2FF68461AF0BFFFF9E5B7
:10A73000984994481AF002F9D4E99356B5420FD0DB
:10A74000904F6319384693F84C1001351AF024F9EC
:10A75000B5F5007F02DB1EB10025F2E7AE42F0D175
:10A7600088481AF06DF92046FFF716F906460028CA
:10A7700049D0D4F8683283426BD0D4F86C3283422B
:10A780005ED085492046FEF709FC84497D481AF0D1
:10A79000BDF905201BF012F91825E06810B1217CE5
:10A7A0001AF0FAF8013DF8D1FFF704BB7C49E068E4
:10A7B0001AF0C4F8217CE0681AF0F8F97949714878
:10A7C0001AF0A4F97DE423681B68AB4252D1D4F897
:10A7D0004C22531C59422244C1F30801C3F308031D
:10A7E00058BF4B4292F84C00C4F84C32542839D030
:10A7F00046287FF45BAD7B1E082B3FF65AAD6A4BB3
:10A800000022DA5555E56649E0681AF097F8217C90
:10A81000E0681AF0CBF963495A481AF077F9B8E7BB
:10A820006249D4F860622046FEF7B8FB4EE5204648
:10A830008847FAE4A0F137070CE5204698471DE564
:10A8400020465B49FEF7AAFB5A494E481AF05EF9CA
:10A850009FE720465849FEF7A1FB584949481AF09E
:10A8600055F996E77B1E082B3FF620AD4E4B012293
:10A87000DA551EE520469847B8E7A11891F84C1024
:10A8800052297FF4F4AB0132B2F5007F40F0B18081
:10A8900094F84C20542A7FF4EAAB94F84D20492ACE
:10A8A00008BF02227FF4E3ABA11891F84C105329A2
:10A8B0007FF4DDAB0132B2F5007F40F0B18094F857
:10A8C0004C20492A7FF4D3AB94F84D204E2A08BF80
:10A8D00002227FF4CCABA11891F84C1047297FF4E9
:10A8E000C6AB0132B2F5007F40F0B18094F84C2045
:10A8F0003D2A7FF4BCAB0C335A42C2F30802C3F3C7
:10A90000080358BF5342C4F84C322046FEF792F970
:10A91000064688B92249E0681AF010F8217CE06800
:10A920001AF044F91F4917481AF0F0F8D4F85032D9
:10A93000C4F84C32FFF79BBB1349E06819F0FEFFE7
:10A940001F49E06819F0FAFF217CE0681AF02EF93F
:10A950000F4968461AF086FD194903A81AF082FDCE
:10A9600003A968461AF06AFF014606481AF088F8FB
:10A9700003A81AF09BFE68461AF098FED6E700BFBF
:10A98000C4200500DC760020FC190500FC20050031
:10A99000281A0500181E0500701F0500941F0500E9
:10A9A0005C1A0500081C0500F06D002090200500D1
:10A9B000E41E0500101F0500581E0500841E05003A
:10A9C00044200500224492F84C20562A7FF44FABD5
:10A9D000DA1CB2F5007F7FF423AE94F84C20452AB0
:10A9E0007FF445AB94F84D20522A08BF02227FF431
:10A9F0003EABA11891F84C1054297FF438AB0132CA
:10AA0000B2F5007F7FF423AE94F84C20492A7FF4FE
:10AA10002EAB94F84D20532A08BF02227FF427ABB7
:10AA2000A11891F84C1049297FF421AB0132B2F5FD
:10AA3000007F7FF423AE94F84C204E2A7FF417ABAE
:10AA400094F84D20472A08BF02227FF410AB22441D
:10AA500092F84C203D2A3FF44EAFFFF708BB22444A
:10AA600092F84C20442A7FF455ACDA1CB2F5007FF2
:10AA70007FF444AD94F84C204D2A7FF44BAC94F80D
:10AA80004D204F2A08BF02227FF444ACA11891F850
:10AA90004C1044297FF43EAC0132B2F5007F7FF4C4
:10AAA00044AD94F84C20452A7FF434AC94F84D2002
:10AAB0003D2A7FF42FAC1BE0A11891F84C104F29D0
:10AAC0007FF428AC0132B2F5007FDFD194F84C203E
:10AAD000442A7FF41FAC94F84D20452A08BF022277
:10AAE0007FF418AC224492F84C203D2A7FF412AC3B
:10AAF00008335A42C2F30802C3F3080358BF534253
:10AB0000C4F84C322046FEF76FF9064688B944492E
:10AB1000E06819F013FF217CE0681AF047F841491A
:10AB2000414819F0F3FFD4F85032C4F84C32FFF723
:10AB3000F1BB3E49E06819F001FF3D49E06819F0BA
:10AB4000FDFE217CE0681AF031F83A4968461AF0B7
:10AB500089FC374903A81AF085FC03A968461AF056
:10AB60006DFE0146304819F08BFF03A81AF09EFDD8
:10AB700068461AF09BFDD6E72C49E06819F0DEFE26
:10AB80002D49E06819F0DAFE217CE0681AF00EF831
:10AB9000284968461AF066FC274903A81AF062FCA7
:10ABA00003A968461AF04AFE01461F4819F068FFDB
:10ABB00003A81AF07BFD68461AF078FDFFF78AB902
:10ABC000024492F84C20472A7FF41CA8DA1CB2F504
:10ABD000007F7FF44DA990F84C20492A7FF412A8F9
:10ABE00090F84D204E2A08BF02227FF40BA8224481
:10ABF00092F84C203D2A3FF450A9FFF703B8A01863
:10AC000090F84C004E287EF4FDAF0132B2F5007F83
:10AC1000EDD194F84C203D2A3FF43FA9FEF7F2BF56
:10AC20005C1A0500081C0500DC760020FC190500F4
:10AC3000B0200500281A0500581D050070B41469DD
:10AC400001EBD173B4EB630F3AD1012935DD5D100F
:10AC500000EB4504511E13E0A6F14100052835D94B
:10AC6000A6F16100052802D8573E3344DBB2881CA8
:10AC7000801A85424B70A4F1020401F101011CDD30
:10AC800014F8020C14F8016CA0F13003DBB2092BAC
:10AC900019D9A0F14103052B1CD9A0F16103052BA3
:10ACA0009DBF57380001C3B20023A6F13000C0B2E7
:10ACB0000928D1D80344DBB2D9E7002070BC704723
:10ACC000012070BC70471B01DBB2EEE7373E334416
:10ACD000DBB2CCE737380001C3B2E6E72DE9F04735
:10ACE0004F4D0F46944606460FCD86B001AC0FC4BB
:10ACF0002B6823606146384601AAFFF79FFF08BB17
:10AD0000072E044611D0082E47D1464D464A2B68DF
:10AD10001B6993420FD1D5E90F239B1A1F2B16D91C
:10AD20000324204606B0BDE8F087404D3E4A2B681C
:10AD30001B699342EFD001A9284698470446002892
:10AD4000EFD0EDE70124204606B0BDE8F0872420CF
:10AD50001DF086FA0646002341F601221027C6E9B7
:10AD60000033C6E9023332493761B28218301AF033
:10AD700079FB0DF1040CBCE80F0037460FC7D5E98D
:10AD80001023DCF8001039609A420BD042F8046BB3
:10AD900020462A6406B0BDE8F0870224204606B0AB
:10ADA000BDE8F087D5F83C906FF06048A2EB09074A
:10ADB000B8EBA70F4FEAA70317D0012B1A4638BFED
:10ADC00001229B1829D2EBB998469A46002F4AF8DF
:10ADD00007600BDC3A1D0AEB0206B9F1000F0DD13A
:10ADE000C5E90FA6C5F844809BE7FEE73A46494609
:10ADF000504623F063FB3A1D0AEB020648461DF05D
:10AE000031FAEDE7434528BF43464FEA8308404601
:10AE10001DF026FA82468044D8E7DFF81880F6E76E
:10AE2000E43C05008C6B0020E96F0200186B0020E9
:10AE300004490500FCFFFF7FF0B58BB0AE49AF4C75
:10AE400001A81AF00FFBAE49AE4819F05FFEAE49FB
:10AE5000AC4819F073FDAD49AA4819F057FEAC494A
:10AE6000A84819F053FEAB49A64819F067FD0A221D
:10AE70002178A44819F026FFA749A24819F05EFDE1
:10AE8000A64BA04819780A2219F01CFFA4499D4836
:10AE900019F03CFEA3499B4819F038FE2678002E95
:10AEA00040F0C282A0499748A04DA14C19F02EFE57
:10AEB000A049944819F02AFE9F4907A81AF0D2FA2F
:10AEC0006F683B68DB69A34240F0E782039A314632
:10AED00001A81AF019FD07F10C0101A81AF03EFCB7
:10AEE00001A904A81AF0D8FA04A907A81AF0A6FC28
:10AEF0000146844819F0C4FD04A81AF0D7FB07A83E
:10AF00001AF0D4FB8D4907A81AF0ACFA6E683368C2
:10AF1000DB69A34240F00C83039A002101A81AF0D8
:10AF2000F3FC06F10C0101A81AF018FC01A904A811
:10AF30001AF0B2FA04A907A81AF080FC0146714879
:10AF400019F09EFD04A81AF0B1FB07A81AF0AEFB99
:10AF50007B4907A81AF086FAAE683368DB69A3421A
:10AF600040F0E182039A002101A81AF0CDFC06F11D
:10AF70000C0101A81AF0F2FB01A904A81AF08CFA3E
:10AF800004A907A81AF05AFC01465E4819F078FD9A
:10AF900004A81AF08BFB07A81AF088FB694907A8D8
:10AFA0001AF060FAAE683368DB69A34240F0B682FB
:10AFB000039A002101A81AF0A7FC06F10C0101A8D0
:10AFC0001AF0CCFB01A904A81AF066FA04A907A894
:10AFD0001AF034FC01464B4819F052FD04A81AF04F
:10AFE00065FB07A81AF062FB574907A81AF03AFA5E
:10AFF000EE683368DB69A34240F08B82039A00213C
:10B0000001A81AF081FC06F10C0101A81AF0A6FBB8
:10B0100001A904A81AF040FA04A907A81AF00EFC26
:10B020000146384819F02CFD04A81AF03FFB07A888
:10B030001AF03CFB454907A81AF014FAEE68336889
:10B04000DB69A34240F06082039A002101A81AF054
:10B050005BFC06F10C0101A81AF080FB01A904A811
:10B060001AF01AFA04A907A81AF0E8FB01462548C5
:10B0700019F006FD04A81AF019FB07A81AF016FB30
:10B08000334907A81AF0EEF92E693368DB69A34249
:10B0900040F03582039A002101A81AF035FC06F130
:10B0A0000C0101A81AF05AFB01A904A81AF0F4F93E
:10B0B00004A907A81AF0C2FB0146124819F0E0FCE7
:10B0C00004A81AF0F3FA07A81AF0F0FA214907A821
:10B0D0001AF0C8F92E693368DB69A34240F00A828E
:10B0E000039A002101A81AF00FFC06F10C0101A837
:10B0F0001AF034FB01A92FE0044905009C670020E9
:10B1000014210500DC76002030210500243E0500D6
:10B110004821050054210500642105009D67002099
:10B1200078210500A0210500D021050074670020CA
:10B1300079670200E4210500182205003C22050081
:10B140007022050094220500C8220500EC220500AB
:10B15000202305004423050004A81AF09DF904A942
:10B1600007A81AF06BFB0146A34819F089FC04A854
:10B170001AF09CFA07A81AF099FAA04907A81AF041
:10B1800071F96E693368DB69A34240F0AE81039ABE
:10B19000002101A81AF0B8FB06F10C0101A81AF071
:10B1A000DDFA01A904A81AF077F904A907A81AF092
:10B1B00045FB0146904819F063FC04A81AF076FAA2
:10B1C00007A81AF073FA8E4907A81AF04BF96E69AE
:10B1D0003368DB69A34240F08381039A002101A810
:10B1E0001AF092FB06F10C0101A81AF0B7FA01A9B6
:10B1F00004A81AF051F904A907A81AF01FFB014688
:10B200007D4819F03DFC04A81AF050FA07A81AF07E
:10B210004DFA7C4907A81AF025F9AE693368DB6955
:10B22000A34240F05881039A002101A81AF06CFB58
:10B2300006F10C0101A81AF091FA01A904A81AF06C
:10B240002BF904A907A81AF0F9FA01466A4819F07F
:10B2500017FC04A81AF02AFA07A81AF027FA6A4974
:10B2600007A81AF0FFF8AE693368DB69A34240F023
:10B270002D81039A002101A81AF046FB06F10C016A
:10B2800001A81AF06BFA01A904A81AF005F904A99B
:10B2900007A81AF0D3FA0146574819F0F1FB04A8A1
:10B2A0001AF004FA07A81AF001FA584907A81AF088
:10B2B000D9F8EE693368DB69A34240F00281039A52
:10B2C000002101A81AF020FB06F10C0101A81AF0D8
:10B2D00045FA01A904A81AF0DFF804A907A81AF092
:10B2E000ADFA4B491AF0D6FA0146434819F0C8FBAB
:10B2F00004A81AF0DBF907A81AF0D8F9454907A8FD
:10B300001AF0B0F8EE693368DB69A34240F0D480EC
:10B31000039A002101A81AF0F7FA06F10C0101A81E
:10B320001AF01CFA01A904A81AF0B6F804A907A893
:10B330001AF084FA0146304819F0A2FB04A81AF06A
:10B34000B5F907A81AF0B2F9334907A81AF08AF834
:10B350002E6A3368DB69A34240F0A980039A00217A
:10B3600001A81AF0D1FA06F10C0101A81AF0F6F9B9
:10B3700001A904A81AF090F804A907A81AF05EFA27
:10B3800026491AF087FA01461B4819F079FB04A8F0
:10B390001AF08CF907A81AF089F9214907A81AF0C0
:10B3A00061F82D6A2B68DB69A3427BD1039A0021E7
:10B3B00001A81AF0A9FA05F10C0101A81AF0CEF9BA
:10B3C00001A904A81AF068F804A907A81AF036FA27
:10B3D0000146094819F054FB04A81AF067F907A8B8
:10B3E0001AF064F90F49044819F090FB01A81AF00B
:10B3F0005DF90BB0F0BD00BFDC76002078230500BE
:10B400009C230500D0230500F42305002824050013
:10B410004C2405006424050098240500BC24050084
:10B42000D4240500082505004449454819F06EFB61
:10B430004449434819F06AFB4349414819F066FB07
:10B4400042493F4819F062FB41493D4819F05EFB13
:10B4500040493B4819F05AFB3F49394819F056FB1F
:10B460003E49374819F052FB3D49354819F04EFB2B
:10B470003C49334819F04AFB3B49314819F046FB37
:10B480003A492F4819F042FB39492D4819F03EFB43
:10B4900001A81AF00BF90BB0F0BD01A93846984786
:10B4A00001461EE501A928469847014689E701A9FA
:10B4B0003046984701465CE701A930469847014667
:10B4C00031E701A930469847014603E701A9304614
:10B4D00098470146D8E601A9304698470146ADE6AF
:10B4E00001A930469847014682E601A930469847AF
:10B4F000014657E601A93046984701462CE601A9C6
:10B50000304698470146D0E501A9304698470146A4
:10B51000A5E501A93046984701467AE501A93046DC
:10B52000984701464FE501A930469847014624E572
:10B5300001A9304698470146F9E400BF3C250500C3
:10B54000DC760020502505008C250500C42505006B
:10B55000FC250500342605007C260500B4260500E0
:10B56000FC2605004427050094270500CC2705008C
:10B5700004280500F8B5454E3368834285BF002393
:10B580003360C31A0346642B04463DD9404B1B78F5
:10B59000002B3AD03F4DAB69002B26DDAF68BB4294
:10B5A0004AD12A681F46EB699C423CBF0023EB61ED
:10B5B000974205D0AA68974202D06A68974222D182
:10B5C000EA6813449C421ED9D5E904311944FE2986
:10B5D000EC6154DC7F29DDBF08237F21C5E90431FC
:10B5E000696138461DF0AAFCAB6963B9FF21286A7E
:10B5F00069611DF0A3FC6969686A1DF09FFC6969B7
:10B60000A86A1DF09BFC3460F8BD234B214D1B78CC
:10B610003BB9AB69002BE8DD2F68BB420CD13A4641
:10B62000C1E71E4808F03EF90028F2D0AB69002BB4
:10B63000DBDD6F68BB42B4D0FF21286A69611DF071
:10B640007DFC6969686A1DF079FC6969A86A1DF06A
:10B6500075FC2B689F420BD06B689F4208D0AB688B
:10B660009F4205D0AB69002BBFDD2A681F469AE7D1
:10B670003223AF61EB601AF095F9E861F2E76FF001
:10B680000703FF21C5E90431ABE700BF486700208D
:10B690009D670020FC6D00209C6700209C740020AA
:10B6A0002DE9F84FD0E900850646A5EB08046FF0B8
:10B6B0006040B0EBA40F23D0A310012B1C4638BF71
:10B6C00001241C190F469246A1EB08093ED29CBBEF
:10B6D000A346DAF800304BF80930B9F1000F10DC5E
:10B6E000ED1B09F10409002D0BEB09031DDC1D44C2
:10B6F000B8F1000F11D1C6E900B5B460BDE8F88F0C
:10B70000FEE74A4641465846ED1B22F0D7FE09F1B6
:10B710000403002D5B4408DC1D4440461CF0A2FDE0
:10B72000C6E900B5B460BDE8F88F184639462A4628
:10B7300022F0B6FE0346DAE7844228BF0446A4009E
:10B7400020461CF08DFD83460444C2E7004CF7E719
:10B75000FCFFFF7F2DE9F041D0E901239A4282B03E
:10B76000054606D00B6842F8043B426002B0BDE8D3
:10B77000F08107686FF06046D41BB6EBA40F4FEA68
:10B78000A40214D0012A134638BF01239B1826D2E5
:10B79000CBB91E4698460B6848F80430002C07DCED
:10B7A000043444445FB9C5E90084AE60DEE7FEE7D7
:10B7B00022463946404622F081FE0434444438464D
:10B7C0001CF050FDEFE7B34228BF33469E003046E1
:10B7D00001911CF045FD019980460644DBE7014ECE
:10B7E000F5E700BFFCFFFF7F90F85830002B00F01A
:10B7F000828003682DE9F04353F80C3C0446406D09
:10B8000023440268596001251D7287B093689847E8
:10B81000D4E90F138B4247D0DFF8E89004F1180801
:10B820000025D4E912239B1A1C2B02A85FDC51F8D7
:10B83000256031460AF0D0FA58201CF011FD02A90B
:10B84000074608F015FD02A801970AF0A5FA01982D
:10B85000002852D0717D08F087FD11221146019811
:10B8600008F09AFD317D019808F084FDB1690198D6
:10B8700008F0B4FD019803689B689847737D1B0727
:10B8800016D4D4E9131291420B461BD0019A43F807
:10B89000042BD4E90F12A561E364521A48F8045F3F
:10B8A0000135B5EBA20FBCD3002007B0BDE8F08393
:10B8B00001224946019808F075FDD4E9131291421E
:10B8C0000B46E3D101AA04F14800FFF7E9FED4E9F1
:10B8D0000F13A5615B1A48F8045F0135B5EBA30FA0
:10B8E000E2D2D4E912239B1A1C2B02A89FDD02206E
:10B8F00007B0BDE8F08301207047032007B0BDE822
:10B90000F08300BFF5300300D0F800C0ACF1140C98
:10B91000DCF800C06044FFF767BF00BF026852F860
:10B92000103C2DE9F047034484B0596052F80C5C98
:10B930000446012018722544211D68460AF04CFA7D
:10B94000694628460AF014FA68460AF025FA236880
:10B9500076499D68626A8D4240F0E38053F80C3C62
:10B960009168234417461963D2E90310C3E90D1007
:10B97000107DD18AD98783F83C00D2E90601156A87
:10B980009D64C3E910011646154657F8261F36F880
:10B990002F8F55F8320FB2F824E0D7F804C092F890
:10B9A0002E90A3F84CE096F802E0C3F84E106968B8
:10B9B000C3F852C002F13C0C83F85690A3F85780AC
:10B9C00083F859E0C3F85A00C3F85E109CE80300FE
:10B9D00003F1640E8EE8030092F8441083F86C10B3
:10B9E000D2E91280D2E914E1C3E91C80D967C3F817
:10B9F00078E09168C3F88810D2E90310C3E92310F6
:10BA0000107DD18AA3F8961083F89400D2E9060E2F
:10BA1000116AC3F8A010C3E9260E918CA3F8A410F4
:10BA20003968D7F8049092F82E80B6F800E096F8BE
:10BA300002A02F686E68C3F8A6109CE8030003F10B
:10BA4000BC05C3F8AA9083F8AE80A3F8AFE083F8F2
:10BA5000B1A0C3F8B270C3F8B66085E8030092F8ED
:10BA6000441083F8C410D2E91250D2E91412C3E989
:10BA70003250C3F8D420C3F8D01018201CF0F0FBCB
:10BA80000022012105461DF0C1F8236853F80C3C43
:10BA900023442846B3F8DC10C3F8D8501DF0C8F88A
:10BAA000236853F80C0C20440AF030F9B0BB012194
:10BAB0001F480AF04BFF2368054653F80C0C20443E
:10BAC00028301C2108F050FC236853F80C0C11227C
:10BAD00020441146283008F05FFC236853F80C3CE2
