:020000022000DC
:1060000000000420F9990300399A03003B9A030029
:106010003D9A03003F9A0300419A030000000000EC
:10602000000000000000000000000000759903005F
:10603000459A03000000000095990300499A030067
:106040004D9C03004B9A03004B9A03004B9A0300AC
:106050004B9A03004B9A0300957203004B9A03007E
:106060004B9A03004B9A03004B9A03004B9A030090
:106070004B9A03004B9A03004B9A03004B9A030080
:106080004B9A0300C59603004B9A03004B9A0300FA
:106090004B9A03004B9A0300319E02004B9A030077
:1060A0004B9A03004B9A03004B9A03004B9A030050
:1060B0004B9A03004B9A0300000000000000000010
:1060C0004B9A03004B9A03004B9A0300399D03003F
:1060D0004B9A03004B9A03004B9A030021C0020025
:1060E0004B9A03004B9A03004B9A030000000000F8
:1060F000000000004B9A030000000000B19D030067
:10610000000000000000000000000000000000008F
:10611000000000000000000000000000000000007F
:10612000000000000000000000000000000000006F
:10613000000000000000000000000000000000005F
:10614000000000000000000000000000000000004F
:10615000000000000000000000000000000000003F
:10616000000000000000000000000000000000002F
:10617000000000000000000000000000000000001F
:10618000000000000000000000000000000000000F
:1061900000000000000000000000000000000000FF
:1061A00000000000000000000000000000000000EF
:1061B00000000000000000000000000000000000DF
:1061C00000000000000000000000000000000000CF
:1061D00000000000000000000000000000000000BF
:1061E00000000000000000000000000000000000AF
:1061F000000000000000000000000000000000009F
:10620000F1EE103A43F08073E1EE103A704700BFB0
:1062100010B5054C237833B9044B13B10448AFF3E0
:1062200000800123237010BDA8630020000000003F
:10623000C45F040008B5034B1BB103490348AFF327
:10624000008008BD00000000AC630020C45F0400B3
:10625000154B002B08BF134B9D46A3F5803A002138
:106260008B460F461348144A121A19F099FC0F4B2B
:10627000002B00D098470E4B002B00D098470020F1
:10628000002104000D000D48002802D00C48AFF397
:10629000008019F01BFC2000290013F005FC19F008
:1062A000EFFB00BF00000800000004200000000019
:1062B00000000000A86300208C9D0020000000006A
:1062C0000000000010B5014688B00446134803F0F2
:1062D000A7FD134A0023148069462022CDE900332C
:1062E000CDE90333CDE905330293079301F0D4FEE2
:1062F0000C4B1B7823B90C4B01221A7008B010BD4F
:106300000A490B4810F0B0FE6946094810F0FEFE3D
:10631000054B01221A7008B010BD00BF786800203C
:106320007C6700202D600020C8640020F82F040046
:10633000F87000200C4B1B781BB90C4B00221A7014
:10634000704710B50A480C4610F0C0FE09490848CD
:1063500010F08AFE10220648214610F06BFF034B16
:1063600000221A7010BD00BF2D600020C8640020FC
:10637000F87000200830040008B5194B1B781BB9D1
:10638000184B01221A7008BD174810F09FFE1749DC
:10639000154810F0BBFE1649134810F065FE15496C
:1063A000114810F0B3FE14490F4810F0AFFE134926
:1063B0000D4810F0ABFE12490B4810F0A7FE114932
:1063C000094810F0A3FE1049074810F09FFE0F493E
:1063D000054810F09BFE034B01221A7008BD00BF58
:1063E0002D6000202C600020F8700020883204000E
:1063F00024300400086000203430040050300400D1
:106400006830040084300400A4300400C03004006C
:10641000F8B5174F174C1849184D194E384610F05B
:106420007BFF18492246384619F0F2FA164A174BF4
:1064300012681A60284603F025FE224614492846B1
:1064400019F0E6FA134D304603F0B6FE2246124923
:10645000304619F0DDFA28464FF4807104F002FB53
:10646000224628460D49BDE8F84019F0D1BA00BFD0
:106470005468002000600020E0300400D065002057
:10648000406600204D7303000460002084670020F4
:10649000C567020088660020AD670200F9AA020005
:1064A00070B52A4C2A4E2B4D2046002103F076FC75
:1064B0002046042103F036FA00222046012103F091
:1064C00061FA0421204603F01BFC14F049F8014650
:1064D000304610F043FF30460B2110F069FF0C21CD
:1064E00003463046EB7110F063FF0D210346304642
:1064F0002B7210F05DFF0E21034630466B7210F0D8
:1065000057FF294603462046AB7203F0D1FB2046D5
:106510001149124D02F00CF81149204602F00AF818
:10652000104803F0D5FD28460F490C2203F040FE29
:1065300028460E49102203F037FE284603F072FE6B
:10654000BDE870400A4804F01BBB00BF786800201B
:106550005468002008600020C562020040660020E8
:1065600035630200D06500209C32040088320400AC
:10657000886600203548F8B54FF4E131064605F04D
:10658000C1F910F01FFF41F28837054604E010F012
:1065900019FF401BB8423FD8304605F0DBF90446EE
:1065A0000028F4D02A4D4FF47A7010F017FFFFF74F
:1065B00077FF0621274800F0E7FC264800F0CCFCD6
:1065C0002549244800F084FC244800F097FC214829
:1065D000012100F00DFDF4221E48202100F004FDF1
:1065E0001C481E2100F0FEFC1A48002100F06CFD42
:1065F0002B78BBB91A4C0121206814F0B9F86068F7
:10660000012114F0B5F8A068012114F0B1F810F0E0
:10661000D9FE144B1860F8BD0D4D0C482C7005F0D8
:1066200089F9C0E7094810F051FD0F49074810F0FB
:106630006DFD0E49054810F017FD0D49034810F097
:1066400065FD0C49014810F061FDD3E7F8700020AA
:106650002D600020B86E002088660020FC6E0020AF
:10666000206000208067002088320400F43004009D
:10667000086000201831040010B5434804F062FFA0
:1066800000B910BD404804F083FFC1B23F2977D064
:10669000A1F16103112B6AD8112B68D8DFE803F050
:1066A0005139676767672167676767676767676704
:1066B0006709364C3649344810F028FD2068FF2120
:1066C00013F0CEFF6068FF2113F0CAFFA068FF211E
:1066D00013F0C6FF2F49304B0E20FF2208601A60CE
:1066E00010BD2A4C2D49284810F010FD2068FF21CC
:1066F00013F0B6FF6068FF2113F0B2FFA068FF211E
:1067000013F0AEFF2349244B0C20FF2208601A60CF
:1067100010BD1E4C22491C4810F0F8FC2068FF21D7
:1067200013F09EFF6068FF2113F09AFFA068FF211D
:1067300013F096FF1749184B0F20FF2208601A60CC
:1067400010BD124C1749104810F0E0FC2068FF21E2
:1067500013F086FF6068FF2113F082FFA068FF211D
:1067600013F07EFF0B4B4FF0FF321A6010BD06484E
:1067700010F0A8FCBDE810400B49034810F074BCB1
:10678000BDE81040FFF7F8BDF87000202060002041
:106790004C310400846700201C6000205C31040040
:1067A00070310400403104008031040010B5044B06
:1067B000044640F8083B02F0D3FD204610BD00BF60
:1067C000E832040010B5074B044640F8183B00F0CF
:1067D000DDFD2046044B40F8083B02F0C1FD204699
:1067E00010BD00BFD8330400E83204002DE9F8439F
:1067F0009B4E337823B99B4B01221A70BDE8F88376
:10680000994C9A4DDFF868820FCC0FC5236805F8C4
:106810001039474628464146002305E00133C92B7D
:1068200001F8012B00F00C8110F8012B002AF5D1A2
:106830005A1C8F498F480A24FC5403F003FE8E4BE8
:106840008A4C8B4F0FCB07C420468C4900F8013B84
:106850001AF080F80C3C3946002305E00133C92BBF
:1068600001F8012B00F0FA8014F8012B002AF5D171
:106870005A1C96F800C00A21F954BCF1000F05D04B
:106880007B497C4803F0DEFD96F800C0DFF8F49108
:10689000764CDFF8DCE1B9E80F000FC42346D9F8E5
:1068A000002003F81029002105E00131C9290EF864
:1068B000012B00F0D18013F8012B002AF5D14A1CDE
:1068C0000A237B54BCF1000F05D06949694803F0E5
:1068D000B9FD96F800C0DFF8B0E1644CDFF89091A4
:1068E000BEE80F000FC49EE8070003C4002324F88D
:1068F000182905E00133C92B09F8012B00F0AA8003
:1069000014F8012B002AF5D15A1C0A21F954BCF1C4
:10691000000F05D05649574803F094FD96F800C083
:10692000DFF868E1514CDFF84891BEE80F000FC472
:106930009EE80700002384E80700103C05E00133CF
:10694000C92B09F8012B00F0838014F8012B002AD1
:10695000F5D15A1C0A21F954BCF1000F05D0444965
:10696000444803F06FFD96F800C0DFF824E13F4C87
:10697000DFF8FC90BEE80F000FC49EE80F0007C4CC
:10698000002124F81C3904E00131C92909F8013B30
:106990005CD014F8013B002BF6D14A1C0A237B542F
:1069A000BCF1000F05D03249324803F04BFD96F898
:1069B00000C0DFF8E0E02D4CDFF8B490BEE80F0037
:1069C0000FC49EE80F0007C4002104F81C3904E03E
:1069D0000131C92909F8013B36D014F8013B002BDD
:1069E000F6D14A1C0A237B54BCF1000F05D0204984
:1069F000204803F027FD96F800C0214E1B4C0FCE17
:106A00000FC496E80700002384E8070004E0013380
:106A1000C92B08F8012B15D015F8012B002AF6D147
:106A20005A1C0A21F954BCF1000F3FF4E4AE10499E
:106A3000104803F007FD0B4B01221A70BDE8F883E4
:106A4000CA22F6E6CA22ECE7CA22CBE7CA22A5E7A9
:106A5000CA227FE7CA2258E7CA2231E7CA2208E7DA
:106A6000C8640020516800203C3204008867002080
:106A7000C4630020A06600202430040008600020C9
:106A80002032040094310400A8310400C431040011
:106A9000E0310400003204002DE9F843AA4803F075
:106AA00031FC002800F04C81A84EA94FA64DDFF81C
:106AB000D08208E003F076FC3368C0B25A1CF85468
:106AC00088F800003260284603F01CFC0446284683
:106AD000002CEFD13A783F2A00F02581A2F1610322
:106AE000D9B2112948D8112B46D8DFE813F0B700E6
:106AF00081004500450045004500E6004500450091
:106B0000450045004500450045004500450045005D
:106B10001200904A904B914F07CA03C3194638465A
:106B200001F80829002305E00133C92B00F8012BE7
:106B300000F0FC8011F8012B002AF5D15A1C88497D
:106B400009780A20F85419B18449864803F07AFC80
:106B5000854DFF21286813F083FD6868FF2113F03D
:106B60007FFDA868FF2113F07BFD8049804B0E203C
:106B7000FF2208601A60D1E0DFF8DC81774F88F8E7
:106B800000200025404688F8015019F0FCFEDFF88F
:106B9000F4C18146BCE80F0008EB090E48F8090073
:106BA000BCF800909CF802C0CEF80820CEF8041083
:106BB000CEF80C304046AEF810908EF812C03A462F
:106BC00005E00135C92D02F8013B00F0B78010F84F
:106BD000013B002BF5D16A1C614B1B780A217955CA
:106BE000002B00F09B805D495E4803F02BFC95E094
:106BF000604A594B594F07CA03C323F8022B194661
:106C0000120C01F80A293846002305E00133C92B8C
:106C100000F8012B00F0908011F8012B002AF5D12B
:106C20005A1C4F4909780A20F85419B14B494D486C
:106C300003F008FC4C4DFF21286813F011FD686833
:106C4000FF2113F00DFDA868FF2113F009FD47494E
:106C5000474B0F20FF2208601A605FE0464A3E4B18
:106C60003E4F07CA83E8070019463846002304E070
:106C70000133C92B00F8012B5CD011F8012B002A3D
:106C8000F6D15A1C364909780A20F85419B133490B
:106C9000344803F0D7FB344DFF21286813F0E0FCA3
:106CA0006868FF2113F0DCFCA868FF2113F0D8FC12
:106CB0002E4B4FF0FF321A6030E0304A264B274F00
:106CC00007CA03C31946384621F80829002304E0FF
:106CD0000133C92B00F8012B2AD011F8012B002A0F
:106CE000F6D15A1C1E4909780A20F85419B11B49DB
:106CF0001C4803F0A7FB1C4DFF21286813F0B0FCD3
:106D00006868FF2113F0ACFCA868FF2113F0A8FC11
:106D10001649174B0C20FF2208601A6000233360CD
:106D20002046BDE8F883FFF761FDF7E7CA2206E7D2
:106D3000CA22D7E7CA22A5E7CA2272E7CA224BE7CE
:106D40004FF0FF34ECE700BF88660020C4640020E9
:106D5000CC6400205032040088670020C463002007
:106D6000C8640020A0660020206000208467002006
:106D70001C60002068320400403104005C320400D2
:106D8000CC65002074320400244B1B7870B5002BB6
:106D900036D0234B1B78002B2FD0224C2368002B9E
:106DA00006DC214B1B78F3B9204B1B780BBB70BD65
:106DB00010F008FB1E4A1F49136809680B449842EB
:106DC000EFD91D4B1D4D19682E6810603144FE2906
:106DD00019DC00291DDD1960206813F041FC124BFD
:106DE0001B78002BE0D0FFF747FC104B1B78002BE3
:106DF000DDD0BDE87040FFF74FBEFFF7F7FCCCE7F2
:106E0000FFF7BAFAC5E7FF216FF0070219602A60A1
:106E1000E2E70021082219602A60DDE72C600020EB
:106E200051680020846700202D600020C864002085
:106E300080670020146000201C6000201860002083
:106E400072DF704773DF704777DF704738B50546EC
:106E500008460C4602F0B2FA102803D080280ED063
:106E6000012038BDEB7FA2881B2B0EDCE918032024
:106E7000E85448704A80EB7F0433EB77F0E7A3686F
:106E8000002BEDD0E97F0D2901DD002038BD6A1807
:106E9000112068540721517058681C689968DB6894
:106EA000C2F80E30C2F80600C2F80240C2F80A105A
:106EB000EB7F1233EB77012038BD00BF10B5002106
:106EC0000446C1771F2218F06BFE204610BD00BF9C
:106ED00030B5D1E9042485B0CD68074B00936946ED
:106EE000CDE902240195FFF7B1FF0446684602F0A0
:106EF00037FA204605B030BD00330400F0B589B044
:106F0000064620221348694602F0E6FEF37FC218C7
:106F10001D2A0CDDC3F11D04E4B2E2181D2A4FF056
:106F20000005D8BF082705DD284609B0F0BD044696
:106F300001250927F218601CF05469465770901C0F
:106F4000224618F005FEF27F023214442846F477F8
:106F500009B0F0BD7868002010B50446094802F079
:106F600019FFE37F1C2B01DD002010BDE218022178
:106F7000E1540A2390705370E37F0333E3770120D9
:106F800010BD00BF78680020C27F1C2A01DD0020F0
:106F9000704710B403469C18022098540120A17039
:106FA0006070DA7F0332DA775DF8044B704700BF18
:106FB00010B51F220446002118F0F2FD064B0749C8
:106FC000074A23620023E377C4E90C12C4E90E33B5
:106FD000E3622364204610BDFF0101002000F4009D
:106FE00020001E00C1867047018681864286704758
:106FF00080F82210704700BFF0B502EB820389B021
:10700000154603EB830390F821209B0004460020E3
:10701000CDE90410ADF81430931E0290CDE90600BE
:107020000E4603908DF80820092B09D8DFE803F0FD
:107030000505080808050805080504F1240303935D
:107040001D4B1A68D20709D41C491D4AC87FE77F27
:10705000908101201460916097801860184902AAFD
:1070600004F12000FFF7ECFE10B1002009B0F0BDE4
:1070700094F820101348019102F08CFE0199024609
:107080000120FFF7E1FE0028EFD194F82000012154
:10709000FFF7D8FE0028E8D10A4802F0D9FE628F37
:1070A000A686AA424FF0010094BF921A521B628733
:1070B00084F8230009B0F0BD60680020FC6E002059
:1070C0006468002078680020F0B5002361F30F03A6
:1070D000044661F31F4389B08363FA212F4802F00D
:1070E00061FEE58E94F82110268E049605EB85034B
:1070F00003EB830300229B000592ADF814308B1E36
:107100000292CDE9062203928DF80810092B09D8C6
:10711000DFE803F00505080808050805080504F17F
:10712000240303931E4B1A68D20709D41D491E4A33
:10713000C87FE77F9081012014609160978018607C
:10714000194902AA04F12000FFF77AFE10B10020CD
:1071500009B0F0BD94F820101048019102F01AFE19
:10716000019902460120FFF76FFE0028EFD194F845
:1071700020000121FFF766FE0028E8D1074802F051
:1071800067FE638FA6869D424FF0010094BF5B1B94
:10719000DB1A638784F8230009B0F0BD786800200B
:1071A00060680020FC6E00206468002030B50B8809
:1071B0008D88112B85B0044605D0262B33D0102B9B
:1071C00025D005B030BDC36AEB40DB07F9D52E48AA
:1071D00001F08EF90028F4D1E36A94F8231001221B
:1071E00002FA05F523EA0503E3620029E9D194F8E0
:1071F0002230002BE5D0238F23486387FA2102F049
:10720000D1FDE28E218E2046FFF7F6FED9E7CB7B3B
:10721000012BD6D1C26A03FA05F515430023C562D6
:1072200080F82330CDE70B7A012BCAD1002380F8F8
:1072300023304FF4FA71144802F0B4FD238F5BB190
:10724000658F95B1236C0BB19847658F618E2A4687
:107250002046FFF7D1FEB4E7236C03B19847618E57
:1072600000222046FFF7C8FEABE7074802F004FE05
:10727000E26B002AA5D0009503AB2946284603956A
:1072800012F0C8FF9DE700BF7868002075DF7047E7
:1072900010B44FF010144FF448010022C0E900412F
:1072A000C0E902225DF8044B704700BF014800F0BE
:1072B00021BF00BF706F0020F8B500250D4F2E468E
:1072C00001E0142D14D0A9B2384602F0A9FD013511
:1072D00004460028F5D000F0B1FD0028F1D020468A
:1072E00000F0B6FD022804BF0136F6B2142DEAD133
:1072F0003046F8BD7868002070B58E881B480C4673
:1073000094B0314602F08CFD23881A2B05D01F2B38
:107310001CD0102B0FD014B070BD054600F090FDAE
:107320000028F8D0284600F08DFD0028F3D128462B
:1073300000F0F8FDEFE7694600F0DCFD0028EAD038
:107340006A4631460A4801F06BFCE4E754F8080F3E
:1073500061686B4603C33046BDF80030ADF80230BB
:107360006946FFF793FF14B070BD00BF7868002036
:1073700098680020AADF7047ABDF7047ACDF70472A
:10738000ADDF7047AEDF7047B0DF704710B5044B1C
:10739000044640F8043B01F0E3FF204610BD00BF67
:1073A000B832040010B5054B044640F8043B01F028
:1073B000D7FF204612F0BAFB204610BDB8320400B9
:1073C00070B57B4B04461B68836196B0043002F0B5
:1073D00005F894F82E30A06913F0320208BF84F843
:1073E0002F2013F00C0308BF84F830300DF1010298
:1073F000694601F0ABFF94F82F209DF801001507B6
:107400000DD09DF8001002F00F0301F00F059D4212
:107410004FEA12126DD243EA021284F82F2094F838
:10742000303019070BD003F00F0100F00F058D422B
:107430004FEA131369D241EA031384F8303094F809
:107440002E1011F0300340F096800FAD0F93C5E978
:107450000133C5E903338DF83C10AB610021ADF871
:1074600009109DF80A10206A1493012363F3420166
:107470008DF808208DF80A1008B1037873BB94F8D2
:10748000263013B104F12603129394F8312000231F
:10749000D2070893079358BFE38AADF81C3004F174
:1074A000080004F12F01CDE9050154BF1846E08A18
:1074B000ADF82000294604F13203E569099505AAD3
:1074C0000020FFF757FF054628B994F8253043BB45
:1074D000237D002B64D0284616B070BD109019F0A3
:1074E00052FA02AB80B2ADF84400ADF846001393F7
:1074F000C5E74FEA111101D191428CD30A462B46C0
:1075000043EA021284F82F2089E74FEA101001D1D4
:10751000984290D30346294641EA031384F8303059
:107520008DE7ADF80D009DF80E2094F82F600C90BB
:10753000012363F3420242F608118DF80E208DF804
:10754000123004AA0223ADF8101003A90D90ADF873
:107550003030ADF834300A9204F124030B910DF170
:1075600002020AA98DF80C600E93FFF705FF0028B0
:10757000AED00546AFE70F4B8DF805200FAD1B7859
:107580008DF80430022000230F938DF80600C5E922
:107590000133C5E90333AB618DF83C1001AB5DE706
:1075A0002146054800F066FF284616B070BD00BFB2
:1075B00074680020AC320400B86C00202DE9F04162
:1075C0000B888E88502B8AB00C46054609D0512B6B
:1075D00004D18B79012B19D0022B26D00AB0BDE83B
:1075E000F081CB88428E9A4235D0EA8E9A42F5D10C
:1075F0006B6D002BF2D095F84420648A920700F15D
:107600008A802246294630469847E7E7836C002B5C
:10761000E4D090F84420520701F108076CD43A46B0
:10762000294630469847A379D6E7A27B042A46D05C
:10763000062A20D0012AD1D1EB6C002BCED095F8B0
:107640004420170704F1080400F1A58022462946CA
:1076500030469847C2E7076D002FC6D090F84430F7
:10766000D90768D404F11208238A424629463046D5
:10767000B847E388B9E7EA6B002AAFD0002202A935
:107680003046CDE90222CDE90422ADF80C208DF878
:107690000830FFF779FE2C6D54B195F84430D807C7
:1076A00000F19280B5F84230EA6B30462946A04797
:1076B000E86B0FF0C9FE0023C5E90F338EE7E86BD6
:1076C000002878D0B5F84010278A628A07EB020CB0
:1076D00000234FF0020E8C45CDE90633CDE9083387
:1076E0008DF818E039DD40F20913ADF81C3006A919
:1076F0003046FFF749FE71E703211A46009106ABB9
:1077000008213846CDE90665089712F083FD002868
:1077100089D1AB6C83E7032000211A46009006ABA9
:107720000846CDE90665089412F074FD00287FF440
:1077300055AF6B6D65E7218A069604F112080423A4
:1077400000933A46404606ABCDE90881079512F012
:1077500061FD00288DD12F6D86E79DF81EC0ADF824
:107760001C3004F114014CF001033844ADF8222020
:107770008DF81E300991ADF8207018F0E9F9238AD0
:10778000618AB5F842200B449BB2934238BF13463E
:10779000A5F84230ABE703211A46009106AB0E2153
:1077A0002046CDE90665089412F034FD00287FF4E8
:1077B00015AFEB6C4AE74FF480600FF02BFE4FF4EF
:1077C0008061C5E90F017FE7E86BB5F842100696C6
:1077D00004230093224606ABCDE90750099112F02D
:1077E00019FD00287FF464AF2C6D5BE72DE9F04FA5
:1077F0000F464FF6FF718F4289B0064615461C466C
:1078000026D0F18A96F82E308C4228BF0C46DB0633
:1078100015D40DF1100B8C4228BF0C464FF0000818
:10782000718EADF810405A464FF6FF700595ADF8D1
:107830001280FFF7A3FD404609B0BDE8F08F39483C
:10784000394602F0D5FA08B1F18E31B9F18AE0E794
:10785000344802F0D9FA0746D3E7002002230DF19D
:10786000100BADF81200ADF810305A460DF10E03B2
:1078700038460593FFF784FD43F2014398424FD009
:1078800000284AD19DF80E8008F00108B8F1000FD9
:1078900046D02448394602F0C3FA8246A0B300F02D
:1078A000D9FA033883B2002CC5D0CDF804804FF04C
:1078B0000009984605E0BDF80E30E41AA4B21D4454
:1078C00044B3504600F0E4FAA04503464246594608
:1078D00028BF22463846BBB1ADF80E204FF001025A
:1078E000738E8DF812200DF10E02CDE90625CDF82C
:1078F00013908DF81790ADF81030FFF743FD002876
:10790000D9D0504600F0CEFA4FF00008404609B0FA
:10791000BDE8F08FDDF804808DE700F00108B5E7E1
:10792000F18A78E77868002010B5154B044640F8D6
:10793000043B01F01DFD134A0023127884F8443003
:1079400014200321A384C4F82630C4F82A3084F814
:107950002E30E082C4E90F33C4E91233C4E9143392
:1079600084F831102375A3612362E3616386636346
:10797000238784F82F2084F83020204610BD00BFD4
:10798000B8320400AC32040070B44E68164A866007
:107990000260D1E90262154B154D1C784560026109
:1079A000142500220321C0E90F22C0E91222C0E9F8
:1079B0001422C660C58280F8311080F84420027518
:1079C000826102628284C0F82620C0F82A2080F8F2
:1079D0002E20C26142864263028780F82F4080F8E1
:1079E000304070BC704700BFB8320400AC320400B5
:1079F0000033040010B4D1E90142CB680361C0E94F
:107A000002425DF8044B704780697047012303759B
:107A1000704700BF80F82E10704700BFC1827047CA
:107A200041B190F83130C182002262F3000380F846
:107A30003130704790F83130012262F3000380F852
:107A40003130704780F82F1080F83020704700BF29
:107A500090F84430016562F3000380F844307047C9
:107A600010B490F8443090F83140C164003918BF28
:107A7000012161F3041462F3C30380F8314080F8FC
:107A800044305DF8044B70470162704751F8322F63
:107A9000026049684160704730B5C48A83B094423F
:107AA00023460D4628BF1346418E019500246A46A1
:107AB0004FF6FF70ADF80030ADF80240FFF75EFC06
:107AC00018B9BDF8000003B030BD204603B030BD8A
:107AD00030B5C38A85B00A46022B28BF0223418EE7
:107AE000ADF8062000240DF1060502AA4FF6FF703E
:107AF000ADF80830ADF80A400395FFF73FFC18B920
:107B0000BDF8080005B030BD204605B030BD00BF4F
:107B100090F82E3013F0100301D11846704730B59D
:107B2000044685B011480D4602F062F910B1E18EAD
:107B300011B9084605B030BD0DF1060328460024F2
:107B4000022502AA0393ADF80A40ADF80850FFF7EA
:107B500017FC43F20143984206D008B99DF806008D
:107B600000F0010005B030BD2046E3E77868002052
:107B700010B490F82E4014F0100403D05DF8044BBC
:107B8000FFF734BE20465DF8044B7047A1DF704715
:107B9000A3DF7047A4DF704700238383704700BFD3
:107BA000006A00F0E3B800BF808B70472DE9F04118
:107BB0000B88CE88382B86B00C46054606D0392B6C
:107BC00066D0362B43D006B0BDE8F08100F1240723
:107BD000002E36D10A8A3846314603F095F894F8DB
:107BE0000C80B8F1010F2CD0B8F1040FEBD1286A4A
:107BF00000F0BCF801465C4802F012F900F02AF9E6
:107C00002A8E053883B2934228BF1346002B00F01A
:107C10009A80218AE289286AAC8B8DF80D600A442B
:107C2000E96A05918DF80C80ADF81230ADF810209E
:107C3000ADF80E4000F09AF803A9FFF7A9FF00285D
:107C4000C1D0384603F078F806B0BDE8F081006A8C
:107C500000F08CF80146444802F0E2F800F0FAF82F
:107C600007466EBB05F12406E289304604F1100197
:107C700003F04AF82B8E2BB1F81EE38980B201384D
:107C8000834255DA304603F057F806B0BDE8F0817C
:107C90000B7B012B1AD0022B95D1836B002B92D03A
:107CA00090F83C208F8892071FD401F11006E289DA
:107CB00031462846984761893846FFF76BFF82E7CF
:107CC00005F12407384603F037F8BDE7436B002B76
:107CD0003FF479AF90F83C20D10717D404F1100697
:107CE000E2893146284698476DE7C989039004F137
:107CF000100603201A46009003AB3046CDE904611C
:107D000012F088FA0028D6D1AB6BD0E7E189039056
:107D100004F1100603201A46009003AB3046CDE96B
:107D2000046112F077FA00287FF44DAF6B6BD7E750
:107D3000286A00F01BF86A8EA98B92B2FFF726FF23
:107D400000289FD13FE7AA8B286AADF80E2040F2A9
:107D50000511ADF80C10CDE9043300F007F803A9C4
:107D6000FFF716FF6DE700BF786800208088704736
:107D700076DF70478FDF704790DF7047B1DF704765
:107D8000B5DF704710B5074B03600446806A10F0FA
:107D900007FAE06A10F004FA206B08B110F000FA5C
:107DA000204610BDD032040010B5094B03600446D4
:107DB000806A10F0F5F9E06A10F0F2F9206B08B172
:107DC00010F0EEF9204611F0B1FE204610BD00BFC4
:107DD000D032040070B504460D4692E80300A58039
:107DE0000E0CA061A183144DA67717201B21568984
:107DF0002560E0809589D089E181D1796581012272
:107E000022752274A08161741846194626819DF856
:107E100010500FF0E3FB2946A06228460FF0DEFB6E
:107E20004FF4885100234FF6FF72E182E0626282D4
:107E300023636375204670BDD0320400007D704717
:107E4000407D7047C07D113818BF0120704700BFCA
:107E5000407C7047C0887047008970474B7D10B4E4
:107E60004BB11F310C688A888B79046082805DF881
:107E7000044B837170471831F4E700BF08B5132134
:107E80008088FFF775FFB0FA80F0400908BD00BF99
:107E900008B56621806A0FF0FBFF003818BF01208B
:107EA00008BD00BF08B500231A461946806A0FF0C6
:107EB000C7FB003818BF012008BD00BF818800F152
:107EC0001F02407C02F07EBF38B50A4605460C46CC
:107ED0008188407C02F062FF2146012051F8483F32
:107EE000C5F81F308B888A7985F82520A5F82330BE
:107EF000687538BD38B50A4604460D4600F11801CC
:107F0000407C02F095FF607550B1294651F8483F1A
:107F1000C4F81F308B888A7984F82520A4F8233090
:107F200038BD00BF10B5447D24B100F11F01407C75
:107F300002F05CFF204610BD70B50B88113B82B08B
:107F40000C460546462B2BD8DFE803F0383B2A2A9F
:107F50002A2A2A2A2A422A2A2A2A2A2A50585E64A7
:107F60002A2A2A2A2A2A2A2A2A2A2A2A2A2A2A2A71
:107F70002A2A2A2A2A672A942A2A2A2A2A2A2A2ABA
:107F80002A2A2A2A2A2A2A2A2A2A2A2A2A246A2A17
:107F9000752C84000023A8881A461946FFF7EEFEC8
:107FA00002B070BD8B79002BFAD1006BAB75002845
:107FB000F6D01A4619460FF043FBF1E7002303758C
:107FC000EEE74B8903818B894381CB898381E7E786
:107FD0000B7AC375112BE3D0818800F11F02407C1E
:107FE00002F0DEFF03460028DAD1D4E7002301A91E
:107FF0008088ADF80430FFF7BDFED1E70B7A002B87
:10800000CED14B7A0374CBE7002211468088FFF76C
:10801000B3FEC5E70B89C381C2E74B89C380BFE7C5
:10802000006B0123AB750028BAD000231A4619460D
:108030000FF006FBB4E7417C164801F0E9FEE38847
:108040000146994228BF194689B2A888E980FFF7FE
:1080500097FEA5E78B79002BA2D0002600231A46B5
:108060001946A86A0FF0ECFA0136A279F3B29A42E7
:10807000F4D895E78B7A002B92D0002600231A467D
:108080001946E86A0FF0DCFA0136A27AF3B29A4296
:10809000F4D885E77868002070B58AB086880B46EA
:1080A00006A84FF42851144605934FF6FF7501F0CA
:1080B00069F90120CDE90105059B0094314606AA26
:1080C000044800F073F8044606A801F049F9204678
:1080D0000AB070BDB86C002010B50446043002F040
:1080E000AFFD034B236000232375204610BD00BF66
:1080F0000100FFFF017D01B1704710B50446043057
:1081000002F0A8FD0123237510BD00BF007D70475C
:108110000B88322B10B504D0332B1ED0302B0FD050
:1081200010BD4A8932B100230133DBB29342FBDB3D
:10813000CB881BB3041D2046BDE8104002F0FCBDF7
:10814000CB88041D002BF6D14B89002BF3D00A31CC
:1081500020460A2202F0D8FDEDE7CB88002BE9D1BA
:108160004A89002AE6D002EB42025200041D023284
:1081700092B20A31204602F0C7FDDCE702EB820230
:10818000F3E700BFA0DF704710B5044600F5F870B4
:1081900002F056FD2046F822002117F001FDF822DA
:1081A000A018002117F0FCFC204610BD2DE9F04777
:1081B00082B00546BDF82C60BDF830402048ADF8CF
:1081C0000460BDF828A0ADF80640904699460F46D9
:1081D00001F026FE05F5F875064603E0FFF73CFEC4
:1081E0000FF0FCF8284602F08DFD04463046002CC6
:1081F000F4D10121284602F02DFD52464946284679
:1082000002F044FD08F10401384601AAFFF7BAFF65
:1082100030B1284602F028FD204602B0BDE8F087C4
:108220004FF4FA71284602F037FD20EAE074284640
:1082300002F01AFDA4B2204602B0BDE8F08700BFEC
:10824000786800202DE9F04F8F880D8885B088462A
:1082500004463946864801F0E3FDA5F11003012BE1
:10826000814640F2908094F854203AB30026334679
:108270001633502D54F823A069D0512D1AD198F8F7
:108280000630B8F808B0022B53D0BBF1000F11D064
:1082900051466846FFF7FAFBBDF800305B4559D000
:1082A000514602A8FFF7F2FBBDF80C305B4551D0F8
:1082B00094F854200136F3B29342D9D394F84C3158
:1082C000002B00F0D18004F5A679002604E094F894
:1082D0004C310136B34220DD59F8040FFFF760FC42
:1082E000B842F4D1382D03D0392D01D0362DEED13E
:1082F000B8F80AA0BAF1000FE9D0D9F800B0584692
:10830000FFF752FC5045E2D158464146FFF74EFC7C
:1083100094F84C310136B342DEDC112D55D0352DA9
:1083200004D1B8F80A30002B40F08F8005B0BDE8CA
:10833000F08F98F80E30062BA7D1DAF800305046AF
:10834000DB68414698474846FFF77CFDB0E7B8F840
:1083500006B09AE7DAF800305046DB6841469847A5
:108360004846FFF76FFD0028A2D0502DA0D15146FE
:1083700002A8FFF78BFBBDF80C305B4598D148464F
:10838000FFF79CFD94E72378002B3FF46CAF0026A9
:10839000112D33460CD004EB83033946586803682B
:1083A0005B68984701362278F3B29A42F3D85AE7CD
:1083B00004EB83033946586803681B689847013605
:1083C0002278F3B29A42F3D84DE7D3B10026334670
:1083D00005E094F84C210136F3B29A4211D904EB2E
:1083E0008305D5F85001FFF7DBFBB842F1D1D5F892
:1083F0005001FFF7D1FB013694F84C21F3B29A42B9
:10840000EDD894F8F820002A90D000252B4604EBF4
:108410008303D3F8FC008388BB420AD00135EBB25A
:10842000934283D204EB8303D3F8FC008388BB42DE
:10843000F4D103681B689847013594F8F820EBB233
:108440009342E4D305B0BDE8F08F04F5F874B8F8B2
:108450000C20204608F1100102F056FC204605B021
:10846000BDE8F04F02F068BC112D7FF458AFC8E7AB
:108470007868002090F85420272A0CD810B40346BE
:1084800002F11604013280F8542043F82410012030
:108490005DF8044B70470020704700BF0378132B32
:1084A00006D800EB8302013303700120516070474E
:1084B0000020704778DF70477ADF7047054A03462F
:1084C00092E80300002283E80300C3E90222184671
:1084D000704700BFD832040008B5FFF7EDFF08B1C0
:1084E000002008BDFFF7E6FFB0FA80F0400908BDA4
:1084F000F8B500250D4F2E4601E0142D14D0A9B279
:10850000384601F08DFC013504460028F5D0FFF710
:1085100095FC0028F1D02046FFF79AFC012804BF03
:108520000136F6B2142DEAD13046F8BD7868002045
:1085300081607047C1607047704700BF8ADF704735
:1085400030B40D4CC4621F25002250248584A02520
:10855000C0E91122C0E90F22A0F84650A0F8484017
:10856000006230BC8262028680F838204263C264B6
:10857000A0F85020704700BF000180002DE9F04FA7
:1085800010468DB016460C4600F018FFC5B2102DEF
:108590004FD0B66807220623A16994F81C90019178
:1085A0008DF80D208DF80C30ED080DF10C080DF153
:1085B0000E0A0027B9F1010F0A97CDE90477CDE93A
:1085C0000677CDE90877CDF82B700ED998F8000022
:1085D00001994B464A7882420FD00A78D44323440B
:1085E000013213F0FF031144F4D108F10108C24530
:1085F000E0D100200DB0BDE8F08F11F8024B013C36
:10860000E4B2224604A817F0A3FA0DF1100B1CB92E
:10861000EBE714F0FF04E8D058462A46314617F03D
:1086200089FA641BAB440028F3D101200DB0BDE8EA
:10863000F08F043603220223AEE700BF2DE9F0439A
:108640000B888E88103B87B00D4604460D2B2CD826
:10865000DFE803F077072B2B2B2B2B2B2B2B2B84DB
:108660002B2E836AF340DB071FD55648FEF724FE06
:10867000D8B9A36A94F82C20012505FA06F623EA56
:108680000606A6628AB994F82D3073B11F232462BE
:10869000A38404F1200104F14400FFF74FFF20B947
:1086A000494801F0D5FB84F82C5007B0BDE8F083B1
:1086B00090F92E2091F91B309A423ADC90F838302C
:1086C00001F108080BB3DFF80491002602E0D6B2EE
:1086D000B34218D9636BCDF8089003EB061302AAD6
:1086E00059680391D3E902734146204605930497E4
:1086F000FFF744FF074602A800F032FE94F8383036
:10870000721C002FE3D09E4213D094F82F30002B20
:1087100049D095F82430012B0BD9296A4A78FF2AD1
:1087200030D00A78D0430344013213F0FF031144E0
:10873000F4D104F120010020FFF700FF07B0BDE8ED
:10874000F083CB7B022BB0D1836A012202FA06F6BA
:1087500033430022836280F82C20A6E70B7A012B9A
:10876000A3D1002580F82C50174801F085FB226C1E
:10877000002A9AD0009502AB29462846029511F0AE
:1087800049FD92E711F8025B6A1ED2B2022A28BFA5
:10879000022202A817F0DCF9012DCAD0228EBDF802
:1087A00008309A42C5D1E26B002A3FF47EAF012324
:1087B0000093404602AB2421CDF8088011F02AFD39
:1087C00073E700BF88680020786800200033040049
:1087D00046DF70477FDF704780DF704781DF70477B
:1087E00085DF704786DF704738B51C460D46034667
:1087F000114628462246984734B1014600222846B1
:10880000BDE83840FFF7E8BF38BD00BF10B50C46E3
:1088100082B003466946204698476A4620460121B1
:10882000FFF7DAFF02B010BD10B50446083002F0C1
:10883000FFFD074B2360032200232271C4F810348C
:10884000C4F81434C4F81834C4F81C34204610BDDD
:108850003507100330B50446ADF55F7D00F108051E
:108860008F4802F079FD0821284602F0E5FD6846B0
:1088700002F0ECFD6846082102F0ECFD694628464E
:1088800002F08AFD04F54F714122684602F0F0FDC6
:10889000684602F0E9FD94F85C0394F85B2394F8D1
:1088A0003D1394F83E3384F83D0384F83E2394F856
:1088B0005A0394F8592394F83F5384F85C1384F8CE
:1088C0005B3394F8401394F8413384F83F0384F801
:1088D000402394F8580394F8572384F85A5384F8A3
:1088E000591394F8425394F8431384F8410384F8DD
:1088F000583394F8560394F8443384F8422394F898
:10890000552384F8575384F8430384F8442384F8A8
:10891000553384F8561394F8451394F8540394F897
:10892000532394F8463384F8450384F8462394F897
:10893000520394F8512394F8475384F8541384F85D
:10894000533394F8481394F8493384F8470384F870
:10895000482394F8500394F84F2384F8525384F832
:10896000511394F84A5394F84B1384F8490384F84C
:10897000503394F84E0394F84C3384F84A2394F817
:108980004D2384F84F5384F84B0384F84C2384F828
:108990004D3384F84E1394F85D1394F87C0394F8E7
:1089A0007B2394F85E3384F85D0384F85E2394F8A7
:1089B0007A0394F8792394F85F5384F87C1384F84D
:1089C0007B3394F8601394F8613384F85F0384F880
:1089D000602394F8780394F8772384F87A5384F822
:1089E000791394F8625394F8631384F8610384F85C
:1089F000783394F8760394F8643384F8622394F817
:108A0000752384F8775384F8630384F8642384F827
:108A1000753384F8761394F8651394F8740394F816
:108A2000732394F8663384F8650384F8662394F816
:108A3000720394F8712394F8675384F8741384F8DC
:108A4000733394F8681394F8693384F8670384F8EF
:108A5000682394F8700394F86F2384F8725384F8B1
:108A6000711394F86A5394F86B1384F8690384F8CB
:108A7000703394F86E0394F86C3384F86A2394F896
:108A80006D2384F86B03012084F86F5384F86E1310
:108A900084F86C2384F86D330DF55F7D30BD00BF25
:108AA0000C7000200B7803F0FE03042B01D0002093
:108AB000704770B515468CB00C462022002104A8E2
:108AC00017F06EF828686968AA68EB686D460FC5EC
:108AD0009DF800109DF80F209DF801609DF80E5044
:108AE0009DF802008DF80F1023469DF80D108DF8AB
:108AF00000209DF803208DF80E608DF801509DF840
:108B00000C609DF804508DF80D008DF802109DF852
:108B10000B009DF805108DF80C209DF80A208DF8AB
:108B200003608DF80B508DF804008DF805208DF84A
:108B30000A109DF8061033F8042FADF810209B782A
:108B40009DF809209DF81D009DF810609DF81F50AC
:108B50008DF809108DF806209DF811109DF81E2043
:108B60008DF81D309DF807308DF812008DF81F60CC
:108B70009DF808009DF813608DF810508DF81E10B8
:108B80009DF81C509DF814108DF811208DF80830B8
:108B90009DF81B209DF81A308DF807008DF81C6099
:108BA0008DF813509DF815608DF81B108DF814206A
:108BB00068468DF815309DF819109DF817209DF81E
:108BC00018309DF816508DF818208DF816108DF875
:108BD00017308DF81A608DF81950FFF7F9FD62789B
:108BE0009DF82F309DF82E009DF82D108DF8210056
:108BF0009A428DF8221004F1010404D0012080F083
:108C000001000CB070BD6278C3B29A4204F1010455
:108C1000F4D16278CBB29A42F0D10020EFE700BFE6
:108C200008B5137CDB0758BF1C32084602F112015D
:108C3000FFF7D6FDB0FA80F0400908BDF0B58F8887
:108C40000E46ADF56B7D04463946464801F0E8F81E
:108C50003388133B0546072B2FD8DFE813F03E007F
:108C60005F006D002E002803870008003100337A72
:108C7000B3B9737B9B070ED4294602A8FFF7EEF821
:108C80000299BDF80C209DF80E3084F80C34C4F81D
:108C90000614A4F80A24284604F2BE31FFF714F99A
:108CA000D4F818244AB1307A0D90022300210093A1
:108CB00008460CAB0C9711F0ADFA0DF56B7DF0BDCD
:108CC000D4F81C24002AF8D0012300210093084680
:108CD0000CAB0C9711F09EFAEFE704F2BE3304F2EE
:108CE000DA320C9304F2F63300251092119304F259
:108CF0003D3204F27E330F921393CDE90D55129558
:108D0000FFF7A6F801280CBF22462A460CAB2946DD
:108D10003846FFF75FFD0DF56B7DF0BD0CA9FFF741
:108D2000E9F80346002800F0D2820CA93846002357
:108D30001AAAFFF757FDC0E7D4F810140029BCD0D9
:108D4000B37B094A03F001030F930423CDE90C1709
:108D500006F10800009306210CAB0E9011F05AFAB0
:108D6000ABE700BF78680020E987020094F87E3303
:108D700094F89D2394F87FC394F89C6394F88053EF
:108D800094F89B0384F89D33042194F89A3384F873
:108D90007D1384F87E2394F8811394F8822384F859
:108DA0009CC384F87F6394F899C394F8836384F830
:108DB0009B5384F8800394F8985394F8840384F8C0
:108DC0009A1384F8813394F8971394F8853384F8D0
:108DD000992394F8962384F882C384F8986384F8DE
:108DE000835384F8970384F8841384F8852384F8E4
:108DF000963394F8862394F8953394F887C394F8BF
:108E0000946394F8885394F8930394F8891384F83E
:108E1000952384F8863394F8922394F88A3384F85F
:108E200094C384F8876394F891C394F88B6384F8AF
:108E3000935384F8880394F8905394F88C0384F83F
:108E4000921384F8892394F88F1394F88D2384F86F
:108E5000913394F88E3384F88AC384F8906384F84D
:108E60008B5384F88F0384F88C1384F88D3384F843
:108E70008E2394F89E2394F8BD3394F89FC394F8FE
:108E8000BC6394F8A05394F8BB0394F8A11384F83E
:108E9000BD2384F89E3394F8BA2394F8A23384F85F
:108EA000BCC384F89F6394F8B9C394F8A36384F8AF
:108EB000BB5384F8A00394F8B85394F8A40384F83F
:108EC000BA1384F8A12394F8B71394F8A52384F86F
:108ED000B93394F8B63384F8A2C384F8B86384F83D
:108EE000A35384F8A41384F8B62384F8A53384F834
:108EF000B70394F8A60394F8B51394F8A72394F84D
:108F0000B43394F8A86394F8B35384F8B50384F8A1
:108F1000A61394F8A90394F8B21384F8B42384F840
:108F2000A73394F8AA2394F8B13384F8B36384F890
:108F3000A85394F8AB6394F8B05384F8B20384F860
:108F4000A91394F8AC0394F8AF1384F8B12384F810
:108F5000AA3394F8AD2394F8AE3384F8AD3384F893
:108F6000AE2384F8B06384F8AB5384F8AF0384F87D
:108F7000AC130CA802F06AFA0CA8082102F06AFAF5
:108F800004F27D310CA8412202F084FA0CA904AA53
:108F9000202304F1080002F02DFA0CA802F064FA74
:108FA0009DF810109DF82F009DF811309DF82E208F
:108FB0009DF812609DF82D508DF810008DF82F103F
:108FC0009DF813009DF82C108DF811208DF82E308F
:108FD0009DF814209DF82B308DF812508DF82D60DF
:108FE0009DF815509DF82A608DF813108DF82C000F
:108FF0009DF816109DF829008DF814308DF82B205F
:109000009DF817309DF828208DF815608DF82A50AE
:109010008DF816008DF817208DF828308DF829105E
:109020009DF818109DF827009DF819309DF826200E
:109030009DF81A609DF825508DF818008DF82710BE
:109040009DF81B009DF824108DF819208DF826300E
:109050009DF81C209DF823308DF81A508DF825605E
:109060009DF81D509DF822608DF81B108DF824008E
:109070009DF81E109DF821008DF81C308DF82320DE
:109080009DF81F309DF820208DF81D608DF822502E
:109090008DF821108DF81F208DF820308DF81E00DE
:1090A00094F87E0394F89D1394F87F2394F89C33EE
:1090B00094F8806394F89B5384F89D0384F87E139E
:1090C00094F8810394F89A1384F89C2384F87F33EE
:1090D00094F8822394F8993384F89B6384F880533E
:1090E00094F8836394F8985384F89A0384F881136E
:1090F00094F8840394F8971384F8992384F88233BE
:1091000094F8852394F8963384F8986384F883530D
:1091100084F8841384F8962384F8853384F89703BD
:1091200094F8860394F8951394F8872394F894336D
:1091300094F8886394F8935384F8950384F886131D
:1091400094F8890394F8921384F8942384F887336D
:1091500094F88A2394F8913384F8936384F88853BD
:1091600094F88B6394F8905384F8920384F88913ED
:1091700094F88C0394F88F1384F8912384F88A333D
:1091800094F88D2394F88E3384F8906384F88B538D
:1091900084F88C1384F88E2384F88D3384F88F033D
:1091A00094F89E0394F8BD1394F89F2394F8BC336D
:1091B00094F8A06394F8BB5384F8BD0384F89E131D
:1091C00094F8A10394F8BA1384F8BC2384F89F336D
:1091D00094F8A22394F8B93384F8BB6384F8A053BD
:1091E00094F8A36394F8B85384F8BA0384F8A113ED
:1091F00094F8A40394F8B71384F8B92384F8A2333D
:1092000094F8A52394F8B63384F8B86384F8B703C8
:1092100084F8A41384F8B62384F8A53384F8A35300
:1092200094F8A65394F8A72394F8B43394F8B503AC
:1092300094F8A81394F8B36384F8B55384F8B4236E
:1092400094F8A95394F8AA2384F8A73394F8B13377
:1092500094F8B0C384F8A60384F8B31394F8B20367
:1092600094F8AB1384F8A86384F8B25394F8AC6311
:1092700094F8AF5384F8B12384F8AA3394F8AD235B
:1092800094F8AE3384F8A90384F8B013384604A9DF
:1092900084F8ABC384F8AF6384F8AC5384F8AE238E
:1092A00084F8AD33FFF79AFA0DF56B7DF0BDD4F875
:1092B0001424002A3FF401AD0223002100930C92F4
:1092C0000CAB064A0D97084610F0A4FFF5E43846AB
:1092D0001A461946FFF786FAEFE400BF0D88020030
:1092E000A8DF7047704700BF30B5044683B0083030
:1092F00000F074F804F10C010DF106020120FFF7F3
:10930000EFFF054628B9044B04481C602146FFF7CF
:10931000C5F8284603B030BD74680020B86C002042
:1093200030B44C68C460D1E90241054A054D026081
:10933000054A8560C0E90441426030BC704700BF07
:10934000E8320400003304000000111183790B702F
:10935000C3791370704700BF62DF704763DF7047E7
:10936000704700BF10B5044610F0E0FB204610BD6A
:10937000034A02600022C0E90222827182807047A3
:109380000033040010B4054C8180002201210460E8
:10939000C0E902225DF8044B81717047003304007C
:1093A000002210B4044C046081605DF8044B8271AB
:1093B0008280C260704700BF003304008379012BB4
:1093C0000AD0826832B9C26822B9012B8CBF8020D2
:1093D0000020704780207047102070472DE9F0472B
:1093E000857982B0002D47D1C7680646002F47D047
:1093F00010200EF00FF88246384617F0C4FA441ECB
:1094000030B3DFF88490A84604E00134023C1FD456
:10941000102D1DD017F804C0BCF12D0F07EB04026E
:10942000F3D099F80030ADF805808DF8043012F8CB
:10943000013C8DF804301022002101A88DF805C0F0
:1094400017F05CFB6B1C023C0AF80500DDB2DFD5AF
:10945000C6F808A0BAF1000F0ED0B11D5046FFF7B4
:109460007BFFB168321D1020FFF778FFB0FA80F063
:10947000400902B0BDE8F087012002B0BDE8F087E6
:10948000D0F808A0E6E700BFF43204004DDF7047D3
:109490004EDF70474FDF704750DF70474BDF70473C
:1094A00010DF70477CDF70477DDF704760DF7047FB
:1094B00069DF704761DF704766DF704767DF7047BD
:1094C000704700BF042011F0F5B900BF30B5224C41
:1094D000224D83B0D4F830074FF0FF310EF0D8FCA6
:1094E0000028F7D0C5B101A8FFF7D8FF0528F1D0B3
:1094F0000028F8D1019B032B1BD8012BF3D9184668
:109500000DF020FDEFE70A2B04D0092B21D00B2B07
:1095100002D1012007F08AFB01A8FFF7BFFF052851
:10952000D8D00028F8D1019BA3F10902022AF3D870
:10953000E9E7A3F10902022AD5D80A2B04D0092BA6
:1095400005D00B2BCFD1012007F070FBCBE7022019
:10955000FAE70220DEE700BF78680020456F0300CD
:109560002DE9F04F2DED028B4FF4FA7089B00DF01C
:1095700051FFB24E00F1080308EE103A054606F519
:10958000F16706F5C86AD6F82C074FF0FF310EF0E8
:109590007FFC0028F7D04FF4FA730DF1160128462E
:1095A000ADF81630FFF786FF10B10528F3D1EAE7D2
:1095B000B5F80490B9F1130F00F2398106EB890375
:1095C000D3F83C473CB129462046FEF7B5FC9C4801
:1095D0002946FFF733FB2B88013B1B2B5AD8DFE8CA
:1095E00013F016015900590059005900590059004B
:1095F00059005900590059005900590059005900A3
:10960000B4001C0059005900590059005900590074
:109610005900590059005900A200DFF838824FF074
:10962000000B58F8040F30B1FEF708FC18B10BF12D
:10963000010B5FFA8BFBB845F3D1BBF1000F06D1EC
:1096400096F838371BB15946042011F015F9204619
:10965000FEF7FEFB012800F0EC80F26962B1022304
:10966000002195F808C00093084606ABCDF8189085
:10967000CDF81CC010F0CEFD09F5E77806EB8803A5
:10968000586810B103685B68984706EB88080023A8
:10969000C8F8043029465046FDF788FD6948294638
:1096A000FEF7CCFFB6F83A374B452B8800F0B48074
:1096B000102B1ED02CB32046FEF7CAFB012803D185
:1096C0005E482946FEF738FF2046FEF7C1FB022818
:1096D0001BD05D48FEF71AFD00BB5C482946FEF72B
:1096E000B1FDD6F89037002B3FF455AF2846984788
:1096F00051E7EB7B012BDDD1AB88A6F83A37002C84
:10970000D9D14E482946FEF717FF51482946FDF7A3
:10971000F3FD4D48FEF7FAFC0028DED04A48294602
:10972000FEF7F6FCD9E7D6F88C27002AB2D0022340
:10973000002195F908C00093084606ABCDF81890B3
:10974000CDF81CC010F066FDA4E74FF00008D6F875
:109750003407CDF800804346424603213D4C0FF0CC
:109760001DFF54F8040F30B1FEF768FB18B108F183
:1097700001085FFA88F8BC42F3D196F838376BB12C
:10978000B8F1000118BF0121042011F075F896F816
:1097900038371BB10121042011F06EF809F5E77884
:1097A00006EB8804606820B103685B689847002373
:1097B0006360EB7B012B0BBF96F81A3796F82037C6
:1097C00096F81B4796F821470393342010F0ACF924
:1097D00006EB8808039B009418EE102A04464946BD
:1097E000FEF7F8FA2046C8F80440FEF731FB0128DE
:1097F00032D0B269002A3FF44DAF0123002100931B
:10980000084606ABCDF8189010F004FD42E70021A1
:109810004846FFF751FE3DE7102B3FF46AAF112B8E
:109820007FF448AF4FF6FF73A6F83A3742E7044695
:10983000D1E6F268002A7FF412AF1DE778680020B5
:10984000986800201C6F0020706F0020B86C00200A
:1098500088680020B06F0020B268002A3FF41AAF79
:109860000021009006AB0846CDF8189010F0D2FC0D
:1098700010E700BF38B50446FEF720FE04F11000E3
:10988000FDF706FD04F12000FEF7CEFF04F5886029
:10989000FEF77AFC04F5C860FDF78AFB04F28460E9
:1098A000FDF70CFB04F2A460FEF74AFE04F5DF604E
:1098B000FEF712FC4FF480530025C4F81037164809
:1098C0001649174AC4F8140740F20113C4F81817D0
:1098D000C4F81C27A4F82037A4F8225704F23C70DF
:1098E0002946502216F05CF901224FF6FF73A4F8C6
:1098F000245784F82657C4F82C57C4F83057C4F8B6
:109900003457C4F89057C4F88C5784F83827A4F813
:109910003A37204638BD00BF010A17000300010195
:109920001700030004290BD8DFE801F00B130B1B11
:109930000300104BC0F8163740F20313A0F81A3793
:1099400070470D4BC0F8163740F20113A0F81A37D4
:1099500070470A4BC0F8163740F20113A0F81A37C7
:109960007047074BC0F816374FF48173A0F81A37C9
:10997000704700BFF70064001700030017000200E3
:1099800080000600F0B5BF4E80F824178DB080F837
:109990002527044610F046F910F04CF910F00AF9AA
:1099A0003369B949039303A8FFF77AFD18B100257D
:1099B00028460DB0F0BD0120FFF76AFD0120FFF73A
:1099C00065FD0120FFF766FD09A8FFF765FD099B0E
:1099D0009B0705D5AD4BD3F80435002B00F0FE8076
:1099E0000023AB4A94F81557049209A90120CDE948
:1099F00009330B938DF82450FFF75AFD0028D6D178
:109A000094F825370B90CDE90900181E18BF0120E6
:109A100094F824578DF82700049A8DF8263009A968
:109A200040208DF82550FFF743FD0028BFD194F862
:109A300014170990034661F30003CDE90A00049A64
:109A40008DF8243009A9A020FFF732FD0028AED1FF
:109A5000D4F810370A900B90049A099309A9A12011
:109A6000FFF726FD0028A2D194F82437002B40F000
:109A7000B98094F82537002B48D00023B4F81C7720
:109A8000049A0993022509A92320CDE90A338DF808
:109A90002450ADF82670FFF70BFD002887D1CDE9E3
:109AA000090094F82577B4F81E370B90049A8DF8C6
:109AB000245009A920208DF82670ADF82830FFF732
:109AC000F7FC00287FF473AF0990CDE90A0094F801
:109AD0002037049A8DF8245009A922208DF82630C9
:109AE000FFF7E6FC00287FF462AFCDE9090094F8A7
:109AF00021370B90049A8DF8245009A921208DF864
:109B00002630FFF7D5FC00287FF451AF04A8FFF7FB
:109B1000CDFC00287FF44BAFCDE9070040F00103F6
:109B200007A902208DF81C30FFF7C8FC00287FF43D
:109B30003EAF2046FEF7D0FC054600283FF437AF85
:109B400004F12000FEF786FE337D52498DF808307F
:109B5000182202A8FFF7A6FC00287FF428AF94F88B
:109B60002537002B40F088800322002101200DF0D2
:109B7000F3FCC4F82C0700283FF419AF05AB03260B
:109B8000CDE900634449454800234FF4A0620EF03C
:109B9000A5FC3246002101200DF0DEFCC4F83007A0
:109BA00000283FF404AF06ABCDE900633C493D48D3
:109BB0000023C8220EF092FC3B4B4FF480021A6047
:109BC0003A4B00930023184601224FF480710FF0A6
:109BD0008FFCC4F8340701F0BBF8E9E6022007F077
:109BE00025F8FDE60990CDE90A00B4F81637049A85
:109BF000ADF82630012509A923208DF82450FFF760
:109C000057FC00287FF4D3AECDE9090094F82477FF
:109C1000B4F818370B90049A8DF8245009A9202025
:109C20008DF82670ADF82830FFF742FC00287FF44D
:109C3000BEAE0990CDE90A0094F81A37049A8DF85F
:109C4000245009A922208DF82630FFF731FC002886
:109C50007FF4ADAECDE9090094F81B370B90049A60
:109C60008DF8245009A921208DF82630FFF720FC1B
:109C700000283FF4FEAE9AE604F11000FDF716FB53
:109C800072E700BF68330400C19402000070024014
:109C9000006000204433040060330400619502003A
:109CA00064330400CD94020000E100E0C59402009A
:109CB00000B5084B85B01B7D019108468DF80C302E
:109CC00016F061FE019982B203A8FFF7EBFB05B025
:109CD0005DF804FB6833040000B583B008460DF15D
:109CE0000601ADF80620FFF7DFFB20B99DF806005E
:109CF00003B05DF804FB002003B05DF804FB00BF77
:109D000070B4234B0E4605460FCB85B06C4607C496
:109D10009DF900202380B24234D09DF90130B34236
:109D200030D09DF90230B3422CD09DF90330B342BC
:109D300028D09DF90430B34224D09DF90530B342B8
:109D400020D0FEB19DF90730B3421BD09DF90830F9
:109D5000B34217D09DF90930B34213D09DF90A30B0
:109D6000B3420FD09DF90B30B3420BD09DF90C30AC
:109D7000B34207D09DF90D30B34203D0002005B0A7
:109D800070BC7047012085F8266705B070BC70472D
:109D90008033040090F92607704700BF80F8381719
:109DA000704700BF70B5044682B0D0F834070D4646
:109DB0000FF020FC4FF47A7206460023A90DA8028A
:109DC00015F096FC002302460421D4F834070093D2
:109DD0000FF0E4FB0EB102B070BD0096D4F834076A
:109DE0003346324603210FF0D9FB02B070BD00BFED
:109DF000132906D800EB8101D1F83C0708B1FEF722
:109E00001DB80020704700BFB0F83A07704700BF88
:109E100001290CBFB0F81607B0F81C07704700BF47
:109E200013299ABF00EB8101D1F83C07002070474D
:109E300010B5064C0021D4F830070DF09DFED4F883
:109E40002C070021BDE810400DF096BE7868002078
:109E500090F8383703B9704710B582B0D0F834475E
:109E60000EF02CFD002302460093204601210FF046
:109E700095FB02B010BD00BFF0B583B000240546CD
:109E80002346D0F834070094224603210FF086FBC6
:109E900005F5E76605F5F16756F8040F20B1FDF703
:109EA000CDFF08B10134E4B2BE42F5D195F83837A0
:109EB00043B1211E18BF0121042003B0BDE8F040CA
:109EC00010F0DABC03B0F0BD0148FFF7D3BC00BF0F
:109ED00078680020002070473CDF70473DDF704706
:109EE00011DF704713DF7047B0DF7047B2DF704794
:109EF0002DE9F0419EB0074604A8158814460E4689
:109F0000FDF7C4FDBDF81030AB4202D01EB0BDE875
:109F1000F081A379043B022BF8D939465248FFF768
:109F20007FFF4FF000080223394605463046CDE951
:109F30000688CDE908888DF81830FDF7E9FD06A9F7
:109F400000286AD03846ADF81C80FFF7CDFF247B8F
:109F5000012CDBD1454E41463E22304615F020FE15
:109F600023460DF10E02424938460824ADF80E4052
:109F7000FFF7BCFF68462946FDF770FF0098306088
:109F8000BDF804309DF80620B271B3802846FDF775
:109F900059FF002849D1354936484FF6FF740B4622
:109FA00001311B7883EA142383EA131242EA042264
:109FB00083EA131382EA033282EA431381429CB29A
:109FC000EDD12A4B2C489C870021FDF711F828463B
:109FD000FDF754FFFF210020FFF780FFB121002093
:109FE000FFF77AFF002891D1FFF77AFF00288DD183
:109FF000224B4FF0FF324FF01024C3F88020C3F8FB
:10A0000080216069FFF76EFF00287FF47FAF80F347
:10A010001488606901F082F978E740F2FD13384650
:10A02000ADF81C30FFF760FF70E70AA92846FDF77E
:10A0300061FF0028AFD01EAB13E903000B0C3060AA
:10A04000B180B37118AC0FCC0D4FC6F807000AAC45
:10A050007960BA60FB600FCC18360FC694E8070031
:10A0600086E8070097E700BF78680020807F00201F
:10A07000B47F0020BC7F0020B86E002000E100E02B
:10A08000877F002030B585B004460E496846FFF74B
:10A0900087F969462046FFF743F925466846FFF7EA
:10A0A0005FF9094B45F8183B08496846FFF778F90E
:10A0B00069462846FDF768FC6846FFF751F92046D7
:10A0C00005B030BD90330400D8330400B033040031
:10A0D00030B5B3B00546FFF707F918B1044620467E
:10A0E00033B030BD2D491CA8FFF75AF91CA906A8AA
:10A0F000FDF74AFC1CA8FFF733F906A8FDF786FC1C
:10A1000006A80421FDF786FC06A81421FDF786FCAD
:10A1100006A8FDF755F9044698B905F1180018216D
:10A120000190FDF777FC01981721FDF777FC019866
:10A130001B490122FDF794FC0198FDF741F9044603
:10A1400028B106A8FDF722F9204633B030BD1549E5
:10A1500002A8FFF725F902A91CA8FDF715FC02A823
:10A16000FFF7FEF81CA8FDF751FC02211CA8FDF723
:10A1700051FC02211CA8FDF753FC1CA8FDF720F997
:10A18000044618B901211CA8FDF7A2FC1CA8FDF784
:10A19000FDF806A8FDF7FAF8D6E700BFA0330400E3
:10A1A000F19E0200C0330400C16180F83D20704779
:10A1B000016380F84220704770B584B0044641F6D0
:10A1C0000A016846FFF7DEF869462046FFF7A8F85F
:10A1D0006846FFF7C5F820460E4B40F8183B24228E
:10A1E000002115F0DDFC0C4E0C480D4AE062002306
:10A1F0002364E36384F844301825052113232046A3
:10A20000E66184F83D5084F84110226384F84230BE
:10A2100004B070BD0834040044330400E433040087
:10A22000EC3304002DE9F0479AB00646FFF75CF8DE
:10A230008046002846D1336A002B4ED0736A002B2B
:10A2400056D0C6F5275909F1270906F1140406F17D
:10A25000380706F13C0554F8043F04A873B3FDF732
:10A2600063FB2268B36B09EB05019A4289B2684629
:10A2700008BF42F65021FFF785F8694604A8FDF7AC
:10A28000B9FB6846FFF76CF804A8FDF7BFFB022195
:10A2900004A8FDF7BFFB297804A8FDF7C1FB04A8BB
:10A2A000FDF78EF8824604A8BAF1000F0ED12A7885
:10A2B0002168FDF7F1FB04A8FDF768F8BC4205F141
:10A2C0000105C8D140461AB0BDE8F087FDF75EF839
:10A2D000D04640461AB0BDE8F08710F041F9044678
:10A2E00016F051FB736A346286F83E00002BA8D149
:10A2F00010F0F6F8044616F046FB746286F83F004C
:10A300009FE700BFD0F8D830988980B2704700BF6F
:10A3100070B582B0064608461C460192FDF774FBF4
:10A32000019905462246D0F8D80010F033F884424F
:10A3300006D9D5F8F0301BB1211A89B230469847BA
:10A34000D5F8E83023B1304602B0BDE87040184778
:10A3500002B070BD08B592B2D0F8D80010F068F81D
:10A3600008BD00BF00B583B0D0F8D8000DF10702DA
:10A37000002110F099F820B19DF8070003B05DF8B6
:10A3800004FB4FF0FF30F9E7D0F8D8000FF0F0BF32
:10A39000D0F8C030988980B2704700BFD0F8C000B4
:10A3A0000FF0E6BF10B501680C4A8C69944282B088
:10A3B0000BD1D0F8D80001220DF1070110F038F8C8
:10A3C00040B19DF8070002B010BD01220DF1070158
:10A3D000A047F5E74FF0FF30F5E700BF55A30200B7
:10A3E00000B583B0D0F8C0000DF10702002110F0D5
:10A3F0005BF820B19DF8070003B05DF804FB4FF057
:10A40000FF30F9E710B550F8181C0D4A8C699442DA
:10A4100082B00CD0183801220DF10701A04718B105
:10A420009DF8070002B010BD4FF0FF30FAE701229F
:10A430000DF10701D0F8C0000FF0FAFFEFE700BF01
:10A4400055A302002DE9F04F50F8183C83B00446A4
:10A450003F48D3F828800F461646FFF7D5FC3D4B02
:10A460009845054609D0A4F1180033463A462946D6
:10A47000C44603B0BDE8F04F604701463448FFF7DB
:10A48000CFFC8346002850D004F1100948462946E5
:10A49000FDF73EFB002848D094F8CC30002B3CD090
:10A4A000D4F8C800C8B31FFA86FA524639460FF0EE
:10A4B00071FFD4F8C8309B89804658461FFA83FB49
:10A4C000FDF7C8FC0338834525DB21482946FFF703
:10A4D000A7FC50B3FDF7BEFC033882B210460192D0
:10A4E0000CF098FF834600B3019AD4F8C80059468F
:10A4F0000FF09EFF0346F0B958460CF0A5FF464505
:10A5000009D9AAEB08039BB207EB08022946484683
:10A51000FDF72EFB58B1B04609E03A4629464846B9
:10A52000B3B2FDF725FB0028F5D14FF000084046F7
:10A5300003B0BDE8F08F5A4629464846FDF718FBA0
:10A54000044658460CF080FF002CD8D1EDE700BF40
:10A550007868002075A902002DE9F04150F8183CF8
:10A5600084B004463B489E6A8DF80F10FFF74CFC00
:10A57000394B9E42054609D0A4F118002946012313
:10A580000DF10F02B04704B0BDE8F081014631483B
:10A59000FFF746FC064650B304F11007384629463B
:10A5A000FDF7B6FA18B394F8CC30002B49D0D4F8A4
:10A5B000C800002845D00DF10F0101220FF0EAFE7E
:10A5C000D4F8C8309B89804630469EB2FDF742FCE5
:10A5D000033886420DDA0120D5E73246294638464F
:10A5E000FDF7C6FA044630460CF02EFFF4B9002001
:10A5F000C9E718482946FFF713FC0028F7D0FDF7F4
:10A6000029FCC21E92B2104601920CF003FF0646CE
:10A610000028ECD0019AD4F8C80031460FF008FFAA
:10A6200003460028D9D130460CF00EFFB8F1000FD8
:10A63000D1D10DF10F02294638460123FDF798FAD2
:10A64000A1E72946384601230DF10F02FDF790FAE4
:10A6500099E700BF7868002075A902002DE9F04154
:10A6600005683B4BAD6A82B09D428DF8072065D1ED
:10A67000044638480E46FFF7D3FB054600284FD066
:10A6800004F1280738463146FDF742FA002847D042
:10A6900094F8E430002B47D0D4F8E000002843D0F1
:10A6A0000DF1070101220FF075FED4F8E0309B890F
:10A6B000804628469DB2FDF7CDFBC31E9D4244DB7C
:10A6C00024483146FFF7ACFB50B3FDF7C3FB03381A
:10A6D00082B2104600920CF09DFE054600B3009A2F
:10A6E000D4F8E00029460FF0A3FE68B928460CF024
:10A6F000ABFEB8F1000F28D10DF107023146384604
:10A700000123FDF735FA0CE003462A463146384668
:10A71000FDF72EFA044628460CF096FE002CE8D1F0
:10A72000002002B0BDE8F0813146384601230DF12A
:10A730000702FDF71DFA02B0BDE8F08101230DF11B
:10A740000702A84702B0BDE8F0810120E9E700BF99
:10A7500075A90200786800202DE9F04F036883B0E6
:10A76000044641489E6A88461746FFF74DFB3F4B1B
:10A770009E42054661D101463B48FFF751FB064624
:10A78000002855D004F1280948462946FDF7C0F9AC
:10A7900000284DD094F8E430002B41D0D4F8E000EC
:10A7A00000283DD01FFA87FA524641460FF0F2FDCD
:10A7B000D4F8E02003463046B2F80CB01E46FDF750
:10A7C00049FB1FFA8BFB0338834524DB26482946C7
:10A7D000FFF726FB60B3FDF73DFB033882B210465E
:10A7E00001920CF017FE834610B3019AD4F8E000F2
:10A7F00059460FF01DFE48BB58460CF025FEB742E7
:10A8000009D9AAEB06039BB208EB06022946484683
:10A81000FDF7AEF968B13E46304603B0BDE8F08FB3
:10A82000424629464846BBB2FDF7A2F90028F2D1BC
:10A830000026304603B0BDE8F08F01463B46424655
:10A840002046B44603B0BDE8F04F604703465A4681
:10A8500029464846FDF78CF9044658460CF0F4FDAD
:10A86000002CCCD1E4E700BF7868002075A9020075
:10A870002DE9F041036882B004463C489E6A8DF899
:10A880000710FFF7C1FA3A4B9E420546014663D1D5
:10A890003648FFF7C5FA064600284FD004F12807CE
:10A8A00038462946FDF734F9002847D094F8E430BB
:10A8B000002B47D0D4F8E000002843D00DF1070169
:10A8C00001220FF067FDD4F8E0309B8980463046C6
:10A8D0009EB2FDF7BFFAC31E9E4245DB23482946C0
:10A8E000FFF79EFA50B3FDF7B5FA033882B210466F
:10A8F00000920CF08FFD064600B3009AD4F8E000F9
:10A9000031460FF095FD68B930460CF09DFDB8F169
:10A91000000F29D10DF10702294638460123FDF722
:10A9200027F90CE00346324629463846FDF720F960
:10A93000044630460CF088FD002CE8D1002002B01F
:10A94000BDE8F0812946384601230DF10702FDF7E5
:10A950000FF902B0BDE8F081204601230DF1070296
:10A96000B04702B0BDE8F0810120E8E77868002038
:10A9700075A902002DE9F04F044683B0384890468F
:10A980001F460E46FFF74CFA002856D004F128095E
:10A99000054631464846FDF7BBF800284DD094F8EF
:10A9A000E430002B41D0D4F8E00000283DD01FFA5D
:10A9B00087FA524641460FF0EDFCD4F8E0200346FA
:10A9C0002846B2F80CB01D46FDF744FA1FFA8BFB7F
:10A9D0000338834524DB22483146FFF721FA60B370
:10A9E000FDF738FA033882B2104601920CF012FDDE
:10A9F000834610B3019AD4F8E00059460FF018FDD1
:10AA000000BB58460CF020FDBD4209D2AAEB05035D
:10AA10009BB208EB050231464846FDF7A9F868B13C
:10AA20003D46284603B0BDE8F08F424631464846D1
:10AA3000BBB2FDF79DF80028F2D10025284603B0EF
:10AA4000BDE8F08F03465A4631464846FDF790F878
:10AA5000044658460CF0F8FC002CD5D1EDE700BFB9
:10AA60007868002070B584B004460E4668461E49DA
:10AA7000FEF796FC69462046FEF752FC6846FEF754
:10AA80006FFC1A4B1A4903F10802002548334FF4B2
:10AA90007A70C4E90635226020626846FEF780FCC1
:10AAA000694604F12800FCF76FFF6846FEF758FC82
:10AAB00010496846FEF774FC694604F18000FCF713
:10AAC00063FF6846FEF74CFC2046C4E93A55C4F8DB
:10AAD000D850A4F8DC60C4F8F050C4F8E05084F812
:10AAE000E45004B070BD00BF3C3404004C3404009A
:10AAF0002C3404001C34040010B50D4B0446D0F86F
:10AB0000E00023604033A36110B103685B6898479D
:10AB100004F18000FCF73AFC04F12800FCF736FC55
:10AB20002046044B40F8083BFEF71AFC204610BDB7
:10AB300054340400E832040010B50F4B0446D0F83A
:10AB4000E00023604033A36110B103685B6898475D
:10AB500004F18000FCF71AFC04F12800FCF716FC55
:10AB60002046064B40F8083BFEF7FAFB20460EF065
:10AB7000DDFF204610BD00BF54340400E83204005D
:10AB800070B5044682B018200EF0CEFF00220546B4
:10AB900001210FF0CDFB2846B4F8DC10C4F8D850E2
:10ABA0000FF0D8FB2046FEF79FFB054610B1284664
:10ABB00002B070BD01211E48FFF72AF904F12806F2
:10ABC00003461021304601961E46FCF723FF2A4615
:10ABD00001981121FCF736FF01983146FCF71EFF62
:10ABE00001981449FCF750FF0198FCF7E9FB054672
:10ABF0000028DCD104F180000C210190FCF70AFF51
:10AC000001980D490122FCF723FF112201982946E2
:10AC1000FCF718FF01983146FCF700FF019807493F
:10AC2000FCF732FF019802B0BDE87040FCF7C8BBEA
:10AC3000786800201434040011A3020018340400C2
:10AC4000002201214270C0E901220170C28182818B
:10AC5000704700BF10B50446017001B110BD0A2055
:10AC60000CF0BCFC606010BD037810B5044643B125
:10AC7000002301226370C4E90133E381A3812270C0
:10AC800010BD40680DF08CFAF2E700BF0023816030
:10AC90008281C381704700BF037870B504460D46BA
:10ACA000B3B94668012363704FF47A720023A80297
:10ACB000A90D14F01DFD014630460DF0E9F898B9D4
:10ACC000237800264FF0FF356670A3B9284670BD83
:10ACD0000322002101200CF03FFC064660600028A2
:10ACE000E0D14FF0FF35F1E7E58923780026ADB2DA
:10ACF0006670002BEAD060680DF052FA6660284654
:10AD000070BD00BF4078704738B5044680898242E4
:10AD100028BF0246154619B1A06814F019FFA08992
:10AD2000E389A26815FA83F3401B9BB22A44A081F1
:10AD3000E381A260284638BD406820B100231A464E
:10AD400019460CF07DBC7047B1DF7047B2DF704729
:10AD500008B50F480BF082FF0E490D4806F062FA65
:10AD600028B10D490A4806F05DFA50B108BD0949FD
:10AD7000074806F073FA0849054806F053FA002818
:10AD8000F4D1BDE808400449014806F067BA00BFA5
:10AD9000487F0020B0340400C434040070B586B08D
:10ADA0000E4603230021054614460093044A0496E8
:10ADB000084603AB039505940FF02CFA06B070BD5E
:10ADC00089B0020070B586B00323144606460D46CE
:10ADD0000093104603AB044A05940721CDE90365AF
:10ADE0000FF018FA06B070BDB9B1020030B50A46CE
:10ADF00091B089795379039111790293D378094DF0
:10AE0000094C019100939378527801280CBF294690
:10AE1000214604A815F062FD04A9044806F076FA5C
:10AE200011B030BDD834040008350400487F00203C
:10AE30002DE9F043D1B00B78032B04AF0D46044647
:10AE4000904668D95A08022A5ED14F4A4F49504B62
:10AE5000DFF84891012818BF11460022381D06F07E
:10AE60002DFC4B4907F1680006F05EFB07F1CC06AC
:10AE700011E00246414607F1680006F047FC08F180
:10AE8000380229464846FDF70DFE044678BB07F117
:10AE9000680006F0B1FC0022391D304606F0DEFCE9
:10AEA00007F1D0000DC8D7F8DC10D7F8E4407B6775
:10AEB000D7F8E83097F8E0C0F8663A67B9674122FA
:10AEC00007F1EC0107F18800C7E9204387F87CC04F
:10AED00014F03EFE07F1680006F0BAFC044607F1E4
:10AEE000680044B106F0C0FA5028D0D1C1E707F19C
:10AEF000680006F081FC381D06F07EFC204607F550
:10AF00009A77BD46BDE8F0830024204607F59A777E
:10AF1000BD46BDE8F083E9468CB08979AB786A78A4
:10AF2000039169790291297901911A4E1A49E878B9
:10AF3000009004AD012C08BF3146284607F1CC062D
:10AF400015F0CCFC1249304606F0EEFA29463046A0
:10AF5000002206F097FB044650B90024304606F064
:10AF60004BFC2046CD4607F59A77BD46BDE8F083F9
:10AF7000304606F079FA021EEFDD92B241463046C5
:10AF800006F0C4FBEAE700BFC4340400B034040098
:10AF9000487F0020D8340400083504009868002059
:10AFA000F0B5ADB095799378344E14465278039548
:10AFB0006579029594F804C0CDF804C0304DE4786A
:10AFC000009404AF0C4601280CBF3146294607F116
:10AFD0000C0015F083FC2B4B07F10C0107F13C0032
:10AFE000002206F06BFB07F13C0006F031FC40B993
:10AFF000002407F13C0006F0FFFB2046A437BD46C5
:10B00000F0BD07F13C0006F02FFA051E08DD07F140
:10B010003C0006F0B9FB291807F13C0006F096FB4E
:10B0200007F13C0006F020FA051E08DD07F13C00A0
:10B0300006F0AAFB291807F13C0006F087FB07F190
:10B040003C0006F011FA0028D2DDC31D23F00703EF
:10B050006D46ADEB030D82B204A907F13C00C7E9D0
:10B06000001206F053FB2046D7E900120323FFF736
:10B070006BFEB0FA80F46409AD46BAE7D834040038
:10B0800008350400487F0020F0B5B5B092F84E5066
:10B0900092F84A30434E144692F84920039594F8AA
:10B0A0004D50029594F84C50019594F84B500095F2
:10B0B0000D463D4904AF012818BF314607F12C0069
:10B0C00015F00CFC394807F12C0106F0ABF86E4680
:10B0D00000284AD1354B07F12C0107F15C00012211
:10B0E00006F0ECFA07F15C0006F0B2FB18B9C437C1
:10B0F000B546BD46F0BD502107F15C0006F0E2F90F
:10B100005022214607F15C0006F01AF90023294677
:10B1100027487B61C7E90333C7E90633C7E908332A
:10B12000BB62FEF77DFE07F10C012022FCF7B4FFA5
:10B130003B7B03B307F10C0015F025FC013082B214
:10B14000C1B207F15C007A6006F0BCF97A6807F1D9
:10B150000C0107F15C0006F0F3F807F15C0006F063
:10B160004BFBC437B546BD46F0BD07F12C010F4877
:10B1700006F0CCF8AEE794F8491094F84D3094F806
:10B180004E20039194F84A10029194F84B100191CB
:10B1900094F84C10009107F10C00064915F09EFB45
:10B1A000C8E700BF08350400D8340400487F0020F9
:10B1B00078680020383504002DE9F043ADB00C4626
:10B1C00004AF0021032306461546204607F10A0274
:10B1D0007981FFF7BBFD7B89E84623B9A437C546D3
:10B1E000BD46BDE8F0830733DB08A8EBC3039D46EB
:10B1F0000DF11009204607F10A0249460323FFF723
:10B20000A5FD04460028E9D1A979AB786A780391B5
:10B2100069790291297901913D483E49ED7800957F
:10B22000012E08BF014607F10C0015F057FB3A4B01
:10B2300007F10C0107F13C00012206F03FFA07F18B
:10B240003C0006F005FB0028C8D0214607F13C0071
:10B2500006F07CFA07F13C0006F006F9041E08DD52
:10B2600007F13C0006F090FA211807F13C0006F0C7
:10B270006DFA07F13C0006F0F7F8041E08DD07F14F
:10B280003C0006F081FA211807F13C0006F05EFA56
:10B2900007F13C0006F0E8F87C8980B2A04213D0A8
:10B2A000E1B207F13C0006F00DF92246494607F1EC
:10B2B0003C0006F045F807F13C0006F09DFAA43783
:10B2C000C546BD46BDE8F083E31D6D46DB08A5EB32
:10B2D000C3039D4604A9224607F13C00796006F0AD
:10B2E00015FA79687A89484614F024FC08B9AD4605
:10B2F000E1E707F13C0006F063FA7B89DB431918AC
:10B3000007F13C0006F022FAAD467C89C8E700BF91
:10B31000D834040008350400487F0020F0B4034608
:10B32000186880F308885868FF2464B2EFF3058535
:10B33000002D01D1A64600472546064621273FBAE3
:10B34000F0B40024002500260027F0B4F92040B214
:10B35000004700BFF0BC704738B590F8E8500DB119
:10B36000284638BD012380F8E830044611F00CFA75
:10B370000028F5D12046BDE8384000F0ADB800BF48
:10B3800010B5044C204600F0A3F8002384F8E83000
:10B3900010BD00BF0C70002003680A689A4201D0FB
:10B3A0000020704770B5044684B04FF453700D46CA
:10B3B0000CF030F80646B0B10C4800F0ABF823466C
:10B3C0000435002153F8042B0095CDE901610849AB
:10B3D00011F074F8044630460CF036F8B4FA84F0F4
:10B3E000400904B070BD002004B070BD0C70002096
:10B3F00099B20300F0B585B006464FF453700D4680
:10B40000174603930CF006F878B1044600903A46CC
:10B41000281D311D03AB11F0CFF8054620460CF076
:10B4200013F815B9039805B0F0BD002005B0F0BDC4
:10B4300000220260704700BF10B50446084611F0B4
:10B440002DF92060003818BF012010BD00220260D5
:10B45000704700BF10B50446084611F01FF9206080
:10B46000003818BF012010BD00230360704700BFE3
:10B4700000B583B00430019201AB0A46042110F0FC
:10B4800097FF18B9019803B05DF804FB002003B0E2
:10B490005DF804FBF0B5044683B04FF463700E46CC
:10B4A00017460BF0B7FF054678B1019054F8040B2E
:10B4B00000943A463146012310F0B6FE0446284671
:10B4C0000BF0C2FFB4FA84F0400903B0F0BD00BF36
:10B4D000002280F8E420704770B590F8E4400CB189
:10B4E000204670BD012380F8E43005464FF4BF507C
:10B4F0000BF090FF06460028F2D03146284610F0A7
:10B50000B7F80446B4FA84F4304664090BF09CFFA3
:10B51000204670BD704700BF0146014800F058BB8F
:10B520001871002038B5064B1D783DB10024204627
:10B53000013400F059FEE0B28542F9D838BD00BFB1
:10B5400014710020007EFF280AD010B500F0F4FD31
:10B55000044608B1204610BD0EF07CFD204610BD0B
:10B5600000207047007EFF280ED000B583B00DF19B
:10B57000070100F02FFE20B19DF8070003B05DF831
:10B5800004FB4FF0FF30F9E74FF0FF30704700BF8A
:10B59000007EFF280FD000B583B001220DF1070116
:10B5A00000F0D6FD20B19DF8070003B05DF804FB64
:10B5B0004FF0FF30F9E74FF0FF307047007EFF2873
:10B5C00001D000F011BE7047007EFF2801D000F0CE
:10B5D00073BE0020704700BFF8B50646007EFF2806
:10B5E0001CD017465AB10D46144600F081FD29467D
:10B5F000224680B1307E00F03BFE241A01D138464D
:10B60000F8BD05440EF026FD307E00F071FD2946A0
:10B6100022460028EED13F1B3846F1E70020F8BD56
:10B62000002A00F093802DE9F041494991F81C71FE
:10B6300091F81D6191F81E8192B01D46B81C08F169
:10B6400001031446B21C81F81C0181F81D2181F808
:10B650001E3101A84222002114F0A2FA412D71D915
:10B660007B1CDBB28DF81E308DF827308DF8313021
:10B6700040F608320223ADF804208DF807308DF82B
:10B6800012308DF833308DF83B3040F2022240F218
:10B690000943ADF80820ADF80C3040F201224FF418
:10B6A000A063ADF81020ADF814302422294B8DF89A
:10B6B00016200693012204238DF81C208DF81F30DC
:10B6C0008DF83030244D089540F2075340F2246243
:10B6D000ADF82420ADF82830ADF838300325082324
:10B6E0004FF411628DF82B508DF82C30ADF82E20D0
:10B6F00020460A25741C402307228DF834508DF80B
:10B700003C308DF83F2044F2020301A966F07F0629
:10B7100064F07F04052542228DF806708DF80E70C6
:10B720008DF826708DF83A808DF82A608DF840509B
:10B730008DF84140ADF8423014F00AFA422012B0C0
:10B74000BDE8F081002012B0BDE8F08142207047D2
:10B7500018710020200105242402020570B5036839
:10B76000184A5B6882B093428DF8071021D10546D4
:10B77000007EFF2823D000F0BBFC0DF1070601245A
:10B780003146224688B1287E00F072FD241A02D18B
:10B79000012002B070BD06440EF05CFC287E00F073
:10B7A000A7FC314622460028EDD1C4F1010002B0C9
:10B7B00070BD01220DF10701984702B070BD002055
:10B7C00002B070BDD9B50200002A00F093802DE9C7
:10B7D000F041494991F81C7191F81D6191F81E8161
:10B7E00092B01D46B81C08F101031446B21C81F842
:10B7F0001C0181F81D2181F81E3101A8422200217F
:10B8000014F0CEF9412D71D97B1CDBB28DF81E30BE
:10B810008DF827308DF8313040F608320223ADF82C
:10B8200004208DF807308DF812308DF833308DF804
:10B830003B3040F2022240F20943ADF80820ADF857
:10B840000C3040F201224FF4A063ADF81020ADF8A7
:10B8500014302422294B8DF816200693012204234C
:10B860008DF81C208DF81F308DF83030244D089550
:10B8700040F2075340F22462ADF82420ADF828309E
:10B88000ADF83830032508234FF411628DF82B50A2
:10B890008DF82C30ADF82E2020460A25741C40234C
:10B8A00007228DF834508DF83C308DF83F2044F25B
:10B8B000020301A966F07F0664F07F040525422299
:10B8C0008DF806708DF80E708DF826708DF83A8020
:10B8D0008DF82A608DF840508DF84140ADF8423027
:10B8E00014F036F9422012B0BDE8F081002012B009
:10B8F000BDE8F08142207047187100202001052426
:10B9000024020205037EFF2B02D1074B1A7802B1F5
:10B910007047064902764161012200F11001044896
:10B920001A7000F037B900BF1471002058350400B8
:10B930001871002010B50446044800F0DFF8044BED
:10B94000FF21002221761A7010BD00BF187100205F
:10B9500014710020007EFF280ED000B583B000F0E7
:10B96000C7FB10B103B05DF804FB01900EF072FB51
:10B97000019803B05DF804FB0020704701B900B1E5
:10B98000704700B583B0694600F0C8FB009BB3F573
:10B99000966F02D003B05DF804FB00F057FBF9E7A7
:10B9A00030B4084B084AFF2002F108054FF47A74BE
:10B9B0000021303218761D609C601A6130BC5960DD
:10B9C00059617047F8700020683504000378002B37
:10B9D00000F09280F0B50546002004462E4603E0B4
:10B9E00001342B5D2E19C3B103F14002D2B2012AFA
:10B9F000F6D9F42BF4D81A0610D40122A3F5584630
:10BA0000B6F5006FECD31444202806D021F810308E
:10BA10002B5D01302E19002BE6D1F0BD03F0E002C2
:10BA2000C02A52D003F0F002E02A61D003F0F802FD
:10BA3000F02AD5D103F007030427727802F0C00C76
:10BA4000BCF1800FCCD196F802C00CF0C00E02F011
:10BA50003F02BEF1800F42EA8313C1D10CF03F0CCC
:10BA6000032F4CEA83132AD0F27802F0C006802E0E
:10BA7000B6D102F03F0242EA8313A3F58032B2F559
:10BA8000801F38BF0427ABD2A3F55842B2F5006F30
:10BA9000A6D3B3F5803F3C44B6D31E28BDDCA3F546
:10BAA000803342009E0A0A44C3F30903A6F52056D8
:10BAB000A3F5105321F810605380023091E7A3F5ED
:10BAC0000062B2F5784FDFD38AE7727802F0C006E1
:10BAD000802E03F01F0383D102F03F0242EA83135A
