:020000022000DC
:106000000000042065B80300A5B80300A7B803008A
:10601000A9B80300ABB80300ADB80300000000004E
:10602000000000000000000000000000E1B70300D5
:10603000B1B803000000000001B80300B5B80300C8
:10604000B9BA0300B7B8030031900300B7B8030032
:10605000B7B80300B7B8030001910300B7B8030055
:10606000B7B80300B7B80300B7B80300B7B8030068
:10607000B7B80300B7B80300B7B80300B7B8030058
:10608000B7B8030031B50300B7B80300B7B80300D1
:10609000B7B80300B7B803009DB60200B7B8030055
:1060A000B7B80300B7B80300B7B80300B7B8030028
:1060B000B7B80300B7B803000000000000000000FC
:1060C000B7B80300B7B80300B7B80300A5BB030017
:1060D000B7B80300B7B80300B7B8030031D802005F
:1060E000B7B80300B7B80300B7B80300000000005A
:1060F00000000000B7B80300000000001DBC030052
:10610000000000000000000000000000000000008F
:10611000000000000000000000000000000000007F
:10612000000000000000000000000000000000006F
:10613000000000000000000000000000000000005F
:10614000000000000000000000000000000000004F
:10615000000000000000000000000000000000003F
:10616000000000000000000000000000000000002F
:10617000000000000000000000000000000000001F
:10618000000000000000000000000000000000000F
:1061900000000000000000000000000000000000FF
:1061A00000000000000000000000000000000000EF
:1061B00000000000000000000000000000000000DF
:1061C00000000000000000000000000000000000CF
:1061D00000000000000000000000000000000000BF
:1061E00000000000000000000000000000000000AF
:1061F000000000000000000000000000000000009F
:10620000F1EE103A43F08073E1EE103A704700BFB0
:1062100010B5054C237833B9044B13B10448AFF3E0
:1062200000800123237010BDB06300200000000037
:10623000D47F040008B5034B1BB103490348AFF3F7
:10624000008008BD00000000B4630020D47F04007B
:10625000154B002B08BF134B9D46A3F5803A002138
:106260008B460F461348144A121A1BF009FC0F4BB9
:10627000002B00D098470E4B002B00D098470020F1
:10628000002104000D000D48002802D00C48AFF397
:1062900000801BF08BFB2000290015F03BFB1BF05E
:1062A0005FFB00BF000008000000042000000000A9
:1062B00000000000B063002040A0002000000000AB
:1062C0000000000000207047D0E985308342C3BF42
:1062D000C3F5FF730133C018C01A704770B501468B
:1062E00088B005461448154C154E05F0CFF9154BEE
:1062F00020221D8069460023CDE90033CDE9033318
:10630000CDE905330293079303F0E0FA01230E4928
:106310003370204612F0B6FA6946204612F0B2FAFF
:106320000A49204612F0AEFA317820460A2212F0CD
:1063300087FB08B070BD00BF586A0020D8720020EB
:1063400008670020AC690020D84E04000C4F040000
:1063500070B50C4C0C4E00230D4620460B49337093
:1063600012F090FA29461022204612F08FFB0849BD
:10637000204612F087FA317820460A22BDE87040A4
:1063800012F05EBBD872002008670020204F040086
:106390000C4F040010B5054B036003F140020446A6
:1063A000826105F0DDFF204610BD00BFDC51040016
:1063B00010B5064B036003F140020446826105F00C
:1063C000CFFF204615F0E8FA204610BDDC5104004E
:1063D00008B5027C8A4203460CD0D0F8182210443B
:1063E0000132B2F5007F4174A8BF0022C3F8182221
:1063F000002008BD03689B689847002008BD00BFC7
:1064000030B5D0F81432C11891B04A7C422A044603
:1064100017D15A1CB2F5007F80F241820244527CAF
:10642000412A0ED1B3F5FF7F03F1020240F016843A
:10643000427C552A05D1827C442A08BF022200F002
:10644000C783D4F820524A7C4E2A44D15A1CB2F554
:10645000007F80F2F8822244527C412A40F09680EC
:10646000B3F5FF7F03F1020240F0F282627C4D2A15
:1064700040F08C8001222244527C452A40F08680E4
:106480001A1DB2F5007FA4BFA3F5FE73C3F3080283
:10649000D4F81832934205D02244237C527C9A428D
:1064A00040F0748340226946C84805F039F810ABC3
:1064B0000344C749E068002503F8405C12F0E2F9A4
:1064C0006946E06812F0DEF9217CE06812F02CFAEF
:1064D000D4F81432E1184A7C522A57D15A1CB2F52A
:1064E000007F80F2C4822244527C462A40F0D18050
:1064F000B3F5FF7F03F1020240F0BE82627C532AB3
:1065000040F0C7800122A018407C542840F0C18090
:106510000132B2F5007F40F0BE82627C412A40F039
:10652000B8800122A018407C542840F0B28001328B
:10653000B2F5007F40F0BE82627C452A40F0A9801F
:10654000DA1DB2F5007F04DB6FF4FC7C6344C3F317
:106550000802D4F818329F49934205D02244237C84
:10656000527C9A4240F00B83E068D4F82C5212F02F
:1065700089F99949E06812F085F9217CE06812F008
:10658000D3F9D4F81832C4F81432E1184A7C412AFD
:106590007FD15A1CB2F5007F80F20E822244527CD9
:1065A000442A40F0D480B3F5FF7F03F1020240F0AB
:1065B0000882627C562A40F0CA800122A018407CE2
:1065C000452840F0C4800132B2F5007F40F00882D7
:1065D000627C522A40F0BB800122A018407C5428E3
:1065E00040F0B5800132B2F5007F40F00882627C55
:1065F000492A40F0AC800122A018407C532840F08A
:10660000A6800132B2F5007F40F00882627C492A00
:1066100040F09D800122A018407C4E2840F09780D9
:106620000132B2F5007F40F00882627C472A40F0D8
:106630008E8003F10B02B2F5007F04DB6FF4FA7574
:106640002B44C3F30802D4F81832934205D02244F5
:10665000237C527C9A4240F08382604802F096F894
:106660005F4B604A5A490546002D14BF1D4615462A
:10667000E06812F007F92946E06812F003F9217C7E
:10668000E06812F051F90025D4F81832C4F8143239
:10669000E1184A7C4C2A5AD15A1CB2F5007F80F28C
:1066A0000F822244527C452A40F0D280B3F5FF7F0E
:1066B00003F1020240F00982627C442A40F0C88063
:1066C0000122A018407C4D2840F0C2800132B2F572
:1066D000007F40F00982627C4F2A40F0B98001229D
:1066E000A018407C442840F0B3800132B2F5007F0E
:1066F00040F00982627C452A40F0AA80DA1DB2F59A
:10670000007F04DB6FF4FC700344C3F30802D4F889
:106710001832934205D02244237C527C9A4240F0A6
:106720001782314B2A499D69E068002D40F0F181C4
:1067300012F0A8F82D49E06812F0A4F8217CE06876
:1067400012F0F2F8D4F81832C4F81432E1184A7C86
:10675000432A7DD15A1CB2F5007F80F2DA802244B0
:10676000527C4F2A40F08F80B3F5FF7F03F1020285
:1067700040F0D380627C4E2A40F085800122A1182F
:10678000497C4E297FD10132B2F5007F40F0D280A2
:10679000627C452A77D10122A118497C432972D114
:1067A0000132B2F5007F40F0D280627C542A6AD177
:1067B0000122A118497C452965D10132B2F5007F3B
:1067C00040F0D280627C442A5DD111E0586A0020FA
:1067D000C44F0400744F0400E84F04009870002078
:1067E000644F04006C4F0400B06900203C58040062
:1067F00003F10902B2F5007F04DB6FF4FB710B4477
:10680000C3F30802D4F81832934205D02244237C03
:10681000527C9A4240F0CD81C64804F00DFFC64B31
:10682000C64AC7490546002D14BF1D461546E068F7
:1068300012F028F82946E06812F024F8217CE0687C
:1068400012F072F80025D4F81832C4F81432E118A6
:106850004A7C562A17D15A1CB2F5007F80F28A80F2
:106860002244527C452A0ED1B3F5FF7F03F1020288
:1068700040F01B82627C522A05D1A27C532A08BFB9
:10688000022200F06782D4F82032AB4234D01DB12E
:10689000D4F81832C4F81432284611B030BD427C06
:1068A000412A7FF4CEAD827C552A08BF02227FF4B4
:1068B000C8ADA018407C44287FF4C3AD0132B2F5C6
:1068C000007F40F08581627C522A7FF4BAADA27CC1
:1068D000412A08BF02227FF4B4ADA018407C54289E
:1068E0007FF4AFAD0132B2F5007F40F08481627C6D
:1068F000452A00F08581A4E59249E06811F0C2FFC5
:106900009149E06811F0BEFF217CE06812F00CF8BC
:10691000BDE7627C4F2AB6D10122A118497C4E29DD
:10692000B1D10132B2F5007F7FF429AF627C4E2AEB
:10693000A9D10122A118497C4529A4D10132B2F57F
:10694000007F7FF429AF627C432A9CD10122A118E9
:10695000497C542997D10132B2F5007F7FF429AFE9
:10696000627C452A8FD101222244527C442A3FF482
:106970003FAF88E7627C452A85D1A27C522A08BFB6
:10698000022280D1A118497C53297FF47CAF0132C7
:10699000B2F5007F40F0DE81627C492A7FF473AF5C
:1069A000A27C4F2A08BF02227FF46DAF2244527CA2
:1069B0004E2A00F09C8166E7627C442A7FF4C7AED1
:1069C0000122A018407C56287FF4C1AE0132B2F5F6
:1069D000007F7FF4F3AD627C452A7FF4B8AE0122DC
:1069E000A018407C52287FF4B2AE0132B2F5007F8D
:1069F0007FF4F3AD627C542A7FF4A9AE0122A01883
:106A0000407C49287FF4A3AE0132B2F5007F7FF4C9
:106A1000F3AD627C532A7FF49AAE0122A018407C29
:106A200049287FF494AE0132B2F5007F7FF4F3ADD4
:106A3000627C4E2A7FF48BAE01222244527C472A8C
:106A40003FF4F7AD83E6627C412A7FF49FAD0122DB
:106A5000A018407C4D287FF499AD0132B2F5007F3B
:106A60007FF409AD627C452A3FF40AAD8EE5627C75
:106A7000462A7FF40EAE0122A018407C53287FF4F2
:106A800008AE0132B2F5007F7FF43DAD627C542A3E
:106A90007FF4FFAD0122A018407C41287FF4F9ADBE
:106AA0000132B2F5007F7FF43DAD627C542A7FF461
:106AB000F0AD01222244527C452A3FF441ADE8E585
:106AC000627C452A7FF4C4AE0122A018407C442891
:106AD0007FF4BEAE0132B2F5007F7FF4F2AD627C8E
:106AE0004D2A7FF4B5AE0122A018407C4F287FF4D8
:106AF000AFAE0132B2F5007F7FF4F2AD627C442A82
:106B00007FF4A6AE01222244527C452A3FF4F6AD22
:106B10009EE611F0B7FE0D49E06811F0B3FE217C4E
:106B2000E06811F001FFD4F81832C4F814320025DF
:106B3000E1180CE6586A0020644F04006C4F040012
:106B4000C44F0400744F0400C4500400C053040038
:106B50008949E068D4F8245211F094FE8749EAE5A7
:106B60008549E068D4F8245211F08CFE8449E0682D
:106B700011F088FE217CE06811F0D6FE84E5E06823
:106B8000D4F8245211F07EFE7E49F3E47A49E0689D
:106B900011F078FE7C49E06811F074FE217CE06819
:106BA00011F0C2FED4F81832C4F81432E1180225EC
:106BB00091E47149E068D4F8245211F063FE7349FE
:106BC000E06811F05FFE217CE06811F0ADFE3AE66E
:106BD000A018407C52287FF434AC0132B2F5007F1B
:106BE00050D1627C412A7FF42CACA27C542A08BF8D
:106BF00002227FF426AC2244527C452A7FF421AC49
:106C000003F10802B2F5007FA4BFA3F5FC73C3F340
:106C10000802D4F818325849934218D02244237CF1
:106C2000527C9A4213D0E068D4F8245211F02AFE24
:106C30005749E06811F026FE217CE06811F074FEEF
:106C4000D4F81832C4F81432E118FFF7FCBBE0683E
:106C5000D4F82C5211F016FE4E49EAE70244527C59
:106C6000552A7FF4EEABDA1CB2F5007F7FF421AE3B
:106C7000427C442A7FF4E5AB827C522A08BF022280
:106C80007FF4DFABA018407C41287FF4DAAB0132FF
:106C9000B2F5007F7FF421AE627C542A7FF4D1AB41
:106CA000A27C452A7FF4CDABAAE72244527C522A2B
:106CB0007FF4E9ADDA1CB2F5007F7FF463AE627C4D
:106CC000532A7FF4E0ADA27C492A08BF02227FF458
:106CD000DAADA118497C4F297FF4D5AD0132B2F568
:106CE000007F7FF463AE627C4E2A7FF4CCADDA1D68
:106CF000B2F5007F04DB6FF4FC721344C3F30802A7
:106D0000D4F81832934217D02244237C527C9A4202
:106D100012D01949E068D4F8245211F0B3FD1E498D
:106D2000E06811F0AFFD217CE06811F0FDFDD4F8C2
:106D30001832C4F81432A6E51849E06811F0A2FD33
:106D40001749E06811F09EFD217CE06811F0ECFD30
:106D50000025ECE7A118497C49297FF494AD013264
:106D6000B2F5007FB5D1627C4F2A7FF48CADA27C56
:106D70004E2A7FF488ADBAE7744F040054500400E3
:106D80002C50040008500400C84F04007850040040
:106D9000A04F04007C4F0400A0500400C44F040026
:106DA0006852040070B5D0F81432067CC21886B060
:106DB000527CB24255D001AC00215D1C04F8012B7D
:106DC0006FF4FF72B5F5007F134401F10101ACBF10
:106DD000C3F308032B46102900EB03023ED0527C7C
:106DE000964203D0D0F81852AB42E6D1C0F8143224
:106DF00001ABC1F11102581800211AF041FE1B48E5
:106E000001F0A6FD194801F09BFC194801F098FC1F
:106E100001A9184804F070FB0621144801F07CFC1D
:106E2000124801F061FC1449104801F019FC1048A7
:106E300001F02CFC0D48012101F0ACFCF4220B48C0
:106E4000202101F09FFC09481E2101F099FC00213E
:106E5000064801F00BFD002006B070BDC0F81432EA
:106E6000CDE7D0F8280206B070BD00BF98700020B2
:106E7000DC700020586A002000680020F8B5036824
:106E8000334F5B68D0F82862D0F81452BB420446F6
:106E900039D1D0F818028542C3BFC5F5FF7201325F
:106EA0008018401B002804DD6219527C202A08BF8C
:106EB0000135BB4224D1D4E985308342C3BFC3F539
:106EC000FF730133C018C01A01280CDD6B1CB3F529
:106ED000007F04DB6FF4FF73EB18C3F30803254452
:106EE0006A7C4F2A01D03046F8BD1C44637C4E2B8F
:106EF0000DD0462BF7D1174801F02AFD0026F2E706
:106F000020469847E0E7984723685B68CAE7062170
:106F1000104801F001FC0F4801F0E6FB0E490D4856
:106F200001F09EFB0D4801F0B1FB0A48012101F080
:106F300031FCF4220748202101F024FC05481E21E1
:106F400001F01EFC0348002101F090FC0026CAE776
:106F5000C96202009870002000680020DC700020E8
:106F6000F8B50368374F5B68D0F82862D0F8145240
:106F7000BB4204463FD1D0F818028542C3BFC5F5D5
:106F8000FF7201328018401B002804DD6219527C18
:106F9000202A08BF0135B5F5007FA8BFC5F3080555
:106FA000BB4225D1D4E985308342C3BFC3F5FF730B
:106FB0000133C018C01A002805DD2C44637C302B37
:106FC00003D0312B1BD03046F8BD1F4CFF210023CE
:106FD000206AC4E9051315F079FA6169606A15F051
:106FE00075FA6169A06A15F071FA00263046F8BD9D
:106FF00020469847DFE7984723685B68C4E7124C50
:107000002568A3699D4215D0FF21206A616115F0B2
:107010005DFA6169606A15F059FA6169A06A15F054
:1070200055FA23689D4205D063689D4202D0A3684B
:107030009D42DAD13223A561E36012F0F9F8E061F4
:10704000D3E700BFC9620200B069002070B5D0F874
:107050001432C11804464A7C422A17D15A1CB2F590
:10706000007F80F24A810244527C412A0ED1B3F55E
:10707000FF7F03F1020240F08E82427C552A05D147
:10708000827C442A08BF022200F0B282D4F8206237
:107090004A7C4E2A47D15A1CB2F5007F80F28A8181
:1070A0002244527C412A40F09680B3F5FF7F03F1E1
:1070B000020240F08481627C4D2A40F08C800122E3
:1070C000A018407C452840F086800132B2F5007F50
:1070D00040F08481627C3D2A7DD105335A42C2F35F
:1070E0000802C3F3080358BF5342C4F814322046C1
:1070F000FFF758FEBC490646E06811F0C3FB217C4F
:10710000E06811F011FC052012F09EF81825E068E7
:1071100010B1217C11F0E4FB013DF8D1D4F8183214
:10712000C4F81432E1184A7C522A54D15A1CB2F5E0
:10713000007F80F213812244527C462A40F0B780BF
:10714000B3F5FF7F03F1020240F00C81627C532A09
:1071500040F0AD800122A018407C542840F0A78068
:107160000132B2F5007F40F00A81627C412A40F092
:107170009E800122A018407C542840F09880013263
:10718000B2F5007F40F00881627C452A40F08F8094
:1071900001222244527C3D2A40F0898008335A4221
:1071A000C2F30802C3F3080358BF5342C4F81432B1
:1071B0008E49E068D4F82C6211F064FB8C49E068D9
:1071C00011F060FB217CE06811F0AEFBD4F81832BE
:1071D000C4F81432E1184A7C412A68D15A1CB2F52D
:1071E000007F80F207812244527C442A7AD1B3F591
:1071F000FF7F03F1020240F00281627C562A71D1C6
:107200000122A118497C45296CD10132B2F5007FD9
:1072100040F00481627C522A64D10122A118497C89
:1072200054295FD10132B2F5007F40F00681627CC3
:10723000492A57D10122A118497C532952D1013240
:10724000B2F5007F40F00881627C492A4AD10122D0
:10725000A118497C4E2945D10132B2F5007F40F09A
:107260000A81627C472A3DD101222244527C3D2A78
:1072700038D10C335A42C2F30802C3F3080358BF93
:107280005342C4F814322046FFF7F8FD06460028A2
:1072900040F05C815449E06811F0F4FA217CE06828
:1072A00011F042FBD4F81832C4F81432E1184A7CC9
:1072B0004C2A17D15A1CB2F5007F80F2EB80224491
:1072C000527C452A0ED1B3F5FF7F03F1020240F054
:1072D000CD81627C442A05D1A27C4D2A08BF0222BE
:1072E00000F04081D4F82032B34200F01D81D4F880
:1072F0001832C4F81432304670BD427C412A7FF403
:10730000C5AE827C552A08BF02227FF4BFAEA0180A
:10731000407C44287FF4BAAE0132B2F5007F40F0E1
:107320006781627C522A7FF4B1AEA27C412A08BFF9
:1073300002227FF4ABAEA018407C54287FF4A6AEA6
:107340000132B2F5007F40F06681627C452A7FF40D
:107350009DAEA27C3D2A7FF499AE69E1627C462A0B
:10736000A5D10122A018407C5328A0D10132B2F54A
:10737000007F7FF4F0AE627C542A98D10122A018DD
:10738000407C412893D10132B2F5007F7FF4F2AE08
:10739000627C542A8BD10122A018407C452886D1DA
:1073A0000132B2F5007F7FF4F4AE627C3D2A3FF4F7
:1073B000F5AE7CE7627C412A7FF40DAF0122A01874
:1073C000407C4D287FF407AF0132B2F5007F7FF497
:1073D00077AE627C452A7FF4FEAE01222244527CC5
:1073E0003D2A3FF47AAEF6E6C44F0400744F040021
:1073F00000510400627C442A7FF474AF0122A1187A
:10740000497C56297FF46EAF0132B2F5007F7FF4DC
:10741000F8AE627C452A7FF465AF0122A118497C51
:1074200052297FF45FAF0132B2F5007F7FF4F6AEF0
:10743000627C542A7FF456AF0122A118497C492965
:107440007FF450AF0132B2F5007F7FF4F4AE627C7E
:10745000532A7FF447AF0122A118497C49297FF4C0
:1074600041AF0132B2F5007F7FF4F2AE627C4E2A6A
:107470007FF438AF0122A118497C47297FF432AF4D
:107480000132B2F5007F7FF4F0AE627C3D2A3FF41A
:10749000F0AE27E7627C452A7FF424AFA27C442A21
:1074A00008BF02227FF41EAFA118497C4D297FF44A
:1074B00019AF0132B2F5007F54D1627C4F2A7FF4BC
:1074C00011AFA27C442A08BF02227FF40BAFA1189F
:1074D000497C45297FF406AF0132B2F5007F55D1D2
:1074E000627C3D2A7FF4FEAE08335A42C2F30802A2
:1074F000C3F3080358BF5342C4F814322046FFF7C1
:107500002FFD064640BB6D49E06811F0BBF9217CB8
:10751000E06811F009FAD4F81832C4F81432D4F83B
:107520002032B3427FF4E3AE6549E06811F0AAF976
:107530006449E06811F0A6F9217CE06811F0F4F9E3
:10754000D4F81832C4F81432304670BD5C49E06893
:1075500011F098F95C499EE65949E06811F092F9FA
:107560005A49D1E7A118497C4F297FF4BBAE0132BB
:10757000B2F5007F40F08E80627C442A7FF4B2AE88
:10758000A27C452A08BF02227FF4ACAE2244527C82
:107590003D2AA9D0A6E60244527C552A7FF476AD56
:1075A000DA1CB2F5007F7FF4B2AE427C442A7FF44D
:1075B0006DAD827C522A08BF02227FF467ADA0180D
:1075C000407C41287FF462AD0132B2F5007F7FF448
:1075D000B2AE627C542A7FF459ADA27C452A08BF22
:1075E00002227FF453AD2244527C3D2A20D04DE547
:1075F000A018407C52287FF449AD0132B2F5007FDB
:10760000DDD1627C412A7FF441ADA27C542A08BFBF
:1076100002227FF43BADA018407C45287FF436ADB4
:107620000132B2F5007FDED1627C3D2A7FF42EADBF
:1076300009335A42C2F30802C3F3080358BF534246
:10764000C4F814321E49E068D4F82C6211F01AF91B
:107650001F49E06811F016F9217CE06811F064F927
:10766000D4F81832C4F81432E11811E52244527CDF
:10767000442A7FF437AEDA1CB2F5007F7FF414AFF2
:10768000627C4D2A7FF42EAEA27C4F2A08BF0222D4
:107690007FF428AEA118497C44297FF423AE01323F
:1076A000B2F5007F7FF413AF627C452A7FF41AAEF7
:1076B000A27C3D2A7FF416AE16E700BFC44F04003B
:1076C000744F04004C510400205104003851040050
:1076D000DC50040038B50546D0E9853083422ED011
:1076E000184A0024E9180133497C02F8011BB3F55C
:1076F000007F04F101040ADA8342F3D1C5F81432A1
:10770000114B1B7843B9D5F83042204638BD08B13B
:107710000023E7E70346F1E7686828B18369094970
:107720005B68183022469847A8680028EDD0836926
:1077300004495B68224618309847204638BD00242B
:10774000DEE700BF00660020086700200368B94A32
:107750005B68934270B5D0F81C52044640F06681D5
:10776000D0E98536B342C3BFC3F5FF730133F618C2
:10777000F61A042E40F3BF80D4F81432E218517C7C
:10778000532946D1591CB1F5007F80F2FD80621863
:10779000527C452A16D1B3F5FF7F03F1020240F077
:1077A000F880627C4E2A0DD10122A018407C44282A
:1077B00008D10132B2F5007F40F0FA80627C202AC5
:1077C00000F0FB80B1F5007F80F2CA8021444A7C42
:1077D000452A35D1B3F5FF7F03F1020240F0C580A1
:1077E000627C542A2CD101222244527C202A27D1A7
:1077F0001A1D5342C3F30803C2F3080258BF5A428A
:10780000C4F814222046FFF721FCD4F814320025D6
:10781000E218527C472A13D15A1CB2F5007F80F23D
:1078200090802244527C452A0AD1B3F5FF7F03F1B0
:1078300002026CD1627C542A02D1A27C202A71D02F
:10784000062E5ADDD4F81432E218527C562A54D14E
:107850005A1CB2F5007F80F2C7802244527C452A30
:107860004BD1B3F5FF7F03F1020240F0ED80627C63
:10787000522A42D1A27C532A08BF02223DD1A1182C
:10788000497C492939D10132B2F5007F40F0EF80BF
:10789000627C4F2A31D1A27C4E2A2ED107335A4224
:1078A000C2F30802C3F3080358BF5342C4F81432AA
:1078B0006149E06810F0E6FF6049E06810F0E2FF1F
:1078C000217CE06811F030F8D4F81C320025AB427E
:1078D00017D15B49E06810F0D5FF5A49E06810F015
:1078E000D1FF217CE06811F01FF8D4F81832C4F8F9
:1078F0001432284670BD00F0C880D4F81C32AB4268
:10790000E7D0D4F81832C4F81432284670BD2244A7
:10791000527C542A94D1DA1CB2F5007F1BD1627CD0
:10792000202A8DD11A1D5342C3F30803C2F3080263
:1079300058BF5A42C4F814222046FEF761FD05469E
:107940007EE7627C452A7FF47BAFA27C542A08BF85
:1079500002227FF475AF2244527C202AE2D06FE7E6
:10796000627C452A7FF46CAF0122A118497C54291E
:107970007FF466AF0132B2F5007F7FF435AF627CF1
:10798000202A3FF435AF5BE7627C452A7FF41AAFCB
:107990000122A018407C4E287FF414AF0132B2F5CA
:1079A000007F7FF402AF627C442A7FF40BAF012298
:1079B0002244527C202A7FF405AF05335A42C2F399
:1079C0000802C3F3080358BF5342C4F814322046D8
:1079D000FFF780FED4F814320025E218517C5329B9
:1079E0007FF417AF591CEDE6627C452A85D1A27C55
:1079F000522A08BF022280D1A118497C53297FF462
:107A00007CAF0132B2F5007F7FF439AF627C492A46
:107A10007FF473AFA27C4F2A08BF02227FF46DAFC0
:107A20002244527C4E2A3FF439AF66E79847064617
:107A30009FE600BFC9620200C44F04006852040000
:107A4000744F0400645104002244527C522A7FF493
:107A500054AFDA1CB2F5007FCED1627C532A7FF49A
:107A60004CAFA27C492A08BF02227FF446AFA1187E
:107A7000497C4F297FF441AF0132B2F5007FCFD16D
:107A8000627C4E2A3FF40AAF37E7D4F81432A4E7F9
:107A9000F0B5036883B0DB6A04460E4698470028B9
:107AA0002DD018481849074610F0ECFE23682046F0
:107AB000DB6A98470A220146384610F0C1FF134995
:107AC000384610F0DFFE0CE023685B699847C1B2CE
:107AD0003846019110F004FF336801991B68304665
:107AE000984723682046DB6A984705462046002DC4
:107AF000EAD1044810F0F8FE284603B0F0BD4FF07C
:107B0000FF35F9E7D872002074510400A451040035
:107B1000F8B5404E3368834285BF00233360C31AF3
:107B20000346642B044654D93B4B1B78002B51D0A1
:107B30003A4DA86900283DDDAF68B84218D0FF2152
:107B4000286A696114F0C2FC6969686A14F0BEFCB5
:107B50006969A86A14F0BAFC2B689F4246D06B682A
:107B60009F4243D0AB689F4240D0A869002821DDE6
:107B70002F68EB699C423CBF0023EB61B84205D003
:107B8000AA68904202D06A68904221D1EA68134400
:107B90009C421DD9D5E904311944FE29EC6133DC3E
:107BA0007F29DDBF08237F21C5E90431696114F015
:107BB0008DFCA86960B9FF21286A696114F086FC10
:107BC0006969686A14F082FC6969A86A14F07EFC2D
:107BD0003460F8BD1248114D00F0D8FD68B1A869B5
:107BE0000028E7DD6F68B842C2D0A8E73223AF6152
:107BF000EB6011F01DFBE861B7E7A8690028D9DD4B
:107C00002F68B842B5D09AE76FF00703FF21C5E9A6
:107C10000431CCE70467002008670020B069002029
:107C200098700020F8B5B94810F086FFE8B1B74D5C
:107C3000B74CB84E284610F07FFFB0B1284610F080
:107C400083FF237CC0B2834232D0D4F81832E218CA
:107C50000133B3F5007F507427DB00232846C4F8B6
:107C6000183210F069FF0028E8D1AB4E3378002BB2
:107C700040F02A8111F0DCFAA84DFFF749FF11F01E
:107C8000D7FA2B6898423BBF00232B60C31A0346E8
:107C9000642B044608D93178002900F01E810121A7
:107CA000192014F01FFD2C60F8BDC4F81832C1E78C
:107CB000D4E98537BB42C3BFC3F5FF720132BF1899
:107CC000FF1A042FD4F81C0240F3A580E218527C5E
:107CD000532A5AD15A1CB2F5007FC0F2AE80617CA3
:107CE000452940F0C280012104EB010C9CF811C031
:107CF000BCF14E0F22D101F1010CBCF5007F40F028
:107D00005F81617C442919D101212144497C2029CA
:107D100014D105335A42C2F30802C3F308032046C4
:107D200058BF5342C4F81432FFF7D4FCD4F81432CD
:107D30000020E218527C532A27D15A1CB2F5007F4A
:107D400080F29380A118497C452943D1511CB1F59B
:107D5000007F40F0CE80627C542A3BD10122224435
:107D6000527C202A36D104335A42C2F30802C3F3AC
:107D70000803204658BF5342C4F81432FFF766F98F
:107D8000D4F81432E2180020527C472A22D15A1C1F
:107D9000B2F5007F72DA2244527C452A36D1B3F51F
:107DA000FF7F03F1020240F0C380627C542A11D1AC
:107DB00001222244527C202A28D104335A42C2F3A1
:107DC0000802C3F30803204658BF5342C4F81432D4
:107DD000FEF716FB062F19DDD4F81432E218527C98
:107DE000562A13D15A1CB2F5007F54DA2244527C31
:107DF000452A0BD1B3F5FF7F03F1020240F0A780C3
:107E0000627C522A02D1A27C532A6AD0D4F81C3256
:107E100083420DD100E08CD04149E06810F032FD82
:107E20004049E06810F02EFD217CE06810F07CFDF8
:107E3000D4F81832C4F81432FCE6A118497C45295C
:107E400080D1B3F5FF7F03F102017FF44DAF617C78
:107E50004E297FF473AFA17C442908BF02213FF46F
:107E600054AFB2F5007FFFF66DAF627C452AB1D109
:107E7000A27C542A08BF0222ACD170E7627C452A5A
:107E8000C4D1A27C542A08BF022292D0D4F81C325A
:107E90008342CDD1C0E7627C452AB7D1A27C522A69
:107EA000B4D1E27C532AB1D1227D492AAED1042239
:107EB000A118497C4F29A9D10132B2F5007F5DD1CB
:107EC000627C4E2A5FD0A1E710491748FFF7E0FD1A
:107ED0000E491648FFF7DCFDCCE6192014F002FC31
:107EE000E1E6E27C492A91D1227D4F2A8ED10422FB
:107EF00044E02144497C54297FF46CAFB2F5FF7F04
:107F000002F1020208BF002229E700BFFC91002015
:107F1000CC630020C44F04000867002000670020E5
:107F2000744F040064510400006800200C670020B6
:107F30002244527C542A7FF469AFDA1CB2F5007FE8
:107F40007FF437AF627C202A3FF437AF5EE72244EC
:107F5000527C522A7FF45AAFDA1CB2F5007F3DD131
:107F6000627C532A7FF452AFA27C492A7FF44EAF41
:107F7000E27C4F2A08BF03227FF448AF2244527CA0
:107F80004E2A7FF443AF07335A42C2F30802C3F3C9
:107F90000803314658BF5342E068C4F8143210F069
:107FA00071FC2349E06810F06DFC217CE06810F062
:107FB000BBFCD4F81C32002083427FF439AF2BE79E
:107FC000A4449CF811C0BCF1440F7FF4B7AEB1F5E6
:107FD000FF7F01F1020108BF002196E62244527C96
:107FE000532A7FF413AFB3F5FE7F03F104020ED1E1
:107FF000627C492A7FF40AAFA27C4F2A08BF022282
:10800000BCD0D4F81C3283427FF412AF04E7224480
:10801000527C492A7FF4FAAE5A1DB2F5007F7FF4F4
:1080200047AF627C4F2A7FF4F1AE0122A6E700BF82
:108030006852040010B5044B044640F8083B02F0B7
:10804000B3FD204610BD00BFC052040010B5074B61
:10805000044640F8183B00F07DFD2046044B40F8F4
:10806000083B02F0A1FD204610BD00BFB053040044
:10807000C05204002DE9F041474C4849484DDFF813
:108080006081484F484E84B0684602F0ADFD6946B5
:108090001822204601F092F8684602F085FD2A4633
:1080A0004249204619F024FC4149424C404611F017
:1080B00069F82A464049404619F01AFC384603F050
:1080C00015FC2A463D49384619F012FC204603F0BB
:1080D000A7FC2A463A493B4F204619F009FC304696
:1080E0004FF4807104F0F2F8374B33604033B361E2
:1080F0002A463649364C304619F0FAFB38464FF4DA
:10810000807104F0E3F82A463249384619F0F0FB52
:10811000314A324BDFF8CCE05E6007CA04F120053B
:1081200085E8070002260D2503221D74C3F820628E
:10813000C3F82422052563260E22C3F82C52C3F867
:1081400030622260042032256FF00706FF22DFF83C
:1081500098C0C3F82802C4E9046201210C22E5603A
:108160000F200025C3F81C12C3E985559F60C3F892
:1081700000E0C3F80CC06260A261A060206A14F045
:108180002DFA606A012114F029FAA06A012114F085
:1081900025FA04B0BDE8F081DC690020046000200D
:1081A00000600020F468002000680020558B020069
:1081B000B851040064690020B99103004D800200A9
:1081C000358002000C670020DC510400956302003A
:1081D000B069002061C3020038520400CC63002063
:1081E000346A00205C520400FC91002038B504463B
:1081F000182013F0CFFB00220546012113F0CEFF1B
:108200002846B4F8DC10C4F8D85013F0D9FF204643
:1082100002F084FC00B138BD0121104803F02EFAB1
:10822000283405461C21204601F00EF81122114683
:10823000204601F021F82946204601F009F82046A1
:108240000749012201F01EF82046064901F036F8E0
:108250002046BDE8384000F097BC00BF586A0020B7
:1082600079BB0200CC5104002DE9F04F8F48904DAE
:10827000904C8DB0002103F0B5F98C48042102F038
:1082800075FF00220121894802F0A0FF04218748E0
:1082900003F05AF914F09AF80146874810F094FF59
:1082A0000B21854810F0BAFF0C21034682482B723F
:1082B00010F0B4FF0D2103467F486B7210F0AEFF43
:1082C0000E2103467C48AB7210F0A8FF29460346F6
:1082D0007648EB7203F010F97849744801F042FDDA
:1082E0007749724801F040FD764803F025FB764956
:1082F00076480C2203F090FB1A227549734803F06C
:1083000087FB724803F0C2FB724804F06DF87249B3
:1083100008A802F069FC08A9204602F031FC08A870
:1083200002F042FC6D4B1A46184652F8327F50F864
:1083300026EFD2F80480DA8A009219469A6931F859
:108340002FCF0192D3E90265DA6902921A6AD0F856
:1083500004A091F80290187D1969039293F82E20D9
:10836000B3F824B0C4F84EE0A4F857C0C4E90C65D3
:108370000492C4F852A084F85990C4F85E80059124
:10838000A1630690C4F85A7084F83C0000990198E3
:10839000E1870299206403F13C0203986164049927
:1083A000A06484F8561092E80300C4E92265059D94
:1083B000ADF81EB0A4F84CB0C4F8905004F1640BB2
:1083C000069D9A6CC4F8A6E08BE80300A4F8AFC041
:1083D00093F844B0C4F8AAA084F8B190D3F84CA0A4
:1083E000C4F8B680D3E91493C4F8B27084F89450FA
:1083F000009DA4F89650019DC4F89850029DC4F8C1
:108400009C5004F1BC08039DBDF81E60C4F8A05048
:1084100088E80300049D84F8AE501820C4E91E9338
:10842000C4E93493C4E91C2AC4E9322AA4F8A4603C
:1084300084F86CB084F8C4B013F0ACFA002205469E
:10844000012113F0ABFE2846B4F8DC10C4F8D85074
:1084500013F0B6FE204602F061FB18BB0121134861
:1084600003F00CF91C21054604F1280000F0ECFE95
:108470001122114604F1280000F0FEFE294604F105
:10848000280000F0E5FE1649012204F1280000F062
:10849000F9FE04F12800134900F010FF04F1280050
:1084A00000F072FB0DB0BDE8F08F00BF586A0020ED
:1084B0001460002000680020346A0020DD620200A1
:1084C00051630200F46800204452040064690020F3
:1084D000685204000C67002024600020DC69002042
:1084E00079BB0200CC510400334838B5012205465F
:1084F000002110F091FD28464FF4E13110F096FB79
:108500004FF4FA7010F0A0FE01E010F01DFB2846B9
:1085100010F012FB04462846002CF6D1274D01210D
:10852000192014F05BF82146192014F0DBF82C68B0
:10853000AB699C4238D0FF21286A696113F0C6FFFD
:108540006969686A13F0C2FF6969A86A13F0BEFF1F
:108550002B689C4228D06B689C4225D0AB689C421B
:1085600022D0FFF781FE0621154800F0D5F8144807
:1085700000F0BAF81349124800F072F8124800F0FF
:1085800085F80F48012100F005F90D48F42220215B
:1085900000F0F8F80A481E2100F0F2F8BDE8384073
:1085A0000748002100F062B93223AC61EB6010F0A3
:1085B0003FFEE861D5E700BFFC910020B0690020D4
:1085C0009870002000680020DC70002072DF704787
:1085D00073DF704774DF704777DF704738B5054643
:1085E00008460C4602F00EFB102803D080280ED05F
:1085F000012038BDEB7FA2881B2B0EDCE91803207D
:10860000E85448704A80EB7F0433EB77F0E7A368C7
:10861000002BEDD0E97F0D2901DD002038BD6A185F
:10862000112068540721517058681C689968DB68EC
:10863000C2F80E30C2F80600C2F80240C2F80A10B2
:10864000EB7F1233EB77012038BD00BF10B500215E
:108650000446C1771F2219F013FA204610BD00BF4F
:1086600030B5D1E9042485B0CD68074B0093694645
:10867000CDE902240195FFF7B1FF0446684602F0F8
:1086800093FA204605B030BDD8520400F0B589B049
:10869000064620221348694602F042FFF37FC218C3
:1086A0001D2A0CDDC3F11D04E4B2E2181D2A4FF0AF
:1086B0000005D8BF082705DD284609B0F0BD0446EF
:1086C00001250927F218601CF05469465770901C68
:1086D000224619F0ADF9F27F023214442846F477AD
:1086E00009B0F0BD586A002010B50446094802F0F0
:1086F00075FFE37F1C2B01DD002010BDE218022175
:10870000E1540A2390705370E37F0333E377012031
:1087100010BD00BF586A0020C27F1C2A01DD002066
:10872000704710B403469C18022098540120A17091
:108730006070DA7F0332DA775DF8044B704700BF70
:108740000021C1771F2219F09BB900BF10B51F226D
:108750000446002119F094F9064B0749074A2362A1
:108760000023E377C4E90C12C4E90E33E362236407
:10877000204610BDFF0101002000F40020001E0073
:10878000C1867047018681864286704790F8230033
:10879000704700BF80F82210704700BFF0B502EBB1
:1087A000820389B0154603EB830390F821209B00D8
:1087B00004460020CDE90410ADF81430931E029059
:1087C000CDE906000E4603908DF80820092B09D844
:1087D000DFE803F00505080808050805080504F1A9
:1087E000240303931D4B1A68D20709D41C491D4A60
:1087F000C87FE77F908101201460916097801860A6
:10880000184902AA04F12000FFF7E0FE10B1002091
:1088100009B0F0BD94F820101348019102F0DEFE7B
:10882000019902460120FFF7D7FE0028EFD194F806
:1088300020000121FFF7CCFE0028E8D10A4802F011
:108840003DFF628FA686AA424FF0010094BF921AA4
:10885000521B628784F8230009B0F0BD406A0020F3
:10886000DC700020446A0020586A0020F0B5002324
:1088700061F30F03044661F31F4389B08363FA2158
:108880002F4802F0B3FEE58E94F82110268E049650
:1088900005EB850303EB830300229B000592ADF8F3
:1088A00014308B1E0292CDE9062203928DF8081037
:1088B000092B09D8DFE803F00505080808050805B5
:1088C000080504F1240303931E4B1A68D20709D448
:1088D0001D491E4AC87FE77F908101201460916086
:1088E00097801860194902AA04F12000FFF76EFE74
:1088F00010B1002009B0F0BD94F82010104801918B
:1089000002F06CFE019902460120FFF765FE002887
:10891000EFD194F820000121FFF75AFE0028E8D19A
:10892000074802F0CBFE638FA6869D424FF0010000
:1089300094BF5B1BDB1A638784F8230009B0F0BD8A
:10894000586A0020406A0020DC700020446A002041
:1089500010B5044690F82000FFF73CFE08B1002057
:1089600010BD84F82300024802F0BCFE012010BDB7
:10897000586A002030B50B888D88112B85B00446CD
:1089800005D0262B33D0102B25D005B030BDC36ABF
:10899000EB40DB07F9D52E4801F0C4F90028F4D1EB
:1089A000E36A94F82310012202FA05F523EA05038D
:1089B000E3620029E9D194F82230002BE5D0238F1F
:1089C00023486387FA2102F011FEE28E218E2046B1
:1089D000FFF7E4FED9E7CB7B012BD6D1C26A03FABD
:1089E00005F515430023C56280F82330CDE70B7AE7
:1089F000012BCAD1002380F823304FF4FA711448B8
:108A000002F0F4FD238F5BB1658F95B1236C0BB140
:108A10009847658F618E2A462046FFF7BFFEB4E770
:108A2000236C03B19847618E00222046FFF7B6FE03
:108A3000ABE7074802F056FEE26B002AA5D000958E
:108A400003AB29462846039513F01AFB9DE700BFA8
:108A5000586A002075DF704710B44FF010144FF4BF
:108A600048010022C0E90041C0E902225DF8044B40
:108A7000704700BF014800F057BF00BF5071002091
:108A8000F8B500250D4F2E4601E0142D14D0A9B2E3
:108A9000384602F0FBFD013504460028F5D000F011
:108AA000E7FD0028F1D0204600F0ECFD022804BFCD
:108AB0000136F6B2142DEAD13046F8BD586A0020CE
:108AC00070B58E881B480C4694B0314602F0DEFD2E
:108AD00023881A2B05D01F2B1CD0102B0FD014B0BD
:108AE00070BD054600F0C6FD0028F8D0284600F00D
:108AF000C3FD0028F3D1284600F02EFEEFE76946BB
:108B000000F012FE0028EAD06A4631460A4801F019
:108B1000A1FCE4E754F8080F61686B4603C33046D4
:108B2000BDF80030ADF802306946FFF793FF14B08E
:108B300070BD00BF586A0020786A0020AADF704725
:108B4000ABDF7047ACDF7047ADDF7047AEDF70471B
:108B5000B0DF704710B5044B044640F8043B02F008
:108B600023F8204610BD00BF9052040010B5054BFD
:108B7000044640F8043B02F017F8204612F00CFFC0
:108B8000204610BD9052040070B57B4B04461B6814
:108B9000836196B0043002F045F894F82E30A06955
:108BA00013F0320208BF84F82F2013F00C0308BF23
:108BB00084F830300DF10102694601F0EBFF94F8C2
:108BC0002F209DF8010015070DD09DF8001002F030
:108BD0000F0301F00F059D424FEA12126DD243EAD6
:108BE000021284F82F2094F8303019070BD003F0CC
:108BF0000F0100F00F058D424FEA131369D241EACD
:108C0000031384F8303094F82E1011F0300340F044
:108C100096800FAD0F93C5E90133C5E903338DF895
:108C20003C10AB610021ADF809109DF80A10206AD4
:108C30001493012363F342018DF808208DF80A1084
:108C400008B1037873BB94F8263013B104F12603FE
:108C5000129394F831200023D2070893079358BF4A
:108C6000E38AADF81C3004F1080004F12F01CDE9CE
:108C7000050154BF1846E08AADF82000294604F1EA
:108C80003203E569099505AA0020FFF757FF05465D
:108C900028B994F8253043BB237D002B64D02846A7
:108CA00016B070BD109019F0DEFD02AB80B2ADF8C9
:108CB0004400ADF846001393C5E74FEA111101D106
:108CC00091428CD30A462B4643EA021284F82F20A5
:108CD00089E74FEA101001D1984290D30346294604
:108CE00041EA031384F830308DE7ADF80D009DF8AC
:108CF0000E2094F82F600C90012363F3420242F699
:108D000008118DF80E208DF8123004AA0223ADF858
:108D1000101003A90D90ADF83030ADF834300A9240
:108D200004F124030B910DF102020AA98DF80C60E5
:108D30000E93FFF705FF0028AED00546AFE70F4BB7
:108D40008DF805200FAD1B788DF80430022000232C
:108D50000F938DF80600C5E90133C5E90333AB6114
:108D60008DF83C1001AB5DE72146054800F09CFF03
:108D7000284616B070BD00BF546A0020845204001B
:108D8000986E00202DE9F0410B888E88502B8AB018
:108D90000C46054609D0512B04D18B79012B19D0F3
:108DA000022B26D00AB0BDE8F081CB88428E9A42D1
:108DB00035D0EA8E9A42F5D16B6D002BF2D095F842
:108DC0004420648A920700F18A8022462946304670
:108DD0009847E7E7836C002BE4D090F844205207D3
:108DE00001F108076CD43A46294630469847A379E2
:108DF000D6E7A27B042A46D0062A20D0012AD1D168
:108E0000EB6C002BCED095F84420170704F1080432
:108E100000F1A5802246294630469847C2E7076DF3
:108E2000002FC6D090F84430D90768D404F1120856
:108E3000238A424629463046B847E388B9E7EA6BB9
:108E4000002AAFD0002202A93046CDE90222CDE9A6
:108E50000422ADF80C208DF80830FFF779FE2C6D58
:108E600054B195F84430D80700F19280B5F84230FB
:108E7000EA6B30462946A047E86B10F01BFA002346
:108E8000C5E90F338EE7E86B002878D0B5F84010BD
:108E9000278A628A07EB020C00234FF0020E8C45F2
:108EA000CDE90633CDE908338DF818E039DD40F21D
:108EB0000913ADF81C3006A93046FFF749FE71E7EB
:108EC00003211A46009106AB08213846CDE9066514
:108ED000089713F0D5F8002889D1AB6C83E70320FD
:108EE00000211A46009006AB0846CDE906650894B5
:108EF00013F0C6F800287FF455AF6B6D65E7218A43
:108F0000069604F11208042300933A46404606AB45
:108F1000CDE90881079513F0B3F800288DD12F6DA6
:108F200086E79DF81EC0ADF81C3004F114014CF02A
:108F300001033844ADF822208DF81E300991ADF8B8
:108F4000207018F075FD238A618AB5F842200B4421
:108F50009BB2934238BF1346A5F84230ABE70321DA
:108F60001A46009106AB0E212046CDE9066508940D
:108F700013F086F800287FF415AFEB6C4AE74FF446
:108F8000806010F07DF94FF48061C5E90F017FE743
:108F9000E86BB5F84210069604230093224606AB10
:108FA000CDE90750099113F06BF800287FF464AF06
:108FB0002C6D5BE72DE9F04F0F464FF6FF718F42A6
:108FC00089B0064615461C4626D0F18A96F82E3002
:108FD0008C4228BF0C46DB0615D40DF1100B8C42D9
:108FE00028BF0C464FF00008718EADF810405A466D
:108FF0004FF6FF700595ADF81280FFF7A3FD4046D0
:1090000009B0BDE8F08F3948394602F027FB08B1B6
:10901000F18E31B9F18AE0E7344802F02BFB0746C4
:10902000D3E7002002230DF1100BADF81200ADF8CC
:1090300010305A460DF10E0338460593FFF784FDB4
:1090400043F2014398424FD000284AD19DF80E8048
:1090500008F00108B8F1000F46D02448394602F064
:1090600015FB8246A0B300F00FFB033883B2002C3F
:10907000C5D0CDF804804FF00009984605E0BDF852
:109080000E30E41AA4B21D4444B3504600F01AFB5B
:10909000A04503464246594628BF22463846BBB142
:1090A000ADF80E204FF00102738E8DF812200DF1F5
:1090B0000E02CDE90625CDF813908DF81790ADF886
:1090C0001030FFF743FD0028D9D0504600F004FBD4
:1090D0004FF00008404609B0BDE8F08FDDF804808D
:1090E0008DE700F00108B5E7F18A78E7586A0020BB
:1090F00010B5154B044640F8043B01F05DFD134AE2
:109100000023127884F8443014200321A384C4F887
:109110002630C4F82A3084F82E30E082C4E90F33B8
:10912000C4E91233C4E9143384F831102375A36100
:109130002362E36163866363238784F82F2084F8C6
:109140003020204610BD00BF90520400845204001D
:1091500070B44E68164A86600260D1E90262154B0F
:10916000154D1C7845600261142500220321C0E9D9
:109170000F22C0E91222C0E91422C660C58280F81D
:10918000311080F844200275826102628284C0F846
:109190002620C0F82A2080F82E20C2614286426331
:1091A000028780F82F4080F8304070BC704700BFC5
:1091B0009052040084520400D852040070B480F825
:1091C0002E20164A4260D1E90262154D154B05600A
:1091D0004D681C7885600261142500220321C0E9D6
:1091E0000F22C0E91222C0E91422C660C58280F8AD
:1091F000311080F844200275826102628284C0F8D6
:109200002620C0F82A20C26142864263028780F885
:109210002F4080F8304070BC704700BFD852040027
:10922000905204008452040010B4D1E90142CB688A
:109230000361C0E902425DF8044B704780697047E2
:1092400001230375704700BF80F82E10704700BFE0
:10925000C182704741B190F83130C182002262F37F
:10926000000380F83130704790F83130012262F30A
:10927000000380F83130704780F82F1080F83020DC
:10928000704700BF90F84430016562F3000380F836
:109290004430704710B490F8443090F83140C164C5
:1092A000003918BF012161F3041462F3C30380F88D
:1092B000314080F844305DF8044B704701627047DC
:1092C00051F8322F026049684160704730B5C48A56
:1092D00083B0944223460D4628BF1346418E019524
:1092E00000246A464FF6FF70ADF80030ADF802403A
:1092F000FFF728FC18B9BDF8000003B030BD2046C8
:1093000003B030BD30B5C38A85B00A46022B28BFF2
:109310000223418EADF8062000240DF1060502AAB5
:109320004FF6FF70ADF80830ADF80A400395FFF72F
:1093300009FC18B9BDF8080005B030BD204605B0DD
:1093400030BD00BF90F82E3013F0100301D1184645
:10935000704730B5044685B011480D4602F07EF9DD
:1093600010B1E18E11B9084605B030BD0DF106030C
:1093700028460024022502AA0393ADF80A40ADF85E
:109380000850FFF7E1FB43F20143984206D008B9C9
:109390009DF8060000F0010005B030BD2046E3E76F
:1093A000586A002010B490F82E4014F0100403D036
:1093B0005DF8044BFFF7FEBD20465DF8044B704797
:1093C000A1DF7047A3DF7047A4DF704700238383CA
:1093D000704700BF006A00F0E3B800BF808B7047A1
:1093E0002DE9F0410B88CE88382B86B00C46054617
:1093F00006D0392B66D0362B43D006B0BDE8F081BD
:1094000000F12407002E36D10A8A3846314603F08F
:10941000AFF894F80C80B8F1010F2CD0B8F1040F1C
:10942000EBD1286A00F0BCF801465C4802F02EF946
:1094300000F02AF92A8E053883B2934228BF1346DA
:10944000002B00F09A80218AE289286AAC8B8DF883
:109450000D600A44E96A05918DF80C80ADF8123070
:10946000ADF81020ADF80E4000F09AF803A9FFF710
:10947000A9FF0028C1D0384603F092F806B0BDE835
:10948000F081006A00F08CF80146444802F0FEF8D2
:1094900000F0FAF807466EBB05F12406E289304673
:1094A00004F1100103F064F82B8E2BB1F81EE38950
:1094B00080B20138834255DA304603F071F806B0C5
:1094C000BDE8F0810B7B012B1AD0022B95D1836B69
:1094D000002B92D090F83C208F8892071FD401F186
:1094E0001006E28931462846984761893846FFF7D9
:1094F0006BFF82E705F12407384603F051F8BDE71A
:10950000436B002B3FF479AF90F83C20D10717D480
:1095100004F11006E2893146284698476DE7C9896B
:10952000039004F1100603201A46009003AB304666
:10953000CDE9046112F0A4FD0028D6D1AB6BD0E7D1
:10954000E189039004F1100603201A46009003AB52
:109550003046CDE9046112F093FD00287FF44DAF51
:109560006B6BD7E7286A00F01BF86A8EA98B92B262
:10957000FFF726FF00289FD13FE7AA8B286AADF8A6
:109580000E2040F20511ADF80C10CDE9043300F0C7
:1095900007F803A9FFF716FF6DE700BF586A002020
:1095A0008088704776DF70478FDF704790DF7047A5
:1095B000B1DF7047B5DF704710B5074B0360044655
:1095C000806A10F023FDE06A10F020FD206B08B1E6
:1095D00010F01CFD204610BDA852040010B5094B28
:1095E00003600446806A10F011FDE06A10F00EFD81
:1095F000206B08B110F00AFD204612F0CDF920468C
:1096000010BD00BFA852040070B504460D4692E894
:109610000300A5800E0CA061A183144DA67717202E
:109620001B2156892560E0809589D089E181D17917
:109630006581012222752274A08161741846194641
:1096400026819DF810500FF0FFFE2946A0622846A3
:109650000FF0FAFE4FF4885100234FF6FF72E182BB
:10966000E062628223636375204670BDA8520400E5
:10967000007D7047407D7047C07D113818BF0120C4
:10968000704700BF407C7047C088704700897047B2
:109690004B7D10B44BB11F310C688A888B79046004
:1096A00082805DF8044B837170471831F4E700BF86
:1096B00008B513218088FFF775FFB0FA80F04009E4
:1096C00008BD00BF08B56621806A10F017FB00389E
:1096D00018BF012008BD00BF08B500231A4619466F
:1096E000806A0FF0E3FE003818BF012008BD00BFFC
:1096F000818800F11F02407C02F098BF38B50A460D
:1097000005460C468188407C02F07CFF2146012002
:1097100051F8483FC5F81F308B888A7985F8252095
:10972000A5F82330687538BD38B50A4604460D469D
:1097300000F11801407C02F0AFFF607550B129467E
:1097400051F8483FC4F81F308B888A7984F8252067
:10975000A4F8233038BD00BF10B5447D24B100F11A
:109760001F01407C02F076FF204610BD70B50B88CB
:10977000113B82B00C460546462B2BD8DFE803F0A0
:10978000383B2A2A2A2A2A2A2A422A2A2A2A2A2A02
:1097900050585E642A2A2A2A2A2A2A2A2A2A2A2A67
:1097A0002A2A2A2A2A2A2A2A2A672A942A2A2A2A72
:1097B0002A2A2A2A2A2A2A2A2A2A2A2A2A2A2A2A09
:1097C0002A246A2A752C84000023A8881A46194680
:1097D000FFF7EEFE02B070BD8B79002BFAD1006B63
:1097E000AB750028F6D01A4619460FF05FFEF1E778
:1097F00000230375EEE74B8903818B894381CB8975
:109800008381E7E70B7AC375112BE3D0818800F1E0
:109810001F02407C02F0F8FF03460028DAD1D4E7AB
:10982000002301A98088ADF80430FFF7BDFED1E721
:109830000B7A002BCED14B7A0374CBE70022114672
:109840008088FFF7B3FEC5E70B89C381C2E74B8968
:10985000C380BFE7006B0123AB750028BAD000239B
:109860001A4619460FF022FEB4E7417C164801F073
:1098700005FFE3880146994228BF194689B2A888A6
:10988000E980FFF797FEA5E78B79002BA2D0002691
:1098900000231A461946A86A0FF008FE0136A2797D
:1098A000F3B29A42F4D895E78B7A002B92D0002637
:1098B00000231A461946E86A0FF0F8FD0136A27A2D
:1098C000F3B29A42F4D885E7586A002070B58AB09E
:1098D00086880B4606A84FF42851144605934FF688
:1098E000FF7501F073F90120CDE90105059B009496
:1098F000314606AA044800F073F8044606A801F0B1
:1099000053F920460AB070BD986E002010B5044689
:10991000043002F0C9FD034B236000232375204669
:1099200010BD00BF0100FFFF017D01B1704710B500
:109930000446043002F0C2FD0123237510BD00BFB0
:10994000007D70470B88322B10B504D0332B1ED00E
:10995000302B0FD010BD4A8932B100230133DBB266
:109960009342FBDBCB881BB3041D2046BDE81040AF
:1099700002F016BECB88041D002BF6D14B89002BBC
:10998000F3D00A3120460A2202F0F2FDEDE7CB883F
:10999000002BE9D14A89002AE6D002EB42025200AC
:1099A000041D023292B20A31204602F0E1FDDCE7EA
:1099B00002EB8202F3E700BFA0DF704710B5044658
:1099C00000F5F87002F070FD2046F822002118F032
:1099D00057F8F822A018002118F052F8204610BDC0
:1099E0002DE9F04782B00546BDF82C60BDF8304047
:1099F0002048ADF80460BDF828A0ADF806409046B8
:109A000099460F4601F042FE05F5F875064603E05B
:109A1000FFF73CFE0FF018FC284602F0A7FD0446B5
:109A20003046002CF4D10121284602F047FD524671
:109A30004946284602F05EFD08F10401384601AAB5
:109A4000FFF7BAFF30B1284602F042FD204602B0CF
:109A5000BDE8F0874FF4FA71284602F051FD20EA84
:109A6000E074284602F034FDA4B2204602B0BDE8FE
:109A7000F08700BF586A00202DE9F04F8F880D88CD
:109A800085B0884604463946864801F0FFFDA5F1B9
:109A90001003012B814640F2908094F854203AB391
:109AA000002633461633502D54F823A069D0512D8B
:109AB0001AD198F80630B8F808B0022B53D0BBF191
:109AC000000F11D051466846FFF7FAFBBDF8003091
:109AD0005B4559D0514602A8FFF7F2FBBDF80C30A8
:109AE0005B4551D094F854200136F3B29342D9D358
:109AF00094F84C31002B00F0D18004F5A6790026B3
:109B000004E094F84C310136B34220DD59F8040FDB
:109B1000FFF760FCB842F4D1382D03D0392D01D0C5
:109B2000362DEED1B8F80AA0BAF1000FE9D0D9F875
:109B300000B05846FFF752FC5045E2D15846414626
:109B4000FFF74EFC94F84C310136B342DEDC112DA8
:109B500055D0352D04D1B8F80A30002B40F08F8055
:109B600005B0BDE8F08F98F80E30062BA7D1DAF8D3
:109B700000305046DB68414698474846FFF77CFD79
:109B8000B0E7B8F806B09AE7DAF800305046DB687C
:109B9000414698474846FFF76FFD0028A2D0502D58
:109BA000A0D1514602A8FFF78BFBBDF80C305B45F6
:109BB00098D14846FFF79CFD94E72378002B3FF4AB
:109BC0006CAF0026112D33460CD004EB83033946CD
:109BD000586803685B68984701362278F3B29A4266
:109BE000F3D85AE704EB83033946586803681B68C7
:109BF000984701362278F3B29A42F3D84DE7D3B1B1
:109C00000026334605E094F84C210136F3B29A421F
:109C100011D904EB8305D5F85001FFF7DBFBB842FF
:109C2000F1D1D5F85001FFF7D1FB013694F84C2162
:109C3000F3B29A42EDD894F8F820002A90D000258B
:109C40002B4604EB8303D3F8FC008388BB420AD085
:109C50000135EBB2934283D204EB8303D3F8FC00CB
:109C60008388BB42F4D103681B689847013594F898
:109C7000F820EBB29342E4D305B0BDE8F08F04F5D1
:109C8000F874B8F80C20204608F1100102F070FCBE
:109C9000204605B0BDE8F04F02F082BC112D7FF4E4
:109CA00058AFC8E7586A002090F85420272A0CD8EB
:109CB00010B4034602F11604013280F8542043F830
:109CC000241001205DF8044B70470020704700BF4E
:109CD0000378132B06D800EB8302013303700120B5
:109CE000516070470020704778DF70477ADF704717
:109CF000054A034692E80300002283E80300C3E913
:109D000002221846704700BFB052040008B5FFF7A2
:109D1000EDFF08B1002008BDFFF7E6FFB0FA80F0C4
:109D2000400908BDF8B500250D4F2E4601E0142D61
:109D300014D0A9B2384601F0A9FC01350446002828
:109D4000F5D0FFF795FC0028F1D02046FFF79AFCEC
:109D5000012804BF0136F6B2142DEAD13046F8BD11
:109D6000586A002081607047C1607047704700BF2B
:109D70008ADF704730B40D4CC4621F250022502486
:109D80008584A025C0E91122C0E90F22A0F8465021
:109D9000A0F84840006230BC8262028680F8382019
:109DA0004263C264A0F85020704700BF00018000E9
:109DB0002DE9F04F10468DB016460C4600F022FFFC
:109DC000C5B2102D4FD0B66807220623A16994F8BA
:109DD0001C9001918DF80D208DF80C30ED080DF1DF
:109DE0000C080DF10E0A0027B9F1010F0A97CDE911
:109DF0000477CDE90677CDE90877CDF82B700ED939
:109E000098F8000001994B464A7882420FD00A78B0
:109E1000D4432344013213F0FF031144F4D108F179
:109E20000108C245E0D100200DB0BDE8F08F11F867
:109E3000024B013CE4B2224604A817F0F9FD0DF1F3
:109E4000100B1CB9EBE714F0FF04E8D058462A4683
:109E5000314617F0DFFD641BAB440028F3D101202D
:109E60000DB0BDE8F08F043603220223AEE700BF39
:109E70002DE9F0430B888E88103B87B00D460446D1
:109E80000D2B2CD8DFE803F077072B2B2B2B2B2B5C
:109E90002B2B2B842B2E836AF340DB071FD55648D0
:109EA000FEF7EEFDD8B9A36A94F82C20012505FA37
:109EB00006F623EA0606A6628AB994F82D3073B135
:109EC0001F232462A38404F1200104F14400FFF75E
:109ED0004FFF20B9494801F0F1FB84F82C5007B03E
:109EE000BDE8F08390F92E2091F91B309A423ADCBC
:109EF00090F8383001F108080BB3DFF80491002620
:109F000002E0D6B2B34218D9636BCDF8089003EBE8
:109F1000061302AA59680391D3E902734146204609
:109F200005930497FFF744FF074602A800F03CFEA4
:109F300094F83830721C002FE3D09E4213D094F86E
:109F40002F30002B49D095F82430012B0BD9296AEA
:109F50004A78FF2A30D00A78D0430344013213F004
:109F6000FF031144F4D104F120010020FFF700FFAA
:109F700007B0BDE8F083CB7B022BB0D1836A01220E
:109F800002FA06F633430022836280F82C20A6E70B
:109F90000B7A012BA3D1002580F82C50174801F033
:109FA000A1FB226C002A9AD0009502AB29462846D4
:109FB000029512F065F892E711F8025B6A1ED2B2C0
:109FC000022A28BF022202A817F032FD012DCAD0B2
:109FD000228EBDF808309A42C5D1E26B002A3FF4C8
:109FE0007EAF01230093404602AB2421CDF80880C8
:109FF00012F046F873E700BF686A0020586A002034
:10A00000D852040046DF70477FDF704780DF70471B
:10A0100081DF704785DF704786DF704738B51C46A3
:10A020000D460346114628462246984734B101465C
:10A0300000222846BDE83840FFF7E8BF38BD00BF22
:10A0400010B50C4682B003466946204698476A46DA
:10A0500020460121FFF7DAFF02B010BD10B504461B
:10A06000083002F019FE074B2360032200232271FF
:10A07000C4F81034C4F81434C4F81834C4F81C34C8
:10A08000204610BD3507100330B50446ADF55F7DA1
:10A0900000F108058F4802F093FD0821284602F0E0
:10A0A000FFFD684602F006FE6846082102F006FE43
:10A0B0006946284602F0A4FD04F54F714122684626
:10A0C00002F00AFE684602F003FE94F85C0394F87E
:10A0D0005B2394F83D1394F83E3384F83D0384F8F1
:10A0E0003E2394F85A0394F8592394F83F5384F884
:10A0F0005C1384F85B3394F8401394F8413384F88C
:10A100003F0384F8402394F8580394F8572384F8C5
:10A110005A5384F8591394F8425394F8431384F82B
:10A12000410384F8583394F8560394F8443384F880
:10A13000422394F8552384F8575384F8430384F852
:10A14000442384F8553384F8561394F8451394F84F
:10A15000540394F8532394F8463384F8450384F861
:10A16000462394F8520394F8512394F8475384F803
:10A17000541384F8533394F8481394F8493384F80B
:10A18000470384F8482394F8500394F84F2384F845
:10A19000525384F8511394F84A5394F84B1384F8AB
:10A1A000490384F8503394F84E0394F84C3384F800
:10A1B0004A2394F84D2384F84F5384F84B0384F8D2
:10A1C0004C2384F84D3384F84E1394F85D1394F8BF
:10A1D0007C0394F87B2394F85E3384F85D0384F861
:10A1E0005E2394F87A0394F8792394F85F5384F803
:10A1F0007C1384F87B3394F8601394F8613384F80B
:10A200005F0384F8602394F8780394F8772384F844
:10A210007A5384F8791394F8625394F8631384F8AA
:10A22000610384F8783394F8760394F8643384F8FF
:10A23000622394F8752384F8775384F8630384F8D1
:10A24000642384F8753384F8761394F8651394F8CE
:10A25000740394F8732394F8663384F8650384F8E0
:10A26000662394F8720394F8712394F8675384F882
:10A27000741384F8733394F8681394F8693384F88A
:10A28000670384F8682394F8700394F86F2384F8C4
:10A29000725384F8711394F86A5394F86B1384F82A
:10A2A000690384F8703394F86E0394F86C3384F87F
:10A2B0006A2394F86D2384F86B03012084F86F53AC
:10A2C00084F86E1384F86C2384F86D330DF55F7D8C
:10A2D00030BD00BFEC7100200B7803F0FE03042BAF
:10A2E00001D00020704770B515468CB00C46202276
:10A2F000002104A817F0C4FB28686968AA68EB6805
:10A300006D460FC59DF800109DF80F209DF8016067
:10A310009DF80E509DF802008DF80F1023469DF811
:10A320000D108DF800209DF803208DF80E608DF83B
:10A3300001509DF80C609DF804508DF80D008DF8CB
:10A3400002109DF80B009DF805108DF80C209DF86B
:10A350000A208DF803608DF80B508DF804008DF8FD
:10A3600005208DF80A109DF8061033F8042FADF87B
:10A3700010209B789DF809209DF81D009DF8106025
:10A380009DF81F508DF809108DF806209DF81110CA
:10A390009DF81E208DF81D309DF807308DF81200B5
:10A3A0008DF81F609DF808009DF813608DF810501F
:10A3B0008DF81E109DF81C509DF814108DF811207A
:10A3C0008DF808309DF81B209DF81A308DF8070095
:10A3D0008DF81C608DF813509DF815608DF81B10DA
:10A3E0008DF8142068468DF815309DF819109DF8E9
:10A3F00017209DF818309DF816508DF818208DF80C
:10A4000016108DF817308DF81A608DF81950FFF777
:10A41000F9FD62789DF82F309DF82E009DF82D10E3
:10A420008DF821009A428DF8221004F1010404D025
:10A43000012080F001000CB070BD6278C3B29A4276
:10A4400004F10104F4D16278CBB29A42F0D1002039
:10A45000EFE700BF08B5137CDB0758BF1C32084686
:10A4600002F11201FFF7D6FDB0FA80F0400908BDF5
:10A47000F0B58F880E46ADF56B7D044639464648EB
:10A4800001F004F93388133B0546072B2FD8DFE88A
:10A4900013F03E005F006D002E00280387000800C7
:10A4A0003100337AB3B9737B9B070ED4294602A8D7
:10A4B000FFF7EEF80299BDF80C209DF80E3084F8F5
:10A4C0000C34C4F80614A4F80A24284604F2BE3159
:10A4D000FFF714F9D4F818244AB1307A0D9002230A
:10A4E0000021009308460CAB0C9711F0C9FD0DF547
:10A4F0006B7DF0BDD4F81C24002AF8D00123002184
:10A50000009308460CAB0C9711F0BAFDEFE704F28C
:10A51000BE3304F2DA320C9304F2F63300251092C3
:10A52000119304F23D3204F27E330F921393CDE97E
:10A530000D551295FFF7A6F801280CBF22462A46B2
:10A540000CAB29463846FFF75FFD0DF56B7DF0BD7E
:10A550000CA9FFF7E9F80346002800F0D2820CA905
:10A56000384600231AAAFFF757FDC0E7D4F81014A5
:10A570000029BCD0B37B094A03F001030F930423E5
:10A58000CDE90C1706F10800009306210CAB0E90E4
:10A5900011F076FDABE700BF586A00201DA0020055
:10A5A00094F87E3394F89D2394F87FC394F89C63C9
:10A5B00094F8805394F89B0384F89D33042194F815
:10A5C0009A3384F87D1384F87E2394F8811394F8E9
:10A5D000822384F89CC384F87F6394F899C394F829
:10A5E000836384F89B5384F8800394F8985394F819
:10A5F000840384F89A1384F8813394F8971394F8B9
:10A60000853384F8992394F8962384F882C384F8D8
:10A61000986384F8835384F8970384F8841384F848
:10A62000852384F8963394F8862394F8953394F828
:10A6300087C394F8946394F8885394F8930394F838
:10A64000891384F8952384F8863394F8922394F838
:10A650008A3384F894C384F8876394F891C394F898
:10A660008B6384F8935384F8880394F8905394F898
:10A670008C0384F8921384F8892394F88F1394F848
:10A680008D2384F8913394F88E3384F88AC384F848
:10A69000906384F88B5384F88F0384F88C1384F8C8
:10A6A0008D3384F88E2394F89E2394F8BD3394F868
:10A6B0009FC394F8BC6394F8A05394F8BB0394F838
:10A6C000A11384F8BD2384F89E3394F8BA2394F838
:10A6D000A23384F8BCC384F89F6394F8B9C394F898
:10A6E000A36384F8BB5384F8A00394F8B85394F898
:10A6F000A40384F8BA1384F8A12394F8B71394F848
:10A70000A52384F8B93394F8B63384F8A2C384F847
:10A71000B86384F8A35384F8A41384F8B62384F8A8
:10A72000A53384F8B70394F8A60394F8B51394F806
:10A73000A72394F8B43394F8A86394F8B35384F837
:10A74000B50384F8A61394F8A90394F8B21384F817
:10A75000B42384F8A73394F8AA2394F8B13384F887
:10A76000B36384F8A85394F8AB6394F8B05384F8B7
:10A77000B20384F8A91394F8AC0394F8AF1384F8E7
:10A78000B12384F8AA3394F8AD2394F8AE3384F857
:10A79000AD3384F8AE2384F8B06384F8AB5384F807
:10A7A000AF0384F8AC130CA802F084FA0CA80821BB
:10A7B00002F084FA04F27D310CA8412202F09EFAE4
:10A7C0000CA904AA202304F1080002F047FA0CA8FF
:10A7D00002F07EFA9DF810109DF82F009DF81130C0
:10A7E0009DF82E209DF812609DF82D508DF81000D8
:10A7F0008DF82F109DF813009DF82C108DF8112066
:10A800008DF82E309DF814209DF82B308DF81250C5
:10A810008DF82D609DF815509DF82A608DF8131065
:10A820008DF82C009DF816109DF829008DF8143035
:10A830008DF82B209DF817309DF828208DF8156095
:10A840008DF82A508DF816008DF817208DF82830D5
:10A850008DF829109DF818109DF827009DF81930E3
:10A860009DF826209DF81A609DF825508DF8180057
:10A870008DF827109DF81B009DF824108DF81920E5
:10A880008DF826309DF81C209DF823308DF81A5045
:10A890008DF825609DF81D509DF822608DF81B10E5
:10A8A0008DF824009DF81E109DF821008DF81C30B5
:10A8B0008DF823209DF81F309DF820208DF81D6015
:10A8C0008DF822508DF821108DF81F208DF8203042
:10A8D0008DF81E0094F87E0394F89D1394F87F235E
:10A8E00094F89C3394F8806394F89B5384F89D0308
:10A8F00084F87E1394F8810394F89A1384F89C23C7
:10A9000084F87F3394F8822394F8993384F89B6316
:10A9100084F8805394F8836394F8985384F89A03E6
:10A9200084F8811394F8840394F8971384F8992396
:10A9300084F8823394F8852394F8963384F89863E6
:10A9400084F8835384F8841384F8962384F8853339
:10A9500084F8970394F8860394F8951394F8872362
:10A9600094F8943394F8886394F8935384F8950397
:10A9700084F8861394F8890394F8921384F8942346
:10A9800084F8873394F88A2394F8913384F8936396
:10A9900084F8885394F88B6394F8905384F8920366
:10A9A00084F8891394F88C0394F88F1384F8912316
:10A9B00084F88A3394F88D2394F88E3384F8906366
:10A9C00084F88B5384F88C1384F88E2384F88D33A9
:10A9D00084F88F0394F89E0394F8BD1394F89F2392
:10A9E00094F8BC3394F8A06394F8BB5384F8BD0387
:10A9F00084F89E1394F8A10394F8BA1384F8BC2346
:10AA000084F89F3394F8A22394F8B93384F8BB6395
:10AA100084F8A05394F8A36394F8B85384F8BA0365
:10AA200084F8A11394F8A40394F8B71384F8B92315
:10AA300084F8A23394F8A52394F8B63384F8B86365
:10AA400084F8B70384F8A41384F8B62384F8A533F4
:10AA500084F8A35394F8A65394F8A72394F8B43336
:10AA600094F8B50394F8A81394F8B36384F8B55335
:10AA700084F8B42394F8A95394F8AA2384F8A7334C
:10AA800094F8B13394F8B0C384F8A60384F8B313F0
:10AA900094F8B20394F8AB1384F8A86384F8B25323
:10AAA00094F8AC6394F8AF5384F8B12384F8AA33D4
:10AAB00094F8AD2394F8AE3384F8A90384F8B01366
:10AAC000384604A984F8ABC384F8AF6384F8AC5368
:10AAD00084F8AE2384F8AD33FFF79AFA0DF56B7D59
:10AAE000F0BDD4F81424002A3FF401AD0223002164
:10AAF00000930C920CAB064A0D97084611F0C0FA71
:10AB0000F5E438461A461946FFF786FAEFE400BF27
:10AB100041A00200A8DF7047704700BF30B504466F
:10AB200083B0083000F07EF804F10C010DF106024C
:10AB30000120FFF7EFFF054628B9044B04481C60CD
:10AB40002146FFF7C5F8284603B030BD546A0020FF
:10AB5000986E002030B44C68C460D1E90241054AC7
:10AB6000054D0260054A8560C0E90441426030BC81
:10AB7000704700BFC0520400D852040000001111F9
:10AB800010B4D1E90142CB684361C0E903425DF8EA
:10AB9000044B704783790B70C3791370704700BF03
:10ABA00062DF704763DF7047704700BF10B504462F
:10ABB00010F0F2FE204610BD034A02600022C0E9F8
:10ABC0000222827182807047D852040010B4054C72
:10ABD0008180002201210460C0E902225DF8044B5B
:10ABE00081717047D8520400002210B4044C0460F4
:10ABF00081605DF8044B82718280C260704700BF43
:10AC0000D85204008379012B0AD0826832B9C26815
:10AC100022B9012B8CBF8020002070478020704714
:10AC2000102070472DE9F047857982B0002D47D17B
:10AC3000C7680646002F47D010200EF021FB824641
:10AC4000384617F010FE441E30B3DFF88490A84653
:10AC500004E00134023C1FD4102D1DD017F804C0AD
:10AC6000BCF12D0F07EB0402F3D099F80030ADF8DA
:10AC700005808DF8043012F8013C8DF80430102264
:10AC8000002101A88DF805C017F0A8FE6B1C023C3E
:10AC90000AF80500DDB2DFD5C6F808A0BAF1000F4A
:10ACA0000ED0B11D5046FFF77BFFB168321D10205A
:10ACB000FFF778FFB0FA80F0400902B0BDE8F087F6
:10ACC000012002B0BDE8F087D0F808A0E6E700BF99
:10ACD000CC5204004DDF70474EDF70474FDF7047A6
:10ACE00050DF70474BDF704710DF70477CDF7047E5
:10ACF0007DDF704760DF704769DF704761DF704755
:10AD000066DF704767DF7047704700BF042011F0AF
:10AD100007BD00BF30B5224C224D83B0D4F83007B8
:10AD20004FF0FF310EF0EAFF0028F7D0C5B101A8BF
:10AD3000FFF7D8FF0528F1D00028F8D1019B032B9D
:10AD40001BD8012BF3D918460DF002FDEFE70A2BB3
:10AD500004D0092B21D00B2B02D1012007F06CFB72
:10AD600001A8FFF7BFFF0528D8D00028F8D1019B24
:10AD7000A3F10902022AF3D8E9E7A3F10902022AA2
:10AD8000D5D80A2B04D0092B05D00B2BCFD101200D
:10AD900007F052FBCBE70220FAE70220DEE700BF14
:10ADA000586A0020518703002DE9F04F2DED028BEA
:10ADB0004FF4FA7089B00EF063FAB24E00F1080356
:10ADC00008EE103A054606F5F16706F5C86AD6F8AA
:10ADD0002C074FF0FF310EF091FF0028F7D04FF411
:10ADE000FA730DF116012846ADF81630FFF786FF0D
:10ADF00010B10528F3D1EAE7B5F80490B9F1130FC3
:10AE000000F2398106EB8903D3F83C473CB129466F
:10AE10002046FEF7ABFC9C482946FFF729FB2B8810
:10AE2000013B1B2B5AD8DFE813F0160159005900DB
:10AE3000590059005900590059005900590059004A
:10AE40005900590059005900B4001C00590059001C
:10AE5000590059005900590059005900590059002A
:10AE6000A200DFF838824FF0000B58F8040F30B121
:10AE7000FEF7FEFB18B10BF1010B5FFA8BFBB84537
:10AE8000F3D1BBF1000F06D196F838371BB1594604
:10AE9000042011F027FC2046FEF7F4FB012800F007
:10AEA000EC80F26962B10223002195F808C000939A
:10AEB000084606ABCDF81890CDF81CC011F0E0F8AC
:10AEC00009F5E77806EB8803586810B103685B68FA
:10AED000984706EB88080023C8F8043029465046F6
:10AEE000FDF748FD69482946FEF7C2FFB6F83A3734
:10AEF0004B452B8800F0B480102B1ED02CB320467D
:10AF0000FEF7C0FB012803D15E482946FEF72EFF5D
:10AF10002046FEF7B7FB02281BD05D48FEF710FD68
:10AF200000BB5C482946FEF7A7FDD6F89037002BFA
:10AF30003FF455AF2846984751E7EB7B012BDDD115
:10AF4000AB88A6F83A37002CD9D14E482946FEF7EF
:10AF50000DFF51482946FDF7B3FD4D48FEF7F0FCC3
:10AF60000028DED04A482946FEF7ECFCD9E7D6F89F
:10AF70008C27002AB2D00223002195F908C0009343
:10AF8000084606ABCDF81890CDF81CC011F078F843
:10AF9000A4E74FF00008D6F83407CDF80080434608
:10AFA000424603213D4C10F02FFA54F8040F30B103
:10AFB000FEF75EFB18B108F101085FFA88F8BC42A1
:10AFC000F3D196F838376BB1B8F1000118BF012101
:10AFD000042011F087FB96F838371BB101210420BB
:10AFE00011F080FB09F5E77806EB8804606820B172
:10AFF00003685B68984700236360EB7B012B0BBF02
:10B0000096F81A3796F8203796F81B4796F8214796
:10B010000393342010F0BEFC06EB8808039B0094D9
:10B0200018EE102A04464946FEF7EEFA2046C8F804
:10B030000440FEF727FB012832D0B269002A3FF412
:10B040004DAF012300210093084606ABCDF81890C0
:10B0500011F016F842E700214846FFF751FE3DE7A0
:10B06000102B3FF46AAF112B7FF448AF4FF6FF73FC
:10B07000A6F83A3742E70446D1E6F268002A7FF4A0
:10B0800012AF1DE7586A0020786A0020FC7000208B
:10B0900050710020986E0020686A00209071002096
:10B0A000B268002A3FF41AAF0021009006AB0846B0
:10B0B000CDF8189010F0E4FF10E700BF38B5044653
:10B0C000FEF716FE04F11000FDF7C6FC04F12000A7
:10B0D000FEF7C4FF04F58860FEF770FC04F5C86055
:10B0E000FDF734FB04F28460FDF7B0FA04F2A460CB
:10B0F000FEF740FE04F5DF60FEF708FC4FF48053D6
:10B100000025C4F8103716481649174AC4F8140722
:10B1100040F20113C4F81817C4F81C27A4F820370C
:10B12000A4F8225704F23C702946502216F0A8FCDD
:10B1300001224FF6FF73A4F8245784F82657C4F869
:10B140002C57C4F83057C4F83457C4F89057C4F893
:10B150008C5784F83827A4F83A37204638BD00BF0A
:10B16000010A1700030001011700030004290BD88E
:10B17000DFE801F00B130B1B0300104BC0F8163770
:10B1800040F20313A0F81A3770470D4BC0F816377A
:10B1900040F20113A0F81A3770470A4BC0F816376F
:10B1A00040F20113A0F81A377047074BC0F8163762
:10B1B0004FF48173A0F81A37704700BFF70064009E
:10B1C000170003001700020080000600F0B5BF4E14
:10B1D00080F824178DB080F82527044610F058FC1D
:10B1E00010F05EFC10F01CFC3369B949039303A80E
:10B1F000FFF77AFD18B1002528460DB0F0BD0120FB
:10B20000FFF76AFD0120FFF765FD0120FFF766FDEE
:10B2100009A8FFF765FD099B9B0705D5AD4BD3F842
:10B220000435002B00F0FE800023AB4A94F815573C
:10B23000049209A90120CDE909330B938DF824501C
:10B24000FFF75AFD0028D6D194F825370B90CDE9A9
:10B250000900181E18BF012094F824578DF8270004
:10B26000049A8DF8263009A940208DF82550FFF763
:10B2700043FD0028BFD194F814170990034661F3E9
:10B280000003CDE90A00049A8DF8243009A9A02012
:10B29000FFF732FD0028AED1D4F810370A900B909A
:10B2A000049A099309A9A120FFF726FD0028A2D13D
:10B2B00094F82437002B40F0B98094F82537002B00
:10B2C00048D00023B4F81C77049A0993022509A9F1
:10B2D0002320CDE90A338DF82450ADF82670FFF70E
:10B2E0000BFD002887D1CDE9090094F82577B4F843
:10B2F0001E370B90049A8DF8245009A920208DF850
:10B300002670ADF82830FFF7F7FC00287FF473AF04
:10B310000990CDE90A0094F82037049A8DF824505A
:10B3200009A922208DF82630FFF7E6FC00287FF4DB
:10B3300062AFCDE9090094F821370B90049A8DF89B
:10B34000245009A921208DF82630FFF7D5FC0028CC
:10B350007FF451AF04A8FFF7CDFC00287FF44BAF7A
:10B36000CDE9070040F0010307A902208DF81C3049
:10B37000FFF7C8FC00287FF43EAF2046FEF7C6FC6E
:10B38000054600283FF437AF04F12000FEF77CFEAD
:10B39000337D52498DF80830182202A8FFF7A6FC29
:10B3A00000287FF428AF94F82537002B40F08880E0
:10B3B0000322002101200EF005F8C4F82C07002814
:10B3C0003FF419AF05AB0326CDE900634449454876
:10B3D00000234FF4A0620EF0B7FF32460021012097
:10B3E0000DF0F0FFC4F8300700283FF404AF06ABBF
:10B3F000CDE900633C493D480023C8220EF0A4FF7C
:10B400003B4B4FF480021A603A4B009300231846DE
:10B4100001224FF480710FF0A1FFC4F8340701F04E
:10B42000CBF8E9E6022007F007F8FDE60990CDE940
:10B430000A00B4F81637049AADF82630012509A998
:10B4400023208DF82450FFF757FC00287FF4D3AE5B
:10B45000CDE9090094F82477B4F818370B90049AD2
:10B460008DF8245009A920208DF82670ADF82830D9
:10B47000FFF742FC00287FF4BEAE0990CDE90A0038
:10B4800094F81A37049A8DF8245009A922208DF8CF
:10B490002630FFF731FC00287FF4ADAECDE909007E
:10B4A00094F81B370B90049A8DF8245009A9212099
:10B4B0008DF82630FFF720FC00283FF4FEAE9AE618
:10B4C00004F11000FDF7D6FA72E700BF4053040004
:10B4D00009AD020000700240006000201C5304000F
:10B4E00038530400A9AD02003C53040015AD02001E
:10B4F00000E100E00DAD020000B5084B85B01B7DFA
:10B50000019108468DF80C3017F0ADF9019982B21F
:10B5100003A8FFF7EBFB05B05DF804FB4053040004
:10B5200000B583B008460DF10601ADF80620FFF71F
:10B53000DFFB20B99DF8060003B05DF804FB002096
:10B5400003B05DF804FB00BF70B4234B0E46054604
:10B550000FCB85B06C4607C49DF900202380B24212
:10B5600034D09DF90130B34230D09DF90230B3425E
:10B570002CD09DF90330B34228D09DF90430B3425A
:10B5800024D09DF90530B34220D0FEB19DF907309B
:10B59000B3421BD09DF90830B34217D09DF9093052
:10B5A000B34213D09DF90A30B3420FD09DF90B304E
:10B5B000B3420BD09DF90C30B34207D09DF90D304A
:10B5C000B34203D0002005B070BC7047012085F85D
:10B5D000266705B070BC70475853040090F92607E1
:10B5E000704700BF80F83817704700BF70B5044639
:10B5F00082B0D0F834070D460FF032FF4FF47A7264
:10B6000006460023A90DA80215F0E2FF002302461A
:10B610000421D4F8340700930FF0F6FE0EB102B007
:10B6200070BD0096D4F834073346324603210FF03C
:10B63000EBFE02B070BD00BF70B500F5E76400F529
:10B64000F165002654F8040F20B1FEF711F808B197
:10B650000136F6B2AC42F5D1304670BD132906D89A
:10B6600000EB8101D1F83C0708B1FEF701B80020DA
:10B67000704700BFB0F83A07704700BF01290CBF00
:10B68000B0F81607B0F81C07704700BF13299ABF1F
:10B6900000EB8101D1F83C070020704710B5064C43
:10B6A0000021D4F830070EF09DF9D4F82C070021C2
:10B6B000BDE810400EF096B9586A002090F838376F
:10B6C00003B9704710B582B0D0F834470FF02CF8AA
:10B6D000002302460093204601210FF095FE02B0A0
:10B6E00010BD00BFF0B583B0002405462346D0F856
:10B6F00034070094224603210FF086FE05F5E76625
:10B7000005F5F16756F8040F20B1FDF7B1FF08B158
:10B710000134E4B2BE42F5D195F8383743B1211E69
:10B7200018BF0121042003B0BDE8F04010F0DABFDB
:10B7300003B0F0BD0148FFF7C1BC00BF586A00204C
:10B740003CDF70473DDF704711DF704713DF704704
:10B75000B0DF7047B2DF70472DE9F0419EB0074679
:10B7600004A8158814460E46FDF7AAFDBDF8103052
:10B77000AB4202D01EB0BDE8F081A379043B022B9E
:10B78000F8D939465248FFF781FF4FF000080223ED
:10B79000394605463046CDE90688CDE908888DF85A
:10B7A0001830FDF7CFFD06A900286AD03846ADF85D
:10B7B0001C80FFF7CDFF247B012CDBD1454E414699
:10B7C0003E22304616F05CF923460DF10E02424946
:10B7D00038460824ADF80E40FFF7BCFF68462946FE
:10B7E000FDF756FF00983060BDF804309DF8062044
:10B7F000B271B3802846FDF73FFF002849D1354993
:10B8000036484FF6FF740B4601311B7883EA142348
:10B8100083EA131242EA042283EA131382EA033210
:10B8200082EA431381429CB2EDD12A4B2C489C877B
:10B830000021FCF7AFFF2846FDF73AFFFF2100206B
:10B84000FFF780FFB1210020FFF77AFF002891D198
:10B85000FFF77AFF00288DD1224B4FF0FF324FF0D7
:10B860001024C3F88020C3F880216069FFF76EFFC1
:10B8700000287FF47FAF80F31488606901F082F9BB
:10B8800078E740F2FD133846ADF81C30FFF760FF53
:10B8900070E70AA92846FDF747FF0028AFD01EAB86
:10B8A00013E903000B0C3060B180B37118AC0FCCFE
:10B8B0000D4FC6F807000AAC7960BA60FB600FCC88
:10B8C00018360FC694E8070086E8070097E700BF20
:10B8D000586A0020807F0020B47F0020BC7F0020B9
:10B8E0009870002000E100E0877F002030B585B02F
:10B8F00004460E496846FFF777F969462046FFF788
:10B9000029F925466846FFF74FF9094B45F8183BDA
:10B9100008496846FFF768F969462846FDF718FCAC
:10B920006846FFF741F9204605B030BD6853040072
:10B93000B05304008853040030B5B3B00546FFF798
:10B94000EDF818B10446204633B030BD2D491CA88F
:10B95000FFF74AF91CA906A8FDF7FAFB1CA8FFF798
:10B9600023F906A8FDF76CFC06A80421FDF76CFC82
:10B9700006A81421FDF76CFC06A8FDF705F904469E
:10B9800098B905F1180018210190FDF75DFC0198A8
:10B990001721FDF75DFC01981B490122FDF77AFC98
:10B9A0000198FDF7F1F8044628B106A8FDF7D2F892
:10B9B000204633B030BD154902A8FFF715F902A99A
:10B9C0001CA8FDF7C5FB02A8FFF7EEF81CA8FDF7C1
:10B9D00037FC02211CA8FDF737FC02211CA8FDF74B
:10B9E00039FC1CA8FDF7D0F8044618B901211CA8A1
:10B9F000FDF788FC1CA8FDF7ADF806A8FDF7AAF82E
:10BA0000D6E700BF7853040059B7020098530400EA
:10BA1000C16180F83D207047016380F84220704783
:10BA200070B584B0044641F60A016846FFF7CEF8C7
:10BA300069462046FFF78EF86846FFF7B5F82046BE
:10BA40000E4B40F8183B2422002116F019F80C4E3A
:10BA50000C480D4AE06200232364E36384F8443019
:10BA60001825052113232046E66184F83D5084F80B
:10BA70004110226384F8423004B070BDE0530400EA
:10BA80001C530400BC530400C45304002DE9F047C8
:10BA90009AB00646FFF742F88046002846D1336A3E
:10BAA000002B4ED0736A002B56D0C6F5275909F1EA
:10BAB000270906F1140406F1380706F13C0554F88D
:10BAC000043F04A873B3FDF713FB2268B36B09EBC3
:10BAD00005019A4289B2684608BF42F65021FFF735
