:020000022000DC
:10600000000004203D8104007D8104007F810400A4
:106010008181040083810400858104000000000068
:10602000000000000000000000000000617F04008C
:106030008981040000000000817F04008D8104003C
:10604000918304008F8104001D5304008F8104009C
:106050008F8104008F810400ED5304008F810400C0
:106060008F8104008F8104008F8104008F810400E0
:106070008F8104008F8104008F8104008F810400D0
:106080008F810400B17C04008F8104008F810400A3
:106090008F8104008F810400796903008F810400DF
:1060A0008F8104008F8104008F8104008F810400A0
:1060B0008F8104008F8104000000000000000000B8
:1060C0008F8104008F8104008F81040021860400E9
:1060D0008F8104008F8104008F810400858C030070
:1060E0008F8104008F8104008F8104000000000074
:1060F000000000008F810400000000009986040069
:10610000000000000000000000000000000000008F
:10611000000000000000000000000000000000007F
:10612000000000000000000000000000000000006F
:10613000000000000000000000000000000000005F
:10614000000000000000000000000000000000004F
:10615000000000000000000000000000000000003F
:10616000000000000000000000000000000000002F
:10617000000000000000000000000000000000001F
:10618000000000000000000000000000000000000F
:1061900000000000000000000000000000000000FF
:1061A00000000000000000000000000000000000EF
:1061B00000000000000000000000000000000000DF
:1061C00000000000000000000000000000000000CF
:1061D00000000000000000000000000000000000BF
:1061E00000000000000000000000000000000000AF
:1061F000000000000000000000000000000000009F
:10620000F1EE103A43F08073E1EE103A704700BFB0
:1062100010B5054C237833B9044B13B10448AFF3E0
:1062200000800123237010BD98630020000000004F
:106230002C6C050008B5034B1BB103490348AFF3B1
:10624000008008BD000000009C6300202C6C05004D
:10625000154B002B08BF134B9D46A3F5803A002138
:106260008B460F461348144A121A28F047F90F4B71
:10627000002B00D098470E4B002B00D098470020F1
:10628000002104000D000D48002802D00C48AFF397
:10629000008028F0C9F82000290021F0A7FF28F08D
:1062A0009DF800BF0000080000000420000000006E
:1062B0000000000098630020E0A70020000000001C
:1062C000000000000020704703680021DB681847C9
:1062D0000123416003720020704700BF0020704717
:1062E0000020704700207047114A124938B5D2E9A2
:1062F00000320546D21A01F1540029609108E86580
:1063000009D0043B1A44002153F8040FA84208BFE7
:1063100019609A42F8D1D5E912239B1A1C1F105913
:1063200018B103685B689847AA6C043CF7E700BFA4
:10633000B8630020C03D050038B5124A0368124911
:1063400053F80C5CD2E90032415105445431D21A61
:10635000E965910809D0043B1A44002153F8040F61
:10636000854208BF19609A42F8D1D5E912239B1AD9
:106370001C1F105918B103685B689847AA6C043C4D
:10638000F7E700BFB8630020C03D050008B5FFF780
:10639000ABFF00BF08B5036853F80C3C1844FFF787
:1063A000A3FF00BF10B4D0E90F431B1BB1EBA30F39
:1063B0003DBF54F821305A75002001205DF8044B90
:1063C000704700BF10B4D0E90F431B1BB1EBA30F04
:1063D0003DBF54F821301A75002001205DF8044BB0
:1063E000704700BF406D7047036853F8183C18446D
:1063F000406D7047036853F80C3C1844704700BF69
:10640000036853F8183CC25852F80C2C1844104436
:10641000704700BF036853F80C3C1844704700BF36
:10642000036853F8183CC25852F80C2C1844104416
:10643000704700BF036853F80C3C1844704700BF16
:10644000036853F8183CC25852F80C2C18441044F6
:10645000704700BFD0F85032C2180133B3F5007F47
:10646000A8BF002382F84C10C0F85032704700BF1C
:1064700010B4D0F84C124B1C01445C42024691F817
:106480004C00C4F30801C3F3080358BF4B425DF846
:10649000044BC2F84C327047D0E993308342C3BFFB
:1064A000C3F5FF730133C018C01A7047036853F86F
:1064B0000C3C1844704700BF036853F8183CC2589E
:1064C00052F80C2C18441044704700BF406E7047BF
:1064D000036853F8183C1844406E7047026852F83D
:1064E000103C034410B4596052F80C2C01241C7267
:1064F00010445DF8044B10F0A1BC00BF036810B459
:1065000053F8144C025952F8103C2044034401241F
:10651000596052F80C2C1C7210445DF8044B10F0BA
:106520008DBC00BF026852F8103C034410B459609F
:1065300052F80C2C01241C7210445DF8044B11F02D
:106540002BB900BF036810B453F8144C025952F829
:10655000103C204403440124596052F80C2C1C7256
:1065600010445DF8044B11F017B900BF026852F8EF
:10657000103C034410B4596052F80C2C01241C72D6
:1065800010445DF8044B10F079BA00BF036810B4F2
:1065900053F8144C025952F8103C2044034401248F
:1065A000596052F80C2C1C7210445DF8044B10F02A
:1065B00065BA00BF10B50446006808B121F058FE66
:1065C000204610BD10B50446006808B121F050FE09
:1065D000204610BD10B5044B044640F80C3B1FF09C
:1065E0006BF8204610BD00BFEC37050010B5054B19
:1065F000044640F80C3B1FF05FF8204621F038FEBF
:10660000204610BDEC37050030B4056855F8104C35
:106610000444247A14B9204630BC704755F80C4C19
:10662000114620441A4630BC10F0A2BE016870B476
:1066300051F81C4C065956F8105C04442544287A3D
:1066400008B970BC704756F80C0C114620441A4625
:1066500070BC10F08DBE00BF30B4056855F8104C0A
:106660000444247A14B9204630BC704755F80C4CC9
:10667000114620441A4630BC10F07ABE016870B44E
:1066800051F81C4C065956F8105C04442544287AED
:1066900008B970BC704756F80C0C114620441A46D5
:1066A00070BC10F065BE00BF30B4056855F8104CE2
:1066B0000444247A14B9204630BC704755F80C4C79
:1066C000114620441A4630BC10F052BE016870B426
:1066D00051F8204C065956F8105C04442544287A99
:1066E00008B970BC704756F80C0C114620441A4685
:1066F00070BC10F03DBE00BF30B4056855F8104CBA
:106700000444247A14B9204630BC704755F80C4C28
:10671000114620441A4630BC10F02ABE016870B4FD
:1067200051F8204C065956F8105C04442544287A48
:1067300008B970BC704756F80C0C114620441A4634
:1067400070BC10F015BE00BF38B5036853F80C3CA0
:10675000034404460D4603F10C005A6900211FF062
:10676000D9F8236853F80C0C204429460C30BDE8B6
:1067700038401EF0F9BF00BF38B58A680C460546A0
:10678000084600211FF0C6F805F10C0120461EF056
:10679000EBFF204638BD00BF70B5014688B0054606
:1067A0001448154C154E10F0DFF8154B20221D80B3
:1067B00069460023CDE90033CDE90333CDE9053344
:1067C000029307930EF080F901230E49337020469F
:1067D0001EF068F8694620461EF0B6F80A492046C1
:1067E0001EF060F8317820460A221EF071FA08B0D7
:1067F00070BD00BF5C6E0020DC7600209D6700202D
:10680000FA6D0020581905008C19050070B50C4C64
:106810000C4E00230D4620460B4933701EF042F803
:106820002946102220461EF085FA084920461EF00F
:1068300039F8317820460A22BDE870401EF048BA87
:10684000DC7600209D670020A01905008C1905004A
:1068500038B50368044653F80C3C406E2344026884
:10686000596001251D729368984794F86010A06ED6
:106870000DF080FD11221146A06E0DF093FD94F8ED
:106880003410A06E0DF07CFD216FA06E0DF0ACFDFC
:10689000A06E03689B68984794F8603013F0120F5D
:1068A00007D094F83410A94238D002294ED00429D8
:1068B00038D094F86110E06E0DF05CFD11221146A5
:1068C000E06E0DF06FFD94F83410E06E0DF058FDA1
:1068D000E16FE06E0DF088FDE06E03689B689847FD
:1068E00094F8613013F0120F07D094F83410012996
:1068F0000ED0022922D0042919D01B0701D4002070
:1069000038BDE06E144901220DF052FD002038BD63
:10691000E06E0DF08DFD94F86130EEE7A06E0DF0A5
:1069200087FDC6E70D49A06E0DF0C2FDC1E70C4919
:10693000E06E0DF0BDFD94F86130DEE7E06E40F2F0
:1069400005410DF095FD94F86130D6E7A06E4FF447
:1069500081710DF08DFDACE74533030003020100AA
:106960000605040038B5036853F8143CC418C3582E
:10697000606E53F80C3C02682344012559601D7277
:106980009368984794F86010A06E0DF0F3FC112204
:106990001146A06E0DF006FD94F83410A06E0DF0B7
:1069A000EFFC216FA06E0DF01FFDA06E03689B68C9
:1069B000984794F8603013F0120F07D094F8341011
:1069C000A94238D002294ED0042938D094F8611059
:1069D000E06E0DF0CFFC11221146E06E0DF0E2FCEE
:1069E00094F83410E06E0DF0CBFCE16FE06E0DF02A
:1069F000FBFCE06E03689B68984794F8613013F0E5
:106A0000120F07D094F8341001290ED0022922D099
:106A1000042919D01B0701D4002038BDE06E1549A8
:106A200001220DF0C5FC002038BDE06E0DF000FD28
:106A300094F86130EEE7A06E0DF0FAFCC6E70E495F
:106A4000A06E0DF035FDC1E70C49E06E0DF030FD94
:106A500094F86130DEE7E06E40F205410DF008FD8C
:106A600094F86130D6E7A06E4FF481710DF000FD0F
:106A7000ACE700BF45330300030201000605040034
:106A800008B50368117853F80C3C18440FF0C6FFA2
:106A900008BD00BF08B50368117853F81C3CC25804
:106AA00052F80C2C184410440FF0B8FF08BD00BF7A
:106AB00038B504461D46082962D8DFE801F01922DE
:106AC0002B343D464F580500036853F80C0C114613
:106AD0002044EAB210F078F994F82C3033B12DB19B
:106AE000236853F80C0C204410F0A8F9284638BD50
:106AF000036853F80C0C11462044EAB210F044F934
:106B0000EAE7036853F80C0C11462044EAB210F08F
:106B10003FF9E1E7036853F80C0C11462044EAB250
:106B200010F03AF9D8E7036853F80C0C11462044EA
:106B3000EAB210F035F9CFE7036853F80C0C1146B0
:106B40002044EAB210F030F9C6E7036853F80C0CA1
:106B500011462044EAB210F02BF9BDE7036853F860
:106B60000C0C11462044EAB210F026F9B4E7036891
:106B700053F80C0C11462044EAB210F021F9ABE7AF
:106B80000025B3E7F8B50446006850F8206C1D46B0
:106B9000A719082962D8DFE801F019222B343D46F5
:106BA0004F580500A35953F80C0C11463844EAB26B
:106BB00010F00AF997F82C3033B12DB1A35953F8DE
:106BC0000C0C384410F03AF92846F8BDA35953F894
:106BD0000C0C11463844EAB210F0D6F8EAE7A35993
:106BE00053F80C0C11463844EAB210F0D1F8E1E742
:106BF000A35953F80C0C11463844EAB210F0CCF803
:106C0000D8E7A35953F80C0C11463844EAB210F0F7
:106C1000C7F8CFE7A35953F80C0C11463844EAB231
:106C200010F0C2F8C6E7A35953F80C0C11463844CB
:106C3000EAB210F0BDF8BDE7A35953F80C0C1146A9
:106C40003844EAB210F0B8F8B4E7A35953F80C0C82
:106C500011463844EAB210F0B3F8ABE70025B3E7C9
:106C600008B50368117853F80C3C18440FF0DEFEA9
:106C700008BD00BF08B50368117853F8203CC2581E
:106C800052F80C2C184410440FF0D0FE08BD00BF81
:106C900010B5D0E90F431B1BB1EBA30F01D30120AB
:106CA00010BD54F82100114618301EF00DFD0020D3
:106CB00010BD00BF10B50B4B0B4A044603F1980101
:106CC00003F158002360E0606162C4F8002104F51C
:106CD00086701EF0F1FC04F10C0010F019FD204646
:106CE00010BD00BF2C380500EC37050002680C49C8
:106CF00052F80C2C38B50B4B8350841803F158050F
:106D000098336362C4F80011E56004F586701EF0E4
:106D1000D3FC04F10C0010F0FBFC204638BD00BF92
:106D2000EC3705002C38050002680C4952F8182C85
:106D300038B50B4B8350841803F1580598336362C0
:106D4000C4F80011E56004F586701EF0B5FC04F18E
:106D50000C0010F0DDFC204638BD00BFEC3705000C
:106D60002C3805000C4B0D4A10B5044603F1980170
:106D700003F1580023606162C4F80021E06004F56B
:106D800086701EF099FC04F10C0010F0C1FC204646
:106D900021F06EFA204610BD2C380500EC370500B6
:106DA00002680D4952F80C2C38B50C4B83508418EE
:106DB00003F1580598336362C4F80011E56004F5E7
:106DC00086701EF079FC04F10C0010F0A1FC204646
:106DD00021F04EFA204638BDEC3705002C3805006E
:106DE00002680D4952F8182C38B50C4B83508418A2
:106DF00003F1580598336362C4F80011E56004F5A7
:106E000086701EF059FC04F10C0010F081FC204645
:106E100021F02EFA204638BDEC3705002C3805004D
:106E200010B50F4B0446406A236003F15C0103F187
:106E30009C02DC332163A264C4F8243110B10368DE
:106E40005B689847074BC4F8243104F598701EF02E
:106E500033FC04F1300010F05BFC204610BD00BF95
:106E6000DC390500EC370500026852F80C1C38B517
:106E700044180F4B626A435003F15C0503F19C0117
:106E8000DC332563A164C4F824311AB113681046B9
:106E90005B689847074BC4F8243104F598701EF0DE
:106EA0000BFC04F1300010F033FC204638BD00BF6D
:106EB000DC390500EC370500026852F8181C38B5BB
:106EC00044180F4B626A435003F15C0503F19C01C7
:106ED000DC332563A164C4F824311AB11368104669
:106EE0005B689847074BC4F8243104F598701EF08E
:106EF000E3FB04F1300010F00BFC204638BD00BF6E
:106F0000DC390500EC37050010B5144619B101292C
:106F100007D0002010BD9AB22146806E0DF06CFAA9
:106F200010BD9AB22146C06E0DF066FA10BD00BFCA
:106F3000D0F800C0ACF11C0CDCF800C06044E3E702
:106F400010B5144619B1012907D0002010BD9AB21E
:106F50002146806E0DF008FB10BD9AB22146C06E2E
:106F60000DF002FB10BD00BFD0F800C0ACF1200C4A
:106F7000DCF800C06044E3E738B50C1E0EDB1546B4
:106F8000D0E91212521AB4EBA20F07D251F8240022
:106F900018B19AB229460DF02FFA38BD002038BD3D
:106FA000D0F800C0ACF11C0CDCF800C06044E3E792
:106FB00038B50C1E0EDB1546D0E91212521AB4EB8E
:106FC000A20F07D251F8240018B19AB229460DF049
:106FD000CBFA38BD002038BDD0F800C0ACF1200C91
:106FE000DCF800C06044E3E72DE9F843D0E90F2363
:106FF0009B1A1F2B02D90120BDE8F88305462420E7
:107000000C4621F033F90646102241F601232B49A4
:10701000326100271830B382C6E90077C6E90277EB
:107020001EF026FA0FCCB446ACE80F00D5E91023C9
:107030002168CCF800109A4205D042F8046B38461B
:107040002A64BDE8F883D5F83C806FF06047A2EB76
:107050000804B7EBA40F4FEAA40216D0012A134686
:1070600038BF01239B1826D2DBB91F469946002C56
:1070700049F804600ADC04344C44B8F1000F0CD128
:10708000C5E90F946F640020B6E7FEE7224641464B
:10709000484627F019FA04344C44404621F0E8F8F9
:1070A000EEE7BB4228BF3B469F00384621F0DEF8A2
:1070B00081460744DBE7024FF7E700BF14490500AC
:1070C000FCFFFF7F03688A6853F80C3C2DE9F0430E
:1070D00003440F461A63D1E90321C3E90D21397D29
:1070E000FA8ADA8783F83C10D7E90612386A98647E
:1070F000C3E910123D463C463A4655F8266F34F82F
:107100002FCF52F8321FB88CD5F8048097F82EE0B4
:10711000A3F84C0007F13C09A07883F85900C3F8A4
:107120004E60C3F85280A3F857C083F856E0D2F8F7
:1071300004E0C3F85A1099E8030003F1640CC3F8A3
:107140005EE08CE8030097F8441083F86C10D7E9F0
:1071500012E0D7E91416C3E91CE0DE679967B96845
:10716000C3F88810D7E90310C3E92310387DF98AE2
:10717000A3F8961083F89400D7E906013E6AC3F895
:10718000A060C3E92601B98CA3F8A41099E8030014
:10719000D5F80480D5F80090B4F800C0A67815683A
:1071A000546897F82EE083F8AEE003F1BC02C3F810
:1071B000A690C3F8AA80A3F8AFC083F8B160C3F863
:1071C000B250C3F8B64082E8030097F8442083F831
:1071D000C420D7E91201D7E91424C3E93201C3F866
:1071E000D440C3F8D020BDE8F08300BF026852F855
:1071F000181C38B54418104B626A435003F15C0503
:1072000003F19C01DC332563A164C4F824311AB175
:10721000136810465B689847084BC4F8243104F59E
:1072200098701EF049FA04F1300010F071FA20460F
:1072300021F01EF8204638BDDC390500EC3705008A
:10724000026852F80C1C38B54418104B626A43505F
:1072500003F15C0503F19C01DC332563A164C4F8F0
:1072600024311AB1136810465B689847084BC4F87C
:10727000243104F598701EF01FFA04F1300010F06C
:1072800047FA204620F0F4FF204638BDDC390500DF
:10729000EC37050010B5104B0446406A236003F13B
:1072A0005C0103F19C02DC332163A264C4F8243145
:1072B00010B103685B689847084BC4F8243104F5A3
:1072C00098701EF0F9F904F1300010F021FA204610
:1072D00020F0CEFF204610BDDC390500EC3705005C
:1072E0002DE9F041456904460B462DBB027C8A42DC
:1072F00029D00668414F7268BA426BD1D0F850224B
:1073000081180132B2F5007FA8BF2A4681F84C30BF
:10731000C0F8502233693A4A93425ED1D4E993309F
:107320008342C3BFC3F5FF730133C018C01A0328DB
:1073300027D00020BDE8F081012D0BD00368BDE807
:10734000F041DB68184703685B6998476561002076
:10735000BDE8F081027C8A4242D00268274D526823
:10736000AA4243D1D0F8502281180132B2F5007FF1
:1073700081F84C30AABF0023C0F85022C0F8503228
:10738000D7E7D4F84C32E21892F84C20422A1ED1AA
:107390005A1CB2F5007F12DA224492F84C204C2A93
:1073A00015D1B3F5FF7F03F1020221D194F84C30DF
:1073B000452B0CD102220023C4E90523B9E794F838
:1073C0004C304C2B03D194F84D30452BF2D0012397
:1073D0006361AEE7904726689CE720469847A6E79A
:1073E00003685B69984700236361A2E79047A0E7C1
:1073F000224492F84C30452BDCD0E8E7556402007B
:10740000996402002DE9F04704460068DFF8E08047
:1074100050F81C6C54F806C0DCF810E0C64504EBCC
:10742000060704D03846F446BDE8F04760471D46DD
:1074300008295AD8DFE801F0514941393129211989
:1074400005005CF80C0C11463844EAB20FF0BCFCA5
:1074500097F82C3033B12DB1A35953F80C0C3844A4
:107460000FF0ECFC2846BDE8F0875CF80C0C1146E8
:107470003844EAB20FF0A4FCEAE75CF80C0C1146C1
:107480003844EAB20FF098FCE2E75CF80C0C1146C5
:107490003844EAB20FF08CFCDAE75CF80C0C1146C9
:1074A0003844EAB20FF080FCD2E75CF80C0C1146CD
:1074B0003844EAB20FF074FCCAE75CF80C0C1146D1
:1074C0003844EAB20FF068FCC2E75CF80C0C1146D5
:1074D0003844EAB20FF05CFCBAE75CF80C0C1146D9
:1074E0003844EAB20FF050FCB2E70025B0E700BF25
:1074F000B16A02002DE9F0410768DFF8D4C0D7F87F
:1075000010E0E6455ED104461E4608295ED8DFE855
:1075100001F01921293139414951050057F80C0C66
:1075200011462044F2B20FF04FFC94F82C3033B1E6
:107530002EB1236853F80C0C20440FF07FFC30462A
:10754000BDE8F08157F80C0C11462044F2B20FF060
:107550001BFCEAE757F80C0C11462044F2B20FF07E
:1075600017FCE2E757F80C0C11462044F2B20FF07A
:1075700013FCDAE757F80C0C11462044F2B20FF076
:107580000FFCD2E757F80C0C11462044F2B20FF072
:107590000BFCCAE757F80C0C11462044F2B20FF06E
:1075A00007FCC2E757F80C0C11462044F2B20FF06A
:1075B00003FCBAE757F80C0C11462044F2B20FF066
:1075C000FFFBB2E7F446BDE8F04160470026B6E7AE
:1075D000B16A0200F8B5036853F8147CC359C519A1
:1075E00053F80C3CEC18EB58064653F80C3C606E14
:1075F000234402689268596001211972904794F8F7
:107600006010A06E0CF0B6FE11221146A06E0CF0B8
:10761000C9FE94F83410A06E0CF0B2FE216FA06E7B
:107620000CF0E2FEA06E03689B68984794F8603007
:1076300013F0120F08D094F83410012968D00229F1
:1076400000F09380042974D094F86110E06E0CF07F
:1076500091FE11221146E06E0CF0A4FE94F8341055
:10766000E06E0CF08DFEE16FE06E0CF0BDFEE06EA2
:1076700003689B68984794F8613013F0120F07D0A5
:1076800094F8341001293DD002295ED0042955D048
:107690001A072AD495F8241068690CF06BFE1122A1
:1076A000114668690CF07EFE686901210CF068FEE5
:1076B000D5E905010CF098FE686903689B68984756
:1076C00095F8243013F0120F0BD0F25952F80C2C0D
:1076D0002A4492F8341001291ED002293DD00429F1
:1076E00020D01B0707D40020F8BDE06E22490122FC
:1076F0000CF05EFECEE768691F4901220CF058FECF
:107700000020F8BDE06E0CF093FE94F86130BFE706
:10771000A06E0CF08DFE97E768690CF089FE95F875
:107720002430DEE7154968690CF0C2FE95F8243074
:10773000D7E71249A06E0CF0BBFE85E71049E06E5A
:107740000CF0B6FE94F86130A2E7E06E40F205411D
:107750000CF08EFE94F861309AE768694FF48171FD
:107760000CF086FE95F82430BBE7A06E4FF48171D3
:107770000CF07EFE68E700BF453303000302010002
:107780000605040038B5036853F80C3CC418C35808
:10779000054653F80C3C606E2344026892685960B9
:1077A00001211972904794F86010A06E0CF0E2FD70
:1077B00011221146A06E0CF0F5FD94F83410A06E65
:1077C0000CF0DEFD216FA06E0CF00EFEA06E0368C3
:1077D0009B68984794F8603013F0120F08D094F823
:1077E0003410012968D0022900F09380042974D054
:1077F00094F86110E06E0CF0BDFD11221146E06EB0
:107800000CF0D0FD94F83410E06E0CF0B9FDE16F8F
:10781000E06E0CF0E9FDE06E03689B68984794F811
:10782000613013F0120F07D094F8341001293DD0C5
:1078300002295ED0042955D01A072AD495F82410BD
:1078400068690CF097FD1122114668690CF0AAFDD9
:10785000686901210CF094FDD5E905010CF0C4FD27
:10786000686903689B68984795F8243013F0120FF5
:107870000BD02A6852F80C2C2A4492F834100129B3
:107880001ED002293DD0042920D01B0707D4002098
:1078900038BDE06E224901220CF08AFDCEE768690E
:1078A0001F4901220CF084FD002038BDE06E0CF071
:1078B000BFFD94F86130BFE7A06E0CF0B9FD97E70B
:1078C00068690CF0B5FD95F82430DEE71549686964
:1078D0000CF0EEFD95F82430D7E71249A06E0CF0BD
:1078E000E7FD85E71049E06E0CF0E2FD94F86130A9
:1078F000A2E7E06E40F205410CF0BAFD94F8613069
:107900009AE768694FF481710CF0B2FD95F8243064
:10791000BBE7A06E4FF481710CF0AAFD68E700BFD1
:107920004533030003020100060504002DE9F0477A
:1079300004460025474BC36500F1680746492566A4
:107940008AB0384684F864501DF092FD434A2260A4
:1079500002F15401424EE1651022C4E90525C4E953
:1079600002552022656004F11C002561294626F09D
:10797000C5FDD6E901239A42C4E90F55C4E9115562
:10798000C4E9135584F8585028D042F8044B72606B
:10799000344904A81DF06CFD04A901A81DF082FD66
:1079A000D6E90031C91A89100A22013907A81DF049
:1079B0001BFE07A901A81DF047FF014638461DF030
:1079C00083FE07A81DF078FE01A81DF075FE04A82F
:1079D0001DF072FE20460AB0BDE8F087D6F8009090
:1079E0006FF06048A2EB0905B8EBA50F4FEAA503BD
:1079F00016D0012B1A4638BF01229B1827D2DBB9BB
:107A000098469A46002D4AF805400ADC043555444C
:107A1000B9F1000F0CD1C6E900A5C6F80880B7E798
:107A2000FEE72A464946504626F04EFD04355544A9
:107A3000484620F01DFCEEE7434528BF43464FEA89
:107A40008308404620F012FC82468044DAE7DFF8E3
:107A50001880F6E7EC370500E4190500C03D050085
:107A6000B8630020F0190500FCFFFF7F70B5D0F867
:107A70004C32C11896B091F84C20422A04461AD1D3
:107A80005A1CB2F5007F80F2E183024492F84C2048
:107A9000412A10D1B3F5FF7F03F1020240F05A876B
:107AA00090F84C20552A06D190F84D20442A08BF62
:107AB000022200F0C586D4F8585291F84C204E2A84
:107AC00060D15A1CB2F5007F80F29784224492F86C
:107AD0004C20412A40F0CF80B3F5FF7F03F1020232
:107AE00040F0918494F84C204D2A40F0C48001224B
:107AF000224492F84C20452A40F0BD801A1DB2F570
:107B0000007FA4BFA3F5FE73C3F30802D4F850327C
:107B1000934206D02244237C92F84C209A4240F0B3
:107B20004586402206A9DC480EF068FE16AB0344E9
:107B3000DA49E068002503F8405C1CF005FF06A95F
:107B4000E0681CF001FF217CE0681DF035F8D449A5
:107B500003A81DF08DFC06A968461DF089FC694646
:107B600003A81DF071FE0146CE481CF08FFF684649
:107B70001DF0A2FD03A81DF09FFDD4F85032C4F8FB
:107B80004C32E11891F84C20522A74D15A1CB2F5AB
:107B9000007F80F24984224492F84C20462A40F02B
:107BA0000982B3F5FF7F03F1020240F0438494F8A9
:107BB0004C20532A40F0FE810122A01890F84C007E
:107BC000542840F0F7810132B2F5007F40F0438441
:107BD00094F84C20412A40F0ED810122A01890F841
:107BE0004C00542840F0E6810132B2F5007F40F0AD
:107BF000438494F84C20452A40F0DC81DA1DB2F52C
:107C0000007F04DB6FF4FC7C6344C3F30802D4F808
:107C10005032A549934206D02244237C92F84C204E
:107C20009A4240F0AE85E068D4F864521CF08CFEB5
:107C30009E49E0681CF088FE217CE0681CF0BCFFD7
:107C40009B4906A81DF014FC984903A81DF010FCE0
:107C500003A906A81DF0F8FD014692481CF016FF86
:107C600003A81DF029FD06A81DF026FDD4F850320A
:107C7000C4F84C32E11891F84C20412A40F09A8126
:107C8000581CB0F5007F80F26783221892F84C20D0
:107C9000442A40F09580B3F5FF7F03F1020240F0E3
:107CA000618394F84C20562A40F08A800122A6185D
:107CB00096F84C60452E40F083800132B2F5007F8B
:107CC00040F0618394F84C20522A79D10122A61801
:107CD00096F84C60542E73D10132B2F5007F40F01B
:107CE000638394F84C20492A6AD10122A61896F899
:107CF0004C60532E64D10132B2F5007F40F06583B1
:107D000094F84C20492A5BD10122A61896F84C60C1
:107D10004E2E55D10132B2F5007F40F0678394F8C2
:107D20004C20472A4CD103F10B02B2F5007F04DB53
:107D30006FF4FA763344C3F30802D4F85032934216
:107D400006D02244237C92F84C209A4240F0F384DF
:107D500058480BF0ADFD584B584A50490546002D88
:107D600014BF1D461546E0681CF0EEFD2946E0688C
:107D70001CF0EAFD217CE0681CF01EFF484906A8C3
:107D80001DF076FB294603A81DF072FB03A906A887
:107D90001DF05AFD014643481CF078FE03A81DF073
:107DA0008BFC06A81DF088FC0025D4F85032C4F8DE
:107DB0004C32E11891F84C20412A40F0FB80581CCD
:107DC000B0F5007F80F25F83204490F84C20442A75
:107DD00040F06C81B3F5FF7F03F1020240F059835C
:107DE00094F84C20562A40F061810122A01890F8A6
:107DF0004C00452840F05A810132B2F5007F40F036
:107E0000598394F84C20522A40F050810122A01846
:107E100090F84C00542840F049810132B2F5007FBF
:107E200040F0598394F84C205F2A40F03F810122B2
:107E3000A01890F84C00532840F038810132B2F578
:107E4000007F40F0598394F84C20452A40F02E8161
:107E50000122A01890F84C00522840F027810132EE
:107E6000B2F5007F40F0598394F84C20562A40F038
:107E70001D810122A01890F84C00492840F016817D
:107E80000132B2F5007F40F0598394F84C20432A28
:107E900040F00C81012213E05C6E00206C1A05009A
:107EA000701A0500DC7600200C1A0500A01A0500E7
:107EB000381A05009C740020FC190500041A0500FE
:107EC000A01890F84C00452840F0F0800132B2F53F
:107ED000007F40F0448394F84C205F2A40F0E68015
:107EE0000122A01890F84C00492840F0DF800132B0
:107EF000B2F5007F40F0448394F84C20442A40F0CF
:107F0000D58003F11102B2F5007F04DB6FF4F77541
:107F10002B44C3F30802D4F85032934206D02244D3
:107F2000237C92F84C209A4240F0E083BD4DBE493C
:107F30002B68E06830338DF800301CF005FD694691
:107F4000E0681CF001FD217CE0681CF035FEB749BB
:107F500006A81DF08DFA694603A81DF089FA03A949
:107F600006A81DF071FC0146B1481CF08FFD03A866
:107F70001DF0A2FB06A81DF09FFBAE4906A81DF050
:107F800077FA0A22296803A81DF0FAFA03A906A8BD
:107F90001DF05AFC0146A6481CF078FD03A81DF010
:107FA0008BFB06A81DF088FB0025D4F85032C4F8DE
:107FB0004C32E11891F84C204C2A77D15A1CB2F57A
:107FC000007F80F29A81224492F84C20452A40F0AA
:107FD000FE80B3F5FF7F03F1020240F0948194F834
:107FE0004C20442A40F0F3800122A01890F84C0065
:107FF0004D2840F0EC800132B2F5007F40F09481D2
:1080000094F84C204F2A40F0E2800122A01890F80A
:108010004C00442840F0DB800132B2F5007F40F094
:10802000948194F84C20452A40F0D180DA1DB2F5B5
:10803000007F04DB6FF4FC700344C3F30802D4F840
:108040005032934206D02244237C92F84C209A422C
:1080500040F03783784B74499D69E068002D40F00B
:1080600009831CF071FC7549E0681CF06DFC217CF3
:10807000E0681CF0A1FD6D4906A81DF0F9F96F49F3
:1080800003A81DF0F5F903A906A81DF0DDFB0146C4
:1080900067481CF0FBFC03A81DF00EFB06A81DF0B2
:1080A0000BFBD4F85032C4F84C32E11891F84C2054
:1080B000432A40F08C805A1CB2F5007F80F2678220
:1080C000224492F84C204F2A40F0A080B3F5FF7F65
:1080D00003F1020240F0618294F84C204E2A40F0F5
:1080E00095800122A11891F84C104E2940F08E8005
:1080F0000132B2F5007F40F0618294F84C20452AAD
:1081000040F084800122A11891F84C1043297DD1C0
:108110000132B2F5007F40F0628294F84C20542A7C
:1081200074D10122A11891F84C1045296ED1013269
:10813000B2F5007F40F0648294F84C20442A65D167
:1081400003F10902B2F5007F04DB6FF4FB710B440D
:10815000C3F30802D4F85032934206D02244237C61
:1081600092F84C209A4240F0468335480EF0D2FBFC
:10817000344B354A2C490546002D14BF1D46154683
:10818000E0681CF0E1FB2946E0681CF0DDFB217C87
:10819000E0681CF011FD254906A81DF069F9294683
:1081A00003A81DF065F903A906A81DF04DFB0146C3
:1081B0001F481CF06BFC03A81DF07EFA06A81DF0FA
:1081C0007BFA0025D4F85032C4F84C32E11891F80B
:1081D0004C20562A1AD15A1CB2F5007F80F2178221
:1081E000224492F84C20452A10D1B3F5FF7F03F1C9
:1081F000020240F0528494F84C20522A06D194F89E
:108200004D20532A08BF022200F0D183D4F85832FF
:10821000AB424FD01DB1D4F85032C4F84C3228468E
:1082200016B070BD2C6E00206C1A0500701A050087
:10823000DC7600200C1B0500FC6D0020904405003E
:108240005C6E0020FC190500041A050090F84C2013
:10825000412A7FF430AC90F84D20552A08BF022205
:108260007FF429ACA01890F84C0044287FF423AC8C
:108270000132B2F5007F40F0E38294F84C20522A9C
:108280007FF419AC94F84D20412A08BF02227FF4F4
:1082900012ACA01890F84C0054287FF40CAC0132BA
:1082A000B2F5007F40F0E38294F84C20452A00F0BC
:1082B000E48200E4EB49E0681CF046FBEA49E06830
:1082C0001CF042FB217CE0681CF076FCE74906A824
:1082D0001DF0CEF8E44903A81DF0CAF803A906A8CA
:1082E0001DF0B2FA0146E2481CF0D0FB03A81DF0D5
:1082F000E3F906A81DF0E0F98CE794F84C20452A34
:108300007FF465AF0122A01890F84C0044287FF458
:108310005EAF0132B2F5007F7FF467AE94F84C2077
:108320004D2A7FF454AF0122A01890F84C004F283A
:108330007FF44DAF0132B2F5007F7FF467AE94F861
:108340004C20442A7FF443AF0122224492F84C206F
:10835000452A3FF46BAE3AE794F84C20442A7FF468
:108360002FAD0122A61896F84C60562E7FF428AD4A
:108370000132B2F5007F7FF49AAC94F84C20452A84
:108380007FF41EAD0122A61896F84C60522E7FF4A1
:1083900017AD0132B2F5007F7FF499AC94F84C2010
:1083A000542A7FF40DAD0122A61896F84C60492E90
:1083B0007FF406AD0132B2F5007F7FF497AC94F8FC
:1083C0004C20532A7FF4FCAC0122A61896F84C608E
:1083D000492E7FF4F5AC0132B2F5007F7FF495AC05
:1083E00094F84C204E2A7FF4EBAC0122224492F800
:1083F0004C20472A3FF497ACE2E494F84C20412A01
:108400007FF439AC0122A01890F84C004D287FF47D
:1084100032AC0132B2F5007F7FF46AAB94F84C20A5
:10842000452A3FF46BAB26E494F84C20462A7FF4AF
:10843000C1AD0122A01890F84C0053287FF4BAADCA
:108440000132B2F5007F7FF4B8AB94F84C20542A87
:108450007FF4B0AD0122A01890F84C0041287FF4C1
:10846000A9AD0132B2F5007F7FF4B8AB94F84C208F
:10847000542A7FF49FAD0122224492F84C20452AD1
:108480003FF4BCAB96E594F84C20442A7FF40EAE42
:108490000122A01890F84C0056287FF407AE013254
:1084A000B2F5007F7FF4A2AC94F84C20452A7FF40B
:1084B000FDAD0122A01890F84C0052287FF4F6ADD3
:1084C0000132B2F5007F7FF4A2AC94F84C20542A1C
:1084D0007FF4ECAD0122A01890F84C005F287FF4E7
:1084E000E5AD0132B2F5007F7FF4A2AC94F84C20E8
:1084F000532A7FF4DBAD0122A01890F84C004528E8
:108500007FF4D4AD0132B2F5007F7FF4A2AC94F8D1
:108510004C20522A7FF4CAAD0122A01890F84C00DA
:1085200056287FF4C3AD0132B2F5007F7FF4A2ACD0
:1085300094F84C20492A7FF4B9AD0122A01890F894
:108540004C0043287FF4B2AD0132B2F5007F7FF4D6
:10855000B7AC94F84C20452A7FF4A8AD0122A018AE
:1085600090F84C005F287FF4A1AD0132B2F5007F96
:108570007FF4B7AC94F84C20492A7FF497AD0122E0
:10858000224492F84C20442A3FF4BBAC8EE594F888
:108590004C204F2A7FF43AAE0122A11891F84C10DA
:1085A0004E297FF433AE0132B2F5007F7FF49AADED
:1085B00094F84C204E2A7FF429AE0122A11891F89C
:1085C0004C1045297FF422AE0132B2F5007F7FF4D2
:1085D0009AAD94F84C20432A7FF418AE0122A118DA
:1085E00091F84C1054297FF411AE0132B2F5007F9E
:1085F0007FF498AD94F84C20452A7FF407AE012211
:10860000224492F84C20442A3FF49AADFEE594F8B7
:108610004C20452A7FF4FAAD94F84D20522A08BF29
:1086200002227FF4F3ADA11891F84C1053297FF486
:10863000EDAD0132B2F5007F40F0B98194F84C20E5
:10864000492A7FF4E3AD94F84D204F2A08BF022257
:108650007FF4DCAD224492F84C204E2A00F0BC811D
:10866000D4E500BF0C1A0500CC1B0500381A050024
:10867000DC7600201CF068F9A949E0681CF064F978
:10868000217CE0681CF098FAA64906A81CF0F0FED0
:10869000A34903A81CF0ECFE03A906A81DF0D4F81A
:1086A0000146A1481CF0F2F903A81DF005F806A840
:1086B0001DF002F8D4F85032C4F84C320025E1180D
:1086C000F4E49A49E068D4F85C521CF03DF998490A
:1086D000E0681CF039F9217CE0681CF06DFA9549DE
:1086E00006A81CF0C5FE924903A8CAE48F49E068B9
:1086F000D4F85C521CF028F98F49E0681CF024F98A
:10870000217CE0681CF058FA8A4906A81CF0B0FEEB
:10871000894903A81CF0ACFE03A906A81DF094F833
:10872000014681481CF0B2F903A81CF0C5FF06A859
:108730001CF0C2FF39E47D49E068D4F85C521CF0BB
:1087400003F97E49E0681CF0FFF8217CE0681CF02A
:1087500033FA784906A81CF08BFE784903A81CF070
:1087600087FE03A906A81DF06FF801466E481CF0AD
:108770008DF903A81CF0A0FF06A81CF09DFFFFF7D1
:1087800014BBE068D4F85C521CF0DEF86C49E06879
:108790001CF0DAF8217CE0681CF00EFA654906A8A6
:1087A0001CF066FE664903A8FFF750BA5F49E0680F
:1087B0001CF0CAF86349E0681CF0C6F8217CE06848
:1087C0001CF0FAF95B4906A81CF052FE5D4903A8AB
:1087D0001CF04EFE03A906A81DF036F801465248CB
:1087E0001CF054F903A81CF067FF06A81CF064FFF6
:1087F0000225FFF7C2B94D49E068D4F85C521CF07D
:10880000A3F85149E0681CF09FF8217CE0681CF057
:10881000D3F9484906A81CF02BFE4B4903A81CF0CD
:1088200027FE03A906A81DF00FF801463E481CF0DC
:108830002DF903A81CF040FF06A81CF03DFFC1E481
:10884000A01890F84C0052287FF435A90132B2F5F7
:10885000007F40F0968094F84C20412A7FF42BA9A9
:1088600094F84D20542A08BF02227FF424A9224400
:1088700092F84C20452A7FF41EA903F10802B2F5B4
:10888000007FA4BFA3F5FC73C3F30802D4F85032F1
:10889000264993422FD02244237C92F84C209A42BE
:1088A00029D0E068D4F85C521CF04EF82749E06803
:1088B0001CF04AF8217CE0681CF07EF91D4906A8EE
:1088C0001CF0D6FD214903A81CF0D2FD03A906A87F
:1088D0001CF0BAFF014614481CF0D8F803A81CF09D
:1088E000EBFE06A81CF0E8FED4F85032C4F84C3277
:1088F000E118FFF7E2B8E068D4F864521CF024F8FD
:108900001349E0681CF020F8217CE0681CF054F961
:10891000084906A81CF0ACFD0D4903A8D4E700BF28
:108920003C300500701A0500DC7600200C1A0500AA
:108930005C1B0500381A05002C1B0500E41A050015
:10894000C01A0500801A0500801B0500481A0500A2
:10895000141A0500024492F84C20552A7FF4ABA863
:10896000DA1CB2F5007F7FF47DAC90F84C20442AED
:108970007FF4A1A890F84D20522A08BF02227FF46C
:108980009AA8A01890F84C0041287FF494A80132CE
:10899000B2F5007F7FF47DAC94F84C20542A7FF42C
:1089A0008AA894F84D20452A7FF485A865E7A11888
:1089B00091F84C1049297FF429AC0132B2F5007FBF
:1089C00040F0828094F84C204F2A7FF41FAC94F83A
:1089D0004D204E2A7FF41AACDA1DB2F5007F04DB7D
:1089E0006FF4FC721344C3F30802D4F8503293427C
:1089F0002FD02244237C92F84C209A4229D03B4924
:108A0000E068D4F85C521BF09FFF3949E0681BF026
:108A10009BFF217CE0681CF0CFF8364906A81CF0CB
:108A200027FD334903A81CF023FD03A906A81CF069
:108A30000BFF014630481CF029F803A81CF03CFE4F
:108A400006A81CF039FED4F85032C4F84C32FFF7B7
:108A5000DDBB2A49E0681BF077FF2949E0681BF07D
:108A600073FF217CE0681CF0A7F8264906A81CF0DB
:108A7000FFFC234903A81CF0FBFC03A906A81CF07B
:108A8000E3FE01461C481CF001F803A81CF014FE8C
:108A900006A81CF011FE0025D5E7224492F84C20D0
:108AA000522A7FF4B3ABDA1CB2F5007F7FF4BBAD82
:108AB00094F84C20532A7FF4A9AB94F84D20492A0E
:108AC00008BF02227FF4A2ABA11891F84C104F29E5
:108AD0007FF49CAB0132B2F5007F7FF4BBAD94F81C
:108AE0004C204E2A3FF478AFFFF790BB0C1A0500DC
:108AF000A81B0500381A0500DC7600206C1A05005A
:108B0000343E0500701A050070B5D0F84C32067C72
:108B1000C2188CB092F84C20B24256D00021CDE958
:108B2000071109910A918DF82C1007AC5D1C04F80F
:108B3000012B6FF4FF72B5F5007F134401F10101C1
:108B4000ACBFC3F308032B46102900EB030239D056
:108B500092F84C20964203D0D0F85052AB42E5D167
:108B6000C0F84C3207ABC1F111025818002125F0B2
:108B7000C5FC294904A81CF07BFC07A901A81CF02E
:108B800077FC01A904A81CF05FFE014623481BF0F6
:108B90007DFF01A81CF090FD04A81CF08DFD20486D
:108BA0000AF06CFF1E480AF05DFE1E480AF05AFEED
:108BB0001D4807A90DF00EFE1C4B1B784BB9002079
:108BC0000CB070BDC0F84C32D3E7D0F860020CB0E6
:108BD00070BD062112480AF031FE11480AF016FE57
:108BE000134B196811B10E480AF0CCFD0D480AF07C
:108BF000DFFD0B4801210AF05FFEF4220848202126
:108C00000AF052FE06481E210AF04CFE00210448DC
:108C10000AF0C0FED3E700BFE41B0500DC760020AD
:108C20009C740020E07400205C6E00209C67002093
:108C3000286E0020F8B50368394F1B69D0F86062D0
:108C4000BB4204463ED1D0E993508542C3BFC5F52F
:108C5000FF7201328018401B002807DD621992F86C
:108C60004C20202A04BF0135C4F84C52BB4226D107
:108C7000D4F850028542C3BFC5F5FF730133C01855
:108C8000401B01280DDD6B1CB3F5007F04DB6FF486
:108C9000FF73EB18C3F30803254495F84C204F2AC3
:108CA00001D03046F8BD1C4494F84C304E2B0FD008
:108CB000462BF6D11B480AF0E1FE0026F1E72046DC
:108CC0009847DEE798472368D4F84C521B69C3E7FE
:108CD000154B1E78002EE4D0062112480AF0AEFD96
:108CE00010480AF093FD114B196811B10D480AF0B4
:108CF00049FD0F480AF05CFD0A4801210AF0DCFD3D
:108D0000F422084820210AF0CFFD06481E210AF06F
:108D1000C9FD044800210AF03DFE0026C1E700BF5E
:108D2000996402009C7400209C670020286E00203B
:108D3000E0740020036870B51A69274ED0F86052BD
:108D4000B242044644D1D0E993308342C3BFC3F555
:108D5000FF730133C018C01A002809DDD4F84C3263
:108D6000E11891F84C10202904BF0133C4F84C32AB
:108D7000B2422AD1D4E993308342C3BFC3F5FF7313
:108D80000133C018C01A002809DDD4F84C0204448D
:108D900094F84C30A3F13004E2B2092A01D92846F4
:108DA00070BD313B082BFAD80C4B0D4E53F8240004
:108DB000346038B103681B6998473368094AA34295
:108DC0001060ECD10025284670BD20469047DAE7B8
:108DD000904723681A69BFE7996402004C67002036
:108DE0002C6E0020286E0020F8B50368384F1B69F0
:108DF000D0F86062D0F84C52BB42044641D1D0F862
:108E000050028542C3BFC5F5FF7201328018401B76
:108E1000002805DD621992F84C20202A08BF013590
:108E2000B5F5007FA8BFC5F30805BB4226D1D4E93C
:108E300093308342C3BFC3F5FF730133C018C01A18
:108E4000002806DD2C4494F84C30302B03D0312B15
:108E50001BD03046F8BD1F4CFF210023206AC4E917
:108E6000051320F071F86169606A20F06DF861699E
:108E7000A06A20F069F800263046F8BD20469847E1
:108E8000DEE7984723681B69C2E7124C2568A3698F
:108E90009D4215D0FF21206A616120F055F861697B
:108EA000606A20F051F86169A06A20F04DF82368EB
:108EB0009D4205D063689D4202D0A3689D42DAD1ED
:108EC0003223A561E3601CF073FDE061D3E700BFCE
:108ED00099640200FC6D002070B50546D0E993202E
:108EE000904237D01F4B0024A918013291F84C1042
:108EF00003F8011BB2F5007F04F1010409DA904286
:108F0000F2D1C5F84C22184B1B783BB9D5F870024A
:108F100070BD08B10022E7E70246F2E7686880B159
:108F20000268124B16699E4216D152F8103C034457
:108F30001B7A33B152F80C3C0A49184422460EF011
:108F400017FAA86820B1036806491B6A22469847A9
:108F5000204670BD0024D6E7024A23460021B047D0
:108F6000EFE700BF386600209D6700200966020019
:108F700010B504460649C0681BF0E6FC217CE06899
:108F80001BF01AFEBDE81040024903481BF0C4BDA7
:108F90006C1A0500181C0500DC76002030B504466C
:108FA00087B00D46C06811491BF0CEFC2946E06829
:108FB0001BF0CAFC217CE0681BF0FEFD0C4903A8F5
:108FC0001CF056FA294668461CF052FA694603A876
:108FD0001CF03AFC014607481BF058FD68461CF09F
:108FE0006BFB03A81CF068FB07B030BD0C1A050032
:108FF000381A0500DC760020F8B503681D4F1B69A0
:10900000BB4204460E46154632D1D0E99330834226
:10901000C3BFC3F5FF730133C018C01AB04225DBCC
:10902000002E19DD013D144F2E4423681B68BB42FE
:1090300014D1D4F84C22531C59422244C1F30801E4
:1090400092F84C20C3F3080358BF4B42C4F84C328B
:1090500005F8012FAE42E8D10020F8BD2046984720
:1090600005F8010FAE42E0D10020F6E70120F8BD7F
:109070009847D3E799640200716402002DE9F84330
:1090800004468A6808460F4600211CF043FC23680A
:109090001F4A1B69934236D1D4E99336B342C3BF0A
:1090A000C3F5FF730133F618F61A002E21DD0025F3
:1090B000DFF86090A84623681B684B451FD1D4F8A1
:1090C0004C22531C5942C1F308012244C3F3080344
:1090D00058BF4B4292F84C10C4F84C32B8F1000F14
:1090E00004D10D29384607D01CF08CFB0135AE4267
:1090F000E1D10020BDE8F8834FF00108F6E72046F3
:1091000098470146EAE7204698470646CDE700BF64
:10911000996402007164020002682DE9F843DFF8E7
:10912000C4801369434504460D4658D1D0E99330B5
:109130008342C3BFC3F5FF730133C018C01A0028B0
:109140004AD02268DFF8A090136943454FF000072A
:1091500040F2FF1628D1D4E993308342C6BFF31AF8
:10916000C018C01A002823DD226813684B4529D196
:10917000D4F84C32E118013391F84C005942C1F354
:109180000801A0F1300CC3F3080358BF4B425FFA4B
:109190008CF10929C4F84C320ED8136907EB870704
:1091A00043450CEB4707D6D0204698470028DBDC28
:1091B0002F600020BDE8F8830D2818BF0220F7D0EB
:1091C000BDE8F88320469847A0F1300C5FFA8CF395
:1091D000092BF1D82268E0E70120BDE8F883984721
:1091E000ADE700BF996402007164020003682DE9D5
:1091F000F0471B69244CA34205468946174640D1D7
:10920000D0E993308342C3BFC3F5FF730133C01865
:10921000C01A484532DBB9F1000F4FF0000426DDDB
:10922000DFF868A0A04605E0302827D108F1010842
:10923000C1451CD02B681B6864005345E4B21AD1A9
:10924000D5F84C02431C5E422844C6F30806C3F31B
:10925000080358BF734290F84C00C5F84C323128CF
:10926000E2D108F101080134C145E4B2E2D13C7019
:109270000020BDE8F08728469847F0E70120BDE8C8
:10928000F0879847C5E700BF996402007164020047
:10929000F0B5036883B0DB6A04460E4698470028A1
:1092A0002DD01848184907461BF04EFB236820466E
:1092B000DB6A98470A22014638461BF009FD13492C
:1092C00038461BF041FB0CE023685B699847C1B24C
:1092D000384601911BF066FB336801991B683046E4
:1092E000984723682046DB6A984705462046002DAC
:1092F000EAD104481BF0AAFB284603B0F0BD4FF0AA
:10930000FF35F9E7DC760020281C0500581C050015
:109310002DE9F04F584BDFF8A4A11B7801228BB048
:109320008AF8002023B9554A117863F34701117078
:10933000534F52495348544DDFF88491DFF88481EC
:109340000DF040FA514938461BF0FEFA50493846B4
:109350001BF0E2FB4E494B480DF03CFA4D494948A1
:109360000BF0FEFD4C4947480BF0FCFD4B480DF05F
:109370009FFC012402E001340A2C1CD015F8013FA7
:10938000002BF8D0494638461BF0DEFA0A22214667
:1093900038461BF09DFC58F8240003682146DB6822
:1093A00098470646D8B93E4B58F8242043F8242065
:1093B00001340A2CE2D13B4B1B685A1E082A08D8FC
:1093C000374A52F8230020B103681B699847364B8F
:1093D00018609AF8003053BB0BB0BDE8F08F3349EA
:1093E00004A81CF045F80A22214601A81CF0C8F880
:1093F00001A904A81CF028FA2D491CF051FA0A22F0
:109400008346314607A81CF023F907A958461CF0EB
:109410001BFA014638461BF073FA07A81CF04CF9FA
:1094200001A81CF049F904A81CF046F9BBE7062185
:1094300020480AF003FA1F480AF0E8F91A4B1968A5
:1094400011B11C480AF09EF91B480AF0B1F91948FD
:1094500001210AF031FAF422164820210AF024FAF8
:1094600014481E210AF01EFA002112480AF092FA4E
:109470000BB0BDE8F08F00BF446E0020306E0020BE
:10948000DC7600205C6E0020F06D00206C1C050076
:1094900004600020996702000D680200806D0020C2
:1094A0004C6700202C6E0020286E0020D41C050084
:1094B000FC1C05009C740020E07400209C670020C8
:1094C0009C1C05007467002038B503682A4D1A6992
:1094D000AA42044648D1D0E993308342C3BFC3F5C2
:1094E000FF730133C018C01A002809DDD4F84C32CC
:1094F000E11891F84C10202904BF0133C4F84C3214
:10950000AA422ED1D4E993308342C3BFC3F5FF737F
:109510000133C018C01A00281FDDD4F84C32234490
:1095200093F84C00302812D0A0F13003DAB2092AA7
:1095300098BF184609D9A0F14103052B18D9A0F10D
:109540006103052B8CBF0D485738FFF7E1FED4F8B7
:109550005032C4F84C32002038BD0120FFF7D8FE4D
:10956000F5E720469047D6E7904723681A69BBE79E
:109570003738FFF7CDFEEAE79964020019FCFFFFD8
:10958000F8B5344C344F354E354D204600210DF0A2
:1095900097F9204604210CF03DFF002220460121CE
:1095A0000CF068FF204604210DF03CF92D492046BF
:1095B0000DF0F6F838460B211CF0A2F90C210346F9
:1095C000384633721CF09CF90D21034638467372FD
:1095D0001CF096F90E2103463846B3721CF090F940
:1095E00005F13007204C214903460C223846F3721E
:1095F0000DF0E2FB282638461D491E4F1A220DF0B9
:10960000C7FB32460021204624F078FF3246002175
:1096100019481A4E24F072FF194A1A4B1A48A260D0
:1096200078351A4A1A49656020611A4D1A486261F4
:1096300000221A60A661E561012640F20115206250
:109640001A8102205A60E7601A725E705D800860BD
:10965000F8BD00BF5C6E0020386E00200460002062
:10966000886A0020316E002074670020843D050068
:10967000343E0500A06800204C670020686D002083
:10968000DC690020F06D0020706A0020946C0020DE
:109690002C6E0020746B0020E86B002010B4B84AD8
:1096A00013786FF34703137001784478A1F1300306
:1096B000DBB2092B40F2BE80A1F14103052B40F241
:1096C000B780A1F16103052B00F2508157390901E0
:1096D000CBB2A4F13001C9B2092900F2B3800B4426
:1096E000DBB293718178C478A1F13003DBB2092B2E
:1096F00040F2B980A1F14103052B40F2B280A1F103
:109700006103052B00F2368157390901CBB2A4F170
:109710003001C9B2092900F2AE800B44DBB25371AB
:1097200001794479A1F13003DBB2092B40F2B38017
:10973000A1F14103052B40F2AC80A1F16103052B9F
:1097400000F21C8157390901CBB2A4F13001C9B232
:10975000092900F2A8800B44DBB213718179C47926
:10976000A1F13003DBB2092B40F2AD80A1F141033E
:10977000052B40F2A680A1F16103052B00F2F480D5
:1097800057390901CBB2A4F13001C9B2092900F25D
:10979000A2800B44DBB2D370017A447AA1F130038A
:1097A000DBB2092B40F2A780A1F14103052B40F267
:1097B000A080A1F16103052B00F2DE805739090179
:1097C000CBB2A4F13001C9B2092900F29C800B444C
:1097D000DBB2817A9370A1F13003DBB2092BC07A3E
:1097E00040F2BB80A1F14103052B40F29D80A1F125
:1097F0006103052B00F2BC8057390901CBB2A0F1FF
:109800003001C9B2092940F29980A0F1410105292E
:1098100040F2A680A0F16101052902D8573803441F
:10982000DBB25849537001235DF8044B0B7070474D
:10983000A1F137031B01DBB2A4F13001C9B2092940
:109840007FF64DAFA4F14101052940F28380A4F1D8
:10985000610105293FF645AFA4F157010B44DBB286
:109860003FE7A1F137031B01DBB2A4F13001C9B21C
:1098700009297FF652AFA4F14101052967D9A4F166
:10988000610105293FF64BAFA4F157010B44DBB250
:1098900045E7A1F137031B01DBB2A4F13001C9B2E6
:1098A00009297FF658AFA4F14101052939D9A4F15E
:1098B000610105293FF651AFA4F157010B44DBB21A
:1098C0004BE7A1F137031B01DBB2A4F13001C9B2B0
:1098D00009297FF65EAFA4F14101052931D9A4F130
:1098E000610105293FF657AFA4F157010B44DBB2E4
:1098F00051E7A1F137031B01DBB2A4F13001C9B27A
:1099000009297FF664AFA4F1410105291CD9A4F10E
:10991000610105293FF65DAFA4F157010B44DBB2AD
:1099200057E7A4F1370116E7A1F13703A0F13001A1
:10993000C9B21B010929DBB23FF667AF0B44DBB2AA
:109940006FE7A4F1370124E7A4F137013FE7A4F161
:109950003701E2E6A4F13701C1E61B01DBB24EE7B5
:1099600037380344DBB25CE70023AEE7002363E74C
:10997000002344E7002378E70023BEE700238CE7B9
:10998000306E0020446E002030B5834B1B7885B0CC
:109990000446002B40F0F1800368804A1B69934223
:1099A00040F0F780D0E993308342C3BFC3F5FF7323
:1099B0000133C018C01A0B2808DCD4F86852D4F858
:1099C0005032C4F84C32284605B030BDD4F84C02B1
:1099D0002218431C92F84C20A2F13001092912D917
:1099E00022F02001413905290DD9D4F86C52C4F870
:1099F0004C326846FFF752FED4F85032C4F84C326D
:109A0000284605B030BD23448DF8002093F84C2043
:109A1000A2F13001092900F1020304D922F020014A
:109A200041390529E1D823448DF8012093F84C20D1
:109A3000A2F13001092900F1030304D922F0200129
:109A400041390529D1D823448DF8022093F84C20C0
:109A5000A2F13001092900F1040304D922F0200108
:109A600041390529C1D823448DF8032093F84C20AF
:109A7000A2F13001092900F1050304D922F02001E7
:109A800041390529B1D823448DF8042093F84C209E
:109A9000A2F13001092900F1060304D922F02001C6
:109AA00041390529A1D823448DF8052093F84C208D
:109AB000A2F13001092900F1070304D922F02001A5
:109AC0004139052991D823448DF8062093F84C207C
:109AD000A2F13001092900F1080304D922F0200184
:109AE0004139052981D823448DF8072093F84C206B
:109AF000A2F13001092900F1090305D922F0200162
:109B0000413905293FF671AF23448DF8082093F8B9
:109B10004C20A2F13001092900F10A0305D922F0F5
:109B20002001413905293FF660AF23448DF8092013
:109B300093F84C20A2F13001092900F10B0305D95B
:109B400022F02001413905293FF64FAF23448DF81B
:109B50000A2093F84C20A2F13001092900F10C03EE
:109B600005D922F02001413905293FF63EAF8DF895
:109B70000B20C4F84C3200253BE7094909481AF08C
:109B8000CBFF0025D4F85032C4F84C32284605B03B
:109B900030BD98470FE700BF9C6700209964020022
:109BA000141D0500DC7600202DE9F041D0F84C3280
:109BB000C11886B091F84C20422A04461AD15A1C8A
:109BC000B2F5007F80F24081024492F84C20452A91
:109BD00010D1B3F5FF7F03F1020240F0E98790F85E
:109BE0004C20472A06D190F84D20492A08BF02226E
:109BF00000F0FD87D4F8586291F84C20422A7BD1BE
:109C00005A1CB2F5007F80F2A483224492F84C20C3
:109C1000412A40F0CC80B3F5FF7F03F1020240F00F
:109C20009E8394F84C20552A40F0C1800122A01850
:109C300090F84C00442840F0BA800132B2F5007F21
:109C400040F09E8394F84C20522A40F0B0800122CC
:109C5000A01890F84C00412840F0A9800132B2F5DC
:109C6000007F40F09E8394F84C20542A40F09F805F
:109C70000122A01890F84C00452840F0988001324D
:109C8000B2F5007F40F09E8394F84C203D2A40F0CE
:109C90008E8009335A42C2F30802C3F3080358BF47
:109CA0005342C4F84C328A49E068D4F864621AF02E
:109CB0004BFE8849E0681AF047FE217CE0681AF004
:109CC0007BFF854968461BF0D3FB824903A81BF044
:109CD000CFFB03A968461BF0B7FD01467F481AF089
:109CE000D5FE03A81BF0E8FC68461BF0E5FCD4F8A1
:109CF0005032C4F84C32E11891F84C204D2A56D11C
:109D00005A1CB2F5007F80F20D83224492F84C2059
:109D1000412A40F01681B3F5FF7F03F1020240F0C3
:109D2000078394F84C20432A40F00B8101222244FF
:109D300092F84C203D2A40F00481043368495A428D
:109D4000C2F308020978C3F3080358BF5342C4F8AA
:109D50004C32002900F0E484624960481AF0DCFECD
:109D60005B49E0681AF0F0FD5F49E0681AF0ECFD2D
:109D7000217CE0681AF020FF574968461BF078FB09
:109D8000594903A81BF074FB03A968461BF05CFD4E
:109D9000014652481AF07AFE03A81BF08DFC684673
:109DA0001BF08AFCD4F85032C4F84C32E11891F818
:109DB0004C204E2A40F0C5805A1CB2F5007F80F23C
:109DC000BD83224492F84C20412A40F02981B3F50A
:109DD000FF7F03F1020240F0B78394F84C204D2A34
:109DE00040F01E810122A01890F84C00452840F058
:109DF00017810132B2F5007F40F0B78394F84C2010
:109E00003D2A40F00D8105335A42C2F30802C3F3E4
:109E1000080358BF534235493048C4F84C321AF051
:109E200093FDD4E99356B54268D02C4F6319384658
:109E300093F84C1001351AF0B5FDB5F5007F5BDBEA
:109E4000002E5BD00025F1E790F84C20452A7FF4E6
:109E5000D1AE90F84D20472A08BF02227FF4CAAE47
:109E6000A01890F84C0049287FF4C4AE0132B2F536
:109E7000007F40F0BC8694F84C204E2A7FF4BAAEA6
:109E800094F84D203D2A7FF4B5AE06335A42C2F312
:109E90000802C3F3080358BF5342C4F84C322046AB
:109EA000FFF712FB0646002840F05E861049E06886
:109EB0001AF04AFD217CE0681AF07EFE0D49074841
:109EC0001AF02AFED4F85032C4F84C32E11893E666
:109ED0000C1A05007C1D0500381A0500DC760020F0
:109EE0009C670020A01D0500F41D0500F41F05005F
:109EF0006C1A0500181C0500AE4297D1DD481AF017
:109F0000A5FD2046FEF700FEDB490646E0681AF094
:109F10001BFD217CE0681AF04FFED849D5481AF0A5
:109F2000FBFD05201BF050FD1825E06810B1217CD9
:109F30001AF038FD013DF8D1D4F85032C4F84C3253
:109F4000E11891F84C20522A6AD15A1CB2F5007FD0
:109F500080F21283224492F84C20462A7FD1B3F536
:109F6000FF7F03F1020240F00D8394F84C20532A46
:109F700075D10122A11891F84C1054296FD10132EA
:109F8000B2F5007F40F00F8394F84C20412A66D14F
:109F90000122A11891F84C10542960D10132B2F578
:109FA000007F40F0118394F84C20452A57D10122BC
:109FB000224492F84C203D2A51D108335A42C2F330
:109FC0000802C3F3080358BF5342C4F84C32AC49EB
:109FD000E068D4F864621AF0B7FCAA49E0681AF0A5
:109FE000B3FC217CE0681AF0E7FDA74968461BF046
:109FF0003FFAA44903A81BF03BFA03A968461BF0EB
:10A0000023FC01469B481AF041FD03A81BF054FBBA
:10A0100068461BF051FBD4F85032C4F84C32E118BA
:10A0200091F84C20412A1AD15A1CB2F5007F80F2D7
:10A03000E382224492F84C20442A10D1B3F5FF7FEA
:10A0400003F1020240F0B68494F84C20562A06D15F
:10A0500094F84D20452A08BF022200F006848B495F
:10A060001A4601F11207A51811F8010B95F84C508A
:10A07000854202F1010220D1B2F5007FA8BF002283
:10A08000B942F0D112335A42C2F30802C3F30803B3
:10A0900058BF5342C4F84C322046FEF74BFE0646EA
:10A0A000002800F07B837A49D4F860622046FEF7EE
:10A0B00075FFD4F85032C4F84C32E11891F84C20B6
:10A0C000452A40F000815A1CB2F5007F80F2818160
:10A0D000224492F84C204E2A40F01481B3F5FF7FC1
:10A0E00003F1020240F07A8194F84C20412A40F0BA
:10A0F00009810122A11891F84C10422940F00281F7
:10A100000132B2F5007F40F0788194F84C204C2A5F
:10A1100040F0F8800122A11891F84C10452940F038
:10A12000F1800132B2F5007F40F0788194F84C2044
:10A130005F2A40F0E7800122A11891F84C105329C2
:10A1400040F0E0800132B2F5007F40F0788194F871
:10A150004C20452A40F0D6800122A11891F84C10DD
:10A16000522940F0CF800132B2F5007F40F0788173
:10A1700094F84C20562A40F0C5800122A11891F88D
:10A180004C10492940F0BE800132B2F5007F40F00A
:10A19000788194F84C20432A40F0B4800122A11821
:10A1A00091F84C10452940F0AD800132B2F5007FA6
:10A1B00040F0788194F84C205F2A40F0A38001227F
:10A1C000A11891F84C10492940F09C800132B2F559
:10A1D000007F40F0788194F84C20442A40F092802F
:10A1E00022682C4D116811335A42C2F30802C3F39E
:10A1F000080358BF5342A942C4F84C3240F00F83C1
:10A200005A1C51422344C1F30801C2F3080258BF4B
:10A210004A4293F84C00C4F84C222F283ED9A0F1B2
:10A220003007FBB2092B0DD9A0F14103DBB2052B9E
:10A2300040F2F882A0F16103DBB2052B8CBF164F10
:10A24000A0F1570723681B68AB4240F0EE82D4F8B8
:10A250004C22531C59422244C1F30801C3F30803A2
:10A2600058BF4B4292F84C00C4F84C323D2800F0E5
:10A27000A28213E0DC7600206C1A0500181C050091
:10A280000C1A050034200500381A05006C20050062
:10A29000802005007164020019FCFFFF002E40F0D1
:10A2A000B782D249E0681AF04FFB217CE0681AF0CF
:10A2B00083FCCF49CF481AF02FFC0026D4F8503247
:10A2C000C4F84C32E11891F84C204C2A1AD15A1C8F
:10A2D000B2F5007F80F2FE80224492F84C20452A9D
:10A2E00010D1B3F5FF7F03F1020240F0B08394F880
:10A2F0004C20442A06D194F84D204D2A08BF022252
:10A3000000F0D283002E40F0C781D4F85832B34217
:10A3100000F0E381D4F85032C4F84C32304606B035
:10A32000BDE8F08194F84C20412A7FF40AAE012266
:10A33000A01890F84C0043287FF403AE0132B2F528
:10A34000007F7FF4F4AC94F84C203D2A3FF4F5AC48
:10A35000F7E594F84C20412A7FF429AD0122A0189A
:10A3600090F84C0055287FF422AD0132B2F5007F01
:10A370007FF45DAC94F84C20442A7FF418AD0122A0
:10A38000A01890F84C0052287FF411AD0132B2F5BC
:10A39000007F7FF45DAC94F84C20412A7FF407AD38
:10A3A0000122A01890F84C0054287FF400AD01322F
:10A3B000B2F5007F7FF45DAC94F84C20452A7FF421
:10A3C000F6AC0122224492F84C203D2A3FF461ACC5
:10A3D000EDE494F84C204E2A94D10122A11891F872
:10A3E0004C1041298ED10132B2F5007F7FF482AE4C
:10A3F00094F84C20422A85D10122A11891F84C10E2
:10A400004C297FF47FAF0132B2F5007F7FF483AE39
:10A4100094F84C20452A7FF475AF0122A11891F8D9
:10A420004C105F297FF46EAF0132B2F5007F7FF4EC
:10A4300083AE94F84C20532A7FF464AF0122A11814
:10A4400091F84C1045297FF45DAF0132B2F5007FE1
:10A450007FF483AE94F84C20522A7FF453AF01224C
:10A46000A11891F84C1056297FF44CAF0132B2F587
:10A47000007F7FF483AE94F84C20492A7FF442AFEA
:10A480000122A11891F84C1043297FF43BAF01320F
:10A49000B2F5007F7FF483AE94F84C20452A7FF418
:10A4A00031AF0122A11891F84C105F297FF42AAF37
:10A4B0000132B2F5007F7FF483AE94F84C20492A34
:10A4C0007FF420AF0122224492F84C20442A3FF42A
:10A4D00087AE17E794F84C20452A7FF413AF94F821
:10A4E0004D20442A08BF02227FF40CAFA11891F836
:10A4F0004C104D297FF406AF0132B2F5007F40F0D9
:10A50000D38294F84C204F2A7FF4FCAE94F84D206F
:10A51000442A08BF02227FF4F5AEA11891F84C102E
:10A5200045297FF4EFAE0132B2F5007F40F0D282D0
:10A5300094F84C203D2A00F0D382E3E694F84C20B6
:10A54000412A7FF46DAD0122A01890F84C004D28EF
:10A550007FF466AD0132B2F5007F7FF444AC94F82D
:10A560004C20452A7FF45CAD0122224492F84C2015
:10A570003D2A3FF448AC53E594F84C20462A7FF43A
:10A580006EAD0122A11891F84C1053297FF467ADEC
:10A590000132B2F5007F7FF4EDAC94F84C20542AE0
:10A5A0007FF45DAD0122A11891F84C1041297FF490
:10A5B00056AD0132B2F5007F7FF4EBAC94F84C203D
:10A5C000542A7FF44CAD0122A11891F84C10452972
:10A5D0007FF445AD0132B2F5007F7FF4E9AC94F829
:10A5E0004C203D2A3FF4E9AC39E500BF6C1A050068
:10A5F000181C0500DC76002094F84C20442A7FF4D7
:10A600002EAD94F84D20562A08BF02227FF427ADC4
:10A61000A11891F84C1045297FF421AD0132B2F513
:10A62000007F40F0228194F84C20522A7FF417AD2D
:10A6300094F84D20542A08BF02227FF410ADA118CF
:10A6400091F84C1049297FF40AAD0132B2F5007F30
:10A6500040F0228194F84C20532A7FF400AD94F806
:10A660004D20492A08BF02227FF4F9ACA11891F8C5
:10A670004C104E297FF4F3AC0132B2F5007F40F06C
:10A68000228194F84C20472A7FF4E9AC94F84D20BD
:10A690003D2A7FF4E4AC26E1B549B6481AF054F9F6
:10A6A000D4E99357BD423FF430AEDFF8C882631956
:10A6B000404693F84C1001351AF074F9B5F5007F57
:10A6C00004DB002F3FF421AE0025F0E7AF42EED1CE
:10A6D000D4F85832B3427FF41DAEA749E0681AF0AF
:10A6E00033F9A649E0681AF02FF9217CE0681AF0E6
:10A6F00063FAA34968461AF0BBFEA04903A81AF002
:10A70000B7FE03A968461BF09FF8014699481AF066
:10A71000BDF903A81AF0D0FF68461AF0CDFFF9E59D
:10A72000984994481AF010F9D4E99356B5420FD0DD
:10A73000904F6319384693F84C1001351AF032F9EE
:10A74000B5F5007F02DB1EB10025F2E7AE42F0D185
:10A7500088481AF07BF92046FFF716F906460028CC
:10A7600049D0D4F8683283426BD0D4F86C3283423B
:10A770005ED085492046FEF711FC84497D481AF0D9
:10A78000CBF905201BF020F91825E06810B1217CD9
:10A790001AF008F9013DF8D1FFF704BB7C49E068E5
:10A7A0001AF0D2F8217CE0681AF006FA794971486B
:10A7B0001AF0B2F97DE423681B68AB4252D1D4F899
:10A7C0004C22531C59422244C1F30801C3F308032D
:10A7D00058BF4B4292F84C00C4F84C32542839D040
:10A7E00046287FF45BAD7B1E082B3FF65AAD6A4BC3
:10A7F0000022DA5555E56649E0681AF0A5F8217C93
:10A80000E0681AF0D9F963495A481AF085F9B8E7AF
:10A810006249D4F860622046FEF7C0FB4EE5204650
:10A820008847FAE4A0F137070CE5204698471DE574
:10A8300020465B49FEF7B2FB5A494E481AF06CF9C4
:10A840009FE720465849FEF7A9FB584949481AF0A6
:10A8500063F996E77B1E082B3FF620AD4E4B012295
:10A86000DA551EE520469847B8E7A11891F84C1034
:10A8700052297FF4F4AB0132B2F5007F40F0B18091
:10A8800094F84C20542A7FF4EAAB94F84D20492ADE
:10A8900008BF02227FF4E3ABA11891F84C105329B2
:10A8A0007FF4DDAB0132B2F5007F40F0B18094F867
:10A8B0004C20492A7FF4D3AB94F84D204E2A08BF90
:10A8C00002227FF4CCABA11891F84C1047297FF4F9
:10A8D000C6AB0132B2F5007F40F0B18094F84C2055
:10A8E0003D2A7FF4BCAB0C335A42C2F30802C3F3D7
:10A8F000080358BF5342C4F84C322046FEF79AF979
:10A90000064688B92249E0681AF01EF8217CE06802
:10A910001AF052F91F4917481AF0FEF8D4F85032CD
:10A92000C4F84C32FFF79BBB1349E0681AF00CF8EF
:10A930001F49E0681AF008F8217CE0681AF03CF939
:10A940000F4968461AF094FD194903A81AF090FDC2
:10A9500003A968461AF078FF014606481AF096F8EF
:10A9600003A81AF0A9FE68461AF0A6FED6E700BFB3
:10A97000D4200500DC7600200C1A05000C2105000F
:10A98000381A0500281E0500801F0500A41F0500B9
:10A990006C1A0500181C0500F06D0020A0200500B1
:10A9A000F41E0500201F0500681E0500941E05000A
:10A9B00054200500224492F84C20562A7FF44FABD5
:10A9C000DA1CB2F5007F7FF423AE94F84C20452AC0
:10A9D0007FF445AB94F84D20522A08BF02227FF441
:10A9E0003EABA11891F84C1054297FF438AB0132DA
:10A9F000B2F5007F7FF423AE94F84C20492A7FF40F
:10AA00002EAB94F84D20532A08BF02227FF427ABC7
:10AA1000A11891F84C1049297FF421AB0132B2F50D
:10AA2000007F7FF423AE94F84C204E2A7FF417ABBE
:10AA300094F84D20472A08BF02227FF410AB22442D
:10AA400092F84C203D2A3FF44EAFFFF708BB22445A
:10AA500092F84C20442A7FF455ACDA1CB2F5007F02
:10AA60007FF444AD94F84C204D2A7FF44BAC94F81D
:10AA70004D204F2A08BF02227FF444ACA11891F860
:10AA80004C1044297FF43EAC0132B2F5007F7FF4D4
:10AA900044AD94F84C20452A7FF434AC94F84D2012
:10AAA0003D2A7FF42FAC1BE0A11891F84C104F29E0
:10AAB0007FF428AC0132B2F5007FDFD194F84C204E
:10AAC000442A7FF41FAC94F84D20452A08BF022287
:10AAD0007FF418AC224492F84C203D2A7FF412AC4B
:10AAE00008335A42C2F30802C3F3080358BF534263
:10AAF000C4F84C322046FEF777F9064688B9444937
:10AB0000E06819F021FF217CE0681AF055F841490E
:10AB100041481AF001F8D4F85032C4F84C32FFF72B
:10AB2000F1BB3E49E06819F00FFF3D49E06819F0BC
:10AB30000BFF217CE0681AF03FF83A4968461AF0AA
:10AB400097FC374903A81AF093FC03A968461AF04A
:10AB50007BFE0146304819F099FF03A81AF0ACFDBE
:10AB600068461AF0A9FDD6E72C49E06819F0ECFE1A
:10AB70002D49E06819F0E8FE217CE0681AF01CF825
:10AB8000284968461AF074FC274903A81AF070FC9B
:10AB900003A968461AF058FE01461F4819F076FFCF
:10ABA00003A81AF089FD68461AF086FDFFF78AB9F6
:10ABB000024492F84C20472A7FF41CA8DA1CB2F514
:10ABC000007F7FF44DA990F84C20492A7FF412A809
:10ABD00090F84D204E2A08BF02227FF40BA8224491
:10ABE00092F84C203D2A3FF450A9FFF703B8A01873
:10ABF00090F84C004E287EF4FDAF0132B2F5007F94
:10AC0000EDD194F84C203D2A3FF43FA9FEF7F2BF66
:10AC10006C1A0500181C0500DC7600200C1A0500D3
:10AC2000C0200500381A0500681D050070B41469BD
:10AC300001EBD173B4EB630F3AD1012935DD5D101F
:10AC400000EB4504511E13E0A6F14100052835D95B
:10AC5000A6F16100052802D8573E3344DBB2881CB8
:10AC6000801A85424B70A4F1020401F101011CDD40
:10AC700014F8020C14F8016CA0F13003DBB2092BBC
:10AC800019D9A0F14103052B1CD9A0F16103052BB3
:10AC90009DBF57380001C3B20023A6F13000C0B2F7
:10ACA0000928D1D80344DBB2D9E7002070BC704733
:10ACB000012070BC70471B01DBB2EEE7373E334426
:10ACC000DBB2CCE737380001C3B2E6E72DE9F04745
:10ACD0004F4D0F46944606460FCD86B001AC0FC4CB
:10ACE0002B6823606146384601AAFFF79FFF08BB27
:10ACF000072E044611D0082E47D1464D464A2B68F0
:10AD00001B6993420FD1D5E90F239B1A1F2B16D92C
:10AD10000324204606B0BDE8F087404D3E4A2B682C
:10AD20001B699342EFD001A92846984704460028A2
:10AD3000EFD0EDE70124204606B0BDE8F0872420DF
:10AD40001DF094FA0646002341F601221027C6E9B9
:10AD50000033C6E9023332493761B28218301AF043
:10AD600087FB0DF1040CBCE80F0037460FC7D5E98F
:10AD70001023DCF8001039609A420BD042F8046BC3
:10AD800020462A6406B0BDE8F0870224204606B0BB
:10AD9000BDE8F087D5F83C906FF06048A2EB09075A
:10ADA000B8EBA70F4FEAA70317D0012B1A4638BFFD
:10ADB00001229B1829D2EBB998469A46002F4AF8EF
:10ADC00007600BDC3A1D0AEB0206B9F1000F0DD14A
:10ADD000C5E90FA6C5F844809BE7FEE73A46494619
:10ADE000504623F071FB3A1D0AEB020648461DF05F
:10ADF0003FFAEDE7434528BF43464FEA8308404604
:10AE00001DF034FA82468044D8E7DFF81880F6E770
:10AE1000F43C05008C6B0020E96F0200186B0020E9
:10AE200014490500FCFFFF7FF0B58BB0AE49AF4C75
:10AE300001A81AF01DFBAE49AE4819F06DFEAE49EF
:10AE4000AC4819F081FDAD49AA4819F065FEAC493E
:10AE5000A84819F061FEAB49A64819F075FD0A2211
:10AE60002178A44819F034FFA749A24819F06CFDD5
:10AE7000A64BA04819780A2219F02AFFA4499D4838
:10AE800019F04AFEA3499B4819F046FE2678002E89
:10AE900040F0C282A0499748A04DA14C19F03CFE59
:10AEA000A049944819F038FE9F4907A81AF0E0FA23
:10AEB0006F683B68DB69A34240F0E782039A314642
:10AEC00001A81AF027FD07F10C0101A81AF04CFCAB
:10AED00001A904A81AF0E6FA04A907A81AF0B4FC1C
:10AEE0000146844819F0D2FD04A81AF0E5FB07A832
:10AEF0001AF0E2FB8D4907A81AF0BAFA6E683368B7
:10AF0000DB69A34240F00C83039A002101A81AF0E8
:10AF100001FD06F10C0101A81AF026FC01A904A804
:10AF20001AF0C0FA04A907A81AF08EFC014671486D
:10AF300019F0ACFD04A81AF0BFFB07A81AF0BCFB7F
:10AF40007B4907A81AF094FAAE683368DB69A3421C
:10AF500040F0E182039A002101A81AF0DBFC06F11F
:10AF60000C0101A81AF000FC01A904A81AF09AFA31
:10AF700004A907A81AF068FC01465E4819F086FD8E
:10AF800004A81AF099FB07A81AF096FB694907A8CC
:10AF90001AF06EFAAE683368DB69A34240F0B682FD
:10AFA000039A002101A81AF0B5FC06F10C0101A8D2
:10AFB0001AF0DAFB01A904A81AF074FA04A907A888
:10AFC0001AF042FC01464B4819F060FD04A81AF043
:10AFD00073FB07A81AF070FB574907A81AF048FA44
:10AFE000EE683368DB69A34240F08B82039A00214C
:10AFF00001A81AF08FFC06F10C0101A81AF0B4FBAD
:10B0000001A904A81AF04EFA04A907A81AF01CFC1A
:10B010000146384819F03AFD04A81AF04DFB07A87C
:10B020001AF04AFB454907A81AF022FAEE6833687D
:10B03000DB69A34240F06082039A002101A81AF064
:10B0400069FC06F10C0101A81AF08EFB01A904A805
:10B050001AF028FA04A907A81AF0F6FB01462548B9
:10B0600019F014FD04A81AF027FB07A81AF024FB16
:10B07000334907A81AF0FCF92E693368DB69A3424B
:10B0800040F03582039A002101A81AF043FC06F132
:10B090000C0101A81AF068FB01A904A81AF002FA31
:10B0A00004A907A81AF0D0FB0146124819F0EEFCDB
:10B0B00004A81AF001FB07A81AF0FEFA214907A814
:10B0C0001AF0D6F92E693368DB69A34240F00A8290
:10B0D000039A002101A81AF01DFC06F10C0101A839
:10B0E0001AF042FB01A92FE0144905009C670020DB
:10B0F00024210500DC76002040210500343E0500B7
:10B100005821050064210500742105009D67002079
:10B1100088210500B0210500E021050074670020AA
:10B1200079670200F4210500282205004C22050061
:10B1300080220500A4220500D8220500FC2205007B
:10B14000302305005423050004A81AF0ABF904A924
:10B1500007A81AF079FB0146A34819F097FC04A848
:10B160001AF0AAFA07A81AF0A7FAA04907A81AF035
:10B170007FF96E693368DB69A34240F0AE81039AC0
:10B18000002101A81AF0C6FB06F10C0101A81AF073
:10B19000EBFA01A904A81AF085F904A907A81AF086
:10B1A00053FB0146904819F071FC04A81AF084FA88
:10B1B00007A81AF081FA8E4907A81AF059F96E69A2
:10B1C0003368DB69A34240F08381039A002101A820
:10B1D0001AF0A0FB06F10C0101A81AF0C5FA01A9AA
:10B1E00004A81AF05FF904A907A81AF02DFB01467C
:10B1F0007D4819F04BFC04A81AF05EFA07A81AF073
:10B200005BFA7C4907A81AF033F9AE693368DB6949
:10B21000A34240F05881039A002101A81AF07AFB5A
:10B2200006F10C0101A81AF09FFA01A904A81AF06E
:10B2300039F904A907A81AF007FB01466A4819F072
:10B2400025FC04A81AF038FA07A81AF035FA6A495A
:10B2500007A81AF00DF9AE693368DB69A34240F024
:10B260002D81039A002101A81AF054FB06F10C016C
:10B2700001A81AF079FA01A904A81AF013F904A98F
:10B2800007A81AF0E1FA0146574819F0FFFB04A895
:10B290001AF012FA07A81AF00FFA584907A81AF07C
:10B2A000E7F8EE693368DB69A34240F00281039A54
:10B2B000002101A81AF02EFB06F10C0101A81AF0DA
:10B2C00053FA01A904A81AF0EDF804A907A81AF086
:10B2D000BBFA4B491AF0E4FA0146434819F0D6FB91
:10B2E00004A81AF0E9F907A81AF0E6F9454907A8F1
:10B2F0001AF0BEF8EE693368DB69A34240F0D480EF
:10B30000039A002101A81AF005FB06F10C0101A81F
:10B310001AF02AFA01A904A81AF0C4F804A907A887
:10B320001AF092FA0146304819F0B0FB04A81AF05E
:10B33000C3F907A81AF0C0F9334907A81AF098F81A
:10B340002E6A3368DB69A34240F0A980039A00218A
:10B3500001A81AF0DFFA06F10C0101A81AF004FAAC
:10B3600001A904A81AF09EF804A907A81AF06CFA1B
:10B3700026491AF095FA01461B4819F087FB04A8E4
:10B380001AF09AF907A81AF097F9214907A81AF0B4
:10B390006FF82D6A2B68DB69A3427BD1039A0021E9
:10B3A00001A81AF0B7FA05F10C0101A81AF0DCF9AE
:10B3B00001A904A81AF076F804A907A81AF044FA1B
:10B3C0000146094819F062FB04A81AF075F907A8AC
:10B3D0001AF072F90F49044819F09EFB01A81AF0FF
:10B3E0006BF90BB0F0BD00BFDC76002088230500B0
:10B3F000AC230500E02305000424050038240500E3
:10B400005C24050074240500A8240500CC24050054
:10B41000E4240500182505004449454819F07CFB43
:10B420004449434819F078FB4349414819F074FBFB
:10B4300042493F4819F070FB41493D4819F06CFB07
:10B4400040493B4819F068FB3F49394819F064FB13
:10B450003E49374819F060FB3D49354819F05CFB1F
:10B460003C49334819F058FB3B49314819F054FB2B
:10B470003A492F4819F050FB39492D4819F04CFB37
:10B4800001A81AF019F90BB0F0BD01A93846984788
:10B4900001461EE501A928469847014689E701A90A
:10B4A0003046984701465CE701A930469847014677
:10B4B00031E701A930469847014603E701A9304624
:10B4C00098470146D8E601A9304698470146ADE6BF
:10B4D00001A930469847014682E601A930469847BF
:10B4E000014657E601A93046984701462CE601A9D6
:10B4F000304698470146D0E501A9304698470146B5
:10B50000A5E501A93046984701467AE501A93046EC
:10B51000984701464FE501A930469847014624E582
:10B5200001A9304698470146F9E400BF4C250500C3
:10B53000DC760020602505009C250500D42505004B
:10B540000C260500442605008C260500C4260500AF
:10B550000C27050054270500A4270500DC2705005B
:10B5600014280500F8B5454E3368834285BF002393
:10B570003360C31A0346642B04463DD9404B1B7805
:10B58000002B3AD03F4DAB69002B26DDAF68BB42A4
:10B590004AD12A681F46EB699C423CBF0023EB61FD
:10B5A000974205D0AA68974202D06A68974222D192
:10B5B000EA6813449C421ED9D5E904311944FE2996
:10B5C000EC6154DC7F29DDBF08237F21C5E904310C
:10B5D000696138461DF0B8FCAB6963B9FF21286A80
:10B5E00069611DF0B1FC6969686A1DF0ADFC6969AB
:10B5F000A86A1DF0A9FC3460F8BD234B214D1B78CF
:10B600003BB9AB69002BE8DD2F68BB420CD13A4651
:10B61000C1E71E4808F04CF90028F2D0AB69002BB6
:10B62000DBDD6F68BB42B4D0FF21286A69611DF081
:10B630008BFC6969686A1DF087FC6969A86A1DF05E
:10B6400083FC2B689F420BD06B689F4208D0AB688D
:10B650009F4205D0AB69002BBFDD2A681F469AE7E1
:10B660003223AF61EB601AF0A3F9E861F2E76FF003
:10B670000703FF21C5E90431ABE700BF486700209D
:10B680009D670020FC6D00209C6700209C740020BA
:10B690002DE9F84FD0E900850646A5EB08046FF0C8
:10B6A0006040B0EBA40F23D0A310012B1C4638BF81
:10B6B00001241C190F469246A1EB08093ED29CBBFF
:10B6C000A346DAF800304BF80930B9F1000F10DC6E
:10B6D000ED1B09F10409002D0BEB09031DDC1D44D2
:10B6E000B8F1000F11D1C6E900B5B460BDE8F88F1C
:10B6F000FEE74A4641465846ED1B22F0E5FE09F1B9
:10B700000403002D5B4408DC1D4440461CF0B0FDE2
:10B71000C6E900B5B460BDE8F88F184639462A4638
:10B7200022F0C4FE0346DAE7844228BF0446A400A0
:10B7300020461CF09BFD83460444C2E7004CF7E71B
:10B74000FCFFFF7F2DE9F041D0E901239A4282B04E
:10B75000054606D00B6842F8043B426002B0BDE8E3
:10B76000F08107686FF06046D41BB6EBA40F4FEA78
:10B77000A40214D0012A134638BF01239B1826D2F5
:10B78000CBB91E4698460B6848F80430002C07DCFD
:10B79000043444445FB9C5E90084AE60DEE7FEE7E7
:10B7A00022463946404622F08FFE0434444438464F
:10B7B0001CF05EFDEFE7B34228BF33469E003046E3
:10B7C00001911CF053FD019980460644DBE7014ED0
:10B7D000F5E700BFFCFFFF7F90F85830002B00F02A
:10B7E000828003682DE9F04353F80C3C0446406D19
:10B7F00023440268596001251D7287B093689847F9
:10B80000D4E90F138B4247D0DFF8E89004F1180811
:10B810000025D4E912239B1A1C2B02A85FDC51F8E7
:10B82000256031460AF0DEFA58201CF01FFD02A9FF
:10B83000074608F023FD02A801970AF0B3FA019821
:10B84000002852D0717D08F095FD11221146019813
:10B8500008F0A8FD317D019808F092FDB1690198CA
:10B8600008F0C2FD019803689B689847737D1B0729
:10B8700016D4D4E9131291420B461BD0019A43F817
:10B88000042BD4E90F12A561E364521A48F8045F4F
:10B890000135B5EBA20FBCD3002007B0BDE8F083A3
:10B8A00001224946019808F083FDD4E91312914220
:10B8B0000B46E3D101AA04F14800FFF7E9FED4E901
:10B8C0000F13A5615B1A48F8045F0135B5EBA30FB0
:10B8D000E2D2D4E912239B1A1C2B02A89FDD02207E
:10B8E00007B0BDE8F08301207047032007B0BDE832
:10B8F000F08300BF01310300D0F800C0ACF1140C9C
:10B90000DCF800C06044FFF767BF00BF026852F870
:10B91000103C2DE9F047034484B0596052F80C5CA8
:10B920000446012018722544211D68460AF05AFA7F
:10B93000694628460AF022FA68460AF033FA236874
:10B9400076499D68626A8D4240F0E38053F80C3C72
:10B950009168234417461963D2E90310C3E90D1017
:10B96000107DD18AD98783F83C00D2E90601156A97
:10B970009D64C3E910011646154657F8261F36F890
:10B980002F8F55F8320FB2F824E0D7F804C092F8A0
:10B990002E90A3F84CE096F802E0C3F84E106968C8
:10B9A000C3F852C002F13C0C83F85690A3F85780BC
:10B9B00083F859E0C3F85A00C3F85E109CE803000E
:10B9C00003F1640E8EE8030092F8441083F86C10C3
:10B9D000D2E91280D2E914E1C3E91C80D967C3F827
:10B9E00078E09168C3F88810D2E90310C3E9231006
:10B9F000107DD18AA3F8961083F89400D2E9060E40
:10BA0000116AC3F8A010C3E9260E918CA3F8A41004
:10BA10003968D7F8049092F82E80B6F800E096F8CE
:10BA200002A02F686E68C3F8A6109CE8030003F11B
:10BA3000BC05C3F8AA9083F8AE80A3F8AFE083F802
:10BA4000B1A0C3F8B270C3F8B66085E8030092F8FD
:10BA5000441083F8C410D2E91250D2E91412C3E999
:10BA60003250C3F8D420C3F8D01018201CF0FEFBCD
:10BA70000022012105461DF0CFF8236853F80C3C45
:10BA800023442846B3F8DC10C3F8D8501DF0D6F88C
:10BA9000236853F80C0C20440AF03EF9B0BB012196
:10BAA0001F480AF059FF2368054653F80C0C204440
:10BAB00028301C2108F05EFC236853F80C0C11227E
:10BAC00020441146283008F06DFC236853F80C3CE4
:10BAD000234403F12800294608F050FC236811494B
