:020000022000DC
:1060000000000420C99A0400099B04000B9B0400B3
:106010000D9B04000F9B0400119B04000000000076
:10602000000000000000000000000000ED980400E7
:10603000159B0400000000000D990400199B04004A
:106040001D9D04001B9B0400A96C04001B9B040005
:106050001B9B04001B9B0400796D04001B9B040028
:106060001B9B04001B9B04001B9B04001B9B040048
:106070001B9B04001B9B04001B9B04001B9B040038
:106080001B9B04003D9604001B9B04001B9B04000B
:106090001B9B04001B9B0400058303001B9B040047
:1060A0001B9B04001B9B04001B9B04001B9B040008
:1060B0001B9B04001B9B040000000000000000006C
:1060C0001B9B04001B9B04001B9B0400AD9F040052
:1060D0001B9B04001B9B04001B9B040011A60300D8
:1060E0001B9B04001B9B04001B9B04000000000082
:1060F000000000001B9B04000000000025A004001D
:10610000000000000000000000000000000000008F
:10611000000000000000000000000000000000007F
:10612000000000000000000000000000000000006F
:10613000000000000000000000000000000000005F
:10614000000000000000000000000000000000004F
:10615000000000000000000000000000000000003F
:10616000000000000000000000000000000000002F
:10617000000000000000000000000000000000001F
:10618000000000000000000000000000000000000F
:1061900000000000000000000000000000000000FF
:1061A00000000000000000000000000000000000EF
:1061B00000000000000000000000000000000000DF
:1061C00000000000000000000000000000000000CF
:1061D00000000000000000000000000000000000BF
:1061E00000000000000000000000000000000000AF
:1061F000000000000000000000000000000000009F
:10620000F1EE103A43F08073E1EE103A704700BFB0
:1062100010B5054C237833B9044B13B10448AFF3E0
:1062200000800123237010BD9C630020000000004B
:106230006C87050008B5034B1BB103490348AFF356
:10624000008008BD00000000A06300206C870500EE
:10625000154B002B08BF134B9D46A3F5803A002138
:106260008B460F461348144A121A29F00DFE0F4BA5
:10627000002B00D098470E4B002B00D098470020F1
:10628000002104000D000D48002802D00C48AFF397
:10629000008029F08FFD2000290023F06DFC29F0FB
:1062A00063FD00BF000008000000042000000000A3
:1062B000000000009C63002008F80220000000009D
:1062C000000000000020704703680021DB681847C9
:1062D0000123416003720020704700BF0020704717
:1062E0000020704700207047114A124938B5D2E9A2
:1062F00000320546D21A01F1540029609108E86580
:1063000009D0043B1A44002153F8040FA84208BFE7
:1063100019609A42F8D1D5E912239B1A1C1F105913
:1063200018B103685B689847AA6C043CF7E700BFA4
:10633000BC6300200459050038B5124A03681249AD
:1063400053F80C5CD2E90032415105445431D21A61
:10635000E965910809D0043B1A44002153F8040F61
:10636000854208BF19609A42F8D1D5E912239B1AD9
:106370001C1F105918B103685B689847AA6C043C4D
:10638000F7E700BFBC6300200459050008B5FFF71C
:10639000ABFF00BF08B5036853F80C3C1844FFF787
:1063A000A3FF00BF10B4D0E90F431B1BB1EBA30F39
:1063B0003DBF54F821305A75002001205DF8044B90
:1063C000704700BF10B4D0E90F431B1BB1EBA30F04
:1063D0003DBF54F821301A75002001205DF8044BB0
:1063E000704700BF406D7047036853F8183C18446D
:1063F000406D7047036853F80C3C1844704700BF69
:10640000036853F8183CC25852F80C2C1844104436
:10641000704700BF036853F80C3C1844704700BF36
:10642000036853F8183CC25852F80C2C1844104416
:10643000704700BF036853F80C3C1844704700BF16
:10644000036853F8183CC25852F80C2C18441044F6
:10645000704700BFD0F85404704700BF0023C0F855
:1064600054347047D0F85034C218013382F84C10BD
:10647000B3F5806FD0F84C24A8BF00239A42C0F82F
:10648000503404D1D0F854340133C0F85434704738
:1064900010B4D0F84C248118013203467824B2F5A8
:1064A000806F91F84C0081F84C40A8BF00225DF845
:1064B000044BC3F84C247047D0F850048842BABF4C
:1064C000C1F580614018401A704700BF0029C3BF62
:1064D00000F513330020C3F858124FF0FF30704717
:1064E000036853F80C3C1844704700BF036853F826
:1064F000183CC25852F80C2C18441044704700BF86
:10650000406E7047036853F8183C1844406E70475B
:10651000026852F8103C034410B4596052F80C2C35
:1065200001241C7210445DF8044B12F04DB900BFF9
:10653000036810B453F8144C025952F8103C20442C
:1065400003440124596052F80C2C1C7210445DF86D
:10655000044B12F039B900BF026852F8103C0344F2
:1065600010B4596052F80C2C01241C7210445DF8D0
:10657000044B12F0D7BD00BF036810B453F8144C9D
:10658000025952F8103C204403440124596052F847
:106590000C2C1C7210445DF8044B12F0C3BD00BFFC
:1065A000026852F8103C034410B4596052F80C2CA5
:1065B00001241C7210445DF8044B11F025BF00BF8C
:1065C000036810B453F8144C025952F8103C20449C
:1065D00003440124596052F80C2C1C7210445DF8DD
:1065E000044B11F011BF00BF10B50446006808B19C
:1065F00023F004FB204610BD10B50446006808B126
:1066000023F0FCFA204610BD10B5044B044640F8B8
:106610000C3B20F017FD204610BD00BF18530500AD
:1066200010B5054B044640F80C3B20F00BFD20460E
:1066300023F0E4FA204610BD1853050030B4056875
:1066400055F8104C0444247A14B9204630BC7047E5
:1066500055F80C4C114620441A4630BC12F04EBB83
:10666000016870B451F81C4C065956F8105C04448B
:106670002544287A08B970BC704756F80C0C1146AE
:1066800020441A4670BC12F039BB00BF30B4056814
:1066900055F8104C0444247A14B9204630BC704795
:1066A00055F80C4C114620441A4630BC12F026BB5B
:1066B000016870B451F81C4C065956F8105C04443B
:1066C0002544287A08B970BC704756F80C0C11465E
:1066D00020441A4670BC12F011BB00BF30B40568EC
:1066E00055F8104C0444247A14B9204630BC704745
:1066F00055F80C4C114620441A4630BC12F0FEBA34
:10670000016870B451F8204C065956F8105C0444E6
:106710002544287A08B970BC704756F80C0C11460D
:1067200020441A4670BC12F0E9BA00BF30B40568C4
:1067300055F8104C0444247A14B9204630BC7047F4
:1067400055F80C4C114620441A4630BC12F0D6BA0B
:10675000016870B451F8204C065956F8105C044496
:106760002544287A08B970BC704756F80C0C1146BD
:1067700020441A4670BC12F0C1BA00BF38B5036895
:1067800053F80C3C034404460D4603F10C005A69CF
:10679000002120F085FD236853F80C0C2044294685
:1067A0000C30BDE8384020F0A5BC00BF38B58A6881
:1067B0000C4605460846002120F072FD05F10C014B
:1067C000204620F097FC204638BD00BF70B50C4C29
:1067D0000C4E00230D4620460B4933701FF028FD58
:1067E0002946102220461FF06BFF084920461FF063
:1067F0001FFD317820460A22BDE870401FF02EBFF1
:1068000004C70220C5B30220E83205002C3305007E
:1068100038B50368044653F80C3C406E23440268C4
:10682000596001251D729368984794F86010A06E16
:106830000FF04CFA11221146A06E0FF05FFA94F897
:106840003410A06E0FF048FA216FA06E0FF078FAA6
:10685000A06E03689B68984794F8603013F0120F9D
:1068600007D094F83410A94238D002294ED0042918
:1068700038D094F86110E06E0FF028FA112211461A
:10688000E06E0FF03BFA94F83410E06E0FF024FA4B
:10689000E16FE06E0FF054FAE06E03689B68984772
:1068A00094F8613013F0120F07D094F834100129D6
:1068B0000ED0022922D0042919D01B0701D40020B0
:1068C00038BDE06E144901220FF01EFA002038BDD9
:1068D000E06E0FF059FA94F86130EEE7A06E0FF019
:1068E00053FAC6E70D49A06E0FF08EFAC1E70C49C6
:1068F000E06E0FF089FA94F86130DEE7E06E40F266
:1069000005410FF061FA94F86130D6E7A06E4FF4BC
:1069100081710FF059FAACE79D4C030003020100AE
:106920000605040038B5036853F8143CC418C3586E
:10693000606E53F80C3C02682344012559601D72B7
:106940009368984794F86010A06E0FF0BFF9112279
:106950001146A06E0FF0D2F994F83410A06E0FF02B
:10696000BBF9216FA06E0FF0EBF9A06E03689B6876
:10697000984794F8603013F0120F07D094F8341051
:10698000A94238D002294ED0042938D094F8611099
:10699000E06E0FF09BF911221146E06E0FF0AEF998
:1069A00094F83410E06E0FF097F9E16FE06E0FF09D
:1069B000C7F9E06E03689B68984794F8613013F05C
:1069C000120F07D094F8341001290ED0022922D0DA
:1069D000042919D01B0701D4002038BDE06E1549E9
:1069E00001220FF091F9002038BDE06E0FF0CCF9D4
:1069F00094F86130EEE7A06E0FF0C6F9C6E70E49D5
:106A0000A06E0FF001FAC1E70C49E06E0FF0FCF93F
:106A100094F86130DEE7E06E40F205410FF0D4F902
:106A200094F86130D6E7A06E4FF481710FF0CCF985
:106A3000ACE700BF9D4C0300030201000605040003
:106A400008B50368117853F80C3C184411F0ACFCFD
:106A500008BD00BF08B50368117853F81C3CC25844
:106A600052F80C2C1844104411F09EFC08BD00BFD5
:106A700038B504461D46082962D8DFE801F019221E
:106A80002B343D464F580500036853F80C0C114653
:106A90002044EAB211F05EFE94F82C3033B12DB1EF
:106AA000236853F80C0C204411F08EFE284638BDA4
:106AB000036853F80C0C11462044EAB211F02AFE88
:106AC000EAE7036853F80C0C11462044EAB211F0CF
:106AD00025FEE1E7036853F80C0C11462044EAB2A6
:106AE00011F020FED8E7036853F80C0C114620443F
:106AF000EAB211F01BFECFE7036853F80C0C114605
:106B00002044EAB211F016FEC6E7036853F80C0CF5
:106B100011462044EAB211F011FEBDE7036853F8B4
:106B20000C0C11462044EAB211F00CFEB4E70368E5
:106B300053F80C0C11462044EAB211F007FEABE703
:106B40000025B3E7F8B50446006850F8206C1D46F0
:106B5000A719082962D8DFE801F019222B343D4635
:106B60004F580500A35953F80C0C11463844EAB2AB
:106B700011F0F0FD97F82C3033B12DB1A35953F833
:106B80000C0C384411F020FE2846F8BDA35953F8E8
:106B90000C0C11463844EAB211F0BCFDEAE7A359E7
:106BA00053F80C0C11463844EAB211F0B7FDE1E796
:106BB000A35953F80C0C11463844EAB211F0B2FD57
:106BC000D8E7A35953F80C0C11463844EAB211F037
:106BD000ADFDCFE7A35953F80C0C11463844EAB287
:106BE00011F0A8FDC6E7A35953F80C0C1146384420
:106BF000EAB211F0A3FDBDE7A35953F80C0C1146FE
:106C00003844EAB211F09EFDB4E7A35953F80C0CD6
:106C100011463844EAB211F099FDABE70025B3E71D
:106C200008B50368117853F80C3C184411F0C4FB04
:106C300008BD00BF08B50368117853F8203CC2585E
:106C400052F80C2C1844104411F0B6FB08BD00BFDC
:106C500010B5D0E90F431B1BB1EBA30F01D30120EB
:106C600010BD54F821001146183020F0F3F900202F
:106C700010BD00BF10B50B4B0B4A044603F1980141
:106C800003F158002360E0606162C4F8002104F55C
:106C9000867020F0D7F904F10C0012F0FFF92046BD
:106CA00010BD00BF585305001853050002680C4979
:106CB00052F80C2C38B50B4B8350841803F158054F
:106CC00098336362C4F80011E56004F5867020F023
:106CD000B9F904F10C0012F0E1F9204638BD00BF0B
:106CE000185305005853050002680C4952F8182C37
:106CF00038B50B4B8350841803F158059833636201
:106D0000C4F80011E56004F5867020F09BF904F1E9
:106D10000C0012F0C3F9204638BD00BF185305001F
:106D2000585305000C4B0D4A10B5044603F1980169
:106D300003F1580023606162C4F80021E06004F5AB
:106D4000867020F07FF904F10C0012F0A7F92046BC
:106D500022F054FF204610BD58530500185305007B
:106D600002680D4952F8182C38B50C4B8350841822
:106D700003F1580598336362C4F80011E56004F527
:106D8000867020F05FF904F10C0012F087F92046BC
:106D900022F034FF204638BD185305005853050033
:106DA00002680D4952F80C2C38B50C4B83508418EE
:106DB00003F1580598336362C4F80011E56004F5E7
:106DC000867020F03FF904F10C0012F067F92046BC
:106DD00022F014FF204638BD185305005853050013
:106DE00010B50F4B0446406A236003F15C0103F1C8
:106DF0009C02DC332163A264C4F8243110B103681F
:106E00005B689847074BC4F8243104F5987020F06C
:106E100019F904F1300012F041F9204610BD00BF0D
:106E20000855050018530500026852F8181C38B5BB
:106E300044180F4B626A435003F15C0503F19C0157
:106E4000DC332563A164C4F824311AB113681046F9
:106E50005B689847074BC4F8243104F5987020F01C
:106E6000F1F804F1300012F019F9204638BD00BFE6
:106E70000855050018530500026852F80C1C38B577
:106E800044180F4B626A435003F15C0503F19C0107
:106E9000DC332563A164C4F824311AB113681046A9
:106EA0005B689847074BC4F8243104F5987020F0CC
:106EB000C9F804F1300012F0F1F8204638BD00BFE7
:106EC000085505001853050010B5144619B10129DD
:106ED00007D0002010BD9AB22146806E0EF038FF18
:106EE00010BD9AB22146C06E0EF032FF10BD00BF39
:106EF000D0F800C0ACF11C0CDCF800C06044E3E743
:106F000010B5144619B1012907D0002010BD9AB25E
:106F10002146806E0EF0D4FF10BD9AB22146C06E9D
:106F20000EF0CEFF10BD00BFD0F800C0ACF1200CB9
:106F3000DCF800C06044E3E738B50C1E0EDB1546F4
:106F4000D0E91212521AB4EBA20F07D251F8240062
:106F500018B19AB229460EF0FBFE38BD002038BDAC
:106F6000D0F800C0ACF11C0CDCF800C06044E3E7D2
:106F700038B50C1E0EDB1546D0E91212521AB4EBCE
:106F8000A20F07D251F8240018B19AB229460EF088
:106F900097FF38BD002038BDD0F800C0ACF1200C00
:106FA000DCF800C06044E3E72DE9F843D0E90F23A3
:106FB0009B1A1F2B02D90120BDE8F8830546242027
:106FC0000C4622F019FE0646102241F601232B49F9
:106FD000326100271830B382C6E90077C6E902772C
:106FE0001FF00CFF0FCCB446ACE80F00D5E910231E
:106FF0002168CCF800109A4205D042F8046B38465C
:107000002A64BDE8F883D5F83C806FF06047A2EBB6
:107010000804B7EBA40F4FEAA40216D0012A1346C6
:1070200038BF01239B1826D2DBB91F469946002C96
:1070300049F804600ADC04344C44B8F1000F0CD168
:10704000C5E90F946F640020B6E7FEE7224641468B
:10705000484628F0FFFE04344C44404622F0CEFD62
:10706000EEE7BB4228BF3B469F00384622F0C4FDF6
:1070700081460744DBE7024FF7E700BF586405008D
:10708000FCFFFF7F03688A6853F80C3C2DE9F0434E
:1070900003440F461A63D1E90321C3E90D21397D69
:1070A000FA8ADA8783F83C10D7E90612386A9864BE
:1070B000C3E910123D463C463A4655F8266F34F86F
:1070C0002FCF52F8321FB88CD5F8048097F82EE0F5
:1070D000A3F84C0007F13C09A07883F85900C3F8E5
:1070E0004E60C3F85280A3F857C083F856E0D2F838
:1070F00004E0C3F85A1099E8030003F1640CC3F8E4
:107100005EE08CE8030097F8441083F86C10D7E930
:1071100012E0D7E91416C3E91CE0DE679967B96885
:10712000C3F88810D7E90310C3E92310387DF98A22
:10713000A3F8961083F89400D7E906013E6AC3F8D5
:10714000A060C3E92601B98CA3F8A41099E8030054
:10715000D5F80480D5F80090B4F800C0A67815687A
:10716000546897F82EE083F8AEE003F1BC02C3F850
:10717000A690C3F8AA80A3F8AFC083F8B160C3F8A3
:10718000B250C3F8B64082E8030097F8442083F871
:10719000C420D7E91201D7E91424C3E93201C3F8A6
:1071A000D440C3F8D020BDE8F08300BF30B400F570
:1071B000133494F85C226AB903680A4D5B6AAB42E7
:1071C00001F1010109D1002909DDC4F85812104666
:1071D00030BC7047002030BC704730BC18474FF0BF
:1071E000FF30F8E7CD6402000268D0F84C14526911
:1071F00010B4084CA2420AD1D0F850045DF8044BF8
:107200008142C6BFC1F580614018401A70475DF8E1
:10721000044B1047B96402002DE9F0410446406870
:107220000E46154650B10768154BD7F810809845A3
:1072300020D157F8103C03441B7AABB90020A36857
:107240002BB11A6831461846166A2A46B04704F52B
:107250001331D1F86032C1F864520133C1F86802C9
:10726000C1F86032BDE8F08157F80C3C184411F0C9
:1072700045FDE4E713460A460021C047DFE700BFAB
:107280003D660200026852F80C1C38B54418104BD9
:10729000626A435003F15C0503F19C01DC33256312
:1072A000A164C4F824311AB1136810465B6898478A
:1072B000084BC4F8243104F598701FF0C3FE04F1A4
:1072C000300011F0EBFE204622F098FC204638BD3D
:1072D0000855050018530500026852F8181C38B507
:1072E0004418104B626A435003F15C0503F19C01A2
:1072F000DC332563A164C4F824311AB11368104645
:107300005B689847084BC4F8243104F598701FF067
:1073100099FE04F1300011F0C1FE204622F06EFC0F
:10732000204638BD085505001853050010B5104B10
:107330000446406A236003F15C0103F19C02DC33E4
:107340002163A264C4F8243110B103685B689847D4
:10735000084BC4F8243104F598701FF073FE04F153
:10736000300011F09BFE204622F048FC204610BD64
:107370000855050018530500F0B5014689B00546CB
:10738000244F2548254E10F0B5FF002420226946E1
:107390003D80CDE90044CDE90344CDE905440294A4
:1073A00007940FF057F801231D491E4833701EF053
:1073B0003FFF69461B481EF08DFF1B4919481EF010
:1073C00037FF317817480A221FF048F9174B1D681C
:1073D000A5421CDD3378D3B139880F4810F08AFFFD
:1073E000A8B107EE905ADFED126AB8EEE77AF6EE32
:1073F000007AE7EE267A2246C823FCEEE77A17EEFB
:10740000901A89B20EF000FF32201FF0A3FF09B0DE
:10741000F0BD00BF22BA022084BE0220C5B3022004
:107420004033050004C702202C330500046000200F
:10743000CDCC4C3F2DE9F041456904460B468DBB50
:10744000027C8A4235D006684F4F7268BA4240F0DB
:107450008680D0F850248118013281F84C30B2F582
:10746000806FD0F84C34B2BFC0F850242A46C0F820
:107470005054934224D03369444A93426CD1736987
:10748000434AD4F84C14934272D1D4F85004814248
:10749000C6BFC1F580614018401A032834D00020CF
:1074A000BDE8F081012D11D00368BDE8F041DB6833
:1074B000184703689B69984765610020BDE8F08123
:1074C000D0F854340133C0F85434D4E7027C8A42F3
:1074D00048D002682C4D5268AA424CD1D0F85024B2
:1074E0008118013281F84C30B2F5806FD0F84C34FD
:1074F000A8BF00229342C0F85024D0D1D0F8543411
:107500000133C0F85434CAE7D4F84C34E21892F886
:107510004C20422A1DD15A1CB2F5806F11DA224448
:1075200092F84C204C2A14D10233B3F5806F24D149
:1075300094F84C30452B0CD102220023C4E90523DA
:10754000ADE794F84C304C2B03D194F84D30452BDB
:10755000F2D001236361A2E7204698479DE7904758
:10756000266888E703689B6998470023636196E76C
:107570002046984791E7904791E7234493F84C3091
:10758000452BD9D0E5E700BF65640200E971020030
:10759000B96402002DE9F04704460068DFF8E08096
:1075A00050F81C6C54F806C0DCF810E0C64504EB3B
:1075B000060704D03846F446BDE8F04760471D464C
:1075C00008295AD8DFE801F05149413931292119F8
:1075D00005005CF80C0C11463844EAB211F0BAF818
:1075E00097F82C3033B12DB1A35953F80C0C384413
:1075F00011F0EAF82846BDE8F0875CF80C0C11465B
:107600003844EAB211F0A2F8EAE75CF80C0C114633
:107610003844EAB211F096F8E2E75CF80C0C114637
:107620003844EAB211F08AF8DAE75CF80C0C11463B
:107630003844EAB211F07EF8D2E75CF80C0C11463F
:107640003844EAB211F072F8CAE75CF80C0C114643
:107650003844EAB211F066F8C2E75CF80C0C114647
:107660003844EAB211F05AF8BAE75CF80C0C11464B
:107670003844EAB211F04EF8B2E70025B0E700BF97
:10768000716A02002DE9F0410768DFF8D4C0D7F82D
:1076900010E0E6455ED104461E4608295ED8DFE8C4
:1076A00001F01921293139414951050057F80C0CD5
:1076B00011462044F2B211F04DF894F82C3033B159
:1076C0002EB1236853F80C0C204411F07DF830469D
:1076D000BDE8F08157F80C0C11462044F2B211F0CD
:1076E00019F8EAE757F80C0C11462044F2B211F0F1
:1076F00015F8E2E757F80C0C11462044F2B211F0ED
:1077000011F8DAE757F80C0C11462044F2B211F0E8
:107710000DF8D2E757F80C0C11462044F2B211F0E4
:1077200009F8CAE757F80C0C11462044F2B211F0E0
:1077300005F8C2E757F80C0C11462044F2B211F0DC
:1077400001F8BAE757F80C0C11462044F2B210F0D9
:10775000FDFFB2E7F446BDE8F04160470026B6E71A
:10776000716A0200F8B5036853F8147CC359C5194F
:1077700053F80C3CEC18EB58064653F80C3C606E82
:10778000234402689268596001211972904794F865
:107790006010A06E0EF09AFA11221146A06E0EF043
:1077A000ADFA94F83410A06E0EF096FA216FA06E28
:1077B0000EF0C6FAA06E03689B68984794F8603094
:1077C00013F0120F08D094F83410012968D0022960
:1077D00000F09380042974D094F86110E06E0EF0EC
:1077E00075FA11221146E06E0EF088FA94F8341002
:1077F000E06E0EF071FAE16FE06E0EF0A1FAE06E4D
:1078000003689B68984794F8613013F0120F07D013
:1078100094F8341001293DD002295ED0042955D0B6
:107820001A072AD495F8241068690EF04FFA11222D
:10783000114668690EF062FA686901210EF04CFA8F
:10784000D5E905010EF07CFA686903689B689847E2
:1078500095F8243013F0120F0BD0F25952F80C2C7B
:107860002A4492F8341001291ED002293DD004295F
:1078700020D01B0707D40020F8BDE06E224901226A
:107880000EF042FACEE768691F4901220EF03CFA79
:107890000020F8BDE06E0EF077FA94F86130BFE793
:1078A000A06E0EF071FA97E768690EF06DFA95F820
:1078B0002430DEE7154968690EF0A6FA95F8243001
:1078C000D7E71249A06E0EF09FFA85E71049E06EE7
:1078D0000EF09AFA94F86130A2E7E06E40F20541AA
:1078E0000EF072FA94F861309AE768694FF481718A
:1078F0000EF06AFA95F82430BBE7A06E4FF4817160
:107900000EF062FA68E700BF9D4C0300030201001D
:107910000605040038B5036853F80C3CC418C35876
:10792000054653F80C3C606E234402689268596027
:1079300001211972904794F86010A06E0EF0C6F9FC
:1079400011221146A06E0EF0D9F994F83410A06EF1
:107950000EF0C2F9216FA06E0EF0F2F9A06E03686E
:107960009B68984794F8603013F0120F08D094F891
:107970003410012968D0022900F09380042974D0C2
:1079800094F86110E06E0EF0A1F911221146E06E3C
:107990000EF0B4F994F83410E06E0EF09DF9E16F3A
:1079A000E06E0EF0CDF9E06E03689B68984794F89E
:1079B000613013F0120F07D094F8341001293DD034
:1079C00002295ED0042955D01A072AD495F824102C
:1079D00068690EF07BF91122114668690EF08EF984
:1079E000686901210EF078F9D5E905010EF0A8F9D2
:1079F000686903689B68984795F8243013F0120F64
:107A00000BD02A6852F80C2C2A4492F83410012921
:107A10001ED002293DD0042920D01B0707D4002006
:107A200038BDE06E224901220EF06EF9CEE768699A
:107A30001F4901220EF068F9002038BDE06E0EF0FB
:107A4000A3F994F86130BFE7A06E0EF09DF997E7B7
:107A500068690EF099F995F82430DEE715496869F0
:107A60000EF0D2F995F82430D7E71249A06E0EF047
:107A7000CBF985E71049E06E0EF0C6F994F8613055
:107A8000A2E7E06E40F205410EF09EF994F86130F5
:107A90009AE768694FF481710EF096F995F82430F1
:107AA000BBE7A06E4FF481710EF08EF968E700BF5E
:107AB0009D4C030003020100060504002DE9F04778
:107AC00004460025474BC36500F168074649256613
:107AD0008AB0384684F864501FF090F9434A226017
:107AE00002F15401424EE1651022C4E90525C4E9C2
:107AF00002552022656004F11C002561294628F00A
:107B0000C3F9D6E901239A42C4E90F55C4E91155D6
:107B1000C4E9135584F8585028D042F8044B7260D9
:107B2000344904A81FF06AF904A901A81FF080F9DC
:107B3000D6E90031C91A89100A22013907A81FF0B5
:107B400019FA07A901A81FF045FB014638461FF0A6
:107B500081FA07A81FF076FA01A81FF073FA04A8AB
:107B60001FF070FA20460AB0BDE8F087D6F8009002
:107B70006FF06048A2EB0905B8EBA50F4FEAA5032B
:107B800016D0012B1A4638BF01229B1827D2DBB929
:107B900098469A46002D4AF805400ADC04355544BB
:107BA000B9F1000F0CD1C6E900A5C6F80880B7E707
:107BB000FEE72A464946504628F04CF9043555441C
:107BC000484622F01BF8EEE7434528BF43464FEAFC
:107BD0008308404622F010F882468044DAE7DFF856
:107BE0001880F6E7185305007433050004590500A2
:107BF000BC63002080330500FCFFFF7FF0B500F57B
:107C0000FB37D7E91054A54209DC02DB4FF0FF3007
:107C1000F0BDC4F5A7560D363544002DF6DD04F54C
:107C2000FB451235446850F825E0BEEB040C1DD42A
:107C30009C453BDCBCF1000F0DDD01391D4E01EB15
:107C40000C05031901341B7A01F8013FB442C8BF87
:107C500000248D42F5D1C2F800C0C0F804E0D7E995
:107C600010239A420EDC07DB0020F0BDCEF5FB3C72
:107C70000CF1380CA444DBE7C3F5A7510D310A44DD
:107C8000002AF1DD0C4C591C03F5FB4384FB012455
:107C90001233CA17C2EBE42241F2ED4450F823300C
:107CA000436004FB12127A640020F0BD6FF0010003
:107CB000F0BD00BF37F60100DFA4DE61F0B500F5CE
:107CC000FD36D6E926239A4283B004460D4608DCE9
:107CD00001DB03B0F0BDC3F5A7530D331344002BF4
:107CE000F7DD04F51337D7F85432D7F85822AB42F2
:107CF00084BF0023C7F854321344AB42E9D80020B4
:107D000001901F494FF4806301AA04F58B60FFF7CF
:107D100075FF90B91B4B1B7823B1019A1849204677
:107D2000FFF77AFAD7F85832C7F85452DD4224BF29
:107D30000023C7F8543203B0F0BDD6E926239A4297
:107D400006DCC6DAC3F5A7510D310A44002AC0DDAE
:107D500003F5FB410C480133123180FB032004EB97
:107D60008101DA17C2EBE02241F2ED40D1F858145C
:107D7000C4F85C1400FB1233C6F89C30A9E700BFBE
:107D800060BA0220C5B30220DFA4DE610368234984
:107D90001A698A4270B5044633D15B69204AD0F82B
:107DA0004C14934233D1D0F850249142C6BFC1F550
:107DB00080608018501A00280FDD0023782665188F
:107DC0000131B1F5806F03F10103A8BF0021984292
:107DD00085F84C60F3D1C4F84C14782001E0C4F865
:107DE0004C148A420BD063180131B1F5806F83F8CF
:107DF0004C00F4DB0021002AF5D1C4F84C140846ED
:107E000070BD9047D4F85024D4F84C14D3E7984769
:107E1000D4F85024D4F84C14CDE700BFE971020027
:107E2000B96402002DE9F0410E461549144680461A
:107E30001EF0E4FF3368134A5B6993421BD1D6F806
:107E40005074BC42C6BFC4F580603F183F1B002F72
:107E50000EDD002533194046013493F84C101FF015
:107E600097F90135B4F5806FA8BF0024AF42F1D176
:107E70004046BDE8F0812146304698470746E6E790
:107E800058640500B9640200F0B5D0F84C3490F89D
:107E900010C0C2188DB092F84C40644554D00021F7
:107EA000CDE9071109910A918DF82C1007AD7826BC
:107EB0000133B3F5806F01F10101A8BF0023102940
:107EC00082F84C6005F8014B00EB030239D092F8C0
:107ED0004C40A44503D0D0F850749F42E8D1C0F87C
:107EE0004C3407ABC1F111025818002127F0CCFF28
:107EF0002A4904A81EF082FF07A901A81EF07EFFF0
:107F000001A904A81FF066F9014625481EF084FA6D
:107F100001A81FF097F804A81FF094F821480DF06D
:107F200059FA20480DF04AF91F480DF047F91F484B
:107F300007A910F015F91E4B1B785BB900200DB096
:107F4000F0BDC0F84C34D3E700F51330D0F8780218
:107F50000DB0F0BD062113480DF01CF911480DF0CD
:107F600001F9144B196811B10E480DF0B7F80E481D
:107F70000DF0CAF80B4801210DF04AF9F422094826
:107F800020210DF03DF907481E210DF037F9054875
:107F900000210DF0ABF90020D1E700BF8C330500C4
:107FA00004C70220C4C4022008C5022084BE0220E7
:107FB000C4B3022050BA0220F8B50368474F1A69CB
:107FC00000F51331BA42D1F87862044650D15A69AB
:107FD0004349D0F84C548A427AD1D0F850048542B3
:107FE000C6BFC5F580628018401B002804DD6219F9
:107FF00092F84C10202917D01A69BA4221D15B6936
:10800000374A934260D1D4F850048542C6BFC5F5C3
:108010008063C018401B012804DD631993F84C30BD
:108020004F2B11D03046F8BD782182F84C10013525
:108030001A69B5F5806FA8BF0025BA42C4F84C5440
:10804000DDD020469047E6E701356B42C3F30903D4
:10805000C5F3090558BF5D42254495F84C304E2BB9
:108060000BD0462BDED11F480DF0B4F90026D9E71E
:108070009047D4F84C542368B7E71B4B1E78002E6A
:10808000D0D0062117480DF085F816480DF06AF893
:10809000164B196811B113480DF020F814480DF073
:1080A00033F8104801210DF0B3F8F4220D482021D7
:1080B0000DF0A6F80B481E210DF0A0F8094800218C
:1080C0000DF014F90026ADE7294620469847A2E7AF
:1080D00029469047D4F84C54236886E7E97102009A
:1080E000B9640200C4C40220C4B3022050BA022002
:1080F00008C50220F8B50368364E1A6900F5133139
:10810000B242D1F8785204465AD15A69324FD0F867
:108110004C14BA4257D1D0F850048142C6BFC1F5C1
:1081200080614018401A002806DDD4F84C24A118BC
:1081300091F84C00202832D01A69B2423DD15B69D7
:10814000254AD4F84C14934240D1D4F850048142CB
:10815000C6BFC1F580614018401A002809DDD4F877
:108160004C04044494F84C30A3F13004E2B2092AE0
:1081700001D92846F8BD313B082BFAD8174B184EC9
:1081800053F82400346038B103681B69984733689A
:10819000144AA3421060ECD100252846F8BD0132F4
:1081A000B2F5806F4FF07800A8BF002281F84C0034
:1081B000C4F84C241A69B242C1D020469047CCE79B
:1081C00090472368AFE790472368ACE7204698477D
:1081D000C3E700BFE9710200B964020074B3022072
:1081E00054BA022050BA0220F8B503683B4F5B69CD
:1081F000D0F84C5400F51332BB42D2F878620446F2
:1082000044D1D0F850048542C6BFC5F580628018BD
:10821000401B002804DD621992F84C20202A27D048
:10822000BB422FD1D4F850048542C6BFC5F5806348
:10823000C018401B002806DD2C4494F84C30302B2D
:1082400003D0312B27D03046F8BD254CFF21002329
:10825000206AC4E9051322F03DFB6169606A22F0DF
:1082600039FB6169A06A22F035FB00263046F8BD73
:1082700001356A42C2F30902C5F3090558BF5542E8
:10828000BB42CFD0294620469847D3E72946984796
:1082900023685B69BDE7124C2568A3699D4215D030
:1082A000FF21206A616122F015FB6169606A22F09A
:1082B00011FB6169A06A22F00DFB23689D4205D085
:1082C00063689D4202D0A3689D42CED13223A5614E
:1082D000E3601FF033F8E061C7E700BFB964020054
:1082E00024BA02202DE9F84303682B4F5B6900F59F
:1082F0001334BB42D4F87882054616460C4647D163
:10830000D0F850048142C6BFC1F580628018401A7F
:10831000002804DD2A1992F84C20202A2FD04FF093
:1083200000091FE0D5F850349C42CCBFC018181B80
:10833000631C002805EB040209EB8900C3F3090460
:1083400018DD92F84C20303AD1B2092912D85B429C
:108350002968C3F3090358BF5C424B6902EB40092B
:108360004FF00008BB42C4F58060DBD021462846B0
:108370009847DDE7C6F800904046BDE8F883013431
:108380006242C2F30902C4F3090458BF5442C6E76B
:1083900098472B685B69BBE7B9640200D0F84C349E
:1083A0002DE9F0410546D0F8500483425FD0DFF854
:1083B0001CE18846002276464FF0780CEC18013319
:1083C00094F84C7006F8017BB3F5806F02F101025E
:1083D00084F84CC03FDA9842F0D1394BC5F84C04D0
:1083E0001B78002B49D0B8F1000F38D0D5F858349D
:1083F000D5F85C148B4246DC58DB05F5FD3CDCE926
:1084000026618E424BDC56DB2E4F0021E8180131ED
:1084100001331EF8014B80F86044BB42C8BF002303
:108420008A42F3DC2848C5F85834711C06F5FB462F
:1084300080FB01201236CA1705EB8606C2EBE0224C
:1084400041F2ED4000FB1212C6F858340020CCF87F
:108450009820BDE8F0810028BFD00023AEE71B497B
:108460002846FEF7D9FE10B14046BDE8F08105F57B
:108470001335D5F88802BDE8F08105F51335D5F838
:108480009002BDE8F081591AC1F5FB3138318A42BA
:10849000B3DD05F51335D5F88C02BDE8F081711A0E
:1084A000C1F5A7510D310029AEDCF2E7C1F5FB3172
:1084B00038311944E8E7C1F5A7510D313144EFE7F0
:1084C000C5B3022037F60100DFA4DE615CB20220F2
:1084D00030B5044687B00D46C06813491DF0FAFE5A
:1084E0002946E0681DF0F6FE217CE0681EF02AF8BF
:1084F0000E4903A81EF082FC294668461EF07EFC49
:10850000694603A81EF066FE014609481DF084FF77
:1085100068461EF097FD03A81EF094FDE06803680E
:10852000DB68984707B030BDC0330500C433050091
:1085300004C7022010B504460849C0681DF0CAFEF1
:10854000217CE0681DF0FEFF054906481DF0AAFFEA
:10855000E0680368BDE81040DB681847C0330500D9
:10856000D433050004C7022030B5044687B00D4659
:10857000C06813491DF0AEFE2946E0681DF0AAFE52
:10858000217CE0681DF0DEFF0E4903A81EF036FCDA
:10859000294668461EF032FC694603A81EF01AFE02
:1085A000014609481DF038FF68461EF04BFD03A840
:1085B0001EF048FDE0680368DB68984707B030BDEF
:1085C000E4330500EC33050004C70220F0B5D0F811
:1085D0004C34C1189BB091F84C20422A044619D162
:1085E0005A1CB2F5806F80F28382024492F84C20CC
:1085F000412A0FD19A1CB2F5806F42F0478290F861
:108600004C20552A06D190F84D20442A08BF02225A
:1086100002F0698204F51337DA4ED7F8705291F8F8
:108620004C204E2A41F0D1825A1CB2F5806FC1F223
:10863000038794F84C20412A41F00E830122A118AF
:1086400091F84C104D2941F007830132B2F5806F4B
:1086500042F0068394F84C20452A41F0FD821946E9
:1086600004314B42D4F85024C3F30903C1F3090188
:1086700058BF59428A4206D02144237C91F84C20AD
:108680009A4241F08E8540220AA9BF480FF07CFD36
:108690001AAB03440AA90025204603F8405CFFF703
:1086A00017FF23681A69B24241F09B855A69B7499E
:1086B000D4F84C348A4242F0C780D4F850148B422C
:1086C000C6BFC3F580604018C81A002811DD00221B
:1086D0004FF0780E04EB030C0133B3F5806F02F119
:1086E0000102A8BF002390428CF84CE0F2D1C4F8FC
:1086F0004C34782001E0C4F84C34994201F0648293
:10870000E2180133B3F5806F82F84C00F3DB0023ED
:108710000029F5D194F84C30C4F84C14522B41F098
:108720009C820122A31893F84C30462B40F014820F
:108730000132B2F5806F42F0AE8294F84C30532B88
:1087400008BF012240F00882A31893F84C30542B44
:1087500040F002820132B2F5806F42F09F8294F8BD
:108760004C30412B08BF012240F0F681A31893F84A
:108770004C30542B40F0F0810132B2F5806F42F062
:10878000638294F84C30452B40F0E6810B4607336A
:108790005A42D4F85014C2F30902C3F3090358BF74
:1087A0005342994206D02344227C93F84C309342A2
:1087B00041F047857649D7F87C522046FFF7D4FE32
:1087C00023681A69B24241F047855B696F4AD4F861
:1087D0004C14934242F02880D4F850349942C6BFDA
:1087E000C1F58060C018581A002811DD00224FF032
:1087F000780E04EB010C0131B1F5806F02F101023A
:10880000A8BF002182428CF84CE0F2D1C4F84C148D
:10881000782001E0C4F84C148B4201F01E826218EB
:108820000131B1F5806F82F84C00F3DB0021002BA1
:10883000F5D194F84C20C4F84C34412A08BF0122E9
:1088400042F0E981A11891F84C10442940F0B5821A
:108850000132B2F5806F42F0E18194F84C20562A43
:1088600040F0AB820122A11891F84C10452940F04C
:10887000A4820132B2F5806F42F0D38194F84C208B
:10888000522A40F09A820122A11891F84C105429E2
:1088900040F093820132B2F5806F42F0CE8194F8BD
:1088A0004C20492A40F089820122A11891F84C10ED
:1088B000532940F082820132B2F5806F42F0D381B9
:1088C00094F84C20492A40F078820122A11891F8AE
:1088D0004C104E2940F071820132B2F5806F42F0A7
:1088E000C58194F84C20472A40F0678219460B3125
:1088F0004B42D4F85024C3F30903C1F3090158BF14
:1089000059428A4206D02144237C91F84C209A4255
:1089100041F06F841F480CF077FC1F4A1F49002864
:1089200018BF11462046FFF7D3FD23681A69B242EB
:108930004FF0000541F07D845A691449D4F84C3455
:108940008A4241F05887D4F850148B42C6BFC3F511
:1089500080604018C81A002811DD00224FF0780E00
:1089600004EB030C0133B3F5806F02F10102A8BFE1
:10897000002390428CF84CE0F2D1C4F84C347820BB
:1089800010E000BFE971020084BE0220B964020059
:1089900070340500C4C40220FC3305000434050013
:1089A000C4F84C34994200F00282E2180133B3F566
:1089B000806F82F84C00F3DB00230029F5D194F896
:1089C0004C30C4F84C14412B08BF012242F02381E3
:1089D000A31893F84C30442B40F06B830132B2F56E
:1089E000806F42F0378194F84C30562B08BF01223B
:1089F00040F05F83A31893F84C30452B40F0598327
:108A00000132B2F5806F42F0288194F84C30522B3D
:108A100008BF012240F04D83A31893F84C30542B2B
:108A200040F047830132B2F5806F42F03A8194F80A
:108A30004C305F2B08BF012240F03B83A31893F812
:108A40004C30532B40F035830132B2F5806F42F049
:108A50002B8194F84C30452B08BF012240F029832C
:108A6000A31893F84C30522B40F023830132B2F517
:108A7000806F42F01C8194F84C30562B08BF0122C5
:108A800040F01783A31893F84C30492B40F0118322
:108A90000132B2F5806F42F00D8194F84C30432BD7
:108AA00008BF012240F00583A31893F84C30452BF2
:108AB00040F0FF820132B2F5806F42F0FE8094F800
:108AC0004C305F2B08BF012240F0F382A31893F8CB
:108AD0004C30492B40F0ED820132B2F5806F42F00C
:108AE000EF8094F84C30442B40F0E3820B46F1E1E8
:108AF00090F84C20412A7FF48DAD90F84D20552AF6
:108B000008BF02227FF486ADA01890F84C004428DC
:108B10007FF480AD0132B2F5806F41F0E48794F8C4
:108B20004C20522A7FF476AD94F84D20412A08BF9C
:108B300002227FF46FADA01890F84C0054287FF407
:108B400069AD0132B2F5806F41F0E38794F84C20B3
:108B5000452A01F0E4875DE5621892F84C304C2B11
:108B600040F0A8824B1CB3F5806FC1F25382002302
:108B7000E21892F84C20452A40F02B820133E2188B
:108B800092F84C20442A40F024820133B3F5806FE0
:108B900041F0518294F84C304D2B08BF012340F036
:108BA0001882E21892F84C204F2A40F012820133CA
:108BB000B3F5806F41F0518294F84C30442B08BFDC
:108BC000012340F00682234493F84C30452B40F0BB
:108BD000008207314B42D4F85024C3F30903C1F398
:108BE000090158BF59428A4206D02144237C91F89A
:108BF0004C209A4241F06282E34B9D69002D01F0C6
:108C00004C82E2492046FFF763FC002523681A697D
:108C1000B24241F04B825B69DD4AD4F84C14934276
:108C200041F0D985D4F850249142C6BFC1F5806087
:108C30008018501A002811DD00234FF0780E04EB45
:108C4000010C0131B1F5806F03F10103A8BF0021D0
:108C500098428CF84CE0F2D1C4F84C14782001E032
:108C6000C4F84C148A4200F0248263180131B1F533
:108C7000806F83F84C00F3DB0021002AF5D194F8D3
:108C80004C30C4F84C14432B41F0F4860123E21815
:108C900092F84C204F2A00F01D82621892F84C3056
:108CA000432B40F0A8814B1CB3F5806FC1F2468185
:108CB0000023E21892F84C204F2A00F03A83621801
:108CC00092F84C30422B40F0A8814B1CB3F5806FDA
:108CD000C0F21D8594F84C30552B40F017860123C7
:108CE000E21892F84C20462A40F010860133B3F582
:108CF000806F40F01D8594F84C30462B40F006867E
:108D00000123E21892F84C205F2A40F0FF850133DE
:108D1000B3F5806F40F01D8594F84C304F2B40F038
:108D2000F5850123E21892F84C20562A40F0EE8592
:108D30000133B3F5806F40F01D8594F84C30452B1E
:108D400040F0E4850123E21892F84C20522A40F0CA
:108D5000DD850133B3F5806F40F01D8594F84C300C
:108D6000462B40F0D3850123E21892F84C204C2A80
:108D700040F0CC850133B3F5806F40F01D8594F849
:108D80004C304F2B40F0C2850123E21892F84C2062
:108D9000572A40F0BB850133B3F5806F40F01D8545
:108DA00094F84C30532B00F01E8500F0AFBD6218D4
:108DB00092F84C0041287FF4D0AE5A1CB2F5806F77
:108DC000C1F2688194F84C20442A40F06686012262
:108DD000A11891F84C10562940F05F860132B2F587
:108DE000806F41F0468794F84C20452A40F0558624
:108DF0000122A11891F84C10522940F04E86013200
:108E0000B2F5806F41F0388794F84C20542A40F036
:108E100044860122A11891F84C105F2940F03D864C
:108E20000132B2F5806F41F02A8794F84C20532A22
:108E300040F033860122A11891F84C10452940F0EA
:108E40002C860132B2F5806F41F01C8794F84C20DB
:108E5000522A40F022860122A11891F84C1056297E
:108E600040F01B860132B2F5806F41F00E8794F816
:108E70004C20492A40F011860122A11891F84C108B
:108E8000432940F00A860132B2F5806F41F0008735
:108E900094F84C20452A40F000860122A11891F850
:108EA0004C105F2940F0F9850132B2F5806F41F036
:108EB000CE8694F84C20492A40F0EF850122A11873
:108EC00091F84C10442940F0E88540F2FF318A4285
:108ED00041F0D88511335A42D4F85014C2F3090234
:108EE000C3F3090358BF5342994201F02B81234435
:108EF000227C93F84C30934201F024812549D7F825
:108F000074520AA81DF07AFFD4F84C2407A8214611
:108F1000FEF788FF07A90AA81EF05CF90346204661
:108F20001968FFF721FB07A81EF08CF80AA81EF0AD
:108F300089F823681A69B24241F02B815B69144AAF
:108F4000D4F84C14934241F08884D4F850249142D0
:108F5000C6BFC1F580608018501A002811DD0023BB
:108F60004FF0780E04EB010C0131B1F5806F03F185
:108F70000103A8BF002198428CF84CE0F2D1C4F85C
:108F80004C1478200AE000BF24BA0220684B050088
:108F9000B9640200F4340500C4F84C148A423FF46A
:108FA000DBAD63180131B1F5806F83F84C00F3DB62
:108FB0000021002AF5D194F84C30C4F84C144C2B05
:108FC00040F069870123E21892F84C20452A3FF4CB
:108FD000D5AD621892F84C30562B0CD14B1CB3F522
:108FE000806FC0F2A8860023E21892F84C20452A30
:108FF00000F01481621892F84C304C2B7FF460AE74
:109000004B1CB3F5806FC0F2D2860023E21892F8B1
:109010004C204F2A00F08182621892F84C30442B89
:1090200040F074844B1CB3F5806FC1F20F8394F849
:109030004C30452B40F06A8494F84D304C2B08BFDF
:10904000022340F06384E21892F84C20412A40F059
:109050005D840133B3F5806F41F00F8394F84C3099
:10906000592B40F0538494F84D305F2B08BF0223F6
:1090700040F04C84E21892F84C204D2A40F046848F
:109080000133B3F5806F41F00F8394F84C30532BCC
:1090900040F03C8494F84D30452B08BF022340F04B
:1090A0003584234493F84C30432B01F0128300F0B5
:1090B0002DBC621892F84C30432B8BD14B1CB3F56E
:1090C000806FC0F2EE860023E21892F84C204F2AFF
:1090D0007FF4E3AD0133E21892F84C204E2A7FF47E
:1090E000DCAD0133B3F5806F40F0ED8694F84C3081
:1090F0004E2B08BF01237FF4D0ADE21892F84C202C
:10910000452A7FF4CAAD0133B3F5806F40F0ED8698
:1091100094F84C30432B08BF01237FF4BEADE21816
:1091200092F84C20542A7FF4B8AD0133B3F5806F28
:1091300040F0ED8694F84C30452B08BF01237FF4B6
:10914000ACAD234493F84C30442B7FF4A6AD0931E9
:109150004B42D4F85024C3F30903C1F3090158BFAB
:1091600059428A4206D02144237C91F84C209A42ED
:1091700041F03281D3480FF093F8D34AD349002805
:1091800018BF11462046FFF7A3F923681A69B242B7
:109190004FF0000541F040815B69CD4AD4F84C1492
:1091A000934241F00883D4F850249142C6BFC1F5E0
:1091B00080608018501A002811DD00234FF0780ECF
:1091C00004EB010C0131B1F5806F03F10103A8BF7D
:1091D000002198428CF84CE0F2D1C4F84C1478206D
:1091E00001E0C4F84C148A4200F09A8563180131FA
:1091F000B1F5806F83F84C00F3DB0021002AF5D134
:1092000094F84C30C4F84C14562B40F0928601234D
:10921000E21892F84C20452A7FF4ECAE0133E218B4
:1092200092F84C20522A7FF4E5AE0133B3F5806FFB
:1092300040F0938594F84C30532B08BF01237FF402
:10924000D9AEE21892F84C20492A7FF4D3AE01330C
:10925000B3F5806F40F0938594F84C304F2B08BFE6
:1092600001237FF4C7AE234493F84C304E2B7FF498
:10927000C1AE07314B42D4F85024C3F30903C1F304
:10928000090158BF59428A4206D02144237C91F8F3
:109290004C209A4241F078808E492046FFF718F919
:1092A00023681A69B2424FF0000541F08D805B6976
:1092B000874AD4F84C14934241F0A682D4F8502443
:1092C0009142C6BFC1F580608018501A002811DD98
:1092D00000234FF0780E04EB010C0131B1F5806FE3
:1092E00003F10103A8BF002198428CF84CE0F2D1B1
:1092F000C4F84C14782001E0C4F84C148A423FF4BE
:10930000CCAC63180131B1F5806F83F84C00F3DB0E
:109310000021002AF5D194F84C30C4F84C14432BAA
:1093200040F03F850123E21892F84C204F2A7FF449
:10933000C6AC0133E21892F84C204E2A7FF4BFAC41
:109340000133B3F5806F40F00B8694F84C304E2B10
:1093500008BF01237FF4B3ACE21892F84C205F2AD7
:109360007FF4ADAC0133B3F5806F40F00B8694F819
:109370004C30492B08BF01237FF4A1ACE21892F8CE
:109380004C204E2A7FF49BAC0133B3F5806F40F044
:109390000B8694F84C30542B08BF01237FF48FAC1C
:1093A000E21892F84C20452A7FF489AC0133B3F5DA
:1093B000806F40F00B8694F84C30522B08BF01238D
:1093C0007FF47DACE21892F84C20562A7FF477ACFB
:1093D0000133B3F5806F40F00B8694F84C30412B8D
:1093E00008BF01237FF46BAC234493F84C304C2B23
:1093F0007FF465AC0D314B42D4F85024C3F309031C
:10940000C1F3090158BF59428A4206D02144237C46
:1094100091F84C209A4240F077872F4B1B78002B15
:1094200001F028822D4B274819880EF063FF002891
:1094300001F020820CF0D6FE07EE900AB8EE677AB3
:10944000F7EE046AF6EE007AE7EE267AFDEEE77AAA
:1094500017EE901A0A220AA81DF058FD0A99204614
:10946000FFF736F80AA81DF0EDFD23681A69B2422D
:109470004FF0000540F068875B69154AD4F84C143A
:10948000934241F0C981D4F850249142C6BFC1F53E
:1094900080608018501A002811DD00234FF0780EEC
:1094A00004EB010C0131B1F5806F03F10103A8BF9A
:1094B000002198428CF84CE0F2D1C4F84C1478208A
:1094C00010E000BF84BE0220FC3305000434050018
:1094D000B964020078590500C5B3022022BA0220FF
:1094E000C4F84C148A423FF485AD63180131B1F5DC
:1094F000806F83F84C00F3DB0021002AF5D194F84B
:109500004C30C4F84C144C2B40F0FC800123E21882
:1095100092F84C204F2A7FF47FAD0133E21892F885
:109520004C20472A7FF478AD0133B3F5806F40F0CB
:10953000508494F84C305F2B08BF01237FF46CAD4E
:10954000E21892F84C204F2A7FF466AD0133B3F550
:10955000806F40F0508494F84C30462B08BF0123B4
:109560007FF45AADE21892F84C205F2A7FF454AD94
:109570000133B3F5806F40F0508494F84C304C2B9D
:1095800008BF01237FF448ADE21892F84C20412A2D
:109590007FF442AD0133B3F5806F40F0508494F80E
:1095A0004C30532B08BF01237FF436ADE21892F8FC
:1095B0004C20542A7FF430AD0133B3F5806F40F076
:1095C000508494F84C305F2B08BF01237FF424AD06
:1095D000E21892F84C20542A7FF41EAD0133B3F503
:1095E000806F40F0508494F84C30582B7FF414ADC9
:1095F0000E314B42D4F85024C3F30903C1F30901DF
:1096000058BF59428A4206D02144237C91F84C200D
:109610009A4240F051860A22D7F8601201A81DF044
:10962000A9FC01A904A81DF003FCA64904A81DF08B
:10963000FDFD0A220546D7F8641207A81DF09AFC22
:1096400007A928461DF0C6FD9E491DF0EFFD0A2220
:109650000546D7F868120AA81DF08CFC0AA928460E
:109660001DF0B8FD034620461968FEF731FF0AA831
:109670001DF0E8FC07A81DF0E5FC04A81DF0E2FCC5
:1096800001A81DF0DFFC23681A69B2424FF0000503
:1096900040F032865B698C4AD4F84C14934241F016
:1096A000CB80D4F850249142C6BFC1F580608018A9
:1096B000501A002811DD00234FF0780E04EB010C46
:1096C0000131B1F5806F03F10103A8BF0021984279
:1096D0008CF84CE0F2D1C4F84C14782001E0C4F8C6
:1096E0004C148A423FF4EBAA63180131B1F5806F44
:1096F00083F84C00F3DB0021002AF5D194F84C30BC
:10970000C4F84C24422B41F09B8201230021E21833
:1097100092F84C20552A40F0F9800133B3F5806F60
:109720007FF4DEAA94F84C30462B40F0EF80012302
:10973000E21892F84C20462A40F0E8800133B3F555
:10974000806F7FF4DEAA94F84C305F2B40F0DE800F
:109750000123E21892F84C204F2A40F0D7800133C1
:10976000B3F5806F7FF4DEAA94F84C30562B40F0AE
:10977000CD800123E21892F84C20452A40F0C680A3
:109780000133B3F5806F7FF4DEAA94F84C30522B8E
:1097900040F0BC800123E21892F84C20462A40F0A9
:1097A000B5800133B3F5806F7FF4DEAA94F84C30B6
:1097B0004C2B40F0AB800123E21892F84C204F2A4A
:1097C00040F0A4800133B3F5806F7FF4DEAA94F8F3
:1097D0004C30572B40F09A800123234493F84C30AF
:1097E000532B40F093800E314B42D4F85024C3F3F6
:1097F0000903C1F3090158BF59428A4206D02144E6
:10980000237C91F84C209A4240F02E852F4BD3F8C0
:1098100080140A2201F0010104A81DF077FB04A9BD
:1098200007A81DF005FB274907A81DF0FFFC2368CA
:10983000274A9B6A9342054641F01780D4F8541496
:109840000A220AA81DF062FB0AA928461DF0C2FCE4
:10985000034620461968FEF73BFE0AA81DF0F2FBFE
:1098600007A81DF0EFFB04A81DF0ECFB23681A69A4
:10987000B2424FF0000540F017855B69124AD4F8F8
:109880004C14934240F09F87D4F850249142C6BFB5
:10989000C1F580608018501A002811DD00234FF0B8
:1098A000780E04EB010C0131B1F5806F03F1010377
:1098B000A8BF002198428CF84CE0F2D1C4F84C14B7
:1098C000782009E0C0520500B96402000020004081
:1098D00055640200C4F84C148A423FF49DAB6318EF
:1098E0000131B1F5806F83F84C00F3DB0021002AD1
:1098F000F5D194F84C30C4F84C14442B06D194F8AC
:109900004D30452B08BF022300F0D987CE4A0B46C5
:1099100002F1120E04EB030C12F8010B9CF84CC080
:10992000844503F1010340F0BC80B3F5806FA8BF0C
:1099300000237245EED112314B42D4F85024C3F3C8
:109940000903C1F3090158BF59428A4206D0214494
:10995000237C91F84C209A4240F0CD83D4F85834BF
:10996000D4F85C148B4200F32087ACBFB749C91A06
:109970000A220AA81DF0CAFA0A992046FEF7A8FD95
:109980000AA81DF05FFB23681A69B2424FF0000578
:1099900040F0D1835B69AE4AD4F84C14934240F056
:1099A0002287D4F850249142C6BFC1F58060801848
:1099B000501A002811DD00234FF0780E04EB010C43
:1099C0000131B1F5806F03F10103A8BF0021984276
:1099D0008CF84CE0F2D1C4F84C14782001E0C4F8C3
:1099E0004C148A425DD063180131B1F5806F83F861
:1099F0004C00F4DB0021002AF5D194F84C30C4F877
:109A00004C14542B06D194F84D30582B08BF022328
:109A100000F0C387D7F87032AB4200F0B080002D61
:109A200040F02D8323681A69B24240F0C6805B691A
:109A3000874AD4F84C14934240F0F684D4F850246A
:109A40009142C6BFC1F580608018501A00280FDD12
:109A50000023782766180131B1F5806F03F1010307
:109A6000A8BF0021984286F84C70F3D1C4F84C147A
:109A7000782001E0C4F84C148A420BD063180131FD
:109A8000B1F5806F83F84C00F4DB0021002AF5D19A
:109A9000C4F84C2428461BB0F0BD1946E218FFF765
:109AA00009BB631893F84C30542BB3D14B1CB3F55E
:109AB000806FC0F2E58494F84C30582BAAD194F80A
:109AC0004D305F2B08BF0223A4D1E21892F84C203E
:109AD000512A9FD10133B3F5806F40F0E88494F8A8
:109AE0004C30552B96D194F84D30452B08BF0223AE
:109AF00090D1E21892F84C20552A8BD10133B3F55E
:109B0000806F40F0EB8494F84C30452B82D194F870
:109B10004D305F2B08BF02237FF47CAFE21892F830
:109B20004C204E2A7FF476AF0133B3F5806F40F0BE
:109B3000EC8494F84C305F2B7FF46CAF94F84D308C
:109B40004D2B08BF02237FF465AFE21892F84C203A
:109B5000532A7FF45FAF0133B3F5806F40F0EC849C
:109B600094F84C30472B7FF455AF94F84D30532B7D
:109B700000F0F284D7F87032AB427FF450AF354931
:109B80000AA81DF03BF9D4F84C2407A82146FEF79B
:109B900049F907A90AA81DF01DFB034620461968CC
:109BA000FEF7E2FC07A81DF04DFA0AA81DF04AFADC
:109BB00023681A69B2423FF43AAF20469047D4F87E
:109BC0004C14D4F8502441E7E11891F84C20522A63
:109BD00042D15A1CB2F5806FC0F22A8594F84C200D
:109BE000462A40F049840122A11891F84C105329CB
:109BF00040F042840132B2F5806F41F0648094F805
:109C00004C20542A40F038840122A11891F84C10BD
:109C1000412940F031840132B2F5806F41F0568025
:109C200094F84C20542A40F027840122A11891F87E
:109C30004C10452940F0208440F2FF318A423EF426
:109C4000A6AD1946FEF7A2BD1436050038F6010090
:109C5000B9640200843605001946621892F84C3047
:109C6000412B7EF47AAF4A1CB2F5806FC0F2E384D8
:109C700094F84C30442B40F007820122A31893F84B
:109C80004C30562B40F000820132B2F5806F40F02C
:109C9000D18794F84C30452B40F0F6810122A3186F
:109CA00093F84C30522B40F0EF810132B2F5806FC7
:109CB00040F0BA8794F84C30542B40F0E5810122F3
:109CC000A31893F84C30492B40F0DE810132B2F5F5
:109CD000806F40F0AC8794F84C30532B40F0D48127
:109CE0000122A31893F84C30492B40F0CD8101326A
:109CF000B2F5806F40F08C8794F84C304E2B40F0DA
:109D0000C3810122A31893F84C30472B40F0BC814B
:109D100040F2FF339A423EF4EAAD0B46FEF7E6BD51
:109D2000621892F84C30562B7EF4B8AF4B1CB3F54A
:109D3000806FBFF658A9E21892F84C20452A7FF4AC
:109D400059A90133B3F5806F7FF469AA94F84C30B8
:109D5000522B08BF01237FF44DA9E21892F84C2042
:109D6000532A7FF447A90133B3F5806F7FF469AAC2
:109D700094F84C30492B08BF01237FF43BA9E2182B
:109D800092F84C204F2A7FF435A90133B3F5806F48
:109D90007FF469AA94F84C304E2B3FF46AAAFFF77F
:109DA00029B94C2B18BF22467EF48AAF0123E21852
:109DB00092F84C204F2A7FF42FA90133B3F5806F1E
:109DC0007FF4ACAB94F84C30472B08BF01237FF4F1
:109DD00023A9E21892F84C205F2A7FF41DA90133D1
:109DE000B3F5806F7FF4ACAB94F84C304F2B08BFC9
:109DF00001237FF411A9E21892F84C20462A7FF43F
:109E00000BA90133B3F5806F7FF4ACAB94F84C3001
:109E10005F2B08BF01237FF4FFA8E21892F84C20C3
:109E20004C2A7FF4F9A80133B3F5806F7FF4ACAB13
:109E300094F84C30412B08BF01237FF4EDA8E218C1
:109E400092F84C20532A7FF4E7A80133B3F5806FD2
:109E50007FF4ACAB94F84C30542B08BF01237FF453
:109E6000DBA8E21892F84C205F2A7FF4D5A80133D2
:109E7000B3F5806F7FF4ACAB94F84C30542B08BF33
:109E800001237FF4C9A8234493F84C30582B3FF4A6
:109E9000AFABFFF7C1B8432B18BF22467FF49AA897
:109EA0000123E21892F84C204F2A7EF4F6AE0133DB
:109EB000B3F5806F7FF40FA994F84C304E2B08BF98
:109EC00001237EF4EAAEE21892F84C204E2A7EF48A
:109ED000E4AE0133B3F5806F7FF40FA994F84C30F2
:109EE000452B08BF01237EF4D8AEE21892F84C202F
:109EF000432A7EF4D2AE0133B3F5806F7FF40FA90D
:109F000094F84C30542B08BF01237EF4C6AEE218FF
:109F100092F84C20452A7EF4C0AE0133B3F5806F31
:109F20007FF40FA994F84C30442B3FF410A9FEF7AE
:109F3000B4BE432B08BF012340F0A185E21892F87C
:109F40004C204F2A7EF4BBAE0133B3F5806F7FF413
:109F5000F1A994F84C304E2B08BF01237EF4AFAE2C
:109F6000E21892F84C204E2A7EF4A9AE0133B3F5E4
:109F7000806F7FF4F1A994F84C305F2B08BF012368
:109F80007EF49DAEE21892F84C20492A7EF497AEFA
:109F90000133B3F5806F7FF4F1A994F84C304E2B68
:109FA00008BF01237EF48BAEE21892F84C20542AAD
:109FB0007EF485AE0133B3F5806F7FF4F1A994F898
:109FC0004C30452B08BF01237EF479AEE21892F89D
:109FD0004C20522A7EF473AE0133B3F5806F7FF4C8
:109FE000F1A994F84C30562B08BF01237EF467AEDC
:109FF000E21892F84C20412A7EF461AE0133B3F5A9
:10A00000806F7FF4F1A994F84C304C2B3FF4F2A907
:10A01000FEF755BE234493F84C30452B7EF4DAAF5F
:10A020008B1CB3F5806F7EF4AAAD94F84C30442BB2
:10A030007EF4D0AF0123E21892F84C204D2A7EF432
:10A04000C8AF0133B3F5806F7EF4ABAD94F84C30FC
:10A050004F2B08BF01237EF4BCAFE21892F84C20CE
:10A06000442A7EF4B6AF0133B3F5806F7EF4ABAD16
:10A0700094F84C30452B3EF4ACADFEF7AABFB64980
:10A08000B6481CF027F9CDE40B465A1CB2F5806F98
:10A09000BEF698AE1946FEF79BBCB1492046FEF7C6
:10A0A00017FA23681A69B2423EF4B5AD20469047CC
:10A0B000D4F84C14D4F85024FEF7BCBDA949D7F805
:10A0C00074520AA81CF09AFED4F84C2407A8214622
:10A0D000FDF7A8FE07A90AA81DF07CF80346204654
:10A0E0001968FEF741FA07A81CF0ACFF0AA81CF09B
:10A0F000A9FFFEF78BBD9C49D7F874520AA81CF043
:10A100007DFED4F84C2407A82146FDF78BFE07A955
:10A110000AA81DF05FF8034620461968FEF724FAE6
:10A1200007A81CF08FFF0AA81CF08CFF23681A698F
:10A13000B2423FF42FAC20469047D4F84C14D4F8E8
:10A14000502436E4894D2B6804A9303320468DF81D
:10A150001030FEF7BDF986490AA81CF04FFE0A220E
:10A16000296807A81CF0D2FE07A90AA81DF032F83A
:10A1700001467A481CF050F907A81CF063FF0AA8B2
:10A180001CF060FF23681A69B2424FF000053EF4EC
:10A19000D5AE20469047D4F84C14D4F85024FEF79E
:10A1A000DCBE74490AA81CF029FED4F84C2407A888
:10A1B0002146FDF737FE07A90AA81DF00BF8034654
:10A1C00020461968FEF7D0F907A81CF03BFF0AA843
:10A1D0001CF038FF23681A69B2424FF002053EF4C2
:10A1E00065AA20469047D4F84C34D4F85014FEF7B2
:10A1F0006CBA6149D7F874520AA81CF0FFFDD4F874
:10A200004C2407A82146FDF70DFE07A90AA81CF05B
:10A21000E1FF034620461968FEF7A6F907A81CF0DF
:10A2200011FF0AA81CF00EFF23681A69B2423EF41F
:10A2300083AB20469047D4F84C34D4F85014FEF742
:10A240008ABB4E49D7F874522046FEF78DF9236831
:10A250001A69B2423EF4B9AA20469047D4F84C1489
:10A26000D4F85034FEF7C0BA4549D7F874520AA85A
:10A270001CF0C4FDD4F84C2407A82146FDF7D2FDFC
:10A2800007A90AA81CF0A6FF034620461968FEF796
:10A290006BF907A81CF0D6FE0AA81CF0D3FE2368B1
:10A2A0001A69B2423FF4E9AA20469047D4F84C1408
:10A2B000D4F85024FFF7F0BA3149D7F874520AA8FD
:10A2C0001CF09CFDD4F84C2407A82146FDF7AAFDFC
:10A2D00007A90AA81CF07EFF034620461968FEF76E
:10A2E00043F907A81CF0AEFE0AA81CF0ABFE2368D9
:10A2F0001A69B2423FF4CEA920469047D4F85024C0
:10A30000D4F84C14FFF7D5B91E49D7F874520AA8EF
:10A310001CF074FDD4F84C2407A82146FDF782FDFB
:10A3200007A90AA81CF056FF034620461968FEF745
:10A330001BF907A81CF086FE0AA81CF083FE236800
:10A340001A69B2423FF498A820469047D4F85024A6
:10A35000D4F84C14FFF79FB8A836050004C70220B4
:10A36000D45F0500243505002836050054BA0220C4
:10A37000D43405004C340500AC340500903405009D
:10A38000C035050094350500AC49D7F874520AA8C9
:10A390001CF034FDD4F84C2407A82146FDF742FDFB
:10A3A00007A90AA81CF016FF034620461968FEF705
:10A3B000DBF807A81CF046FE0AA81CF043FE236841
:10A3C0001A69B2423EF473AF20469047D4F8502445
:10A3D000D4F84C14FEF77ABF9949D7F874520AA8FA
:10A3E0001CF00CFDD4F84C2407A82146FDF71AFDFB
:10A3F00007A90AA81CF0EEFE034620461968FEF7DE
:10A40000B3F807A81CF01EFE0AA81CF01BFE236868
:10A410001A69B2423EF4C0AE20469047D4F85024A8
:10A42000D4F84C14FEF7C7BE20469847D4F84C1415
:10A43000D4F85024FFF70ABB1946A31893F84C3000
:10A44000412B7FF40AAC0132B2F5806F40F00983F2
:10A4500094F84C304D2B7FF400AC0122A31893F8F4
:10A460004C30452B7FF4F9AB40F2FF339A423EF477
:10A47000F7A80B46FEF7F3B81946E218FEF76DBBD6
:10A48000234493F84C30582B7FF4C4AA8B1CB3F5AB
:10A49000806F40F0828294F84C305F2B7FF4BAAA30
:10A4A00094F84D30512B08BF02237FF4B3AAE21871
:10A4B00092F84C20552A7FF4ADAA0133B3F5806F92
:10A4C00040F0828294F84C30452B7FF4A3AA94F894
:10A4D0004D30552B08BF02237FF49CAAE21892F856
:10A4E0004C20452A7FF496AA0133B3F5806F40F0E3
:10A4F000828294F84C305F2B7FF48CAA94F84D3014
:10A500004E2B08BF02237FF485AAE21892F84C2054
:10A510005F2A7FF47FAA0133B3F5806F40F0828217
:10A5200094F84C304D2B7FF475AA94F84D30532B92
:10A5300008BF02237FF46EAAE21892F84C20472A43
:10A540007FF468AA0133B3F5806F40F0828294F8FB
:10A550004C30532B7FF45EAA0F314B42D4F8502479
:10A56000C3F30903C1F3090158BF59428A4200F0FD
:10A57000E6812144237C91F84C209A4200F0DF814F
:10A580003049D7F874520AA81CF038FCD4F84C248F
:10A5900007A82146FDF746FC07A90AA81CF01AFEE9
:10A5A000034620461968FDF7DFFF07A81CF04AFDA7
:10A5B0000AA81CF047FD23681A69B24240F0DD8109
:10A5C0005B69214AD4F84C14934240F0DF81D4F8FF
:10A5D00050249142C6BFC1F580608018501A0028EF
:10A5E00011DD00234FF0780E04EB010C0131B1F5C1
:10A5F000806F03F10103A8BF002198428CF84CE062
:10A60000F2D1C4F84C14782001E0C4F84C148A420A
:10A610003FF400AA63180131B1F5806F83F84C0054
:10A62000F3DB0021002AF5D1C4F84C24FFF7F2B97E
:10A630001946FEF777B80B46FEF704B970350500EA
:10A640004835050058360500B9640200234493F8E4
:10A650004C30452B7FF45AA98B1CB3F5806F40F02A
:10A660002E8194F84C304C2B7FF450A994F84D3047
:10A67000412B08BF02237FF449A9E21892F84C202D
:10A68000592A7FF443A90133B3F5806F40F02E813E
:10A6900094F84C305F2B7FF439A994F84D304D2B52
:10A6A00008BF02237FF432A9E21892F84C20532A03
:10A6B0007FF42CA90133B3F5806F40F02E8194F81C
:10A6C0004C30452B7FF422A994F84D30432B7FF476
:10A6D0001DA90A314B42D4F85024C3F30903C1F336
:10A6E000090158BF59428A420AA800F0C780214494
:10A6F000237C91F84C209A4200F0C080DA49D7F8C8
:10A7000074521CF07BFBD4F84C2407A82146FDF7BB
:10A7100089FB07A90AA81CF05DFD034620461968BD
:10A72000FDF722FF07A81CF08DFC0AA81CF08AFC8C
:10A7300023681A69B24240F0B4805B69CB4AD4F80E
:10A740004C14934240F0B480D4F850249142C6BFD8
:10A75000C1F580608018501A002811DD00234FF0E9
:10A76000780E04EB010C0131B1F5806F03F10103A8
:10A77000A8BF002198428CF84CE0F2D1C4F84C14E8
:10A78000782001E0C4F84C148A423FF4BFA8631853
:10A790000131B1F5806F83F84C00F3DB0021002A12
:10A7A000F5D1C4F84C14FFF7B1B8591AC1F5FB3113
:10A7B0003831FFF7DDB820469847D4F85024D4F854
:10A7C0004C14FEF7F8BC20469847D4F84C14D4F843
:10A7D0005024FFF761B820469847D4F84C14D4F8B9
:10A7E0005024FEF727BA20469847D4F84C14D4F8E2
:10A7F0005024FFF7DEB8194620469047D4F84C3471
:10A80000D4F85014FEF7A7B820469847D4F850243F
:10A81000D4F84C14FEF75ABD20469847D4F850247B
:10A82000D4F84C14FEF737BE20469847D4F84C14A1
:10A83000D4F85034FDF7D8BF20469847D4F85024B8
:10A84000D4F84C14FEF735BF194620469047D4F88B
:10A850004C34D4F85014FDF738BF20469847D4F84C
:10A860004C14D4F85024FEF778BB20469847014694
:10A87000FEF7E6BFDFED7E7AFEF7EABD0A22D7F8E3
:10A8800058121CF0ABFB0A992046FDF721FE0AA8DE
:10A890001CF0D8FB23681A69B2424FF000053FF460
:10A8A0004CAF20469047D4F84C14D4F8502453E7CA
:10A8B00020469847D4F84C14D4F850244CE7E218BA
:10A8C00092F84C204C2A7FF421A80133B3F5806F15
:10A8D0007EF4B9AB94F84C30412B7FF417A894F870
:10A8E0004D30592B08BF02237FF410A8E21892F8CC
:10A8F0004C205F2A7FF40AA80133B3F5806F7EF401
:10A90000B9AB94F84C304D2B7FF400A894F84D303F
:10A91000532B08BF02237EF4F9AFE21892F84C20C3
:10A92000452A7EF4F3AF0133B3F5806F7EF4B9AB03
:10A9300094F84C30432B3FF4CCAEFEF7E7BF04F560
:10A94000FD33D3E9261399421EDCBDBFC3F5A753DF
:10A950000D33C91800210A220AA81CF0D7FA0A9957
:10A960002046FDF7B5FD0AA81CF06CFB23681A69A8
:10A97000B2424FF000053FF423AE20469047D4F892
:10A980004C14D4F850242AE6C91AE4E72046984724
:10A99000D4F84C14D4F8502421E6E21892F84C2054
:10A9A0005F2A7FF437A80133B3F5806F7FF48DA859
:10A9B00094F84C30512B7FF42DA894F84D30552B42
:10A9C00008BF02237FF426A8E21892F84C20452AFB
:10A9D0007FF420A80133B3F5806F7FF48AA894F840
:10A9E0004C30552B7FF416A894F84D30452B08BFFA
:10A9F00002237FF40FA8E21892F84C205F2A7FF41C
:10AA000009A80133B3F5806F7FF488A894F84C301F
:10AA10004E2B7EF4FFAF94F84D305F2B08BF02231E
:10AA20007EF4F8AFE21892F84C204D2A7EF4F2AF93
:10AA30000133B3F5806F7FF488A894F84C30532B22
:10AA40007EF4E8AF94F84D30472B08BF02237EF424
:10AA5000E1AF234493F84C30532B3FF47DADFEF728
:10AA6000D9BF0B46FDF7EBBDEC350500B96402001C
:10AA7000FFFFFFFF562B08BF01233FF45CA92246CE
:10AA8000FEF7B9BA19460B46FEF724BA024492F80B
:10AA90004C20552A7DF4BEADDA1CB2F5806F7EF4F1
:10AAA00033A890F84C20442A7DF4B4AD90F84D20A2
:10AAB000522A08BF02227DF4ADADA01890F84C00D8
:10AAC00041287DF4A7AD0132B2F5806F7EF433A842
:10AAD00094F84C20542A7DF49DAD94F84D20452ADD
:10AAE0007DF498AD1BE0A01890F84C0052287DF43E
:10AAF00091AD0132B2F5806FDFD194F84C20412A3C
:10AB00007DF488AD94F84D20542A08BF02227DF4CC
:10AB100081AD224492F84C20452A7DF47BAD083368
:10AB20005A42D4F85014C2F30902C3F3090358BFC0
:10AB30005342994204F5133750D02344227C93F8B2
:10AB40004C3093424AD06349D7F87452624E204643
:10AB5000FDF70AFD23681A69B2424AD15A695F4972
:10AB6000D4F84C348A424BD1D4F850148B42C6BF2F
:10AB7000C3F580604018C81A002811DD00224FF08C
:10AB8000780E04EB030C0133B3F5806F02F1010280
:10AB9000A8BF002390428CF84CE0F2D1C4F84C34AA
:10ABA000782001E0C4F84C34994214D0E218013303
:10ABB000B3F5806F82F84C00F4DB00230029F5D157
:10ABC00094F84C20C4F84C144E2A18BF21467EF449
:10ABD000FCAF012231E4E118FDF721BD4049D7F86F
:10ABE0007C523D4E2046FDF7BFFC23681A69B242F5
:10ABF000B4D020469047D4F84C34D4F85014BBE776
:10AC0000194620469047D4F84C34D4F85014B3E792
:10AC10000B46FDF75BBE2246FDF79FBF1946FFF7C7
:10AC20002DB81946FFF73BB80B46FDF72DBE0B4676
:10AC3000FDF73BBE0B46FDF716BE1946FFF740B8C1
:10AC400000212246FEF7E9B90B46FEF7EFBF194691
:10AC5000FDF73CBF0B46FEF7BBB80B46FEF7C9B885
:10AC60001946FFF7FBBB1946FFF73BB81946FFF73C
:10AC700049B81946FDF7BEBE1946FDF7CDBE1946C7
:10AC8000FDF7DCBE1946FDF7EBBE1946FDF7FABE2F
:10AC90001946FDF709BF0B46FEF7A6BF0B46FEF7A8
:10ACA000B4BF0B46FEF7B6B80B46FEF7C4B80B466A
:10ACB000FEF7D2B80B46FEF7E0B80B46FEF7EEB84B
:10ACC0000B46FEF7FCB81946FDF73EBD1946FDF7E9
:10ACD0004DBD00BF30340500E9710200B9640200C7
:10ACE0000C3405002DE9F8430368DFF898C01F69AC
:10ACF000674504460E4615463BD15B691F4AD0F8AE
:10AD00004C14934237D1D0F850048142C6BFC1F5EC
:10AD100080614018401AB04228DB002E23DD013D3F
:10AD2000174F2E444FF078094FF0000811E0D4F887
:10AD30004C345A1C2344B2F5806F93F84C0083F8CE
:10AD40004C90A8BF4246C4F84C2405F8010FAE420F
:10AD500009D023681B68BB42E9D02046984705F814
:10AD6000010FAE42F5D10020BDE8F8830120BDE817
:10AD7000F883B847CFE79847CDE700BFB964020032
:10AD800091640200E97102002DE9F84F04468A68D7
:10AD900008460F4600211CF083FA236824491A69EB
:10ADA0008A423DD15B69234AD4F84C1493423BD18B
:10ADB000D4F85064B142C6BFC1F580617618761AE6
:10ADC000002E23DD0025DFF87090A846AB464FF03B
:10ADD000780A23681B684B451ED1D4F84C345A1CA2
:10ADE000B2F5806F2344A8BF5A4693F84C1083F8FD
:10ADF0004CA0C4F84C24B8F1000F04D10D293846FA
:10AE000007D01CF0C5F90135AE42E2D10020BDE803
:10AE1000F88F4FF00108F6E7204698470146EAE729
:10AE2000204690470646CBE7204698470646C7E7A8
:10AE3000E9710200B96402009164020003682DE91F
:10AE4000F0471A69DFF8D8A0524504460E465FD194
:10AE50005B69314AD0F84C1493425BD1D0F850046E
:10AE60008142C6BFC1F580614018401A00284CD00D
:10AE70002368294F1A69294D52454FF000094FF0B8
:10AE800078082DD15B69D4F84C14BB423AD1D4F880
:10AE900050048142C6BFC1F580614018401A0028A5
:10AEA00022DD23681B68AB4229D1D4F84C34E21868
:10AEB0000133B3F5806FA8BF002392F84C0082F8ED
:10AEC0004C80C4F84C34A0F13003DAB2092A10D80F
:10AED00009EB890903EB490923681A695245D1D066
:10AEE000204690470028DCDCC6F800900020BDE832
:10AEF000F0870D2818BF0220F6D0BDE8F087204665
:10AF00009847E0E720469847C9E70120BDE8F08769
:10AF10009047ABE79847A9E7B96402009164020043
:10AF2000E97102002DE9F84F0368294E1C69B4420B
:10AF300005460F46904646D15B69264AD0F84C1428
:10AF4000934242D1D0F850048142C6BFC1F580611E
:10AF50004018401AB84233DB002F4FF0000427DDC1
:10AF6000DFF874902646A3464FF0780A04E03028B4
:10AF700026D10136B7421BD02B681B6864004B45B5
:10AF8000E4B21AD1D5F84C34581CB0F5806F2B447C
:10AF9000B4BF02465A4693F84C0083F84CA0C5F85B
:10AFA0004C243128E3D101360134B742E4B2E3D175
:10AFB00088F800400020BDE8F88F28469847F0E761
:10AFC0000120BDE8F88FA047C4E79847C2E700BF5B
:10AFD000E9710200B964020091640200F0B50368EF
:10AFE00083B0DB6A04460E46984700282DD01848E7
:10AFF000184907461BF06EF923682046DB6A98471C
:10B000000A22014638461BF029FB134938461BF03B
:10B0100061F90CE023685B699847C1B23846019139
:10B020001BF086F9336801991B68304698472368FE
:10B030002046DB6A984705462046002DEAD10448A1
:10B040001BF0CAF9284603B0F0BD4FF0FF35F9E711
:10B0500004C70220E0360500103705002DE9F04F47
:10B06000584BDFF8A4A11B7801228BB08AF800208E
:10B0700023B9554A117863F347011170534F524970
:10B080005348544DDFF88491DFF884810DF060F867
:10B09000514938461BF01EF9504938461BF002FA58
:10B0A0004E494B480DF05CF84D4949480BF01EFCE9
:10B0B0004C4947480BF01CFC4B480DF0BFFA0124EB
:10B0C00002E001340A2C1CD015F8013F002BF8D007
:10B0D000494638461BF0FEF80A22214638461BF046
:10B0E000BDFA58F8240003682146DB6898470646F5
:10B0F000D8B93E4B58F8242043F8242001340A2CB8
:10B10000E2D13B4B1B685A1E082A08D8374A52F82E
:10B11000230020B103681B699847364B18609AF8E2
:10B12000003053BB0BB0BDE8F08F334904A81BF0CF
:10B1300065FE0A22214601A81BF0E8FE01A904A829
:10B140001CF048F82D491CF071F80A22834631465C
:10B1500007A81BF043FF07A958461CF03BF801461F
:10B1600038461BF093F807A81BF06CFF01A81BF0F2
:10B1700069FF04A81BF066FFBBE7062120480AF020
:10B1800009F81F4809F0EEFF1A4B196811B11C4865
:10B1900009F0A4FF1B4809F0B7FF194801210AF084
:10B1A00037F8F422164820210AF02AF814481E2104
:10B1B0000AF024F8002112480AF098F80BB0BDE814
:10B1C000F08F00BF6CBE022058BA022004C70220D4
:10B1D00084BE022018BA022024370500086000202F
:10B1E00079730200CD670200A8B9022074B302206F
:10B1F00054BA022050BA02208C370500B43705003B
:10B20000C4C4022008C50220C4B30220543705007C
:10B210009CB30220036870B51A695A4DAA420446CD
:10B2200040F094805A69584ED0F84C14B24240F025
:10B23000A280D0F850048142C6BFC1F58061401899
:10B24000401A002806DDD4F84C24A11891F84C00CF
:10B25000202865D01A69AA4270D15B694A4AD4F89D
:10B260004C14934240F08A80D4F850048142C6BF07
:10B27000C1F580614018401A002863DDD4F84C34D1
:10B28000234493F84C00302812D0A0F13003DAB2F6
:10B29000092A98BF184609D9A0F14103052B58D9AE
:10B2A000A0F16103052B8CBF38485738FFF7D6FE55
:10B2B00023681A69AA4250D15B69334AD4F84C1406
:10B2C000934251D1D4F850349942C6BFC1F5806041
:10B2D000C018581A00280FDD0022782665180131A1
:10B2E000B1F5806F02F10102A8BF0021824285F80A
:10B2F0004C60F3D1C4F84C14782201E0C4F84C142B
:10B300008B420BD060180131B1F5806F80F84C2072
:10B31000F4DB0021002BF5D1C4F84C34002070BDC3
:10B320000132B2F5806F4FF07800A8BF002281F89B
:10B330004C00C4F84C241A69AA428ED0204690478B
:10B3400000289BDC0120FFF789FEB1E790472368C6
:10B3500077E73738FFF782FEAAE720469047D4F810
:10B360005034D4F84C14B5E720469847D4F85034FC
:10B37000D4F84C14AEE79047236862E7204698471C
:10B380007AE700BFE9710200B964020019FCFFFF0F
:10B39000F8B5344C344F354E354D204600210CF075
:10B3A00055FF204604210CF0FBFC00222046012121
:10B3B0000CF026FD204604210CF0FAFE2D49204613
:10B3C0000CF0B4FE38460B211BF060FF0C21034645
:10B3D000384633721BF05AFF0D210346384673720C
:10B3E0001BF054FF0E2103463846B3721BF04EFF8C
:10B3F00005F13007204C214903460C223846F372F0
:10B400000DF0A0F9282638461D491E4F1A220DF0CE
:10B4100085F932460021204624F036FD32460021CF
:10B4200019481A4E24F030FD194A1A4B1A48A260E6
:10B4300078351A4A1A49656020611A4D1A486261C6
:10B4400000221A60A661E561012640F20115206222
:10B450001A8102205A60E7601A725E705D8008608F
:10B46000F8BD00BF84BE022060BE0220086000203C
:10B47000B0B6022059BA02209CB30220B058050091
:10B4800078590500C8B4022074B3022090B9022094
:10B4900004B6022018BA022098B60220BCB80220D6
:10B4A00054BA02209CB7022010B8022010B4B84A47
:10B4B00013786FF34703137001784478A1F13003D8
:10B4C000DBB2092B40F2BE80A1F14103052B40F213
:10B4D000B780A1F16103052B00F2508157390901B2
:10B4E000CBB2A4F13001C9B2092900F2B3800B44F8
:10B4F000DBB293718178C478A1F13003DBB2092B00
:10B5000040F2B980A1F14103052B40F2B280A1F1D4
:10B510006103052B00F2368157390901CBB2A4F142
:10B520003001C9B2092900F2AE800B44DBB253717D
:10B5300001794479A1F13003DBB2092B40F2B380E9
:10B54000A1F14103052B40F2AC80A1F16103052B71
:10B5500000F21C8157390901CBB2A4F13001C9B204
:10B56000092900F2A8800B44DBB213718179C479F8
:10B57000A1F13003DBB2092B40F2AD80A1F1410310
:10B58000052B40F2A680A1F16103052B00F2F480A7
:10B5900057390901CBB2A4F13001C9B2092900F22F
:10B5A000A2800B44DBB2D370017A447AA1F130035C
:10B5B000DBB2092B40F2A780A1F14103052B40F239
:10B5C000A080A1F16103052B00F2DE80573909014B
:10B5D000CBB2A4F13001C9B2092900F29C800B441E
:10B5E000DBB2817A9370A1F13003DBB2092BC07A10
:10B5F00040F2BB80A1F14103052B40F29D80A1F1F7
:10B600006103052B00F2BC8057390901CBB2A0F1D0
:10B610003001C9B2092940F29980A0F14101052900
:10B6200040F2A680A0F16101052902D857380344F1
:10B63000DBB25849537001235DF8044B0B7070471F
:10B64000A1F137031B01DBB2A4F13001C9B2092912
:10B650007FF64DAFA4F14101052940F28380A4F1AA
:10B66000610105293FF645AFA4F157010B44DBB258
:10B670003FE7A1F137031B01DBB2A4F13001C9B2EE
:10B6800009297FF652AFA4F14101052967D9A4F138
:10B69000610105293FF64BAFA4F157010B44DBB222
:10B6A00045E7A1F137031B01DBB2A4F13001C9B2B8
:10B6B00009297FF658AFA4F14101052939D9A4F130
:10B6C000610105293FF651AFA4F157010B44DBB2EC
:10B6D0004BE7A1F137031B01DBB2A4F13001C9B282
:10B6E00009297FF65EAFA4F14101052931D9A4F102
:10B6F000610105293FF657AFA4F157010B44DBB2B6
:10B7000051E7A1F137031B01DBB2A4F13001C9B24B
:10B7100009297FF664AFA4F1410105291CD9A4F1E0
:10B72000610105293FF65DAFA4F157010B44DBB27F
:10B7300057E7A4F1370116E7A1F13703A0F1300173
:10B74000C9B21B010929DBB23FF667AF0B44DBB27C
:10B750006FE7A4F1370124E7A4F137013FE7A4F133
:10B760003701E2E6A4F13701C1E61B01DBB24EE787
:10B7700037380344DBB25CE70023AEE7002363E71E
:10B78000002344E7002378E70023BEE700238CE78B
:10B7900058BA02206CBE0220F0B5754B1B7885B0FC
:10B7A0000446002B7BD10368724D1A69AA4240F00F
:10B7B000CD805B69704AD0F84C14934240F0BD8054
:10B7C000D0F850048142C6BFC1F580614018401ACC
:10B7D0000B2876DDD4F84C3468460DF10C0C782734
:10B7E000E118013391F84C2081F84C70B3F5806F6B
:10B7F000A2F1300622F02001A8BF0023092EA1F1FA
:10B80000410144D9052942D904F51332C4F84C3416
:10B81000D2F884626846FFF749FE27683B69AB426D
:10B8200048D17B69544AD4F84C14934240F0878045
:10B83000D4F850249142C6BFC1F580608018501AD8
:10B8400000280FDD0023782765180131B1F5806FDE
:10B8500003F10103A8BF0021834285F84C70F3D1A6
:10B86000C4F84C14782001E0C4F84C148A420BD080
:10B8700063180131B1F5806F83F84C00F4DB0021CF
:10B88000002AF5D1C4F84C24304605B0F0BD00F8CC
:10B89000012B8445A4D1C4F84C340026BAE73749BB
:10B8A0003748344D1AF0FEFD27683B69AB424FF034
:10B8B0000006B6D020469847D4F84C14D4F850244B
:10B8C000BEE727683B69AB4242D17B692A4AD4F87C
:10B8D0004C14934244D1D4F850249142C6BFC1F5D0
:10B8E00080608018501A002810DD00234FF0780C7B
:10B8F00066180131B1F5806F03F10103A8BF002183
:10B90000984286F84CC0F3D1C4F84C14782001E07A
:10B91000C4F84C148A420BD063180131B1F5806F22
:10B9200083F84C00F4DB0021002AF5D1C4F84C2444
:10B9300004F51333D3F8806270E7984748E7204650
:10B940009847D4F84C14D4F8502479E790473FE74F
:10B9500020469847D4F84C14D4F850242768C2E7FE
:10B9600020469847D4F84C14D4F850242768BAE7F6
:10B97000C4B30220E9710200B9640200E037050097
:10B9800004C702202DE9F047D0F84C1404460844BF
:10B9900086B090F84C30422B19D14B1CB3F5806F18
:10B9A00080F2D681E21892F84C20452A0FD18A1CE9
:10B9B000B2F5806F42F0CA8594F84C20472A06D130
:10B9C00094F84D20492A08BF022202F0D88504F5D8
:10B9D0001337D74ED7F8705290F84C30422B41F0C5
:10B9E0006F81481CB0F5806FC2F2BD8094F84C3076
:10B9F000412B41F097820123E21892F84C20552AFE
:10BA000041F090820133B3F5806F42F0EF8394F8F8
:10BA10004C30442B41F086820123E21892F84C20EE
:10BA2000522A41F07F820133B3F5806F42F0E08308
:10BA300094F84C30412B41F075820123E21892F8C2
:10BA40004C20542A41F06E820133B3F5806F42F0EE
:10BA5000718394F84C30452B41F064820123E21845
:10BA600092F84C203D2A41F05D8240F2FF32934231
:10BA700042F0628321447823B0F5806F81F84C3026
:10BA800081F2E9862118421CB2F5806F81F84C30B2
:10BA900041F06C8747F67803A4F84C300220231855
:10BAA00001307822B0F5806F83F84C2041F06B872D
:10BAB00047F67803A4F84C3002202218013078238E
:10BAC000B0F5806F82F84C3041F06B8784F84C30D1
:10BAD0000123C4F84C349749D7F87C522046FCF730
