:020000022000DC
:106000000000042029030400690304006B0304005A
:106010006D0304006F03040071030400000000001E
:106020000000000000000000000000001902040051
:106030007503040000000000390204007903040025
:106040007D0504007B03040069D903007B03040081
:106050007B0304007B03040039DA03007B030400A4
:106060007B0304007B0304007B0304007B03040028
:106070007B0304007B0304007B0304007B03040018
:106080007B03040069FF03007B0304007B0304001F
:106090007B0304007B03040039FF02007B03040040
:1060A0007B0304007B0304007B0304007B030400E8
:1060B0007B0304007B0304000000000000000000DC
:1060C0007B0304007B0304007B03040069060400D7
:1060D0007B0304007B0304007B03040069210300AD
:1060E0007B0304007B0304007B030400000000002A
:1060F000000000007B03040000000000E106040033
:10610000000000000000000000000000000000008F
:10611000000000000000000000000000000000007F
:10612000000000000000000000000000000000006F
:10613000000000000000000000000000000000005F
:10614000000000000000000000000000000000004F
:10615000000000000000000000000000000000003F
:10616000000000000000000000000000000000002F
:10617000000000000000000000000000000000001F
:10618000000000000000000000000000000000000F
:1061900000000000000000000000000000000000FF
:1061A00000000000000000000000000000000000EF
:1061B00000000000000000000000000000000000DF
:1061C00000000000000000000000000000000000CF
:1061D00000000000000000000000000000000000BF
:1061E00000000000000000000000000000000000AF
:1061F000000000000000000000000000000000009F
:10620000F1EE103A43F08073E1EE103A704700BFB0
:1062100010B5054C237833B9044B13B10448AFF3E0
:1062200000800123237010BDA06300200000000047
:106230000CCF040008B5034B1BB103490348AFF36F
:10624000008008BD00000000A46300200CCF040003
:10625000154B002B08BF134B9D46A3F5803A002138
:106260008B460F461348144A121A20F06BF90F4B55
:10627000002B00D098470E4B002B00D098470020F1
:10628000002104000D000D48002802D00C48AFF397
:10629000008020F0EDF8200029001AF09DF820F091
:1062A000C1F800BF0000080000000420000000004A
:1062B00000000000A063002070A10020000000008A
:1062C000000000000020704703680021DB681847C9
:1062D000036853F80C3C1844704700BF036853F838
:1062E000183CC25852F80C2C18441044704700BF98
:1062F000036853F80C3C1844704700BF036853F818
:10630000183CC25852F80C2C18441044704700BF77
:10631000D0F85032C2180133B3F5007FA8BF002374
:1063200082F84C10C0F85032704700BF10B4D0F85B
:106330004C124B1C01445C42024691F84C00C4F3E1
:106340000801C3F3080358BF4B425DF8044BC2F881
:106350004C327047D0E993308342C3BFC3F5FF731B
:106360000133C018C01A7047036853F80C3C184436
:10637000704700BF036853F8183CC25852F80C2C01
:1063800018441044704700BF006C7047036853F80E
:10639000183C1844006C7047016810B451F80C4C5C
:1063A000114620441A465DF8044B0AF0A5BA00BF16
:1063B000016830B451F81C4C015951F80C5C204470
:1063C000114628441A4630BC0AF096BA016810B447
:1063D00051F80C4C114620441A465DF8044B0AF063
:1063E0008BBA00BF016830B451F81C4C015951F808
:1063F0000C5C2044114628441A4630BC0AF07CBA92
:10640000016810B451F80C4C114620441A465DF84E
:10641000044B0AF071BA00BF016830B451F8204C47
:10642000015951F80C5C2044114628441A4630BCEE
:106430000AF062BA016810B451F80C4C11462044BD
:106440001A465DF8044B0AF057BA00BF016830B431
:1064500051F8204C015951F80C5C20441146284455
:106460001A4630BC0AF048BA70B5014688B00546F5
:106470001448154C154E09F057FD154B20221D8070
:1064800069460023CDE90033CDE90333CDE9053377
:106490000293079307F04AFE01230E49337020460A
:1064A00016F08CFE6946204616F088FE0A49204602
:1064B00016F084FE317820460A2216F05DFF08B0FF
:1064C00070BD00BF886B0020087400206167002049
:1064D000286B002098990400CC99040070B50C4CEE
:1064E0000C4E00230D4620460B49337016F066FE15
:1064F00029461022204616F065FF0849204616F06E
:106500005DFE317820460A22BDE8704016F034BFA7
:106510000874002061670020E0990400CC99040011
:10652000026852F8103C0344596052F80C3C18447D
:106530000AF0F6BB036810B453F8144C025952F831
:10654000103C204403445DF8044B596052F80C3C65
:1065500018440AF0E5BB00BF026852F8103C03443F
:10656000596052F80C3C184409F068BD036810B437
:1065700053F8144C025952F8103C204403445DF87F
:10658000044B596052F80C3C184409F057BD00BF49
:10659000036810B553F80C3C0446006C23440268B1
:1065A000926859609047606C132107F015FA112228
:1065B0001146606C07F028FA606C042107F012FAAB
:1065C000606C03689B689847606C0D4907F0A2FAFD
:1065D000A06C132107F000FA11221146A06C07F0FD
:1065E00013FAA06C042107F0FDF9A06C03689B6806
:1065F0009847A06C034907F08DFA002010BD00BF3A
:106600000302010006050400036853F8143C10B5AA
:10661000C418C358206C53F80C3C02682344926899
:1066200059609047606C132107F0D6F9112211468A
:10663000606C07F0E9F9606C042107F0D3F9606C35
:1066400003689B689847606C0C4907F063FAA06C7C
:10665000132107F0C1F911221146A06C07F0D4F9FB
:10666000A06C042107F0BEF9A06C03689B689847F2
:10667000A06C034907F04EFA002010BD0302010090
:106680000605040008B50368117853F80C3C18445B
:1066900009F0A4FC08BD00BF08B50368117853F8E1
:1066A0001C3CC25852F80C2C1844104409F096FCBB
:1066B00008BD00BF08B50368117853F80C3C1844B6
:1066C00009F094FC08BD00BF08B50368117853F8C1
:1066D000203CC25852F80C2C1844104409F086FC97
:1066E00008BD00BF10B5074B036003F1580103F16B
:1066F00098020446C16042620C300AF0CDFA20468E
:1067000010BD00BF209E0400026838B552F80C2C62
:10671000074B8350841803F1580503F1980104F1E5
:106720000C00E56061620AF0B7FA204638BD00BF90
:10673000209E0400026838B552F8182C074B83508D
:10674000841803F1580503F1980104F10C00E56089
:1067500061620AF0A1FA204638BD00BF209E040005
:1067600010B5084B036003F1580103F19802044689
:10677000C16042620C300AF08FFA204619F06EFEBA
:10678000204610BD209E0400026852F80C2C38B53B
:10679000084B8350841803F1580503F19801616296
:1067A00004F10C00E5600AF077FA204619F056FE75
:1067B000204638BD209E0400026852F8182C38B5D7
:1067C000084B8350841803F1580503F19801616266
:1067D00004F10C00E5600AF05FFA204619F03EFE75
:1067E000204638BD209E040010B50B4B0446406A7D
:1067F000236003F15C0103F19C02D8332163A2649E
:10680000C4F8243110B103685B68984704F1300084
:106810000AF042FA204610BD309F0400026852F888
:106820000C1C38B544180B4B626A435003F15C05ED
:1068300003F19C01D8332563A164C4F824311AB153
:10684000136810465B68984704F130000AF024FA98
:10685000204638BD309F0400026852F8181C38B535
:1068600044180B4B626A435003F15C0503F19C0131
:10687000D8332563A164C4F824311AB113681046D3
:106880005B68984704F130000AF006FA204638BDEC
:10689000309F040010B5144619B1012907D000201B
:1068A00010BD9AB22146406C07F0D8F810BD9AB2DC
:1068B0002146806C07F0D2F810BD00BFD0F800C0B0
:1068C000ACF11C0CDCF800C06044E3E710B51446E2
:1068D00019B1012907D0002010BD9AB22146406CA1
:1068E00007F074F910BD9AB22146806C07F06EF97A
:1068F00010BD00BFD0F800C0ACF1200CDCF800C027
:106900006044E3E703688A6853F80C3C2DE9F043E0
:1069100003440F461A63D1E90321C3E90D21397DF0
:10692000FA8ADA8783F83C10D7E90612386A986445
:10693000C3E910123D463C463A4655F8266F34F8F6
:106940002FCF52F8321FB88CD5F8048097F82EE07C
:10695000A3F84C0007F13C09A07883F85900C3F86C
:106960004E60C3F85280A3F857C083F856E0D2F8BF
:1069700004E0C3F85A1099E8030003F1640CC3F86B
:106980005EE08CE8030097F8441083F86C10D7E9B8
:1069900012E0D7E91416C3E91CE0DE679967B9680D
:1069A000C3F88810D7E90310C3E92310387DF98AAA
:1069B000A3F8961083F89400D7E906013E6AC3F85D
:1069C000A060C3E92601B98CA3F8A41099E80300DC
:1069D000D5F80480D5F80090B4F800C0A678156802
:1069E000546897F82EE083F8AEE003F1BC02C3F8D8
:1069F000A690C3F8AA80A3F8AFC083F8B160C3F82B
:106A0000B250C3F8B64082E8030097F8442083F8F8
:106A1000C420D7E91201D7E91424C3E93201C3F82D
:106A2000D440C3F8D020BDE8F08300BF026852F81C
:106A30000C1C38B544180D4B626A435003F15C05D9
:106A400003F19C01D8332563A164C4F824311AB141
:106A5000136810465B68984704F130000AF01CF98F
:106A6000204619F0FBFC204638BD00BF309F0400D3
:106A7000026852F8181C38B544180D4B626A43502E
:106A800003F15C0503F19C01D8332563A164C4F8CC
:106A900024311AB1136810465B68984704F130003E
:106AA0000AF0FAF8204619F0D9FC204638BD00BF9C
:106AB000309F040010B50D4B0446406A236003F17B
:106AC0005C0103F19C02D8332163A264C4F8243131
:106AD00010B103685B68984704F130000AF0DCF8F5
:106AE000204619F0BBFC204610BD00BF309F0400BB
:106AF0002DE9F041456904460B462DBB027C8A42D4
:106B000029D00668414F7268BA426BD1D0F8502242
:106B100081180132B2F5007FA8BF2A4681F84C30B7
:106B2000C0F8502233693A4A93425ED1D4E9933097
:106B30008342C3BFC3F5FF730133C018C01A0328D3
:106B400027D00020BDE8F081012D0BD00368BDE8FF
:106B5000F041DB68184703685B699847656100206E
:106B6000BDE8F081027C8A4242D00268274D52681B
:106B7000AA4243D1D0F8502281180132B2F5007FE9
:106B800081F84C30AABF0023C0F85022C0F8503220
:106B9000D7E7D4F84C32E21892F84C20422A1ED1A2
:106BA0005A1CB2F5007F12DA224492F84C204C2A8B
:106BB00015D1B3F5FF7F03F1020221D194F84C30D7
:106BC000452B0CD102220023C4E90523B9E794F830
:106BD0004C304C2B03D194F84D30452BF2D001238F
:106BE0006361AEE7904726689CE720469847A6E792
:106BF00003685B69984700236361A2E79047A0E7B9
:106C0000224492F84C30452BDCD0E8E711630200B7
:106C1000556302002DE9F04F4669022E8DB00446FF
:106C20000D4600F0C980032E00F09080042E00F085
:106C30009B81052E00F03F81062E40F0B98003684D
:106C4000C34A1B69934240F05582D0E993039842AE
:106C5000C3BFC0F5FF700130C018181A666AB04291
:106C6000C0F26481237CAB4240F06081A36A9E4203
:106C7000A8BF1E46002E1CDD04F12B05DFF8E482C0
:106C8000AF1923681B68434540F0EE81D4F84C12DD
:106C90004A1C50422144C0F3080091F84C30C2F322
:106CA000080258BF4242C4F84C2205F8013FBD42D9
:106CB000E7D1D4E906A9BAF1020F276A04F12C083A
:106CC00000F07A82BAF1010F00F01E82A14906A8F5
:106CD00016F0F4FE0A22E16903A816F023FF03A9C7
:106CE00006A816F05BFF9C4916F084FF0A220546B1
:106CF000216A09A816F016FF09A9284616F04EFFCA
:106D00000146684616F0F4FE09A816F03FFF03A8F6
:106D100016F03CFF06A816F039FF009D8F49E06889
:106D200016F04CFA2946E06816F048FA217CE06833
:106D300016F096FA00236846636116F027FFD4F830
:106D40005032C4F84C320023636131E0037C8B4243
:106D5000036829D0824A5B68934240F04081D0F8B2
:106D60005032C2180133B3F5007FA8BF002382F868
:106D70004C10C0F85032202D1AD12368794A1B6874
:106D8000934240F02981D4F84C32234493F84C00CC
:106D9000D4F85022C4F84C22A0F130030021042082
:106DA000E3616061216203E05B69984700236361EE
:106DB00000200DB0BDE8F08F037C8B420368F3D058
:106DC000674A5B68934240F0FE80D0F85032C218A8
:106DD0000133B3F5007FA8BF002382F84C10C0F840
:106DE0005032202DE4D12368594D1B69AB4240F04D
:106DF0004381D4E993039842C3BFC0F5FF700130CB
:106E0000C018181A092821DDD4F84C32E21892F87B
:106E10004C20422A1AD15A1CB2F5007F80F2E3803E
:106E2000224492F84C204C2A10D1B3F5FF7F03F195
:106E3000020240F0DD8294F84C30452B06D194F8E4
:106E40004D304E2B08BF022300F09D8223681B6942
:106E5000AB4240F0BA80D4E993039842C3BFC0F577
:106E6000FF700130C018181A082821DDD4F84C3200
:106E7000E21892F84C20422A1AD15A1CB2F5007F2F
:106E800080F2FD80224492F84C204C2A10D1B3F5B8
:106E9000FF7F03F1020240F00F8394F84C30452B42
:106EA00006D194F84D30572B08BF022300F0DE8244
:106EB000012363617CE7037C8B4203683FF474AF7A
:106EC000274A5B68934240F01781D0F85032C218CD
:106ED0000133B3F5007FA8BF002382F84C10C0F83F
:106EE0005032202D7FF464AF23681E4A1B68934202
:106EF00040F00781D4F84C22531C59422244C1F37C
:106F00000801C3F3080358BF4B4292F84C00C4F881
:106F10004C32A0F13003313808286362C8D8D4F865
:106F20005032C4F84C320622626141E723680C4AB1
:106F30005B6893424CD1D4F85032E2180133B3F578
:106F4000007FA8BF002382F84C50C4F850322FE7CE
:106F500055630200249A0400409A0400449A0400F5
:106F6000116302002D630200037C8B4203683FF42F
:106F70001BAF8D4A5B68934233D1D0F85032C218B0
:106F80000133B3F5007FA8BF002382F84C10C0F88E
:106F90005032202D7FF40CAF2368844A1B68934243
:106FA00040F0AC80D4F84C32234493F84C00D4F831
:106FB0005022C4F84C22A0F13003002105202362A6
:106FC00060616162F4E698470BE7204698474BE71B
:106FD000294620469847EBE620469847D8E698474A
:106FE000C9E69847D5E794F84C304C2B7FF42EAF88
:106FF00094F84D30452B08BF02237FF427AFE218E9
:1070000092F84C204E2A7FF421AF0133B3F5007F74
:1070100040F0B98194F84C304F2B7FF417AF94F8BF
:107020004D30542B08BF02237FF410AFE21892F8C2
:107030004C20492A7FF40AAF0133B3F5007F40F0BA
:10704000B88194F84C30462B7FF400AF94F84D3063
:10705000592B08BF02237FF4F9AE234493F84C3038
:10706000202B00F0BA81F1E62046984705F8010F81
:10707000BD427FF406AE1CE620469847C2E694F86F
:107080004C304C2B7FF414AF94F84D30452B08BF97
:1070900002237FF40DAFE21892F84C20572A7FF4B8
:1070A00007AF0133B3F5007F40F0E08194F84C3036
:1070B000522B7FF4FDAE94F84D30492B08BF0223CC
:1070C0007FF4F6AEE21892F84C20542A7FF4F0AE2A
:1070D0005E1CB6F5007F40F0DD8194F84C30452B06
:1070E0007FF4E6AE94F84D30202B7FF4E1AE01231F
:1070F000A36174E19847B1E59847F2E620469847C6
:1071000055E72046984704E7294D286818B142689A
:10711000914500F0DE800023686818B1426891450F
:1071200000F08F80A86818B14268914500F0928005
:10713000E86818B14268914500F09580286918B157
:107140004268914500F09880686918B1426891459D
:1071500000F09B80A86918B14268914500F09E80BC
:10716000E86918B14268914500F0A180286A18B119
:107170004268914500F0A480686A10B14268914568
:107180000BD0002B3FF4A2AD0A49E06816F016F8C8
:10719000217CE06816F064F8D1E5056833466D6936
:1071A00042463946A847EFE7116302002D6302000B
:1071B000386700204C9A0400BE4D286818B1436817
:1071C000994500F08F800023686818B142689145A6
:1071D00000F09180A86818B14268914500F0948051
:1071E000E86818B14268914500F09780286918B1A5
:1071F0004268914500F09A80686918B142689145EB
:1072000000F09D80A86918B14268914500F0A08007
:10721000E86918B14268914500F0A380286A18B166
:107220004268914500F0A680686A0028A9D04268AB
:107230009145A6D105683346AD6942463946A8470F
:10724000A2E703684246D3F814A039463346D04734
:10725000012367E703684246D3F814A03946334652
:10726000D047012364E703684246D3F814A03946A7
:107270003346D047012361E703684246D3F814A0A0
:1072800039463346D04701235EE703684246D3F8C8
:1072900014A039463346D04701235BE703684246D2
:1072A000D3F814A039463346D047012358E7036882
:1072B0004246D3F814A039463346D047012355E758
:1072C00003684246D3F814A039463346D047012319
:1072D00052E703684246D3F814B039463346D847DC
:1072E000534619E703684246D3F818A03946334697
:1072F000D047012368E703684246D3F818A039460F
:107300003346D047012365E703684246D3F818A007
:1073100039463346D047012362E703684246D3F833
:1073200018A039463346D04701235FE70368424639
:10733000D3F818A039463346D04701235CE70368E9
:107340004246D3F818A039463346D047012359E7BF
:1073500003684246D3F818A039463346D047012384
:1073600056E703684246D3F818A039463346D0475B
:10737000012353E703684246D3F818A03946334641
:10738000D047012350E7E21892F84C204F2A7FF4AF
:107390005DAD0133B3F5007F41D194F84C30542BEF
:1073A0007FF454AD94F84D30492B08BF02237FF48D
:1073B0004DADE21892F84C20462A7FF447AD0133D8
:1073C000B3F5007F42D194F84C30592B7FF43EAD99
:1073D00094F84D30202B7FF439AD0223A361D4F80B
:1073E0005032C4F84C32032100226161E261DFE4D3
:1073F000224492F84C20452A7FF428AD0333B3F59C
:10740000007F7FF4FCAD94F84C304E2B7FF41EAD22
:1074100094F84D304F2B08BF02237FF417ADE218CC
:1074200092F84C20542A7FF411AD0133B3F5007F5C
:107430007FF4FCAD94F84C30492B7FF407AD94F801
:107440004D30462B08BF02237FF400ADE21892F8BE
:107450004C20592A7FF4FAAC0133B3F5007F7FF456
:10746000FCAD94F84C30202BB7D0EFE4E21892F842
:107470004C20522A7FF41CAD0133B3F5007F32D18A
:1074800094F84C30492B7FF413AD94F84D30542BC5
:107490007FF40EADA31993F84C30452B7FF408AD63
:1074A0000136B6F5007F33D194F84C30202B3FF4F1
:1074B0001EAEFDE438670020224492F84C20452A95
:1074C0007FF4F6AC0333B3F5007F7FF4E4AD94F8BA
:1074D0004C30572B7FF4ECAC94F84D30522B08BF56
:1074E00002237FF4E5ACE21892F84C20492A7FF49D
:1074F000DFAC0133B3F5007F7FF4E4AD94F84C309A
:10750000542B7FF4D5AC94F84D30452B7FF4D0ACA0
:10751000264496F84C30202B3FF4E9ADC8E400BF78
:1075200070B5D0F84C32C11890B091F84C20422A76
:1075300004461AD15A1CB2F5007F80F2258302441A
:1075400092F84C20412A10D1B3F5FF7F03F10202DB
:1075500040F0CA8590F84C20552A06D190F84D206D
:10756000442A08BF022200F07485D4F8585291F8DA
:107570004C204E2A48D15A1CB2F5007F80F2C283BB
:10758000224492F84C20412A40F0A180B3F5FF7FBD
:1075900003F1020240F0BC8394F84C204D2A40F0E5
:1075A00096800122224492F84C20452A40F08F8098
:1075B0001A1DB2F5007FA4BFA3F5FE73C3F3080242
:1075C000D4F85032934206D02244237C92F84C20C7
:1075D0009A4240F01B8540226946DF4808F0EEFBE6
:1075E00010AB0344DD49E068002503F8405C15F06A
:1075F000E5FD6946E06815F0E1FD217CE06815F0E5
:107600002FFED4F84C32E11891F84C20522A5ED16A
:107610005A1CB2F5007F80F28C83224492F84C20F1
:10762000462A40F0A981B3F5FF7F03F1020240F042
:10763000868394F84C20532A40F09E810122A018A2
:1076400090F84C00542840F097810132B2F5007F49
:1076500040F0868394F84C20412A40F08D8101222D
:10766000A01890F84C00542840F086810132B2F501
:10767000007F40F0868394F84C20452A40F07C81BE
:10768000DA1DB2F5007F04DB6FF4FC7C6344C3F3C6
:107690000802D4F85032B249934206D02244237CE7
:1076A00092F84C209A4240F0A984E068D4F86452E1
:1076B00015F084FDAB49E06815F080FD217CE068A1
:1076C00015F0CEFDD4F85032C4F84C32E11891F8E0
:1076D0004C20412A40F05081581CB0F5007F80F2C8
:1076E000C082221892F84C20442A7CD1B3F5FF7F47
:1076F00003F1020240F0BB8294F84C20562A72D16A
:107700000122A61896F84C60452E6CD10132B2F5D4
:10771000007F40F0BD8294F84C20522A63D10122B0
:10772000A61896F84C60542E5DD10132B2F5007F58
:1077300040F0BF8294F84C20492A54D10122A61867
:1077400096F84C60532E4ED10132B2F5007F40F0D6
:10775000C18294F84C20492A45D10122A61896F8F6
:107760004C604E2E3FD10132B2F5007F40F0C38213
:1077700094F84C20472A36D103F10B02B2F5007F72
:1077800004DB6FF4FA763344C3F30802D4F85032C2
:10779000934206D02244237C92F84C209A4240F037
:1077A0001D84714805F0BAFB704B714A6B49054660
:1077B000002D14BF1D461546E06815F0FFFC294654
:1077C000E06815F0FBFC217CE06815F049FD002520
:1077D000D4F85032C4F84C32E11891F84C20412AC8
:1077E00040F0CA80581CB0F5007F80F2E18220444E
:1077F00090F84C20442A40F02581B3F5FF7F03F137
:10780000020240F0DB8294F84C20562A40F01A81A4
:107810000122A01890F84C00452840F01381013255
:10782000B2F5007F40F0DB8294F84C20522A40F001
:1078300009810122A01890F84C00542840F00281E0
:107840000132B2F5007F40F0DB8294F84C205F2AD1
:1078500040F0F8800122A01890F84C00532840F026
:10786000F1800132B2F5007F40F0DB8294F84C20C9
:10787000452A40F0E7800122A01890F84C005228D9
:1078800040F0E0800132B2F5007F40F0DB8294F8F6
:107890004C20562A40F0D6800122A01890F84C00C7
:1078A000492840F0CF800132B2F5007F40F0DB8202
:1078B00094F84C20432A40F0C5800122A01890F88B
:1078C0004C00452840F0BE800132B2F5007F40F008
:1078D000DB8294F84C205F2A40F0B4800122A0188B
:1078E00090F84C00492840F0AD800132B2F5007F9D
:1078F00040F0DB8294F84C20442A40F0A38003F14E
:107900001102B2F5007F04DB6FF4F7752B44C3F36B
:107910000802D4F85032934206D02244237C92F8D5
:107920004C209A4240F04B83124B0C491B68E06894
:1079300030338DF8003015F041FC6946E06815F0F1
:107940003DFC217CE06815F08BFC0025D4F850321A
:10795000C4F84C32E1180FE0886B00204C9A040008
:10796000449A0400C89A0400C8710020509A040088
:10797000589A04002060002091F84C204C2A61D1D4
:107980005A1CB2F5007F80F24081224492F84C20CC
:10799000452A40F0CE80B3F5FF7F03F1020240F0AC
:1079A000398194F84C20442A40F0C3800122A01869
:1079B00090F84C004D2840F0BC800132B2F5007FB9
:1079C00040F0378194F84C204F2A40F0B2800122D9
:1079D000A01890F84C00442840F0AB800132B2F57A
:1079E000007F40F0378194F84C20452A40F0A18078
:1079F000DA1DB2F5007F04DB6FF4FC700344C3F3BF
:107A00000802D4F85032934206D02244237C92F8E4
:107A10004C209A4240F0CB82DD4BDE499D69E06804
:107A2000002D40F0B38215F0C9FBDB49E06815F08A
:107A3000C5FB217CE06815F013FCD4F85032C4F883
:107A40004C32E11891F84C20432A72D15A1CB2F5FD
:107A5000007F80F23182224492F84C204F2A40F07D
:107A60008780B3F5FF7F03F1020240F02B8294F888
:107A70004C204E2A7CD10122A11891F84C104E299D
:107A800076D10132B2F5007F40F02D8294F84C207F
:107A9000452A6DD10122A11891F84C10432967D1D4
:107AA0000132B2F5007F40F02F8294F84C20542A26
:107AB0005ED10122A11891F84C10452958D101320C
:107AC000B2F5007F40F0318294F84C20442A4FD127
:107AD00003F10902B2F5007F04DB6FF4FB710B4484
:107AE000C3F30802D4F85032934206D02244237CD8
:107AF00092F84C209A4240F09D82A84808F0EAF99A
:107B0000A74BA84AA3490546002D14BF1D4615469C
:107B1000E06815F053FB2946E06815F04FFB217C27
:107B2000E06815F09DFB0025D4F85032C4F84C32C3
:107B3000E11891F84C20562A1AD15A1CB2F5007F50
:107B400080F2FA81224492F84C20452A10D1B3F5F4
:107B5000FF7F03F1020240F03C8394F84C20522A4C
:107B600006D194F84D20532A08BF022200F0E98282
:107B7000D4F85832AB423BD01DB1D4F85032C4F8DF
:107B80004C32284610B070BD90F84C20412A7FF44A
:107B9000ECAC90F84D20552A08BF02227FF4E5ACEA
:107BA000A01890F84C0044287FF4DFAC0132B2F505
:107BB000007F40F04E8294F84C20522A7FF4D5ACDE
:107BC00094F84D20412A08BF02227FF4CEACA018C1
:107BD00090F84C0054287FF4C8AC0132B2F5007F15
:107BE00040F04D8294F84C20452A00F04E82BCE4CF
:107BF0006D49E06815F0E2FA6C49E06815F0DEFACC
:107C0000217CE06815F02CFBB6E794F84C20452A5F
:107C10008FD10122A01890F84C00442889D101325C
:107C2000B2F5007F7FF4C3AE94F84C204D2A80D18A
:107C30000122A01890F84C004F287FF47AAF01324F
:107C4000B2F5007F7FF4C4AE94F84C20442A7FF450
:107C500070AF0122224492F84C20452A3FF4C8AE6E
:107C600067E794F84C20442A7FF4BDAD0122A618A2
:107C700096F84C60562E7FF4B6AD0132B2F5007F17
:107C80007FF43FAD94F84C20452A7FF4ACAD01223F
:107C9000A61896F84C60522E7FF4A5AD0132B2F5CD
:107CA000007F7FF43DAD94F84C20542A7FF49BADC7
:107CB0000122A61896F84C60492E7FF494AD01324B
:107CC000B2F5007F7FF43BAD94F84C20532A7FF44B
:107CD0008AAD0122A61896F84C60492E7FF483AD38
:107CE0000132B2F5007F7FF439AD94F84C204E2A72
:107CF0007FF479AD0122224492F84C20472A3FF4C8
:107D00003BAD70E594F84C20412A7FF4E0AC0122B1
:107D1000A01890F84C004D287FF4D9AC0132B2F590
:107D2000007F7FF43FAC94F84C20452A3FF440ACF0
:107D3000CDE494F84C20462A7FF41EAE0122A01810
:107D400090F84C0053287FF417AE0132B2F5007F53
:107D50007FF475AC94F84C20542A7FF40DAE0122C8
:107D6000A01890F84C0041287FF406AE0132B2F51D
:107D7000007F7FF475AC94F84C20542A7FF4FCAD5E
:107D80000122224492F84C20452A3FF479ACF3E5D5
:107D90002C6B00204C9A040074A70400886B002010
:107DA000509A0400589A0400449A0400D49B04009A
:107DB00094F84C20442A7FF445AE0122A01890F894
:107DC0004C0056287FF43EAE0132B2F5007F7FF4BE
:107DD00020AD94F84C20452A7FF434AE0122A0183F
:107DE00090F84C0052287FF42DAE0132B2F5007F9E
:107DF0007FF420AD94F84C20542A7FF423AE012266
:107E0000A01890F84C005F287FF41CAE0132B2F548
:107E1000007F7FF420AD94F84C20532A7FF412AEFB
:107E20000122A01890F84C0045287FF40BAE0132D7
:107E3000B2F5007F7FF420AD94F84C20522A7FF4F5
:107E400001AE0122A01890F84C0056287FF4FAAD3C
:107E50000132B2F5007F7FF420AD94F84C20492A1E
:107E60007FF4F0AD0122A01890F84C0043287FF475
:107E7000E9AD0132B2F5007F7FF420AD94F84C20DB
:107E8000452A7FF4DFAD0122A01890F84C005F284E
:107E90007FF4D8AD0132B2F5007F7FF420AD94F8C5
:107EA0004C20492A7FF4CEAD0122224492F84C2086
:107EB000442A3FF424ADC5E594F84C204F2A7FF4C2
:107EC00057AE0122A11891F84C104E297FF450AE04
:107ED0000132B2F5007F7FF4CFAD94F84C204E2AEA
:107EE0007FF446AE0122A11891F84C1045297FF489
:107EF0003FAE0132B2F5007F7FF4CDAD94F84C2057
:107F0000432A7FF435AE0122A11891F84C10542970
:107F10007FF42EAE0132B2F5007F7FF4CBAD94F842
:107F20004C20452A7FF424AE0122224492F84C20B2
:107F3000442A3FF4CDAD1BE694F84C20452A7FF44B
:107F400017AE94F84D20522A08BF02227FF410AEDB
:107F5000A11891F84C1053297FF40AAE0132B2F502
:107F6000007F40F0EE8094F84C20492A7FF400AE68
:107F700094F84D204F2A08BF02227FF4F9AD224425
:107F800092F84C204E2A00F0F080F1E515F016F939
:107F9000A349E06815F012F9217CE06815F060F95A
:107FA000D4F85032C4F84C320025E1184AE59D4916
:107FB000E068D4F85C5215F001F99B4936E599491F
:107FC000E068D4F85C5215F0F9F89849E06815F0CB
:107FD000F5F8217CE06815F043F9B7E49149E068D1
:107FE000D4F85C5215F0EAF89149E06815F0E6F82B
:107FF000217CE06815F034F9FFF7EABBE068D4F8BB
:108000005C5215F0DBF88B49FFF755BB8549E068FA
:1080100015F0D4F88849E06815F0D0F8217CE068C4
:1080200015F01EF9D4F85032C4F84C32E11802258C
:10803000FFF7EABA7B49E068D4F85C5215F0BEF865
:108040007E49E06815F0BAF8217CE06815F008F97F
:108050006AE5A01890F84C0052287FF486AA0132F5
:10806000B2F5007F57D194F84C20412A7FF47DAAC5
:1080700094F84D20542A08BF02227FF476AA2244A5
:1080800092F84C20452A7FF470AA03F10802B2F559
:10809000007FA4BFA3F5FC73C3F30802D4F85032E9
:1080A0006049934219D02244237C92F84C209A4292
:1080B00013D0E068D4F85C5215F080F86049E068AD
:1080C00015F07CF8217CE06815F0CAF8D4F850323D
:1080D000C4F84C32E118FFF74ABAE068D4F86452A9
:1080E00015F06CF85749EAE7024492F84C20552AFB
:1080F0007FF43BAADA1CB2F5007F7FF451AD90F813
:108100004C20442A7FF431AA90F84D20522A08BF0F
:1081100002227FF42AAAA01890F84C0041287FF48C
:1081200024AA0132B2F5007F7FF451AD94F84C20BF
:10813000542A7FF41AAA94F84D20452A7FF415AAF0
:10814000A3E7A11891F84C1049297FF411AD013231
:10815000B2F5007F54D194F84C204F2A7FF408AD3B
:1081600094F84D204E2A7FF403ADDA1DB2F5007F5E
:1081700004DB6FF4FC721344C3F30802D4F85032EA
:10818000934218D02244237C92F84C209A4212D079
:108190002449E068D4F85C5215F010F82A49E068E8
:1081A00015F00CF8217CE06815F05AF8D4F850323C
:1081B000C4F84C32DCE42549E06814F0FFFF2449A0
:1081C000E06814F0FBFF217CE06815F049F8002519
:1081D000ECE7224492F84C20522A7FF4C9ACDA1C16
:1081E000B2F5007F7FF4B4AE94F84C20532A7FF4AC
:1081F000BFAC94F84D20492A08BF02227FF4B8ACE6
:10820000A11891F84C104F297FF4B2AC0132B2F5AD
:10821000007F7FF4B4AE94F84C204E2AA5D0A7E49A
:10822000F8A20400449A0400649B0400349B0400F8
:108230000C9B0400E89A0400A89A0400889B0400A0
:10824000849A0400609A0400B09B04004C9A0400D5
:108250008CA1040070B5D0F84C32067CC21886B0F0
:1082600092F84C20B2423AD001AC00215D1C04F8D7
:10827000012B6FF4FF72B5F5007F134401F101018A
:10828000ACBFC3F308032B46102900EB030223D035
:1082900092F84C20964203D0D0F85052AB42E5D130
:1082A000C0F84C3201ABC1F11102581800211EF088
:1082B00049F91E4804F014FF1C4804F009FE1C484C
:1082C00004F006FE1B4801A907F064FD1A4B1B7859
:1082D0004BB9002006B070BDC0F84C32E9E7D0F8C9
:1082E000600206B070BD0621104804F0DDFD0F48A5
:1082F00004F0C2FD114B196811B10C4804F078FD6F
:108300000B4804F08BFD0948012104F00BFEF42218
:108310000648202104F0FEFD04481E2104F0F8FD6B
:108320000021024804F06AFED3E700BFC8710020B4
:108330000C720020886B002060670020586B0020C2
:10834000F8B50368394F1B69D0F86062BB42044638
:108350003ED1D0E993508542C3BFC5F5FF720132CB
:108360008018401B002807DD621992F84C20202A53
:1083700004BF0135C4F84C52BB4226D1D4F8500298
:108380008542C3BFC5F5FF730133C018401B0128E8
:108390000DDD6B1CB3F5007F04DB6FF4FF73EB188E
:1083A000C3F30803254495F84C204F2A01D03046EA
:1083B000F8BD1C4494F84C304E2B0FD0462BF6D110
:1083C0001B4804F08DFE0026F1E720469847DEE7C3
:1083D00098472368D4F84C521B69C3E7154B1E78A5
:1083E000002EE4D00621124804F05EFD104804F08F
:1083F00043FD114B196811B10D4804F0F9FC0F4809
:1084000004F00CFD0A48012104F08CFDF422084818
:10841000202104F07FFD06481E2104F079FD044868
:10842000002104F0EBFD0026C1E700BF5563020008
:10843000C871002060670020586B00200C7200207B
:10844000036870B51A69284ED0F86052B2420446EB
:108450003DD1D0E993308342C3BFC3F5FF730133ED
:10846000C018C01A002809DDD4F84C32E11891F880
:108470004C10202904BF0133C4F84C32B2422AD137
:10848000D4E993308342C3BFC3F5FF730133C018EF
:10849000C01A002819DDD4F84C02044494F84C406A
:1084A000A4F13103082BA4F130041AD80F4B104E5D
:1084B00053F82400346088B103681B6998470D4A5B
:1084C000336810609C4208BF0025284670BD904765
:1084D00023681A69C6E720469047DAE7054628462A
:1084E00070BD4FF0FF33EDE75563020038670020A1
:1084F00020600020586B0020F8B50368384F1B69D6
:10850000D0F86062D0F84C52BB42044641D1D0F85A
:1085100050028542C3BFC5F5FF7201328018401B6F
:10852000002805DD621992F84C20202A08BF013589
:10853000B5F5007FA8BFC5F30805BB4226D1D4E935
:1085400093308342C3BFC3F5FF730133C018C01A11
:10855000002806DD2C4494F84C30302B03D0312B0E
:108560001BD03046F8BD1F4CFF210023206AC4E910
:10857000051318F00DFD6169606A18F009FD616965
:10858000A06A18F005FD00263046F8BD2046984741
:10859000DEE7984723681B69C2E7124C2568A36988
:1085A0009D4215D0FF21206A616118F0F1FC6169DC
:1085B000606A18F0EDFC6169A06A18F0E9FC2368B4
:1085C0009D4205D063689D4202D0A3689D42DAD1E6
:1085D0003223A561E36015F047FBE061D3E700BFFC
:1085E000556302002C6B002070B50546D0E993203E
:1085F000904232D01C4B0024A918013291F84C1043
:1086000003F8011BB2F5007F04F1010409DA82428C
:10861000F2D1C5F84C22154B1B783BB9D5F8700246
:1086200070BD08B10022E7E70246F2E7686858B17A
:1086300003680F4A1E69964211D153F80C3C0A494F
:108640001844224608F058F9A86820B10368064982
:108650001B6A22469847204670BD0024DBE7024A89
:1086600023460021B047EFE7306600206167002015
:1086700099630200F0B5036883B0DB6A04460E46D6
:10868000984700282DD018481849074614F096FD41
:1086900023682046DB6A98470A220146384614F0D0
:1086A0006BFE1349384614F089FD0CE023685B69C2
:1086B0009847C1B23846019114F0AEFD3368019974
:1086C0001B683046984723682046DB6A9847054672
:1086D0002046002DEAD1044814F0A2FD284603B03C
:1086E000F0BD4FF0FF35F9E708740020EC9B040063
:1086F0001C9C040070B5184C184E194D20460021E2
:1087000007F0BEFB2046042107F064F90022012196
:10871000204607F08FF90421204607F063FB11493A
:10872000204607F01DFB0B21304615F093FA0C2173
:10873000034630462B7215F08DFA0D210346304664
:108740006B7215F087FA0E2103463046AB7215F0B6
:1087500081FAE87270BD00BF886B0020646B002056
:10876000046000205D6B002010B4BA4A13786FF3E8
:108770004703137001784478A1F13003DBB2092B71
:1087800040F2BB80A1F14103052B40F2B480A1F17E
:108790006103052B00F2538157390901CBB2A4F1D3
:1087A0003001C9B2092900F2B0800B44DBB29371E9
:1087B0008178C478A1F13003DBB2092B40F2B68096
:1087C000A1F14103052B40F2AF80A1F16103052B1C
:1087D00000F2398157390901CBB2A4F13001C9B295
:1087E000092900F2AB800B44DBB253710179447963
:1087F000A1F13003DBB2092B40F2B080A1F14103BB
:10880000052B40F2A980A1F16103052B00F21F8125
:1088100057390901CBB2A4F13001C9B2092900F2DC
:10882000A5800B44DBB213718179C479A1F13003C7
:10883000DBB2092B40F2AA80A1F14103052B40F2E3
:10884000A380A1F16103052B00F2F78057390901DC
:10885000CBB2A4F13001C9B2092900F29F800B44C8
:10886000DBB2D370017A447AA1F13003DBB2092B79
:1088700040F2A480A1F14103052B40F29D80A1F1BB
:108880006103052B00F2E18057390901CBB2A4F155
:108890003001C9B2092900F299800B44DBB2817A18
:1088A0009370A1F13003DBB2092BC07A40F2BB8098
:1088B000A1F14103052B40F29A80A1F16103052B40
:1088C00000F2BF8057390901CBB2A0F13001C9B223
:1088D000092940F29680A0F14101052940F2A680C5
:1088E000A0F16101052902D857380344DBB2537067
:1088F0005DF8044B7047A1F137031B01DBB2A4F113
:108900003001C9B209297FF650AFA4F14101052910
:1089100040F28680A4F1610105293FF648AFA4F139
:1089200057010B44DBB242E7A1F137031B01DBB275
:10893000A4F13001C9B209297FF655AFA4F1410174
:1089400005296AD9A4F1610105293FF64EAFA4F1CA
:1089500057010B44DBB248E7A1F137031B01DBB23F
:10896000A4F13001C9B209297FF65BAFA4F141013E
:10897000052939D9A4F1610105293FF654AFA4F1C5
:1089800057010B44DBB24EE7A1F137031B01DBB209
:10899000A4F13001C9B209297FF661AFA4F1410108
:1089A000052934D9A4F1610105293FF65AAFA4F194
:1089B00057010B44DBB254E7A1F137031B01DBB2D3
:1089C000A4F13001C9B209297FF667AFA4F14101D2
:1089D00005291FD9A4F1610105293FF660AFA4F173
:1089E00057010B44DBB25AE7A4F1370119E7A1F1B3
:1089F0003703A0F13001C9B21B010929DBB23FF6F0
:108A00006AAF0B44DBB253705DF8044B7047A4F1BE
:108A1000370124E7A4F137013FE7A4F13701E2E68B
:108A2000A4F13701C1E61B01DBB24EE7373803443E
:108A3000DBB253705DF8044B70470023A8E70023B6
:108A40005DE7002341E7002372E70023B8E7002336
:108A500086E700BF5C6B002030B5774B1B7885B094
:108A60000446CBB90368754A1B69934240F0C08045
:108A7000D0E993308342C3BFC3F5FF730133C018FD
:108A8000C01A0B2810DCD4F86852D4F85032C4F85D
:108A90004C32284605B030BDD4F85032C4F84C32C0
:108AA0000025284605B030BDD4F84C1262184B1C86
:108AB00092F84C20092A12D922F0200041380528CA
:108AC0000DD9D4F86C52C4F84C326846FFF74CFE0E
:108AD000D4F85032C4F84C32284605B030BD234497
:108AE0008DF8002093F84C20092A01F1020378D870
:108AF00023448DF8012093F84C20092A01F1030347
:108B000004D922F0200041380528DAD823448DF812
:108B1000022093F84C20092A01F1040304D922F021
:108B2000200041380528CCD823448DF8032093F841
:108B30004C20092A01F1050304D922F02000413814
:108B40000528BED823448DF8042093F84C20092A28
:108B500001F1060304D922F0200041380528B0D8DD
:108B600023448DF8052093F84C20092A01F10703CE
:108B700004D922F0200041380528A2D823448DF8DA
:108B8000062093F84C20092A01F1080332D8234427
:108B90008DF8072093F84C20092A01F1090330D8F9
:108BA00023448DF8082093F84C20092A01F10A0388
:108BB0002ED823448DF8092093F84C20092A01F17E
:108BC0000B032CD823448DF80A2093F84C20092A53
:108BD00001F10C032AD88DF80B20C4F84C32002583
:108BE00073E722F02000413805283FF66AAF7FE79F
:108BF000984746E722F02000413805283FF661AF4C
:108C0000C5E722F02000413805283FF65AAFC7E7F4
:108C100022F02000413805283FF653AFC9E722F083
:108C20002000413805283FF64CAFCBE722F0200169
:108C300041390529CFD944E7606700205563020018
:108C4000F8B5454E3368834285BF00233360C31AAD
:108C50000346642B04463DD9404B1B78002B3AD089
:108C60003F4DAB69002B26DDAF68BB424AD12A6875
:108C70001F46EB699C423CBF0023EB61974205D045
:108C8000AA68974202D06A68974222D1EA681344E0
:108C90009C421ED9D5E904311944FE29EC6154DC0B
:108CA0007F29DDBF08237F21C5E90431696138468A
:108CB00018F06EF9AB6963B9FF21286A696118F091
:108CC00067F96969686A18F063F96969A86A18F050
:108CD0005FF93460F8BD234B214D1B783BB9AB697C
:108CE000002BE8DD2F68BB420CD13A46C1E71E4895
:108CF00004F014F90028F2D0AB69002BDBDD6F68BB
:108D0000BB42B4D0FF21286A696118F041F9696952
:108D1000686A18F03DF96969A86A18F039F92B6892
:108D20009F420BD06B689F4208D0AB689F4205D032
:108D3000AB69002BBFDD2A681F469AE73223AF617B
:108D4000EB6014F091FFE861F2E76FF00703FF2199
:108D5000C5E90431ABE700BF34670020616700203C
:108D60002C6B002060670020C871002038B50446D5
:108D70000D4B806C23603833E36410B103685B688B
:108D80009847606C10B103685B689847256C45B1E3
:108D90002846064B40F8083B06F036FB284617F0FD
:108DA0005DFB204638BD00BFC8A00400E4A104005C
:108DB00038B503680F4953F80C2C841801F13805B5
:108DC000A36C8150E5641BB11A6818465368984734
:108DD000606C10B103685B689847256C45B1284604
:108DE000054B40F8083B06F00FFB284617F036FB12
:108DF000204638BDC8A00400E4A1040010B5044B0F
:108E0000044640F8083B06F0FFFA204610BD00BFBC
:108E1000E4A104002DE9F04FA74BA849DFF8F0B218
:108E2000DFF8F092A64DA74EA74FDFF8EC82DFF8EF
:108E3000ECA2A64C87B0184614F040FE9E4BA44905
:108E400018465A461DF0B6FA484607F0EBF95A465E
:108E5000A04948461DF0AEFA284607F07DFA5A466A
:108E60009D4928461DF0A6FA06F130004FF48071A6
:108E700007F0C8FE97E80F00351D85E80F0007F1E1
:108E800010030FCB954D356006F1140E8EE80F00E0
:108E900005F15C0C4FF0010905F19C0305F1D802C6
:108EA00000257146C6F830C0C6E94925B364C6E955
:108EB0000A9502A806F0C8FA582017F0CDFA02A9C0
:108EC0001822019004F042FD019B736202A806F093
:108ED0009BFA5A46824930461DF06CFA08F10C00A4
:108EE0004FF4807107F08EFE7E4AC8F8002002F130
:108EF0005801C8F80C1002F19801D432C8E9019564
:108F0000C8F80451C8F82410C8F8002176495A4618
:108F100040461DF04FFA0AF10C0007F06BF8734A57
:108F2000CAF8002002F12C005832CAE90195CAF8AB
:108F30008050CAF80C00CAF87C206D495A46504649
:108F40001DF038FA6B496C4ADFF8D4C1216001F199
:108F50003800E06441F22350208262606261626204
:108F60004FF00208654AC4F808C041F2245141F2AA
:108F70002550C4F818C0C4F828C0E260E261E2627B
:108F8000C4E90E592565658265846586218420863D
:108F9000211DC4F8348002A806F056FA182017F0F4
:108FA0005BFA02A9824606F005FAC4F840A002A8BE
:108FB00006F02AFA04F1140102A806F045FA582036
:108FC00017F04AFA02A9824604F08AFCC4F844A0C9
:108FD00002A806F019FA04F1240102A806F034FAF6
:108FE000582017F039FA02A9824604F079FCC4F837
:108FF00048A002A806F008FA20375A464049DFF890
:1090000024A120463F4C1DF0D5F997E807003E4BC0
:10901000A360DFF814E13D4B6660C4E99598C4E9AC
:109020000555C4E90755C4E993556562C4F800A025
:109030000425C4F80CE04FF00D0B4FF0070E4FF075
:10904000200C03274FF005084FF0060A6326C4F8EA
:109050006CE2C4F8605284F810B003F12005C4F843
:1090600028C0C4F85C724FF00E0CC4F86482C4F8D7
:1090700068A2C4F870620F270C244FF0320B6FF017
:1090800007084FF0FF0AC3E9027BC3E9048AC3F86B
:1090900000C05C609C6185E80700494618F000F854
:1090A0006868494617F0FCFFA868494617F0F8FFC2
:1090B00007B0BDE8F08F00BF646B0020309C040057
:1090C000E06A00206C6800201CA104001C6A0020DB
:1090D0008DDB030035CD0200FD8D0200309F0400C2
:1090E000E9670200209E0400E566020040A004003B
:1090F0005DCC0200C8A0040023D1BCEADEEF12124E
:109100006D8D0200BC630020706700202C6B002076
:1091100000600020706A00206467002098690020C9
:109120005F78231574A104002C93002038B50368E0
:10913000114953F80C2C841801F13805A36C8150A7
:10914000E5641BB11A68184653689847606C10B103
:1091500003685B689847256C45B12846074B40F883
:10916000083B06F051F9284617F078F9204617F029
:1091700075F9204638BD00BFC8A00400E4A1040072
:1091800038B504460E4B806C23603833E36410B16D
:1091900003685B689847606C10B103685B68984728
:1091A000256C45B12846074B40F8083B06F02CF9E2
:1091B000284617F053F9204617F050F9204638BDDD
:1091C000C8A00400E4A10400026852F8103C2DE994
:1091D000F047034484B0596052F80C5C0446011D0A
:1091E0000544684606F030F96946284606F0F8F866
:1091F000684606F009F9236876499D68626A8D42DF
:1092000040F0E38053F80C3C9168234417461963FF
:10921000D2E90310C3E90D10107DD18AD98783F8F4
:109220003C00D2E90601156A9D64C3E910011646A7
:10923000154657F8261F36F82F8F55F8320FB2F81B
:1092400024E0D7F804C092F82E90A3F84CE096F8EA
:1092500002E0C3F84E106968C3F852C002F13C0C3A
:1092600083F85690A3F8578083F859E0C3F85A0062
:10927000C3F85E109CE8030003F1640E8EE803005F
:1092800092F8441083F86C10D2E91280D2E914E10C
:10929000C3E91C80D967C3F878E09168C3F88810E7
:1092A000D2E90310C3E92310107DD18AA3F89610E8
:1092B00083F89400D2E9060E116AC3F8A010C3E93E
:1092C000260E918CA3F8A4103968D7F8049092F870
:1092D0002E80B6F800E096F802A02F686E68C3F8FA
:1092E000A6109CE8030003F1BC05C3F8AA9083F81C
:1092F000AE80A3F8AFE083F8B1A0C3F8B270C3F8B2
:10930000B66085E8030092F8441083F8C410D2E9EF
:109310001250D2E91412C3E93250C3F8D420C3F872
:10932000D010182017F098F800220121054617F0F8
:1093300097FC236853F80C3C23442846B3F8DC1010
:10934000C3F8D85017F09EFC236853F80C0C204447
:1093500006F014F8B0BB01211F4806F0DDFD2368BC
:10936000054653F80C0C204428301C2104F034FB33
:10937000236853F80C0C112220441146283004F0C5
:1093800043FB236853F80C3C234403F1280029468F
:1093900004F026FB2368114953F80C0C20442830B4
:1093A000012204F037FB23680D4953F80C0C2044CC
:1093B000283004F04BFB236853F80C0C2044283071
:1093C00003F0AAFF04B0BDE8F08711462046A84785
:1093D000A7E700BF05690200886B0020B104030005
:1093E000449C040003682DE9F04F53F8146C825933
:1093F00052F8103C85192B4485B0596052F80C7C0A
:109400000446291D2F44684606F01EF86946384672
:1094100005F0E6FF684605F0F7FFA15976488B682E
:109420006A6A834256D0114628469847182017F09A
:1094300013F800220121074617F012FCA35953F834
:109440000C3C2B443846B3F8DC10C3F8D87017F046
:1094500019FCA35953F80C0C284405F08FFFB0BB3E
:109460000121664806F058FDA359074653F80C0C35
:10947000284428301C2104F0AFFAA35953F80C0CEF
:10948000112228441146283004F0BEFAA35953F89B
:109490000C3C2B4403F12800394604F0A1FAA359EF
:1094A000574953F80C0C28442830012204F0B2FA32
:1094B000A359544953F80C0C2844283004F0C6FA38
:1094C000A35953F80C0C2844283003F025FF05B0AD
:1094D000BDE8F08F51F80C3C91682B449646196317
:1094E000D2E90310C3E90D10107DD18AD98783F822
:1094F0003C00D2E90601176A9F64C3E91001944653
:1095000017465EF8261F3CF82FAF57F8320FB2F817
:109510002490DEF8048092F82EB0A3F84C909CF8CA
:109520000290C3F84E107968C3F8528002F13C08EB
:1095300083F856B0A3F857A083F85990C3F85A009F
:10954000C3F85E1098E8030003F1640989E803009A
:1095500092F8441083F86C10D2E912A0D2E9149169
:10956000C3E91CA0D967C3F878909168C3F8881044
:10957000D2E90310C3E92310107DD18AA3F8961015
:1095800083F89400D2E90609116AC3F8A010C3E970
:109590002609918CA3F8A410DEF80010DEF804A0D0
:1095A00092F82E90BCF800E09CF802B0D7F800C00A
:1095B0007F68C3F8A61098E8030003F1BC08C3F85D
:1095C000AAA083F8AE90A3F8AFE083F8B1B0C3F8D7
:1095D000B2C0C3F8B67088E8030092F8441083F86C
:1095E000C410D2E91270D2E91412C3E93270C3F880
:1095F000D420C3F8D01019E705690200886B002059
:10960000B1040300449C04002DE9F04F4E4B4F4938
:109610004F48DFF87481DFF874B189B001241C7001
:1096200006F0B0FB4B494A4806F0B4FB4A494848AB
:1096300004F0C8FF4949464804F0C6FF484806F010
:1096400017FE484948480C2206F082FE4749464822
:109650001A2206F079FE444806F0B4FE03E00A2C14
:1096600000F09D8101341BF8012B002AF7D0A31EC6
:10967000032BF4D8DFE803F08C574602D8F800300B
:10968000D8F8400053F80C3C0268434404255D6060
:1096900093689847D8F84400132104F09DF91122EB
:1096A0001146D8F8440004F0AFF92946D8F8440030
:1096B00004F098F9D8F8440003689B6898472C494F
:1096C000D8F8440004F026FAD8F84800132104F032
:1096D00083F911221146D8F8480004F095F929467B
:1096E000D8F8480004F07EF9D8F8480003689B6871
:1096F00098472049D8F8480004F00CFA1E4B1F4A3E
:109700001A61AFE71E4D2A6852F8103C2B44032122
:10971000596052F80C0C284406F090FC164B05F1E9
:109720007C02DA609EE7174D2A6852F8103C2B4401
:109730000221596052F80C0C284407F0F1FA0E4B44
:1097400005F580759D608DE7606700205C6B0020EB
:10975000886B00200460002069640200DD64020060
:10976000706A00205CA10400E06A00208CA1040063
:10977000030201000605040038670020686A002023
:1097800098690020646700201C6A00201460002093
:109790009F4D2A6852F8103C2B440121596052F821
:1097A0000C6C291D2E4404A805F04EFE04A9304679
:1097B00005F016FE04A805F027FE2B686A6A53F828
:1097C0000C3C91682B4492461963D2E90310C3E91B
:1097D0000D10107DD18AD98783F83C00D2E906614B
:1097E000106A9864C3E9106111465AF8266F31F87F
:1097F0002F0F00919146918C59F832CFDAF804700E
:1098000092F82EE0A3F84C1000998978C3F84E60C6
:10981000C3F8527002F13C0683F856E0A3F85700F3
:1098200083F85910D9F80410C3F85E1096E80300C5
:1098300003F1640EC3F85AC08EE8030092F8441096
:1098400083F86C10D2E912C0D2E91417C3E91CC026
:10985000DF6799679168C3F88810D2E90310C3E9FC
:109860002310107DD18AA3F8961083F89400D2E9D2
:1098700007019769C3E92670C3F8A01092F82E700B
:109880000297009FB2F824C0B7F800E0BF780097B5
:1098900096E80300D9F80470DAF80060039701969F
:1098A000029FDAF804A0019EA3F8A4C0D9F800C072
:1098B00083F8AE70009FC3F8A66083F8B17003F11F
:1098C000BC06039FA3F8AFE0C3F8B2C0C3F8AAA0D8
:1098D000C3F8B67086E8030092F8441083F8C41009
:1098E000D2E91276D2E914121820C3E93276C3F80D
:1098F000D420C3F8D01016F0AFFD01210022064697
:1099000017F0AEF92B6853F80C3C2B443046B3F8F3
:10991000DC10C3F8D86017F0B5F92B6853F80C0CBD
:10992000284405F02BFDB0BB01213A4806F0F4FABB
:109930002B68064653F80C0C284428301C2104F0F0
:109940004BF82B6853F80C0C112228441146283090
:1099500004F05AF82B6853F80C3C2B4403F1280010
:10996000314604F03DF82B682B4953F80C0C284481
:109970000122283004F04EF82B68284953F80C0CCB
:109980002844283004F062F82B6853F80C0C284463
:10999000283003F0C1FC224B224A5A6062E6224B77
:1099A0001B685A1E082A08D81D4A52F8230020B105
:1099B00003681B6998471D4B18601D4B1B7813B932
:1099C00009B0BDE8F08F06211A4803F06DFA194876
:1099D00003F052FA154B196811B1164803F008FA52
:1099E000154803F01BFA1348012103F09BFAF422F7
:1099F0001048202103F08EFA0E481E2103F088FA49
:109A000000210C4803F0FAFA09B0BDE8F08F00BF5E
:109A10006C680020886B0020B1040300449C0400A3
:109A2000386700209069002020600020586B0020DB
:109A300060670020C87100200C7200202DE9F04101
:109A4000D0F84C32C118044691F84C20422A1AD161
:109A50005A1CB2F5007F80F2CF82024492F84C206B
:109A6000452A10D1B3F5FF7F03F1020240F0CD8506
:109A700090F84C20472A06D190F84D20492A08BF7B
:109A8000022200F0E085D4F8586291F84C20422A76
:109A900060D15A1CB2F5007F80F27D83224492F897
:109AA0004C20412A40F09480B3F5FF7F03F102027D
:109AB00040F0778394F84C20552A40F089800122A9
:109AC000A01890F84C00442840F082800132B2F592
:109AD000007F40F0778394F84C20522A78D10122FD
:109AE000A01890F84C00412872D10132B2F5007FE5
:109AF00040F0798394F84C20542A69D10122A018AF
:109B000090F84C00452863D10132B2F5007F40F057
:109B10007B8394F84C203D2A5AD109335A42C2F330
:109B20000802C3F3080358BF5342C4F84C32D84963
:109B3000E068D4F8646213F041FBD649E06813F0A2
:109B40003DFB217CE06813F08BFBD4F85032C4F865
:109B50004C32E11891F84C204D2A39D15A1CB2F5FB
:109B6000007F80F25883224492F84C20412A7FD112
:109B7000B3F5FF7F03F1020240F0538394F84C20C9
:109B8000432A75D10122224492F84C203D2A6FD1FC
:109B90000433C1495A42C2F308020978C3F30803E7
:109BA00058BF5342C4F84C32002900F01384B8491E
:109BB000E06813F003FBB949E06813F0FFFA217C79
:109BC000E06813F04DFBD4F85032C4F84C32E11881
:109BD00091F84C204E2A4BD15A1CB2F5007F80F2EE
:109BE0003183224492F84C20412A40F09A80B3F508
:109BF000FF7F03F1020240F02B8394F84C204D2AA2
:109C000040F08F800122A01890F84C00452840F0C9
:109C100088800132B2F5007F40F02B8394F84C200D
:109C20003D2A7ED105335A42C2F30802C3F308032A
:109C300058BF5342C4F84C322046FEF70BFB9849FC
:109C40000646E06813F0BAFA217CE06813F008FBDE
:109C5000052014F015F81825E06810B1217C13F0E8
:109C6000DBFA013DF8D1D4F85032C4F84C32E11897
:109C700091F84C20522A54D15A1CB2F5007F80F240
:109C80000383224492F84C20462A69D1B3F5FF7F22
:109C900003F1020240F0FE8294F84C20532A5FD177
:109CA0000122A11891F84C10542959D10132B2F572
:109CB000007F40F0008394F84C20412A50D10122CB
:109CC000A11891F84C1054294AD10132B2F5007F05
:109CD00040F0028394F84C20452A41D101222244CD
:109CE00092F84C203D2A3BD108335A42C2F3080275
:109CF000C3F3080358BF5342C4F84C326449E068C8
:109D0000D4F8646213F05AFA6649E06813F056FA20
:109D1000217CE06813F0A4FAD4F85032C4F84C3235
:109D2000E11891F84C20412A1AD15A1CB2F5007F53
:109D300080F2E382224492F84C20442A10D1B3F5F9
:109D4000FF7F03F1020240F0138494F84C20562A5E
:109D500006D194F84D20452A08BF022200F0CB839B
:109D600051491A4601F11207A51811F8010B95F88F
:109D70004C50854202F1010228D1B2F5007FA8BF04
:109D80000022B942F0D112335A42C2F30802C3F39F
:109D9000080358BF5342C4F84C322046FEF750FB2C
:109DA0000646002800F050833949E068D4F8606224
:109DB00013F004FA3D49E06813F000FA217CE068F2
:109DC00013F04EFAD4F85032C4F84C32E11891F83E
:109DD0004C20452A40F0E6805A1CB2F5007F80F204
:109DE0005B81224492F84C204E2A40F0F980B3F572
:109DF000FF7F03F1020240F0548194F84C20412A85
:109E000040F0EE800122A11891F84C10422940F058
:109E1000E7800132B2F5007F40F0528194F84C2087
:109E20004C2A40F0DD800122A11891F84C10452900
:109E300040F0D6800132B2F5007F40F0508194F8B6
:109E40004C205F2A40F0CC800122A11891F84C10E0
:109E5000532940F0C5800132B2F5007F40F05081B7
:109E600094F84C20452A40F0BB800122A11891F8BB
:109E70004C10522940F0B4800132B2F5007F40F01E
:109E8000508194F84C20562A40F0AA8001220FE01D
:109E9000449A04004C9C040060670020709C0400FD
:109EA0004C9A0400389D0400709D0400849D0400B9
:109EB000A11891F84C10492940F092800132B2F576
:109EC000007F40F03F8194F84C20432A40F0888086
:109ED0000122A11891F84C10452940F081800132EF
:109EE000B2F5007F40F03F8194F84C205F2A77D193
:109EF0000122A11891F84C10492971D10132B2F513
:109F0000007F40F0418194F84C20442A68D12268B7
:109F1000DB4D116811335A42C2F30802C3F3080340
:109F200058BF5342A942C4F84C3240F0C1825A1C77
:109F300051422344C1F30801C2F3080258BF4A4208
:109F400093F84C70C4F84C22A7F130085FFA88F3FC
:109F5000092B16D823681B68AB4240F0AD82D4F8B9
:109F60004C22531C59422244C1F30801C3F3080395
:109F700058BF4B4292F84C00C4F84C323D2800F0D8
:109F80006582002E40F08582BE49E06813F016F924
:109F9000217CE06813F064F90026D4F85032C4F84C
:109FA0004C32E11891F84C204C2A19D15A1CB2F5C8
:109FB000007F43DA224492F84C20452A10D1B3F5B1
:109FC000FF7F03F1020240F0858394F84C20442A7D
:109FD00006D194F84D204D2A08BF022200F0C88314
:109FE000D4F85832B34200F01C82D4F85032C4F88E
:109FF0004C323046BDE8F08190F84C20452A7FF481
:10A0000042AD90F84D20472A08BF02227FF43BADB5
:10A01000A01890F84C0049287FF435AD0132B2F514
:10A02000007F40F0108394F84C204E2A7FF42BAD33
:10A0300094F84D203D2A7FF426AD13E394F84C208C
:10A04000452ACDD194F84D20442A08BF0222C7D119
:10A05000A11891F84C104D29C2D10132B2F5007F00
:10A0600040F0868394F84C204F2AB9D194F84D20C3
:10A07000442A08BF0222B3D1A11891F84C104529F7
:10A08000AED10132B2F5007F40F0888394F84C20C5
:10A090003D2A00F04B83A3E794F84C204E2A9FD131
:10A0A0000122A11891F84C10412999D10132B2F541
:10A0B000007F7FF4A8AE94F84C20422A90D1012270
:10A0C000A11891F84C104C298AD10132B2F5007FC9
:10A0D0007FF4AAAE94F84C20452A81D10122A11820
:10A0E00091F84C105F297FF47BAF0132B2F5007F0D
:10A0F0007FF4ABAE94F84C20532A7FF471AF012269
:10A10000A11891F84C1045297FF46AAF0132B2F5DD
:10A11000007F7FF4ABAE94F84C20522A7FF460AFFE
:10A120000122A11891F84C1056297FF459AF013241
:10A13000B2F5007F7FF4BCAE94F84C20492A7FF43E
:10A140004FAF0122A11891F84C1043297FF448AF7A
:10A150000132B2F5007F7FF4BCAE94F84C20452A62
:10A160007FF43EAF0122A11891F84C105F297FF4D3
:10A1700037AF0132B2F5007F7FF4BBAE94F84C20CC
:10A18000492A7FF42DAF0122224492F84C20442A20
:10A190003FF4BDAE24E794F84C20412A7FF418AD7B
:10A1A0000122A01890F84C0055287FF411AD01321F
:10A1B000B2F5007F7FF484AC94F84C20442A7FF4FD
:10A1C00007AD0122A01890F84C0052287FF400AD92
:10A1D0000132B2F5007F7FF483AC94F84C20412A21
:10A1E0007FF4F6AC0122A01890F84C0054287FF4BC
:10A1F000EFAC0132B2F5007F7FF481AC94F84C20D3
:10A20000452A7FF4E5AC0122224492F84C203D2AF5
:10A210003FF483ACDCE494F84C20412A7FF428AD71
:10A220000122A01890F84C0043287FF421AD0132A0
:10A23000B2F5007F7FF4A7AC94F84C203D2A3FF4A0
:10A24000A7AC15E594F84C20412A7FF46AAD0122B1
:10A25000A01890F84C004D287FF463AD0132B2F5A0
:10A26000007F7FF4D0AC94F84C20452A7FF459ADA0
:10A270000122224492F84C203D2A3FF4D3AC50E511
:10A280002D6302004C9A040094F84C20462A7FF477
:10A2900067AD0122A11891F84C1053297FF460ADED
:10A2A0000132B2F5007F7FF4FCAC94F84C20542AC4
:10A2B0007FF456AD0122A11891F84C1041297FF48A
:10A2C0004FAD0132B2F5007F7FF4FAAC94F84C2028
:10A2D000542A7FF445AD0122A11891F84C1045296C
:10A2E0007FF43EAD0132B2F5007F7FF4F8AC94F814
:10A2F0004C203D2A3FF4F8AC32E594F84C20442A37
:10A300007FF42EAD94F84D20562A08BF02227FF428
:10A3100027ADA11891F84C1045297FF421AD0132E9
:10A32000B2F5007F40F0E78094F84C20522A7FF489
:10A3300017AD94F84D20542A08BF02227FF410ADC7
:10A34000A11891F84C1049297FF40AAD0132B2F5F9
:10A35000007F40F0E68094F84C20532A7FF400AD53
:10A3600094F84D20492A08BF02227FF4F9ACA118C5
:10A3700091F84C104E297FF4F3AC0132B2F5007F16
:10A3800040F0E58094F84C20472A7FF4E9AC94F83B
:10A390004D203D2A7FF4E4AC0C335A42C2F308024C
:10A3A000C3F3080358BF5342C4F84C322046FDF7AC
:10A3B000C7FF0646002840F09880BD49E06812F0CB
:10A3C000FDFE217CE06812F04BFFD4F85032C4F857
:10A3D0004C32C5E42046FEF73FFB0646002856D027
:10A3E000D4F8683283426ED0D4F86C32B149E06858
:10A3F000B34264D012F0E2FEAF49E06812F0DEFE34
:10A40000217CE06812F02CFF052013F039FC1825A0
:10A41000E06810B1217C12F0FFFE013DF8D1FFF79A
:10A42000D2BBA449E06812F0C9FEA449E06812F06A
:10A43000C5FE217CE06812F013FFD4F85032C4F856
:10A440004C323046BDE8F0819949B4E423681B687A
:10A45000AB4247D1D4F84C22531C59422244C1F399
:10A460000801C3F3080358BF4B4292F84C00C4F8EC
:10A470004C3254282DD046287FF483AD313F082F2D
:10A480003FF682AD8E4B002203F808207CE5884918
:10A49000B3E78849E068D4F8606212F08FFE89491A
:10A4A000E06812F08BFE217CE06812F0D9FE74E5C2
:10A4B00020468847074647E5204698475EE512F064
:10A4C0007DFE814999E77B49E06812F077FE7F497C
:10A4D00093E7313F082F3FF654AD794B012203F843
:10A4E000082051E520469847C3E77249E06812F01A
:10A4F00065FE774962E7A11891F84C1052297FF464
:10A500002FAC0132B2F5007F49D194F84C20542A87
:10A510007FF426AC94F84D20492A08BF02227FF42C
:10A520001FACA11891F84C1053297FF419AC0132DB
:10A53000B2F5007F4AD194F84C20492A7FF410AC40
:10A5400094F84D204E2A08BF02227FF409ACA118CE
:10A5500091F84C1047297FF403AC0132B2F5007F2B
:10A560004BD194F84C203D2A3FF416AFFFF7F8BBCF
:10A57000224492F84C20562A7FF4F2ABDA1CB2F552
:10A58000007F7FF4C6AE94F84C20452A7FF4E8ABF8
:10A5900094F84D20522A08BF02227FF4E1ABA118A3
:10A5A00091F84C1054297FF4DBAB0132B2F5007FF7
:10A5B0007FF4C6AE94F84C20492A7FF4D1AB94F8CE
:10A5C0004D20532A08BF02227FF4CAABA11891F88C
:10A5D0004C1049297FF4C4AB0132B2F5007F7FF4FF
:10A5E000C6AE94F84C204E2A7FF4BAAB94F84D20B6
:10A5F000472A08BF02227FF4B3AB224492F84C20D2
:10A600003D2A3FF4C9AEFFF7ABBB024492F84C20A1
:10A61000472A7FF438AADA1CB2F5007F7FF4F8AC41
:10A6200090F84C20492A7FF42EAA90F84D204E2A0B
:10A6300008BF02227FF427AA224492F84C203D2A28
:10A6400010D0FFF720BAA01890F84C004E287FF4E5
:10A650001AAA0132B2F5007FEED194F84C203D2ABF
:10A660007FF411AA06335A42C2F30802C3F3080367
:10A6700058BF5342E218C4F84C3292F84C003028CC
:10A6800002D03038FEF7C0FFD4F85032C4F84C3254
:10A690000749E06812F092FD217CE06812F0E0FDCD
:10A6A000D4F85032C4F84C32E1180026FFF7EDB967
:10A6B0004C9A0400449A0400149D0400D89D0400A0
:10A6C00014600020A49D0400E09C0400AC9C0400E5
:10A6D000589D0400224492F84C20442A7FF480AC18
:10A6E000DA1CB2F5007F7FF4B3AC94F84C204D2A0D
:10A6F0007FF476AC94F84D204F2A08BF02227FF4F5
:10A700006FACA11891F84C1044297FF469AC013268
:10A71000B2F5007F7FF4B0AC94F84C20452A7FF46A
:10A720005FAC94F84D203D2A7FF45AAC08335A426E
:10A73000C2F30802C3F3080358BF5342C4F84C32B3
:10A740002046FDF7D9FE064660B91749E06812F0C9
:10A7500035FD217CE06812F083FDD4F85032C4F856
:10A760004C323DE41149E06812F028FD1049EDE754
:10A77000A11891F84C104F297FF432AC0132B2F598
:10A78000007FBED194F84C20442A7FF429AC94F881
:10A790004D20452A08BF02227FF422AC224492F8C1
:10A7A0004C203D2AC2D01BE44C9A0400449A040079
:10A7B000C49D04000368CD4A1B69934270B5D0F86C
:10A7C0005452044640F08E81D0E99336B342C3BF61
:10A7D000C3F5FF730133F618F61A042E40F3D28046
:10A7E000D4F84C32E21892F84C1053294DD1591C30
:10A7F000B1F5007F80F21781621892F84C20452A4B
:10A8000019D1B3F5FF7F03F1020240F0128194F8F1
:10A810004C204E2A0FD10122A01890F84C00442859
:10A8200009D10132B2F5007F40F0148194F84C2038
:10A83000202A00F01581B1F5007F80F2DD802144EF
:10A8400091F84C20452A3BD1B3F5FF7F03F102027A
:10A8500040F0D88094F84C20542A31D1012222446F
:10A8600092F84C20202A2BD11A1D5342C3F308031F
:10A87000C2F3080258BF5A42C4F84C222046FFF7E0
:10A88000DDF8D4F84C320025E21892F84C20472A23
:10A8900016D15A1CB2F5007F80F29C80224492F8B7
:10A8A0004C20452A0CD1B3F5FF7F03F1020275D18C
:10A8B00094F84C20542A03D194F84D20202A7AD0C1
:10A8C000062E61DDD4F84C32E21892F84C20562A5C
:10A8D0005AD15A1CB2F5007F80F2DA80224492F8F5
:10A8E0004C20452A50D1B3F5FF7F03F1020240F01E
:10A8F000078194F84C20522A46D194F84D20532ACF
:10A9000008BF022240D1A11891F84C1049293BD12F
:10A910000132B2F5007F40F0098194F84C204F2AB3
:10A9200032D194F84D204E2A2ED107335A42C2F329
:10A930000802C3F3080358BF5342C4F84C326C49B1
:10A94000E06812F03BFC6B49E06812F037FC217CB8
:10A95000E06812F085FCD4F854320025AB4217D1E0
:10A960006549E06812F02AFC6449E06812F026FCB0
:10A97000217CE06812F074FCD4F85032C4F84C32F8
:10A98000284670BD00F0E280D4F85432AB42E7D0E4
:10A99000D4F85032C4F84C32284670BD224492F8A4
:10A9A0004C20542A8CD1DA1CB2F5007F1ED194F8C9
:10A9B0004C20202A84D11A1D5342C3F30803C2F34A
:10A9C000080258BF5A42C4F84C222046FCF7A8FDA2
:10A9D000054675E794F84C20452A7FF471AF94F84A
:10A9E0004D20542A08BF02227FF46AAF224492F815
:10A9F0004C20202ADFD063E794F84C20452A7FF4CE
:10AA00005FAF0122A11891F84C1054297FF458AF80
:10AA10000132B2F5007F7FF422AF94F84C20202A57
:10AA20003FF422AF4CE794F84C20452A7FF403AF63
:10AA30000122A01890F84C004E287FF4FCAE0132A1
:10AA4000B2F5007F7FF4E8AE94F84C20442A7FF4FE
:10AA5000F2AE0122224492F84C20202A7FF4EBAE81
:10AA600005335A42C2F30802C3F3080358BF5342E6
:10AA7000C4F84C322046FDF7B7FDD4F84C3200251F
:10AA8000E21892F84C1053297FF4FFAE591CD2E61D
:10AA900094F84C20452A7FF477AF94F84D20522A41
:10AAA00008BF02227FF470AFA11891F84C1053290F
:10AAB0007FF46AAF0132B2F5007F7FF424AF94F8DF
:10AAC0004C20492A7FF460AF94F84D204F2A08BFEC
:10AAD00002227FF459AF224492F84C204E2A3FF4D0
:10AAE00024AF51E79847064677E600BF556302005A
:10AAF0004C9A04008CA10400449A0400F09D0400C8
:10AB0000224492F84C20522A7FF43EAFDA1CB2F570
:10AB1000007FC9D194F84C20532A7FF435AF94F8C4
:10AB20004D20492A08BF02227FF42EAFA11891F8C8
:10AB30004C104F297FF428AF0132B2F5007FCAD103
:10AB400094F84C204E2A3FF4F0AE1DE7D4F84C3276
:10AB500096E700BF2DE9F0479D488EB012F088FCC3
:10AB6000002850D09A4D9B4C9B4E284612F080FCFA
:10AB7000002848D0284612F083FC6769C0B2002F35
:10AB800067D1237C834200F0E980D4F85032E21888
:10AB90000133B3F5007F82F84C00D4F84C22B2BFE9
:10ABA000C4F850323B46C4F850729A42C3BFC2F553
:10ABB000FF7101315B189B1A032BD6D1A31893F8B0
:10ABC0004C30422B40F07982531CB3F5007F80F269
:10ABD0009583234493F84C304C2B40F06E82B2F5B1
:10ABE000FF7F02F1020340F08F8394F84C30452B35
:10ABF00040F0638202220023C4E90523284612F0B4
:10AC000037FC0028B6D1754B1B7823B1744B1B78E9
:10AC1000002B40F0A58313F027F8724DFEF710F8D3
:10AC200013F022F82B6898423BBF00232B60C31A15
:10AC30000346642B044609D9694B1978002900F0B2
:10AC400059830121192016F0AFFA2C600EB0BDE82F
:10AC5000F087012F00F0A780022F00F03182032F30
:10AC600000F0F582042F00F05A83052F00F0828552
:10AC7000062F7FF47AAFD4E993218A42C4BFC2F58C
:10AC8000FF770137636ACCBF7F188F1ABB4200F38E
:10AC90008784277C874240F08384A76A9F42A8BFAD
:10ACA0001F46002F13DD504800EB070CA31801329C
:10ACB00093F84C3000F8013F5142C1F30801C2F350
:10ACC000080258BF4A426045F0D1C4F84C223068AF
:10ACD000216AD4E9069818B14368984501F0A68125
:10ACE0004FF0000A706818B14368984501F0B281CE
:10ACF000B06818B14368984501F00682F06818B151
:10AD00004368984501F0CE81306918B14368984591
:10AD100001F00E82706918B14368984501F0AE8168
:10AD2000B06918B14368984501F01682F06918B10E
:10AD30004368984501F0CA81306A18B14368984564
:10AD400001F01E82706A18B14368984500F0E786EA
:10AD5000BAF1000F01F02F81244916E0D4E99332B3
:10AD60009342C3BFC3F5FF71013101EB0208A2EBAF
:10AD70000308B8F1040FD4F854023DDC00F0AF82B0
:10AD80001B49E06812F01AFA1A49E06812F016FA44
:10AD9000217CE06812F064FAD4F85032C4F84C32E6
:10ADA00000236361E1E6237C834200F08B80D4F8CA
:10ADB0005032E2180133B3F5007F82F84C00C4F83A
:10ADC0005032FFF6D2AE0023C4F85032CDE600BFB9
:10ADD0002C930020BC6300203867002060670020AF
:10ADE0006167002030670020E76300204C9A040070
:10ADF000449A0400F09D0400E21892F84C10532984
:10AE000047D1591CB1F5007F80F2D982621892F8BF
:10AE10004C20452A13D1B3F5FF7F03F1020240F025
:10AE2000378294F84C204E2A41F0C18094F84D208E
:10AE3000442A08BF022200F03C824FF4FF736218DC
:10AE400092F84C20452A40F0CE814A1CB2F5007F92
:10AE500041F0BD8194F84C20542A40F0C481012275
:10AE6000224492F84C20202A40F0BD8104335A42FB
:10AE7000C2F30802C3F30803204658BF5342C4F884
:10AE80004C32FEF7DBFDD4F84C32E218002092F889
:10AE90004C10472940F0A7815F1CB7F5007FC0F236
:10AEA0007E8194F84C20452A06D194F84D20542AEE
:10AEB00008BF022200F08481D4F8543283427FF428
:10AEC0006BAF5DE7D4E993329342C3BFC3F5FF781C
:10AED00008F101089044A2EB0308B8F1040FD4F87C
:10AEE000540240F38282E21892F84C20532A62D135
:10AEF000591CB1F5007FC0F2148594F84C20452A06
:10AF000040F05E85012204EB020C9CF84CC0BCF1C1
:10AF10004E0F25D102F1010CBCF5007F41F05782A4
:10AF200094F84C20442A1BD10122224492F84C2050
:10AF3000202A15D105335A42C2F30802C3F308038D
:10AF4000204658BF5342C4F84C32FDF74DFBD4F8AD
:10AF50004C320020E21892F84C20532A2BD1591C75
:10AF6000B1F5007F80F22C85621892F84C20452ABA
:10AF70004CD14A1CB2F5007F41F0518294F84C202C
:10AF8000542A43D10122224492F84C20202A3DD158
:10AF900004335A42C2F30802C3F30803204658BFE1
:10AFA0005342C4F84C32FEF749FDD4F84C32E21853
:10AFB000002092F84C20472A28D15A1CB2F5007F75
:10AFC00080F2C984224492F84C20452A7FF474AF61
:10AFD000B3F5FF7F03F1020241F06A8294F84C203E
:10AFE000542A13D10122224492F84C20202A7FF4C3
:10AFF00063AF04335A42C2F30802C3F30803204686
:10B0000058BF5342C4F84C32FCF78AFAB8F1060F25
:10B010007FF752AFD4F84C32E21892F84C20562AFF
:10B020007FF44AAF5A1CB2F5007F80F2A28422441A
:10B0300092F84C20452A7FF43FAFB3F5FF7F03F130
:10B04000020241F0FA8194F84C20522A7FF434AF86
:10B0500094F84D20532A7FF42FAF94F84E20492ABC
:10B060007FF42AAF94F84F204F2A7FF425AF0427AE
:10B0700001F0FFB994F84C204C2A1ED194F84D20D1
:10B08000452A1AD194F84E20572A16D194F84F2009
:10B09000522A12D10422A11891F84C1049290CD13E
:10B0A0000132B2F5007F69D194F84C20542A04D1C2
:10B0B00094F84D20452A01F041840123636154E551
:10B0C000237C834200F07E82D4F85032E2180133B0
:10B0D000B3F5007FA8BF0023202882F84C00C4F8F5
:10B0E00050327FF442ADD4F84C229342BDBFC2F53A
:10B0F000FF710131C918991A092940F36F84A11809
:10B1000091F84C104229D8D1501CB0F5007F80F244
:10B110003C86211891F84C104C2910D1B2F5FF7FD4
:10B1200002F1020141F0B48294F84C10452906D195
:10B1300094F84D104E2908BF022101F07D82B0F530
:10B14000007F97DA204490F84C104C29B5D1B2F525
:10B15000FF7F02F1020141F0278394F84C20452A39
:10B16000ABD194F84D20572AA7D194F84E20522AFB
:10B17000A3D194F84F20492A9FD10422A11891F815
:10B180004C10542999D10132B2F5007F41F02B8344
:10B1900094F84C20452A90D1012701F0CFBB2744D9
:10B1A00097F84C20452A7FF487AEB3F5FF7F03F173
:10B1B000020240F0FA8794F84C20542A13D101225D
:10B1C000224492F84C20202A7FF476AE04335A426F
:10B1D000C2F30802C3F30803204658BF5342C4F821
:10B1E0004C32FCF79DF9B8F1060F7FF765AED4F845
:10B1F0004C32E21892F84C20562A7FF45DAE5A1C6D
:10B20000B2F5007F80F2B580224492F84C20452AA6
:10B210007FF452AEB3F5FF7F03F1020240F0EA87FC
:10B2200094F84C20522A7FF447AE94F84D20532ACC
:10B230007FF442AE94F84E20492A7FF43DAE94F854
:10B240004F204F2A7FF438AE042200F0EFBF237C5A
:10B25000834200F0CD80D4F85032E2180133B3F5C8
:10B26000007FA8BF0023202882F84C00C4F8503289
:10B270007FF47BACD4F84C22C4F84C32A3180422DF
:10B2800093F84C306261303B0022C4E907326CE431
:10B29000224492F84C204E2A7FF4D1ADDA1CB2F54C
:10B2A000007F41F07F8494F84C20442A7FF4C7AD9E
:10B2B0000122224492F84C20202A7FF4C0AD0533AD
:10B2C0005A42C2F30802C3F30803204658BF534250
:10B2D000C4F84C32FDF788F9D4F84C320020E2185B
:10B2E00092F84C1053297FF4D4AD591CB1F5007F6E
:10B2F0006EDAA4E5192015F057FFA6E494F84C3057
:10B300004C2B7FF4DAAE0123234493F84C30452BC9
:10B310007FF4D3AE02220023C4E905236EE4237C2C
:10B32000834200F05C82D4F85032E2180133B3F566
:10B33000007FA8BF0023202882F84C00C4F85032B8
:10B340007FF413ACD4F84C22C4F84C32A318052275
:10B3500093F84C306261303B0022C4E9083204E4C7
:10B3600095499648FDF786F993499548FDF782F986
:10B3700051E494F84C20452A7FF49EAD94F84D207A
:10B38000522A7FF499AD94F84E20532A7FF494AD5D
:10B3900094F84F20492A7FF48FAD0422A11891F828
:10B3A0004C104F297FF488AD0132B2F5007F40F098
:10B3B0003D8794F84C204E2A00F03E877CE594F8B7
:10B3C0004C20452A04D194F84D204E2A01F00E80DD
:10B3D00094F84C20452A7FF406AF94F84D20542A67
:10B3E00008BF02227FF4FFAE3AE57FF4C9ACB1E5B5
:10B3F000D4E993329342C3BFC3F5FF7808F1010843
:10B400009044A2EB0308B8F1040FD4F8540240F3BF
:10B41000E381E21892F84C20532A62D15A1CB2F50B
:10B42000007FC0F2988494F84C10452940F0FB84CA
:10B43000012104EB010C9CF84CC0BCF14E0F25D14E
:10B4400001F1010CBCF5007F41F09F8194F84C1094
:10B4500044291BD10121214491F84C10202915D1F8
:10B4600005335A42C2F30802C3F30803204658BF0B
:10B470005342C4F84C32FDF7B7F8D4F84C320020F0
:10B48000E21892F84C20532A2BD15A1CB2F5007FB7
:10B4900080F2C984A11891F84C1045294CD1511C57
:10B4A000B1F5007F41F0C38194F84C20542A43D178
:10B4B0000122224492F84C20202A3DD104335A42E2
:10B4C000C2F30802C3F30803204658BF5342C4F82E
:10B4D0004C32FEF7B3FAD4F84C32E218002092F85E
:10B4E0004C20472A28D15A1CB2F5007F80F22584CF
:10B4F000224492F84C20452A7FF4DEACB3F5FF7F5E
:10B5000003F1020241F0A18194F84C20542A13D196
:10B510000122224492F84C20202A7FF4CDAC04333F
:10B520005A42C2F30802C3F30803204658BF5342ED
:10B53000C4F84C32FBF7F4FFB8F1060F7FF7BCAC50
:10B54000D4F84C32E21892F84C20562A7FF4B4AC6E
:10B550005A1CB2F5007F80F2C983224492F84C2035
:10B56000452A7FF4A9ACB3F5FF7F03F1020241F055
:10B57000D38094F84C20522A7FF49EAC94F84D204E
:10B58000532A7FF499AC94F84E20492A7FF494AC66
:10B5900094F84F204F2A7FF48FAC042701F0D6B8DF
:10B5A00063180131B1F5007F83F84C00C4F85012E4
:10B5B000BFF609ACFFF7D9BA2C9300209C68002095
:10B5C00070670020D4E993329342C3BFC3F5FF787C
:10B5D00008F101089044A2EB0308B8F1040FD4F875
:10B5E000540240F3F680E21892F84C20532A62D1BC
:10B5F0005A1CB2F5007FC0F2308294F84C104529F5
:10B6000040F04482012104EB010C9CF84CC0BCF1D9
:10B610004E0F25D101F1010CBCF5007F40F095875C
:10B6200094F84C1044291BD10121214491F84C106D
:10B63000202915D105335A42C2F30802C3F3080387
:10B64000204658BF5342C4F84C32FCF7CDFFD4F823
:10B650004C320020E21892F84C20532A2BD15A1C6D
:10B66000B2F5007F80F21282A11891F84C104529A2
:10B670004CD1511CB1F5007F40F0888794F84C20E4
:10B68000542A43D10122224492F84C20202A3DD151
:10B6900004335A42C2F30802C3F30803204658BFDA
:10B6A0005342C4F84C32FEF7C9F9D4F84C32E218D0
:10B6B000002092F84C20472A28D15A1CB2F5007F6E
:10B6C00080F2BE81224492F84C20452A7FF4F4ABEC
:10B6D000B3F5FF7F03F1020240F0468794F84C2057
:10B6E000542A13D10122224492F84C20202A7FF4BC
:10B6F000E3AB04335A42C2F30802C3F30803204603
:10B7000058BF5342C4F84C32FBF70AFFB8F1060F9A
:10B710007FF7D2ABD4F84C12621892F84C20562A1C
:10B720007FF4CAAB4B1CB3F5007F80F262812344E7
:10B7300093F84C30452B7FF4BFABB1F5FF7F01F19F
:10B74000020340F0C78694F84C30522B7FF4B4AB20
:10B7500094F84D30532B7FF4AFAB94F84E30492B17
:10B760007FF4AAAB94F84F304F2B7FF4A5AB04279E
:10B7700000F0CCBE237C834200F0E181D4F850324B
:10B78000E2180133B3F5007FA8BF0023202882F818
:10B790004C00C4F850327FF4E8A9D4F84C22A11828
:10B7A0000132504291F84C10C0F30800C2F3080275
:10B7B00058BF4242A1F1300031390829C4F84C2267
:10B7C00060623FF67AAC0622C4F84C326261FFF741
:10B7D000CCB97FF4D5AA3DE77FF4D2AA50E6D4E9EC
:10B7E00093329342C3BFC3F5FF7808F10108904438
:10B7F000A2EB0308B8F1040FD4F8540200F353810C
:10B800007FF4BEAAE21892F84C20532A2BD15A1C7E
:10B81000B2F5007F80F25483A11891F84C104529AD
:10B820004CD1511CB1F5007F41F00D8194F84C20B2
:10B83000542A43D10122224492F84C20202A3DD19F
:10B8400004335A42C2F30802C3F30803204658BF28
:10B850005342C4F84C32FEF7F1F8D4F84C32E218F7
:10B86000002092F84C20472A28D15A1CB2F5007FBC
:10B8700080F23683224492F84C20452A7FF41CAB98
:10B88000B3F5FF7F03F1020241F09C8094F84C2055
:10B89000542A13D10122224492F84C20202A7FF40A
:10B8A0000BAB04335A42C2F30802C3F30803204629
:10B8B00058BF5342C4F84C32FBF732FEB8F1060FC2
:10B8C0007FF7FAAAD4F84C32E21892F84C20562AA4
:10B8D0007FF4F2AA5A1CB2F5007F80F2B2822244B1
:10B8E00092F84C20452A7FF4E7AAB3F5FF7F03F1D5
:10B8F000020241F02D8094F84C20522A7FF4DCAAF9
:10B9000094F84D20532A7FF4D7AA94F84E20492A60
:10B910007FF4D2AA94F84F204F2A01F03480FFF729
:10B92000CBBA621892F84C20452A7FF41DABB3F5D0
:10B93000FF7F03F102027FF4E6AA94F84C204E2A1E
:10B940007FF40EAB94F84D20442A08BF02227FF406
:10B9500007ABFFF7EABA94F84C20452A7FF4ACAA6B
:10B9600094F84D20542A08BF02227FF4A5AAFFF7BD
:10B970003ABB94F84C20452A7FF49EAA94F84D20B7
:10B98000522A7FF499AA94F84E20532A7FF494AA5D
:10B9900094F84F20492A7FF48FAA0422A11891F825
:10B9A0004C104F297FF488AA571CB7F5007F40F050
:10B9B000608594F84C204E2A00F06185FFF77CBA30
:10B9C00094F84C20452A7FF421AB94F84D20542A5A
:10B9D00008BF02227FF41AABFFF7D5BA7FF46DAB34
:10B9E000A11891F84C1042297FF467AB501CFFF767
:10B9F000A6BB94F84C30452B7FF45EAA94F84D30EA
:10BA0000522B7FF459AA94F84E30532B7FF454AA4A
:10BA100094F84F30492B7FF44FAA0427E31993F889
:10BA20004C304F2B7FF448AA0137B7F5007F40F028
:10BA30006D8594F84C304E2B00F06E85FFF73CBAC4
:10BA400094F84C20452A7FF437AA94F84D20542AC4
:10BA500008BF02227FF430AA45E6A11891F84C10E5
:10BA600045297FF401AEB3F5FF7F03F102017FF4B6
:10BA7000CAAD94F84C104E297FF4F2AD94F84D10F5
:10BA8000442908BF02217FF4EBADCEE594F84C20A9
:10BA9000452A7FF43BAE94F84D20542A08BF022279
:10BAA0007FF434AEEFE5E21892F84C20532A7FF48D
:10BAB000DAAE5A1CB2F5007FC0F2E98194F84C105E
:10BAC000452940F0FD81012104EB010C9CF84CC09C
:10BAD000BCF14E0F7FF49CAE01F1010CBCF5007F70
