:020000022000DC
:1060000000000420951A0400D51A0400D71A0400D1
:10601000D91A0400DB1A0400DD1A04000000000095
:1060200000000000000000000000000085190400CE
:10603000E11A040000000000A5190400E51A04009C
:10604000E91C0400E71A04009DEF0300E71A0400AE
:10605000E71A0400E71A04006DF00300E71A0400D1
:10606000E71A0400E71A0400E71A0400E71A04001C
:10607000E71A0400E71A0400E71A0400E71A04000C
:10608000E71A0400D5160400E71A0400E71A040012
:10609000E71A0400E71A040035150300E71A0400A4
:1060A000E71A0400E71A0400E71A0400E71A0400DC
:1060B000E71A0400E71A04000000000000000000D6
:1060C000E71A0400E71A0400E71A0400D51D0400CB
:1060D000E71A0400E71A0400E71A04009D370300DA
:1060E000E71A0400E71A0400E71A040000000000A1
:1060F00000000000E71A0400000000004D1E04002C
:10610000000000000000000000000000000000008F
:10611000000000000000000000000000000000007F
:10612000000000000000000000000000000000006F
:10613000000000000000000000000000000000005F
:10614000000000000000000000000000000000004F
:10615000000000000000000000000000000000003F
:10616000000000000000000000000000000000002F
:10617000000000000000000000000000000000001F
:10618000000000000000000000000000000000000F
:1061900000000000000000000000000000000000FF
:1061A00000000000000000000000000000000000EF
:1061B00000000000000000000000000000000000DF
:1061C00000000000000000000000000000000000CF
:1061D00000000000000000000000000000000000BF
:1061E00000000000000000000000000000000000AF
:1061F000000000000000000000000000000000009F
:10620000F1EE103A43F08073E1EE103A704700BFB0
:1062100010B5054C237833B9044B13B10448AFF3E0
:1062200000800123237010BD906300200000000057
:1062300034E9040008B5034B1BB103490348AFF32D
:10624000008008BD000000009463002034E90400D1
:10625000154B002B08BF134B9D46A3F5803A002138
:106260008B460F461348144A121A21F021FD0F4B9A
:10627000002B00D098470E4B002B00D098470020F1
:10628000002104000D000D48002802D00C48AFF397
:10629000008021F0A3FC200029001BF053FC21F01A
:1062A00077FC00BF00000800000004200000000090
:1062B0000000000090630020ACA20020000000005D
:1062C000000000000020704703680021DB681847C9
:1062D00041600020704700BF0020704700207047D9
:1062E00000207047036853F80C3C1844704700BF07
:1062F000036853F8183CC25852F80C2C1844104448
:10630000704700BF036853F80C3C1844704700BF47
:10631000036853F8183CC25852F80C2C1844104427
:10632000704700BF036853F80C3C1844704700BF27
:10633000036853F8183CC25852F80C2C1844104407
:10634000704700BFD0F85032C2180133B3F5007F58
:10635000A8BF002382F84C10C0F85032704700BF2D
:1063600010B4D0F84C124B1C01445C42024691F828
:106370004C00C4F30801C3F3080358BF4B425DF857
:10638000044BC2F84C327047D0E993308342C3BF0C
:10639000C3F5FF730133C018C01A7047036853F880
:1063A0000C3C1844704700BF036853F8183CC258AF
:1063B00052F80C2C18441044704700BF406C7047D2
:1063C000036853F8183C1844406C704710B5044BF0
:1063D000044640F8083B18F0F3FE204610BD00BF0D
:1063E0001CB60400016810B451F80C4C114620444E
:1063F0001A465DF8044B0BF099BD00BF016830B43C
:1064000051F81C4C015951F80C5C204411462844A9
:106410001A4630BC0BF08ABD016810B451F80C4C20
:10642000114620441A465DF8044B0BF07FBD00BFB7
:10643000016830B451F81C4C015951F80C5C2044EF
:10644000114628441A4630BC0BF070BD016810B4E8
:1064500051F80C4C114620441A465DF8044B0BF0E1
:1064600065BD00BF016830B451F8204C015951F8A6
:106470000C5C2044114628441A4630BC0BF056BD33
:10648000016810B451F80C4C114620441A465DF8CE
:10649000044B0BF04BBD00BF016830B451F8204CE9
:1064A000015951F80C5C2044114628441A4630BC6E
:1064B0000BF03CBD70B5014688B005461448154C3C
:1064C000154E0BF02FF8154B20221D806946002336
:1064D000CDE90033CDE90333CDE9053302930793CA
:1064E00009F022F901230E493370204618F080F993
:1064F0006946204618F07CF90A49204618F078F9D8
:10650000317820460A2218F051FA08B070BD00BF59
:10651000C46C002044750020A9670020606C002036
:1065200008B104003CB1040070B50C4C0C4E0023C3
:106530000D4620460B49337018F05AF929461022AF
:10654000204618F059FA0849204618F051F93178D8
:1065500020460A22BDE8704018F028BA4475002091
:10656000A967002050B104003CB10400026852F851
:10657000103C0344596052F80C3C18440BF03CBAF0
:10658000036810B453F8144C025952F8103C2044DC
:1065900003445DF8044B596052F80C3C18440BF06E
:1065A0002BBA00BF026852F8103C0344596052F8FD
:1065B0000C3C18440BF0CEBE036810B453F8144CD6
:1065C000025952F8103C204403445DF8044B5960D2
:1065D00052F80C3C18440BF0BDBE00BF026852F8E4
:1065E000103C0344596052F80C3C18440BF024B89A
:1065F000036810B453F8144C025952F8103C20446C
:1066000003445DF8044B596052F80C3C18440BF0FD
:1066100013B800BF036810B553F80C3C0446406C37
:1066200023440268926859609047A06C132108F0D7
:10663000D1FC11221146A06C08F0E4FC94F834104F
:10664000A06C08F0CDFCA06C03689B689847A06C18
:106650000D4908F05DFDE06C132108F0BBFC112230
:106660001146E06C08F0CEFC94F83410E06C08F0B1
:10667000B7FCE06C03689B689847E06C034908F03E
:1066800047FD002010BD00BF030201000605040005
:10669000036853F8143C10B5C418C358606C53F821
:1066A0000C3C02682344926859609047A06C132107
:1066B00008F090FC11221146A06C08F0A3FC94F89D
:1066C0003410A06C08F08CFCA06C03689B689847A1
:1066D000A06C0D4908F01CFDE06C132108F07AFC59
:1066E00011221146E06C08F08DFC94F83410E06C37
:1066F00008F076FCE06C03689B689847E06C0349FF
:1067000008F006FD002010BD03020100060504008C
:1067100008B50368117853F80C3C18440AF05CFF84
:1067200008BD00BF08B50368117853F81C3CC25877
:1067300052F80C2C184410440AF04EFF08BD00BF5C
:1067400038B504461D46082962D8DFE801F0192251
:106750002B343D464F580500036853F80C0C114686
:106760002044EAB20BF00EF994F82C3033B12DB17D
:10677000236853F80C0C20440BF03EF9284638BD32
:10678000036853F80C0C11462044EAB20BF0DAF817
:10679000EAE7036853F80C0C11462044EAB20BF008
:1067A000D5F8E1E7036853F80C0C11462044EAB22F
:1067B0000BF0D0F8D8E7036853F80C0C11462044CE
:1067C000EAB20BF0CBF8CFE7036853F80C0C114694
:1067D0002044EAB20BF0C6F8C6E7036853F80C0C85
:1067E00011462044EAB20BF0C1F8BDE7036853F844
:1067F0000C0C11462044EAB20BF0BCF8B4E7036875
:1068000053F80C0C11462044EAB20BF0B7F8ABE792
:106810000025B3E7F8B50446006850F8206C1D4623
:10682000A719082962D8DFE801F019222B343D4668
:106830004F580500A35953F80C0C11463844EAB2DE
:106840000BF0A0F897F82C3033B12DB1A35953F8C1
:106850000C0C38440BF0D0F82846F8BDA35953F877
:106860000C0C11463844EAB20BF06CF8EAE7A35975
:1068700053F80C0C11463844EAB20BF067F8E1E724
:10688000A35953F80C0C11463844EAB20BF062F8E5
:10689000D8E7A35953F80C0C11463844EAB20BF070
:1068A0005DF8CFE7A35953F80C0C11463844EAB20F
:1068B0000BF058F8C6E7A35953F80C0C11463844AE
:1068C000EAB20BF053F8BDE7A35953F80C0C11468C
:1068D0003844EAB20BF04EF8B4E7A35953F80C0C65
:1068E00011463844EAB20BF049F8ABE70025B3E7AC
:1068F00008B50368117853F80C3C18440AF074FE8C
:1069000008BD00BF08B50368117853F8203CC25891
:1069100052F80C2C184410440AF066FE08BD00BF63
:1069200038B58A680C4605460846002118F004FD73
:1069300005F10801204618F075FC204638BD00BF5F
:1069400010B5054B044640F8083B18F039FC2046CA
:106950001BF03AF9204610BD1CB6040010B50B4BD5
:106960000B4A044603F1980103F158002360E060EC
:106970006162C4F8002104F5847018F021FC04F170
:106980000C000BF0A3FC204610BD00BF5CB6040059
:106990001CB6040002680C4952F80C2C38B50B4B9D
:1069A0008350841803F1580598336362C4F80011CA
:1069B000E56004F5847018F003FC04F10C000BF0A2
:1069C00085FC204638BD00BF1CB604005CB6040040
:1069D00002680C4952F8182C38B50B4B83508418B8
:1069E00003F1580598336362C4F80011E56004F5BB
:1069F000847018F0E5FB04F10C000BF067FC2046F6
:106A000038BD00BF1CB604005CB604000C4B0D4A38
:106A100010B5044603F1980103F158002360616248
:106A2000C4F80021E06004F5847018F0C9FB04F19B
:106A30000C000BF04BFC20461BF0C6F8204610BDA6
:106A40005CB604001CB6040002680D4952F8182C0C
:106A500038B50C4B8350841803F1580598336362A2
:106A6000C4F80011E56004F5847018F0A9FB04F186
:106A70000C000BF02BFC20461BF0A6F8204638BD7E
:106A80001CB604005CB6040002680D4952F80C2CD8
:106A900038B50C4B8350841803F158059833636262
:106AA000C4F80011E56004F5847018F089FB04F166
:106AB0000C000BF00BFC20461BF086F8204638BD7E
:106AC0001CB604005CB6040010B50F4B0446406AC7
:106AD000236003F15C0103F19C02DC332163A264B7
:106AE000C4F8243110B103685B689847074BC4F8B9
:106AF000243104F5967018F063FB04F130000BF0BC
:106B0000E5FB204610BD00BF0CB804001CB6040015
:106B1000026852F80C1C38B544180F4B626A435097
:106B200003F15C0503F19C01DC332563A164C4F827
:106B300024311AB1136810465B689847074BC4F8B4
:106B4000243104F5967018F03BFB04F130000BF093
:106B5000BDFB204638BD00BF0CB804001CB60400C5
:106B6000026852F8181C38B544180F4B626A43503B
:106B700003F15C0503F19C01DC332563A164C4F8D7
:106B800024311AB1136810465B689847074BC4F864
:106B9000243104F5967018F013FB04F130000BF06B
:106BA00095FB204638BD00BF0CB804001CB604009D
:106BB00010B5144619B1012907D0002010BD9AB2B2
:106BC0002146806C08F048FA10BD9AB22146C06C8C
:106BD00008F042FA10BD00BFD0F800C0ACF11C0CA8
:106BE000DCF800C06044E3E710B5144619B1012990
:106BF00007D0002010BD9AB22146806C08F0E4FA5C
:106C000010BD9AB22146C06C08F0DEFA10BD00BF7C
:106C1000D0F800C0ACF1200CDCF800C06044E3E721
:106C200003688A6853F80C3C2DE9F04303440F468F
:106C30001A63D1E90321C3E90D21397DFA8ADA8784
:106C400083F83C10D7E90612386A9864C3E9101239
:106C50003D463C463A4655F8266F34F82FCF52F859
:106C6000321FB88CD5F8048097F82EE0A3F84C00BA
:106C700007F13C09A07883F85900C3F84E60C3F8C7
:106C80005280A3F857C083F856E0D2F804E0C3F866
:106C90005A1099E8030003F1640CC3F85EE08CE835
:106CA000030097F8441083F86C10D7E912E0D7E995
:106CB0001416C3E91CE0DE679967B968C3F8881049
:106CC000D7E90310C3E92310387DF98AA3F8961099
:106CD00083F89400D7E906013E6AC3F8A060C3E9CF
:106CE0002601B98CA3F8A41099E80300D5F8048014
:106CF000D5F80090B4F800C0A6781568546897F8E5
:106D00002EE083F8AEE003F1BC02C3F8A690C3F80E
:106D1000AA80A3F8AFC083F8B160C3F8B250C3F83B
:106D2000B64082E8030097F8442083F8C420D7E9EE
:106D30001201D7E91424C3E93201C3F8D440C3F8DF
:106D4000D020BDE8F08300BF026852F8181C38B5A7
:106D50004418104B626A435003F15C0503F19C0137
:106D6000DC332563A164C4F824311AB113681046DA
:106D70005B689847084BC4F8243104F5967018F006
:106D80001FFA04F130000BF0A1FA20461AF01CFFA4
:106D9000204638BD0CB804001CB60400026852F846
:106DA0000C1C38B54418104B626A435003F15C0563
:106DB00003F19C01DC332563A164C4F824311AB1CA
:106DC000136810465B689847084BC4F8243104F5F3
:106DD000967018F0F5F904F130000BF077FA2046C0
:106DE0001AF0F2FE204638BD0CB804001CB60400B0
:106DF00010B5104B0446406A236003F15C0103F1B7
:106E00009C02DC332163A264C4F8243110B103680E
:106E10005B689847084BC4F8243104F5967018F065
:106E2000CFF904F130000BF051FA20461AF0CCFEF5
:106E3000204610BD0CB804001CB604002DE9F0413A
:106E4000456904460B462DBB027C8A4229D0066860
:106E5000414F7268BA426BD1D0F85022811801328A
:106E6000B2F5007FA8BF2A4681F84C30C0F8502206
:106E700033693A4A93425ED1D4E993308342C3BF27
:106E8000C3F5FF730133C018C01A032827D00020B0
:106E9000BDE8F081012D0BD00368BDE8F041DB684F
:106EA000184703685B69984765610020BDE8F08179
:106EB000027C8A4242D00268274D5268AA4243D1DE
:106EC000D0F8502281180132B2F5007F81F84C30A1
:106ED000AABF0023C0F85022C0F85032D7E7D4F838
:106EE0004C32E21892F84C20422A1ED15A1CB2F5BC
:106EF000007F12DA224492F84C204C2A15D1B3F5C7
:106F0000FF7F03F1020221D194F84C30452B0CD1C4
:106F100002220023C4E90523B9E794F84C304C2B36
:106F200003D194F84D30452BF2D001236361AEE7D5
:106F3000904726689CE720469847A6E703685B6968
:106F4000984700236361A2E79047A0E7224492F8A4
:106F50004C30452BDCD0E8E7456302008963020032
:106F60002DE9F04704460068DFF8E08050F81C6C1B
:106F700054F806C0DCF810E0C64504EB060704D060
:106F80003846F446BDE8F04760471D4608295AD800
:106F9000DFE801F0514941393129211905005CF838
:106FA0000C0C11463844EAB20AF0ECFC97F82C308D
:106FB00033B12DB1A35953F80C0C38440AF01CFD21
:106FC0002846BDE8F0875CF80C0C11463844EAB25C
:106FD0000AF0D4FCEAE75CF80C0C11463844EAB23B
:106FE0000AF0C8FCE2E75CF80C0C11463844EAB23F
:106FF0000AF0BCFCDAE75CF80C0C11463844EAB243
:107000000AF0B0FCD2E75CF80C0C11463844EAB246
:107010000AF0A4FCCAE75CF80C0C11463844EAB24A
:107020000AF098FCC2E75CF80C0C11463844EAB24E
:107030000AF08CFCBAE75CF80C0C11463844EAB252
:107040000AF080FCB2E70025B0E700BF416702000C
:107050002DE9F0410768DFF8D4C0D7F810E0E64525
:107060005ED104461E4608295ED8DFE801F01921EA
:10707000293139414951050057F80C0C114620447B
:10708000F2B20AF07FFC94F82C3033B12EB12368B1
:1070900053F80C0C20440AF0AFFC3046BDE8F081F8
:1070A00057F80C0C11462044F2B20AF04BFCEAE708
:1070B00057F80C0C11462044F2B20AF047FCE2E704
:1070C00057F80C0C11462044F2B20AF043FCDAE700
:1070D00057F80C0C11462044F2B20AF03FFCD2E7FC
:1070E00057F80C0C11462044F2B20AF03BFCCAE7F8
:1070F00057F80C0C11462044F2B20AF037FCC2E7F4
:1071000057F80C0C11462044F2B20AF033FCBAE7EF
:1071100057F80C0C11462044F2B20AF02FFCB2E7EB
:10712000F446BDE8F04160470026B6E7416702003B
:107130002DE9F04F4669022E8DB004460D4600F051
:10714000C980032E00F09080042E00F09B81052E54
:1071500000F03F81062E40F0B9800368C34A1B69E6
:10716000934240F05582D0E993039842C3BFC0F5E3
:10717000FF700130C018181A666AB042C0F264810C
:10718000237CAB4240F06081A36A9E42A8BF1E46AA
:10719000002E1CDD04F12B05DFF8E482AF19236813
:1071A0001B68434540F0EE81D4F84C124A1C504213
:1071B0002144C0F3080091F84C30C2F3080258BFD4
:1071C0004242C4F84C2205F8013FBD42E7D1D4E960
:1071D00006A9BAF1020F276A04F12C0800F09E827A
:1071E000BAF1010F00F01E82A14906A817F080FF36
:1071F0000A22E16903A817F0AFFF03A906A818F057
:1072000035F89C4918F05EF80A220546216A09A85B
:1072100017F0A2FF09A9284618F028F80146684689
:1072200017F080FF09A817F0CBFF03A817F0C8FFDD
:1072300006A817F0C5FF009D8F49E06817F0D8FA3F
:107240002946E06817F0D4FA217CE06817F022FBA9
:1072500000236846636117F0B3FFD4F85032C4F8D6
:107260004C320023636131E0037C8B42036829D0F8
:10727000824A5B68934240F04081D0F85032C21895
:107280000133B3F5007FA8BF002382F84C10C0F88B
:107290005032202D1AD12368794A1B68934240F05E
:1072A0002981D4F84C32234493F84C00D4F850226E
:1072B000C4F84C22A0F1300300210420E361606196
:1072C000216203E05B6998470023636100200DB0F1
:1072D000BDE8F08F037C8B420368F3D0674A5B689C
:1072E000934240F0FE80D0F85032C2180133B3F51B
:1072F000007FA8BF002382F84C10C0F85032202D28
:10730000E4D12368594D1B69AB4240F04381D4E975
:1073100093039842C3BFC0F5FF700130C018181A1C
:10732000092821DDD4F84C32E21892F84C20422A88
:107330001AD15A1CB2F5007F80F2E380224492F801
:107340004C204C2A10D1B3F5FF7F03F1020240F02C
:10735000948394F84C30452B06D194F84D304E2B45
:1073600008BF022300F0548323681B69AB4240F03E
:10737000BA80D4E993039842C3BFC0F5FF700130CF
:10738000C018181A082821DDD4F84C32E21892F8F7
:107390004C20422A1AD15A1CB2F5007F80F2FD809F
:1073A000224492F84C204C2A10D1B3F5FF7F03F110
:1073B000020240F0C48394F84C30452B06D194F877
:1073C0004D30572B08BF022300F0958301236361E2
:1073D0007CE7037C8B4203683FF474AF274A5B6809
:1073E000934240F01781D0F85032C2180133B3F500
:1073F000007FA8BF002382F84C10C0F85032202D27
:107400007FF464AF23681E4A1B68934240F00781F3
:10741000D4F84C22531C59422244C1F30801C3F34F
:10742000080358BF4B4292F84C00C4F84C32A0F10C
:10743000300331387E286362C8D8D4F85032C4F89B
:107440004C320622626141E723680C4A5B68934232
:107450004CD1D4F85032E2180133B3F5007FA8BF05
:10746000002382F84C50C4F850322FE789630200A1
:1074700094B10400B0B10400B4B10400456302004B
:1074800061630200037C8B4203683FF41BAF9F4A99
:107490005B68934233D1D0F85032C2180133B3F550
:1074A000007FA8BF002382F84C10C0F85032202D76
:1074B0007FF40CAF2368964A1B68934240F0AC807F
:1074C000D4F84C32234493F84C00D4F85022C4F83A
:1074D0004C22A0F13003002105202362606161622B
:1074E000F4E698470BE7204698474BE729462046A5
:1074F0009847EBE620469847D8E69847C9E698476C
:10750000D5E794F84C304C2B7FF42EAF94F84D30E7
:10751000452B08BF02237FF427AFE21892F84C20D6
:107520004E2A7FF421AF0133B3F5007F40F0708223
:1075300094F84C304F2B7FF417AF94F84D30542B08
:1075400008BF02237FF410AFE21892F84C20492ABA
:107550007FF40AAF0133B3F5007F40F06F8294F8F7
:107560004C30462B7FF400AF94F84D30592B08BFB8
:1075700002237FF4F9AE234493F84C30202B00F023
:107580007182F1E62046984705F8010FBD427FF46D
:1075900006AE1CE620469847C2E694F84C304C2BC9
:1075A0007FF414AF94F84D30452B08BF02237FF4CD
:1075B0000DAFE21892F84C20572A7FF407AF013341
:1075C000B3F5007F40F0978294F84C30522B7FF453
:1075D000FDAE94F84D30492B08BF02237FF4F6AE80
:1075E000E21892F84C20542A7FF4F0AE5E1CB6F5F7
:1075F000007F40F0948294F84C30452B7FF4E6AE47
:1076000094F84D30202B7FF4E1AE0123A3612BE2EF
:107610009847B1E59847F2E62046984755E7204657
:10762000984704E73B4D286818B14268914500F03F
:107630005C810023686818B14268914500F0E980D8
:10764000A86818B14268914500F0EC80E86818B16C
:107650004268914500F0EF80286918B14268914571
:1076600000F0F280686918B14268914500F0F58039
:10767000A86918B14268914500F0F880E86918B12E
:107680004268914500F0FB80286A18B14268914534
:1076900000F0FE80686A18B14268914500F00181EF
:1076A000A86A18B14268914500F00481E86A18B1EF
:1076B0004268914500F00781286B18B142689145F6
:1076C00000F00A81686B18B14268914500F08F8024
:1076D000A86B18B14268914500F09280E86B10B138
:1076E000426891450BD0002B3FF47EAD0A49E0681B
:1076F00017F07EF8217CE06817F0CCF8ADE505685E
:1077000033466D6942463946A847EFE745630200B4
:107710006163020028670020BCB10400A94D2868FD
:1077200018B14368994500F0E9800023686818B1F2
:107730004268914500F0EB80A86818B14268914515
:1077400000F0EE80E86818B14268914500F01581BC
:10775000286918B14268914500F01881686918B12C
:107760004268914500F01B81A86918B142689145B3
:1077700000F01E81E86918B14268914500F024814B
:10778000286A18B14268914500F02781686A18B1EB
:107790004268914500F02A81A86A18B14268914573
:1077A00000F02D81E86A18B14268914500F0C1806F
:1077B000286B18B14268914500F0C480686B18B11D
:1077C0004268914500F0C780A86B18B142689145A6
:1077D00000F0CA80E86B002885D04268914582D1CC
:1077E00005683346AD6942463946A8477EE70368D7
:1077F0004246D3F814A039463346D047012367E701
:1078000003684246D3F814A039463346D0470123D3
:1078100064E703684246D3F814A039463346D0479C
:1078200001230DE703684246D3F814A039463346D6
:10783000D04701230AE703684246D3F814A039462B
:107840003346D047012307E703684246D3F814A024
:1078500039463346D047012304E703684246D3F84C
:1078600014A039463346D047012301E70368424656
:10787000D3F814A039463346D0470123FEE6036807
:107880004246D3F814A039463346D0470123FBE6DD
:1078900003684246D3F814A039463346D047012343
:1078A000F8E603684246D3F814A039463346D04779
:1078B0000123F5E603684246D3F814A0394633465F
:1078C000D0470123F2E603684246D3F814A03946B4
:1078D0003346D0470123EFE603684246D3F814A0AD
:1078E00039463346D0470123ECE603684246D3F8D5
:1078F00014B039463346D84753469BE603684246A0
:10790000D3F818A039463346D04701230EE7036861
:107910004246D3F818A039463346D04701230BE737
:1079200003684246D3F818A039463346D0470123AE
:1079300008E703684246D3F818A039463346D047D3
:10794000012335E703684246D3F818A03946334689
:10795000D047012332E703684246D3F818A03946DE
:107960003346D04701232FE703684246D3F818A0D7
:1079700039463346D04701232CE703684246D3F803
:1079800018A039463346D0470123E1E60368424652
:10799000D3F818A039463346D0470123DEE6036802
:1079A0004246D3F818A039463346D0470123DBE6D8
:1079B00003684246D3F818A039463346D04701231E
:1079C000D8E600BF2867002003684246D3F818A015
:1079D00039463346D0470123D2E603684246D3F8FE
:1079E00018A039463346D0470123CFE60368424604
:1079F000D3F818A039463346D0470123CCE60368B4
:107A00004246D3F818A039463346D0470123C9E689
:107A1000E21892F84C204F2A7FF4A6AC0133B3F55C
:107A2000007F41D194F84C30542B7FF49DAC94F8F6
:107A30004D30492B08BF02237FF496ACE21892F830
:107A40004C20462A7FF490AC0133B3F5007F42D13D
:107A500094F84C30592B7FF487AC94F84D30202BA0
:107A60007FF482AC0223A361D4F85032C4F84C32C4
:107A7000032100226161E26128E4224492F84C2053
:107A8000452A7FF471AC0333B3F5007F7FF445AD35
:107A900094F84C304E2B7FF467AC94F84D304F2B5C
:107AA00008BF02237FF460ACE21892F84C20542AFD
:107AB0007FF45AAC0133B3F5007F7FF445AD94F801
:107AC0004C30492B7FF450AC94F84D30462B08BF16
:107AD00002237FF449ACE21892F84C20592A7FF433
:107AE00043AC0133B3F5007F7FF445AD94F84C30DF
:107AF000202BB7D038E4E21892F84C20522A7FF4B9
:107B000065AC0133B3F5007F30D194F84C30492B8C
:107B10007FF45CAC94F84D30542B7FF457ACA31930
:107B200093F84C30452B7FF451AC0136B6F5007F0D
:107B300031D194F84C30202B3FF467AD46E4224419
:107B400092F84C20452A7FF441AC0333B3F5007F13
:107B50007FF42FAD94F84C30572B7FF437AC94F86A
:107B60004D30522B08BF02237FF430ACE21892F85C
:107B70004C20492A7FF42AAC0133B3F5007F7FF40F
:107B80002FAD94F84C30542B7FF420AC94F84D304A
:107B9000452B7FF41BAC264496F84C30202B3FF449
:107BA00034AD13E470B5D0F84C32C11890B091F8F0
:107BB0004C20422A04461AD15A1CB2F5007F80F2AA
:107BC0002583024492F84C20412A10D1B3F5FF7F5F
:107BD00003F1020240F0CA8590F84C20552A06D1E4
:107BE00090F84D20442A08BF022200F07485D4F892
:107BF000585291F84C204E2A48D15A1CB2F5007FB9
:107C000080F2C283224492F84C20412A40F0A180A5
:107C1000B3F5FF7F03F1020240F0BC8394F84C20DF
:107C20004D2A40F096800122224492F84C20452AA9
:107C300040F08F801A1DB2F5007FA4BFA3F5FE733C
:107C4000C3F30802D4F85032934206D02244237C76
:107C500092F84C209A4240F01B8540226946DF484A
:107C600009F0AAFB10AB0344DD49E068002503F8E6
:107C7000405C16F0BDFD6946E06816F0B9FD217C58
:107C8000E06816F007FED4F84C32E11891F84C2069
:107C9000522A5ED15A1CB2F5007F80F28C832244B6
:107CA00092F84C20462A40F0A981B3F5FF7F03F1FA
:107CB000020240F0868394F84C20532A40F09E81C3
:107CC0000122A01890F84C00542840F0978101320E
:107CD000B2F5007F40F0868394F84C20412A40F0B2
:107CE0008D810122A01890F84C00542840F0868124
:107CF0000132B2F5007F40F0868394F84C20452A8B
:107D000040F07C81DA1DB2F5007F04DB6FF4FC7C6F
:107D10006344C3F30802D4F85032B249934206D008
:107D20002244237C92F84C209A4240F0A984E068D7
:107D3000D4F8645216F05CFDAB49E06816F058FDCB
:107D4000217CE06816F0A6FDD4F85032C4F84C321D
:107D5000E11891F84C20412A40F05081581CB0F5B0
:107D6000007F80F2C082221892F84C20442A7CD1F5
:107D7000B3F5FF7F03F1020240F0BB8294F84C2080
:107D8000562A72D10122A61896F84C60452E6CD165
:107D90000132B2F5007F40F0BD8294F84C20522AA7
:107DA00063D10122A61896F84C60542E5DD10132A1
:107DB000B2F5007F40F0BF8294F84C20492A54D19C
:107DC0000122A61896F84C60532E4ED10132B2F51E
:107DD000007F40F0C18294F84C20492A45D101220D
:107DE000A61896F84C604E2E3FD10132B2F5007FB6
:107DF00040F0C38294F84C20472A36D103F10B029D
:107E0000B2F5007F04DB6FF4FA763344C3F3080263
:107E1000D4F85032934206D02244237C92F84C206E
:107E20009A4240F01D84714806F076FB704B714A0F
:107E30006B490546002D14BF1D461546E06816F037
:107E4000D7FC2946E06816F0D3FC217CE06816F0E8
:107E500021FD0025D4F85032C4F84C32E11891F8D5
:107E60004C20412A40F0CA80581CB0F5007F80F2B7
:107E7000E182204490F84C20442A40F02581B3F55B
:107E8000FF7F03F1020240F0DB8294F84C20562A77
:107E900040F01A810122A01890F84C00452840F0CB
:107EA00013810132B2F5007F40F0DB8294F84C2060
:107EB000522A40F009810122A01890F84C00542861
:107EC00040F002810132B2F5007F40F0DB8294F88D
:107ED0004C205F2A40F0F8800122A01890F84C0056
:107EE000532840F0F1800132B2F5007F40F0DB8290
:107EF00094F84C20452A40F0E7800122A01890F821
:107F00004C00522840F0E0800132B2F5007F40F092
:107F1000DB8294F84C20562A40F0D6800122A0182B
:107F200090F84C00492840F0CF800132B2F5007F34
:107F300040F0DB8294F84C20432A40F0C5800122B7
:107F4000A01890F84C00452840F0BE800132B2F5F0
:107F5000007F40F0DB8294F84C205F2A40F0B48030
:107F60000122A01890F84C00492840F0AD80013261
:107F7000B2F5007F40F0DB8294F84C20442A40F0B8
:107F8000A38003F11102B2F5007F04DB6FF4F775F3
:107F90002B44C3F30802D4F85032934206D0224453
:107FA000237C92F84C209A4240F04B83124B0C49B0
:107FB0001B68E06830338DF8003016F019FC694614
:107FC000E06816F015FC217CE06816F063FC0025E3
:107FD000D4F85032C4F84C32E1180FE0C46C0020E1
:107FE000BCB10400B4B1040038B204000473002032
:107FF000C0B10400C8B10400946C002091F84C207A
:108000004C2A61D15A1CB2F5007F80F24081224493
:1080100092F84C20452A40F0CE80B3F5FF7F03F163
:10802000020240F0398194F84C20442A40F0C38089
:108030000122A01890F84C004D2840F0BC8001327D
:10804000B2F5007F40F0378194F84C204F2A40F081
:10805000B2800122A01890F84C00442840F0AB8078
:108060000132B2F5007F40F0378194F84C20452A68
:1080700040F0A180DA1DB2F5007F04DB6FF4FC70E4
:108080000344C3F30802D4F85032934206D022448A
:10809000237C92F84C209A4240F0CB82DD4BDE49A3
:1080A0009D69E068002D40F0B38216F0A1FBDB492A
:1080B000E06816F09DFB217CE06816F0EBFBD4F83D
:1080C0005032C4F84C32E11891F84C20432A72D156
:1080D0005A1CB2F5007F80F23182224492F84C2083
:1080E0004F2A40F08780B3F5FF7F03F1020240F092
:1080F0002B8294F84C204E2A7CD10122A11891F8B1
:108100004C104E2976D10132B2F5007F40F02D821D
:1081100094F84C20452A6DD10122A11891F84C10F9
:10812000432967D10132B2F5007F40F02F8294F8E5
:108130004C20542A5ED10122A11891F84C104529F7
:1081400058D10132B2F5007F40F0318294F84C20D2
:10815000442A4FD103F10902B2F5007F04DB6FF42A
:10816000FB710B44C3F30802D4F85032934206D09B
:108170002244237C92F84C209A4240F09D82A848E9
:1081800009F0A6F9A74BA84AA3490546002D14BF3C
:108190001D461546E06816F02BFB2946E06816F0F0
:1081A00027FB217CE06816F075FB0025D4F85032DF
:1081B000C4F84C32E11891F84C20562A1AD15A1CB6
:1081C000B2F5007F80F2FA81224492F84C20452AD1
:1081D00010D1B3F5FF7F03F1020240F03C8394F825
:1081E0004C20522A06D194F84D20532A08BF02226F
:1081F00000F0E982D4F85832AB423BD01DB1D4F83C
:108200005032C4F84C32284610B070BD90F84C2063
:10821000412A7FF4ECAC90F84D20552A08BF022289
:108220007FF4E5ACA01890F84C0044287FF4DFAC54
:108230000132B2F5007F40F04E8294F84C20522A71
:108240007FF4D5AC94F84D20412A08BF02227FF478
:10825000CEACA01890F84C0054287FF4C8AC013282
:10826000B2F5007F40F04D8294F84C20452A00F092
:108270004E82BCE46D49E06816F0BAFA6C49E068D9
:1082800016F0B6FA217CE06816F004FBB6E794F825
:108290004C20452A8FD10122A01890F84C00442888
:1082A00089D10132B2F5007F7FF4C3AE94F84C203F
:1082B0004D2A80D10122A01890F84C004F287FF45D
:1082C0007AAF0132B2F5007F7FF4C4AE94F84C204F
:1082D000442A7FF470AF0122224492F84C20452AB0
:1082E0003FF4C8AE67E794F84C20442A7FF4BDAD54
:1082F0000122A61896F84C60562E7FF4B6AD0132D6
:10830000B2F5007F7FF43FAD94F84C20452A7FF40E
:10831000ACAD0122A61896F84C60522E7FF4A5ADA4
:108320000132B2F5007F7FF43DAD94F84C20542A21
:108330007FF49BAD0122A61896F84C60492E7FF47D
:1083400094AD0132B2F5007F7FF43BAD94F84C2040
:10835000532A7FF48AAD0122A61896F84C60492E64
:108360007FF483AD0132B2F5007F7FF439AD94F82C
:108370004C204E2A7FF479AD0122224492F84C2001
:10838000472A3FF43BAD70E594F84C20412A7FF436
:10839000E0AC0122A01890F84C004D287FF4D9AC35
:1083A0000132B2F5007F7FF43FAC94F84C20452AAF
:1083B0003FF440ACCDE494F84C20462A7FF41EAE46
:1083C0000122A01890F84C0053287FF417AE013218
:1083D000B2F5007F7FF475AC94F84C20542A7FF4FA
:1083E0000DAE0122A01890F84C0041287FF406AE93
:1083F0000132B2F5007F7FF475AC94F84C20542A1A
:108400007FF4FCAD0122224492F84C20452A3FF42F
:1084100079ACF3E5646C0020BCB104009CC104009D
:10842000C46C0020C0B10400C8B10400B4B10400A1
:1084300044B3040094F84C20442A7FF445AE012252
:10844000A01890F84C0056287FF43EAE0132B2F5E9
:10845000007F7FF420AD94F84C20452A7FF434AEA1
:108460000122A01890F84C0052287FF42DAE013262
:10847000B2F5007F7FF420AD94F84C20542A7FF4AD
:1084800023AE0122A01890F84C005F287FF41CAEA8
:108490000132B2F5007F7FF420AD94F84C20532ACE
:1084A0007FF412AE0122A01890F84C0045287FF40A
:1084B0000BAE0132B2F5007F7FF420AD94F84C2072
:1084C000522A7FF401AE0122A01890F84C005628E1
:1084D0007FF4FAAD0132B2F5007F7FF420AD94F85D
:1084E0004C20492A7FF4F0AD0122A01890F84C00EE
:1084F00043287FF4E9AD0132B2F5007F7FF420AD6F
:1085000094F84C20452A7FF4DFAD0122A01890F8A2
:108510004C005F287FF4D8AD0132B2F5007F7FF4C4
:1085200020AD94F84C20492A7FF4CEAD012222449C
:1085300092F84C20442A3FF424ADC5E594F84C2031
:108540004F2A7FF457AE0122A11891F84C104E2902
:108550007FF450AE0132B2F5007F7FF4CFAD94F8D6
:108560004C204E2A7FF446AE0122A11891F84C10FF
:1085700045297FF43FAE0132B2F5007F7FF4CDADE7
:1085800094F84C20432A7FF435AE0122A11891F8CB
:108590004C1054297FF42EAE0132B2F5007F7FF4E7
:1085A000CBAD94F84C20452A7FF424AE012222441E
:1085B00092F84C20442A3FF4CDAD1BE694F84C20B1
:1085C000452A7FF417AE94F84D20522A08BF0222A4
:1085D0007FF410AEA11891F84C1053297FF40AAE25
:1085E0000132B2F5007F40F0EE8094F84C20492A29
:1085F0007FF400AE94F84D204F2A08BF02227FF48A
:10860000F9AD224492F84C204E2A00F0F080F1E5BA
:1086100016F0EEF8A349E06816F0EAF8217CE0686D
:1086200016F038F9D4F85032C4F84C320025E1186D
:108630004AE59D49E068D4F85C5216F0D9F89B49A8
:1086400036E59949E068D4F85C5216F0D1F89849BB
:10865000E06816F0CDF8217CE06816F01BF9B7E46D
:108660009149E068D4F85C5216F0C2F89149E0688C
:1086700016F0BEF8217CE06816F00CF9FFF7EABBB3
:10868000E068D4F85C5216F0B3F88B49FFF755BB9D
:108690008549E06816F0ACF88849E06816F0A8F85B
:1086A000217CE06816F0F6F8D4F85032C4F84C3269
:1086B000E1180225FFF7EABA7B49E068D4F85C527A
:1086C00016F096F87E49E06816F092F8217CE06892
:1086D00016F0E0F86AE5A01890F84C0052287FF4F4
:1086E00086AA0132B2F5007F57D194F84C20412A76
:1086F0007FF47DAA94F84D20542A08BF02227FF40B
:1087000076AA224492F84C20452A7FF470AA03F1FD
:108710000802B2F5007FA4BFA3F5FC73C3F30802FF
:10872000D4F850326049934219D02244237C92F805
:108730004C209A4213D0E068D4F85C5216F058F8F6
:108740006049E06816F054F8217CE06816F0A2F861
:10875000D4F85032C4F84C32E118FFF74ABAE06856
:10876000D4F8645216F044F85749EAE7024492F804
:108770004C20552A7FF43BAADA1CB2F5007F7FF427
:1087800051AD90F84C20442A7FF431AA90F84D2046
:10879000522A08BF02227FF42AAAA01890F84C009F
:1087A00041287FF424AA0132B2F5007F7FF451AD55
:1087B00094F84C20542A7FF41AAA94F84D20452AA4
:1087C0007FF415AAA3E7A11891F84C1049297FF46A
:1087D00011AD0132B2F5007F54D194F84C204F2AEC
:1087E0007FF408AD94F84D204E2A7FF403ADDA1DD6
:1087F000B2F5007F04DB6FF4FC721344C3F308028C
:10880000D4F85032934218D02244237C92F84C2062
:108810009A4212D02449E068D4F85C5215F0E8FF7F
:108820002A49E06815F0E4FF217CE06816F032F890
:10883000D4F85032C4F84C32DCE42549E06815F035
:10884000D7FF2449E06815F0D3FF217CE06816F0DB
:1088500021F80025ECE7224492F84C20522A7FF4BC
:10886000C9ACDA1CB2F5007F7FF4B4AE94F84C20AA
:10887000532A7FF4BFAC94F84D20492A08BF022246
:108880007FF4B8ACA11891F84C104F297FF4B2AC2A
:108890000132B2F5007F7FF4B4AE94F84C204E2A3A
:1088A000A5D0A7E420BD0400B4B10400D4B20400F4
:1088B000A4B204007CB2040058B2040018B2040050
:1088C000F8B20400F4B10400D0B1040020B30400F5
:1088D000BCB10400B4BB040070B5D0F84C32067CC7
:1088E000C21886B092F84C20B2423AD001AC0021B6
:1088F0005D1C04F8012B6FF4FF72B5F5007F134483
:1089000001F10101ACBFC3F308032B46102900EBB2
:10891000030223D092F84C20964203D0D0F8505254
:10892000AB42E5D1C0F84C3201ABC1F1110258188D
:1089300000211FF0BDF91E4805F0D0FE1C4805F0CF
:10894000C5FD1C4805F0C2FD1B4801A908F020FD2B
:108950001A4B1B784BB9002006B070BDC0F84C32E2
:10896000E9E7D0F8600206B070BD0621104805F0B6
:1089700099FD0F4805F07EFD114B196811B10C48A7
:1089800005F034FD0B4805F047FD0948012105F0CD
:10899000C7FDF4220648202105F0BAFD04481E2137
:1089A00005F0B4FD0021024805F026FED3E700BF24
:1089B0000473002048730020C46C0020A8670020C6
:1089C000906C0020F8B50368394F1B69D0F86062DD
:1089D000BB4204463ED1D0E993508542C3BFC5F5A2
:1089E000FF7201328018401B002807DD621992F8DF
:1089F0004C20202A04BF0135C4F84C52BB4226D17A
:108A0000D4F850028542C3BFC5F5FF730133C018C7
:108A1000401B01280DDD6B1CB3F5007F04DB6FF4F8
:108A2000FF73EB18C3F30803254495F84C204F2A35
:108A300001D03046F8BD1C4494F84C304E2B0FD07A
:108A4000462BF6D11B4805F049FE0026F1E72046EB
:108A50009847DEE798472368D4F84C521B69C3E770
:108A6000154B1E78002EE4D00621124805F01AFDA1
:108A7000104805F0FFFC114B196811B10D4805F0C5
:108A8000B5FC0F4805F0C8FC0A48012105F048FD77
:108A9000F4220848202105F03BFD06481E2105F080
:108AA00035FD0448002105F0A7FD0026C1E700BF01
:108AB0008963020004730020A8670020906C0020E6
:108AC00048730020036870B51A69284ED0F86052C8
:108AD000B24204463DD1D0E993308342C3BFC3F5CF
:108AE000FF730133C018C01A002809DDD4F84C32D6
:108AF000E11891F84C10202904BF0133C4F84C321E
:108B0000B2422AD1D4E993308342C3BFC3F5FF7385
:108B10000133C018C01A002819DDD4F84C020444EF
:108B200094F84C40A4F131030E2BA4F130041AD870
:108B30000F4B104E53F82400346088B103681B6952
:108B400098470D4A336810609C4208BF00252846AC
:108B500070BD904723681A69C6E720469047DAE758
:108B60000546284670BD4FF0FF33EDE789630200EC
:108B700028670020946C0020906C0020F8B50368F2
:108B8000384F1B69D0F86062D0F84C52BB420446A3
:108B900041D1D0F850028542C3BFC5F5FF72013202
:108BA0008018401B002805DD621992F84C20202A0D
:108BB00008BF0135B5F5007FA8BFC5F30805BB4266
:108BC00026D1D4E993308342C3BFC3F5FF73013389
:108BD000C018C01A002806DD2C4494F84C30302B05
:108BE00003D0312B1BD03046F8BD1F4CFF21002392
:108BF000206AC4E9051319F081FD6169606A19F002
:108C00007DFD6169A06A19F079FD00263046F8BD46
:108C100020469847DEE7984723681B69C2E7124C55
:108C20002568A3699D4215D0FF21206A616119F072
:108C300065FD6169606A19F061FD6169A06A19F0FA
:108C40005DFD23689D4205D063689D4202D0A36804
:108C50009D42DAD13223A561E36016F0BBFBE061EF
:108C6000D3E700BF89630200646C002070B505463D
:108C7000D0E99320904232D01C4B0024A918013235
:108C800091F84C1003F8011BB2F5007F04F10104C8
:108C900009DA8242F2D1C5F84C22154B1B783BB958
:108CA000D5F8700270BD08B10022E7E70246F2E78E
:108CB000686858B103680F4A1E69964211D153F88B
:108CC0000C3C0A491844224609F030F9A86820B142
:108CD000036806491B6A22469847204670BD002457
:108CE000DBE7024A23460021B047EFE72066002079
:108CF000A9670020E5630200F0B5036883B0DB6A72
:108D000004460E46984700282DD0184818490746B3
:108D100015F06EFD23682046DB6A98470A2201465B
:108D2000384615F043FE1349384615F061FD0CE056
:108D300023685B699847C1B23846019115F086FDFA
:108D4000336801991B683046984723682046DB6AE0
:108D5000984705462046002DEAD1044815F07AFDD3
:108D6000284603B0F0BD4FF0FF35F9E74475002009
:108D70005CB304008CB304002DE9F843DFF8FC90E9
:108D800031493248324D334FDFF8E080012389F812
:108D9000003008F0F5FA30492C4808F0F9FA2F496C
:108DA0002A4806F00DFF2E49284806F00BFF2D48F3
:108DB00008F05CFD05F11006002415F8013F21467E
:108DC00043B157F824000368DB68984757F824300C
:108DD00048F82430AE4204F10104EED1224B1B6866
:108DE0005A1E0E2A08D8214A52F8230020B10368DF
:108DF0001B6998471E4B186099F800300BB9BDE805
:108E0000F88306211B4805F04DFB1A4805F032FB9C
:108E1000174B196811B1174805F0E8FA164805F024
:108E2000FBFA1448012105F07BFB1248F4222021B3
:108E300005F06EFB0F481E2105F068FBBDE8F84306
:108E40000C48002105F0D8BB986C0020C46C0020B1
:108E50004F6C00206867002004600020B5640200A9
:108E600029650200E06B0020946C00202867002038
:108E7000906C00200473002048730020A867002035
:108E800038B503681F4D1A69AA42044636D1D0E9A5
:108E900093308342C3BFC3F5FF730133C018C01AB8
:108EA000002809DDD4F84C32E11891F84C10202943
:108EB00004BF0133C4F84C32AA421CD1D4E9933028
:108EC0008342C3BFC3F5FF730133C018C01A002823
:108ED0000FDDD4F84C32234493F84C00302802D0F4
:108EE0003038FFF749FFD4F85032C4F84C32002034
:108EF00038BD0120F5E720469047E8E79047236812
:108F00001A69CDE789630200F8B5334C334F344E0C
:108F1000344D2046002108F0B1FA2046042108F023
:108F200057F800222046012108F082F8204604214B
:108F300008F056FA2C49204608F010FA38460B2162
:108F400016F0F0F90C2103463846337216F0EAF9B0
:108F50000D2103463846737216F0E4F90E210346DC
:108F60003846B37216F0DEF905F130071F4C204980
:108F700003460C223846F37208F0FCFC40263846C3
:108F80001C491D4F1A2208F0E1FC32460021204600
:108F90001EF08EFE324600211848194E1EF088FE43
:108FA000184B194AE2600022C3E900221748184909
:108FB000A060C3E902221748266178356560012662
:108FC00040F20115A061022067619A809A715E707B
:108FD0005D800860F8BD00BFC46C0020A06C00205C
:108FE00004600020886A0020996C002068670020D7
:108FF00084BB0400B4BB0400646B0020286700201D
:10900000746A0020506C0020AC680020E4690020E5
:10901000946C0020CC6B002010B4BA4A13786FF324
:109020004703137001784478A1F13003DBB2092BB8
:1090300040F2BB80A1F14103052B40F2B480A1F1C5
:109040006103052B00F2538157390901CBB2A4F11A
:109050003001C9B2092900F2B0800B44DBB2937130
:109060008178C478A1F13003DBB2092B40F2B680DD
:10907000A1F14103052B40F2AF80A1F16103052B63
:1090800000F2398157390901CBB2A4F13001C9B2DC
:10909000092900F2AB800B44DBB2537101794479AA
:1090A000A1F13003DBB2092B40F2B080A1F1410302
:1090B000052B40F2A980A1F16103052B00F21F816D
:1090C00057390901CBB2A4F13001C9B2092900F224
:1090D000A5800B44DBB213718179C479A1F130030F
:1090E000DBB2092B40F2AA80A1F14103052B40F22B
:1090F000A380A1F16103052B00F2F7805739090124
:10910000CBB2A4F13001C9B2092900F29F800B440F
:10911000DBB2D370017A447AA1F13003DBB2092BC0
:1091200040F2A480A1F14103052B40F29D80A1F102
:109130006103052B00F2E18057390901CBB2A4F19C
:109140003001C9B2092900F299800B44DBB2817A5F
:109150009370A1F13003DBB2092BC07A40F2BB80DF
:10916000A1F14103052B40F29A80A1F16103052B87
:1091700000F2BF8057390901CBB2A0F13001C9B26A
:10918000092940F29680A0F14101052940F2A6800C
:10919000A0F16101052902D857380344DBB25370AE
:1091A0005DF8044B7047A1F137031B01DBB2A4F15A
:1091B0003001C9B209297FF650AFA4F14101052958
:1091C00040F28680A4F1610105293FF648AFA4F181
:1091D00057010B44DBB242E7A1F137031B01DBB2BD
:1091E000A4F13001C9B209297FF655AFA4F14101BC
:1091F00005296AD9A4F1610105293FF64EAFA4F112
:1092000057010B44DBB248E7A1F137031B01DBB286
:10921000A4F13001C9B209297FF65BAFA4F1410185
:10922000052939D9A4F1610105293FF654AFA4F10C
:1092300057010B44DBB24EE7A1F137031B01DBB250
:10924000A4F13001C9B209297FF661AFA4F141014F
:10925000052934D9A4F1610105293FF65AAFA4F1DB
:1092600057010B44DBB254E7A1F137031B01DBB21A
:10927000A4F13001C9B209297FF667AFA4F1410119
:1092800005291FD9A4F1610105293FF660AFA4F1BA
:1092900057010B44DBB25AE7A4F1370119E7A1F1FA
:1092A0003703A0F13001C9B21B010929DBB23FF637
:1092B0006AAF0B44DBB253705DF8044B7047A4F106
:1092C000370124E7A4F137013FE7A4F13701E2E6D3
:1092D000A4F13701C1E61B01DBB24EE73738034486
:1092E000DBB253705DF8044B70470023A8E70023FE
:1092F0005DE7002341E7002372E70023B8E700237E
:1093000086E700BF986C002030B5774B1B7885B09E
:109310000446CBB90368754A1B69934240F0C0808C
:10932000D0E993308342C3BFC3F5FF730133C01844
:10933000C01A0B2810DCD4F86852D4F85032C4F8A4
:109340004C32284605B030BDD4F85032C4F84C3207
:109350000025284605B030BDD4F84C1262184B1CCD
:1093600092F84C20092A12D922F020004138052811
:109370000DD9D4F86C52C4F84C326846FFF74CFE55
:10938000D4F85032C4F84C32284605B030BD2344DE
:109390008DF8002093F84C20092A01F1020378D8B7
:1093A00023448DF8012093F84C20092A01F103038E
:1093B00004D922F0200041380528DAD823448DF85A
:1093C000022093F84C20092A01F1040304D922F069
:1093D000200041380528CCD823448DF8032093F889
:1093E0004C20092A01F1050304D922F0200041385C
:1093F0000528BED823448DF8042093F84C20092A70
:1094000001F1060304D922F0200041380528B0D824
:1094100023448DF8052093F84C20092A01F1070315
:1094200004D922F0200041380528A2D823448DF821
:10943000062093F84C20092A01F1080332D823446E
:109440008DF8072093F84C20092A01F1090330D840
:1094500023448DF8082093F84C20092A01F10A03CF
:109460002ED823448DF8092093F84C20092A01F1C5
:109470000B032CD823448DF80A2093F84C20092A9A
:1094800001F10C032AD88DF80B20C4F84C320025CA
:1094900073E722F02000413805283FF66AAF7FE7E6
:1094A000984746E722F02000413805283FF661AF93
:1094B000C5E722F02000413805283FF65AAFC7E73C
:1094C00022F02000413805283FF653AFC9E722F0CB
:1094D0002000413805283FF64CAFCBE722F02001B1
:1094E00041390529CFD944E7A867002089630200E4
:1094F000F8B5D0F84C32C118044691F84C20422AF5
:109500001AD15A1CB2F5007F80F2CA82024492F846
:109510004C20452A10D1B3F5FF7F03F1020240F041
:10952000C78590F84C20472A06D190F84D20492A4B
:1095300008BF022200F0DA85D4F8586291F84C2076
:10954000422A60D15A1CB2F5007F80F2788322440F
:1095500092F84C20412A40F09480B3F5FF7F03F14C
:10956000020240F0728394F84C20552A40F0898022
:109570000122A01890F84C00442840F0828001326B
:10958000B2F5007F40F0728394F84C20522A78D1D3
:109590000122A01890F84C00412872D10132B2F596
:1095A000007F40F0748394F84C20542A69D1012242
:1095B000A01890F84C00452863D10132B2F5007F25
:1095C00040F0768394F84C203D2A5AD109335A4210
:1095D000C2F30802C3F3080358BF5342C4F84C3225
:1095E000D849E068D4F8646215F002F9D649E06819
:1095F00015F0FEF8217CE06815F04CF9D4F85032F3
:10960000C4F84C32E11891F84C204D2A39D15A1C3B
:10961000B2F5007F80F25383224492F84C20412A15
:109620007FD1B3F5FF7F03F1020240F04E8394F83F
:109630004C20432A75D10122224492F84C203D2A25
:109640006FD10433C1495A42C2F308020978C3F307
:10965000080358BF5342C4F84C32002900F00E846E
:10966000B849E06815F0C4F8B949E06815F0C0F8E9
:10967000217CE06815F00EF9D4F85032C4F84C3271
:10968000E11891F84C204E2A4BD15A1CB2F5007FBC
:1096900080F22C83224492F84C20412A40F09A8098
:1096A000B3F5FF7F03F1020240F0268394F84C20CB
:1096B0004D2A40F08F800122A01890F84C004528D8
:1096C00040F088800132B2F5007F40F0268394F8A4
:1096D0004C203D2A7ED105335A42C2F30802C3F31F
:1096E000080358BF5342C4F84C322046FFF7F4F841
:1096F00098490646E06815F07BF8217CE06815F093
:10970000C9F8052015F072FE1825E06810B1217C1B
:1097100015F09CF8013DF8D1D4F85032C4F84C3221
:10972000E11891F84C20522A54D15A1CB2F5007F0E
:1097300080F2FE82224492F84C20462A69D1B3F589
:10974000FF7F03F1020240F0F98294F84C20532A83
:109750005FD10122A11891F84C10542959D101323E
:10976000B2F5007F40F0FB8294F84C20412A50D1A2
:109770000122A11891F84C1054294AD10132B2F5B6
:10978000007F40F0FD8294F84C20452A41D101220F
:10979000224492F84C203D2A3BD108335A42C2F36E
:1097A0000802C3F3080358BF5342C4F84C3265495A
:1097B000E068D4F8646215F01BF86749E06815F0BA
:1097C00017F8217CE06815F065F8D4F85032C4F839
:1097D0004C32E11891F84C20412A1AD15A1CB2F5AA
:1097E000007F80F2DE82224492F84C20442A10D17D
:1097F000B3F5FF7F03F1020240F00D8494F84C2092
:10980000562A06D194F84D20452A08BF022200F0BE
:10981000C58352491A4601F11207A51811F8010B28
:1098200095F84C50854202F1010228D1B2F5007F33
:10983000A8BF0022B942F0D112335A42C2F3080243
:10984000C3F3080358BF5342C4F84C322046FFF715
:1098500039F90646002800F04A833A49E068D4F80E
:10986000606214F0C5FF3E49E06814F0C1FF217C3E
:10987000E06815F00FF8D4F85032C4F84C32E11813
:1098800091F84C20452A40F0E2805A1CB2F5007F46
:1098900080F25681224492F84C204E2A40F0F58006
:1098A000B3F5FF7F03F1020240F04F8194F84C20A2
:1098B000412A40F0EA800122A11891F84C10422977
:1098C00040F0E3800132B2F5007F40F04D8194F822
:1098D0004C204C2A40F0D9800122A11891F84C105C
:1098E000452940F0D2800132B2F5007F40F04B8133
:1098F00094F84C205F2A40F0C8800122A11891F80A
:109900004C10532940F0C1800132B2F5007F40F085
:109910004B8194F84C20452A40F0B7800122A118D1
:1099200091F84C10522940F0B0800132B2F5007F1E
:1099300040F04B8194F84C20562A40F0A68001223A
:1099400010E000BFB4B10400B4B30400A867002065
:10995000D8B30400BCB10400A0B40400D8B404001F
:10996000ECB40400A11891F84C10492940F08D8006
:109970000132B2F5007F40F0398194F84C20432A3F
:1099800040F083800122A11891F84C1045297CD128
:109990000132B2F5007F40F03A8194F84C205F2A02
:1099A00073D10122A11891F84C1049296DD10132CF
:1099B000B2F5007F40F03C8194F84C20442A64D1F9
:1099C0002268D94D116811335A42C2F30802C3F319
:1099D000080358BF5342A942C4F84C3240F0BC823D
:1099E0005A1C51422344C1F30801C2F3080258BF74
:1099F0004A4293F84C70C4F84C222F2F16D9236892
:109A00001B68AB4240F0AC82D4F84C22531C594244
:109A10002244C1F30801C3F3080358BF4B4292F834
:109A20004C00C4F84C323D2800F06382002E40F018
:109A30008482BE49E06814F0DBFE217CE06814F00B
:109A400029FF0026D4F85032C4F84C32E11891F8BE
:109A50004C204C2A19D15A1CB2F5007F42DA22441C
:109A600092F84C20452A10D1B3F5FF7F03F1020292
:109A700040F0848394F84C20442A06D194F84D2079
:109A80004D2A08BF022200F0C783D4F85832B342EF
:109A900000F01B82D4F85032C4F84C323046F8BD86
:109AA00090F84C20452A7FF447AD90F84D20472A86
:109AB00008BF02227FF440ADA01890F84C0049285E
:109AC0007FF43AAD0132B2F5007F40F00F8394F895
:109AD0004C204E2A7FF430AD94F84D203D2A7FF47F
:109AE0002BAD12E394F84C20452ACED194F84D20AA
:109AF000442A08BF0222C8D1A11891F84C104D2960
:109B0000C3D10132B2F5007F40F0868394F84C2037
:109B10004F2ABAD194F84D20442A08BF0222B4D16A
:109B2000A11891F84C104529AFD10132B2F5007F50
:109B300040F0888394F84C203D2A00F04B83A4E742
:109B400094F84C204E2AA0D10122A11891F84C1073
:109B500041299AD10132B2F5007F7FF4ADAE94F87D
:109B60004C20422A91D10122A11891F84C104C2985
:109B70008BD10132B2F5007F7FF4AFAE94F84C2068
:109B8000452A82D10122A11891F84C105F297FF457
:109B90007CAF0132B2F5007F7FF4B0AE94F84C2078
:109BA000532A7FF472AF0122A11891F84C10452975
:109BB0007FF46BAF0132B2F5007F7FF4B0AE94F862
:109BC0004C20522A7FF461AF0122A11891F84C1069
:109BD00056297FF45AAF0132B2F5007F7FF4C2AE4E
:109BE00094F84C20492A7FF450AF0122A11891F833
:109BF0004C1043297FF449AF0132B2F5007F7FF466
:109C0000C2AE94F84C20452A7FF43FAF0122A11840
:109C100091F84C105F297FF438AF0132B2F5007F24
:109C20007FF4C0AE94F84C20492A7FF42EAF012275
:109C3000224492F84C20442A3FF4C2AE25E794F81F
:109C40004C20412A7FF41DAD0122A01890F84C0051
:109C500055287FF416AD0132B2F5007F7FF489AC50
:109C600094F84C20442A7FF40CAD0122A01890F8FF
:109C70004C0052287FF405AD0132B2F5007F7FF42D
:109C800088AC94F84C20412A7FF4FBAC0122A01848
:109C900090F84C0054287FF4F4AC0132B2F5007F08
:109CA0007FF486AC94F84C20452A7FF4EAAC01227C
:109CB000224492F84C203D2A3FF488ACE1E494F829
:109CC0004C20412A7FF42DAD0122A01890F84C00C1
:109CD00043287FF426AD0132B2F5007F7FF4ACACAF
:109CE00094F84C203D2A3FF4ACAC1AE594F84C2093
:109CF000412A7FF46FAD0122A01890F84C004D2846
:109D00007FF468AD0132B2F5007F7FF4D5AC94F8F2
:109D10004C20452A7FF45EAD0122224492F84C206B
:109D20003D2A3FF4D8AC55E561630200BCB10400A4
:109D300094F84C20462A7FF46CAD0122A11891F8CA
:109D40004C1053297FF465AD0132B2F5007F7FF4EA
:109D500001AD94F84C20542A7FF45BAD0122A11888
:109D600091F84C1041297FF454AD0132B2F5007FD7
:109D70007FF4FFAC94F84C20542A7FF44AAD0122C2
:109D8000A11891F84C1045297FF443AD0132B2F58A
:109D9000007F7FF4FDAC94F84C203D2A3FF4FDACED
:109DA00037E594F84C20442A7FF433AD94F84D20E5
:109DB000562A08BF02227FF42CADA11891F84C104E
:109DC00045297FF426AD0132B2F5007F40F0E680F0
:109DD00094F84C20522A7FF41CAD94F84D20542A5C
:109DE00008BF02227FF415ADA11891F84C10492943
:109DF0007FF40FAD0132B2F5007F40F0E58094F8BA
:109E00004C20532A7FF405AD94F84D20492A08BF11
:109E100002227FF4FEACA11891F84C104E297FF479
:109E2000F8AC0132B2F5007F40F0E48094F84C20A9
:109E3000472A7FF4EEAC94F84D203D2A7FF4E9AC3C
:109E40000C335A42C2F30802C3F3080358BF53420B
:109E5000C4F84C322046FEF7B5FD0646002840F017
:109E60009780BC49E06814F0C3FC217CE06814F0E2
:109E700011FDD4F85032C4F84C32CAE42046FFF742
:109E800043FA0646002856D0D4F8683283426ED092
:109E9000D4F86C32B049E068B34264D014F0A8FC46
:109EA000AE49E06814F0A4FC217CE06814F0F2FCF8
:109EB000052015F09BFA1825E06810B1217C14F0FC
:109EC000C5FC013DF8D1FFF7D7BBA349E06814F00A
:109ED0008FFCA349E06814F08BFC217CE06814F04F
:109EE000D9FCD4F85032C4F84C323046F8BD994908
:109EF000BAE423681B68AB4247D1D4F84C22531C08
:109F000059422244C1F30801C3F3080358BF4B422E
:109F100092F84C00C4F84C325428A7F130032CD0EE
:109F200046287FF483AD313F0E2F3FF682AD8D4A38
:109F30000021D1547DE58749B3E78749E068D4F82B
:109F4000606214F055FC8849E06814F051FC217CF3
:109F5000E06814F09FFC75E52046884707464CE50D
:109F6000204698475FE514F043FC804999E77A4919
:109F7000E06814F03DFC7E4993E7313F0E2F3FF639
:109F800055AD784A0121D15453E520469847C3E79F
:109F90007149E06814F02CFC764963E7A11891F848
:109FA0004C1052297FF435AC0132B2F5007F49D113
:109FB00094F84C20542A7FF42CAC94F84D20492A74
:109FC00008BF02227FF425ACA11891F84C10532948
:109FD0007FF41FAC0132B2F5007F4AD194F84C20D7
:109FE000492A7FF416AC94F84D204E2A08BF02226D
:109FF0007FF40FACA11891F84C1047297FF409ACFD
:10A000000132B2F5007F4BD194F84C203D2A3FF449
:10A0100017AFFFF7FEBB224492F84C20562A7FF47C
:10A02000F8ABDA1CB2F5007F7FF4C7AE94F84C2091
:10A03000452A7FF4EEAB94F84D20522A08BF022245
:10A040007FF4E7ABA11891F84C1054297FF4E1ABF1
:10A050000132B2F5007F7FF4C7AE94F84C20492A54
:10A060007FF4D7AB94F84D20532A08BF02227FF427
:10A07000D0ABA11891F84C1049297FF4CAAB01323A
:10A08000B2F5007F7FF4C7AE94F84C204E2A7FF4DF
:10A09000C0AB94F84D20472A08BF02227FF4B9AB29
:10A0A000224492F84C203D2A3FF4CAAEFFF7B1BBE0
:10A0B000024492F84C20472A7FF43EAADA1CB2F5FB
:10A0C000007F7FF4F9AC90F84C20492A7FF434AA41
:10A0D00090F84D204E2A08BF02227FF42DAA224478
:10A0E00092F84C203D2A10D0FFF726BAA01890F81D
:10A0F0004C004E287FF420AA0132B2F5007FEED149
:10A1000094F84C203D2A7FF417AA06335A42C2F332
:10A110000802C3F3080358BF5342C4F84C32204628
:10A12000FEF7AEFE064670B90A49E06814F060FB1F
:10A13000217CE06814F0AEFBD4F85032C4F84C3205
:10A14000E118FFF7FBB90449E06814F051FB0A4934
:10A15000EBE700BFBCB10400B4B104007CB4040060
:10A1600040B50400506C00200CB5040048B4040055
:10A1700014B40400C0B40400A0B30400224492F854
:10A180004C20442A7FF481ACDA1CB2F5007F7FF4C6
:10A19000B3AC94F84C204D2A7FF477AC94F84D2062
:10A1A0004F2A08BF02227FF470ACA11891F84C101E
:10A1B00044297FF46AAC0132B2F5007F7FF4B0AC81
:10A1C00094F84C20452A7FF460AC94F84D203D2A49
:10A1D0007FF45BAC08335A42C2F30802C3F30803AE
:10A1E00058BF5342C4F84C322046FEF7C7FC06461F
:10A1F00060B91749E06814F0FBFA217CE06814F0BC
:10A2000049FBD4F85032C4F84C323EE41149E068BE
:10A2100014F0EEFA1049EDE7A11891F84C104F290F
:10A220007FF433AC0132B2F5007FBED194F84C20FC
:10A23000442A7FF42AAC94F84D20452A08BF022214
:10A240007FF423AC224492F84C203D2AC2D01CE477
:10A25000BCB10400B4B104002CB504000368DB4AAF
:10A260001B69934270B5D0F85462044640F0F78100
:10A27000D0E99335AB42C3BFC3F5FF730133ED188B
:10A28000ED1A042D40F39C80D4F84C32E21892F879
:10A290004C20532A40F0E681591CB1F5007F80F232
:10A2A0004E81621892F84C20452A19D1B3F5FF7FF0
:10A2B00003F1020240F0498194F84C204E2A0FD15C
:10A2C0000122A01890F84C00442809D10132B2F5BF
:10A2D000007F40F04B8194F84C20202A00F04C8104
:10A2E000B1F5007F80F21481214491F84C20452A79
:10A2F0003DD1B3F5FF7F03F1020240F00F8194F8E6
:10A300004C20542A33D10122224492F84C20202A96
:10A310002DD11A1D5342C3F30803C2F3080258BFDC
:10A320005A42C4F84C222046FFF7E2F8D4F84C32E7
:10A330000026E21892F84C20472A18D15A1CB2F590
:10A34000007F80F23181224492F84C20452A0ED1C0
:10A35000B3F5FF7F03F1020240F0BC8094F84C207B
:10A36000542A04D194F84D20202A00F0C280042DF4
:10A3700028DDD4F84C32E1181A4691F84C104229E5
:10A380005ED15A1CB2F5007F26DA224492F84C20A6
:10A39000452A17D1B3F5FF7F03F1020240F06F8128
:10A3A00094F84C20472A0DD194F84D20492A08BF33
:10A3B000022207D1224492F84C204E2A23D001E0F9
:10A3C00000F05481D4F85432B34271D0D4F85032F2
:10A3D000C4F84C32304670BD94F84C20452AF1D177
:10A3E00094F84D20472A08BF0222EBD1A11891F81A
:10A3F0004C104929E6D10132B2F5007FDAD194F848
:10A400004C204E2ADED105335A42C2F30802C3F370
:10A41000080358BF5342C4F84C322046FEF730FDC3
:10A420000646002840F025816949E06814F0E0F90B
:10A43000217CE06814F02EFAD4F85022C4F84C22A3
:10A44000062DBFDDA31893F84C30562BBAD1531C00
:10A45000B3F5007F80F2C280234493F84C30452B43
:10A46000B0D1B2F5FF7F02F1020340F01E8194F8F3
:10A470004C30522BA6D194F84D30532B08BF0223F9
:10A48000A0D1E11891F84C1049299BD10133B3F5C3
:10A49000007F40F0208194F84C304F2B92D194F8FB
:10A4A0004D304E2B00F0C380D4F85432B3428DD1DE
:10A4B0004849E06814F09CF94749E06814F098F9BD
:10A4C000217CE06814F0E6F9D4F85032C4F84C323C
:10A4D000304670BD224492F84C20542A7FF447AF96
:10A4E000DA1CB2F5007F6BD194F84C20202A7FF45F
:10A4F0003EAF1A1D5342C3F30803C2F3080258BF0C
:10A500005A42C4F84C222046FDF74CFB06462EE783
:10A5100094F84C20452A7FF42AAF0122A11891F823
:10A520004C1054297FF423AF0132B2F5007F7FF441
:10A53000EBAE94F84C20202A3FF4EBAE17E794F8EA
:10A540004C20452A7FF4CCAE0122A01890F84C0094
:10A550004E287FF4C5AE0132B2F5007F7FF4B1AE74
:10A5600094F84C20442A7FF4BBAE0122224492F896
:10A570004C20202A7FF4B4AE05335A42C2F30802BD
:10A58000C3F3080358BF5342C4F84C322046FEF7C9
:10A590006DFBD4F84C320026E21892F84C10532987
:10A5A0007FF4C8AE591C9BE694F84C20452A7FF4F2
:10A5B000DEAE94F84D20542A08BF02227FF4D7AEB5
:10A5C000224492F84C20202A93D0D0E689630200DE
:10A5D000BCB10400B4B1040058B5040094F84C3088
:10A5E000452B7FF4EFAE94F84D30522B08BF022379
:10A5F0007FF4E8AEE11891F84C1053297FF4E2AEF5
:10A600000133B3F5007F7FF43CAF94F84C30492B15
:10A610007FF4D8AE94F84D304F2B08BF02237FF45F
:10A62000D1AE234493F84C304E2B7FF4CBAE07329F
:10A630005342C3F30803C2F3080258BF5A42C4F896
:10A640004C222C49E06814F0D3F82B49E06814F050
:10A65000CFF8217CE06814F01DF90026B2E6984797
:10A6600005460EE6472A3FF469AE84E6D4F84C323C
:10A6700092E72249E06814F0BBF82149D5E622446C
:10A6800092F84C20472A7FF49DAEDA1CB2F5007F89
:10A690007FF4ACAE94F84C20492A7FF493AE94F842
:10A6A0004D204E2A7FF48EAEADE6234493F84C3015
:10A6B000522B7FF487AED31CB3F5007F9AD194F868
:10A6C0004C30532B7FF47EAE94F84D30492B08BFAD
:10A6D00002237FF477AEE11891F84C104F297FF4F4
:10A6E00071AE0133B3F5007F9BD194F84C304E2B03
:10A6F0009DD067E6BCB10400B4BB0400B4B1040053
:10A70000A0B30400F8B5454E3368834285BF0023EB
:10A710003360C31A0346642B04463DD9404B1B7873
:10A72000002B3AD03F4DAB69002B26DDAF68BB4212
:10A730004AD12A681F46EB699C423CBF0023EB616B
:10A74000974205D0AA68974202D06A68974222D100
:10A75000EA6813449C421ED9D5E904311944FE2904
:10A76000EC6154DC7F29DDBF08237F21C5E904317A
:10A770006961384617F0C2FFAB6963B9FF21286AE7
:10A78000696117F0BBFF6969686A17F0B7FF69690B
:10A79000A86A17F0B3FF3460F8BD234B214D1B7836
:10A7A0003BB9AB69002BE8DD2F68BB420CD13A46C0
:10A7B000C1E71E4803F0B0FE0028F2D0AB69002BC1
:10A7C000DBDD6F68BB42B4D0FF21286A696117F0F6
:10A7D00095FF6969686A17F091FF6969A86A17F0BF
:10A7E0008DFF2B689F420BD06B689F4208D0AB68EF
:10A7F0009F4205D0AB69002BBFDD2A681F469AE750
:10A800003223AF61EB6014F0E5FDE861F2E76FF031
:10A810000703FF21C5E90431ABE700BF246700202F
:10A82000A9670020646C0020A86700200473002042
:10A830002DE9F04F9A488FB014F034F9002850D029
:10A84000974E984C984F304614F02CF9002848D079
:10A85000304614F02FF96569C0B2002D67D1237C12
:10A86000834200F0E780D4F85032E2180133B3F5A8
:10A87000007F82F84C00D4F84C22B2BFC4F85032AA
:10A880002B46C4F850529A42C3BFC2F5FF71013142
:10A890005B189B1A032BD6D1A31893F84C30422B8C
:10A8A00040F0EA82531CB3F5007F80F20784234412
:10A8B00093F84C304C2B40F0DF82B2F5FF7F02F171
:10A8C000020340F0018494F84C30452B40F0D482D0
:10A8D00002220023C4E90523304614F0E3F80028DF
:10A8E000B6D1724B1B7823B1714B1B78002B40F013
:10A8F000198414F06FFD6F4DFFF704FF14F06AFD2B
:10A900002B6898423BBF00232B60C31A0346642B7D
:10A91000044609D9664B1978002900F0CB83012140
:10A92000192017F0F7FF2C600FB0BDE8F08F012D54
:10A9300000F0A180022D00F0A282032D00F00E8312
:10A94000042D00F0CD83052D00F02387062D7FF424
:10A950007AAFD4E993129142C4BFC1F5FF750135B6
:10A96000636ACCBFAD18551AAB4200F3C785257C8E
:10A97000854240F0C385A56A9D42A8BF1D46002DB3
:10A9800013DD4D4800EB050C6318013193F84C3092
:10A9900000F8013F4B42C3F30803C1F3080158BF5D
:10A9A00059428445F0D1C4F84C12D4E906A9BAF151
:10A9B000020F216A01F08685BAF1010F01F0F384DC
:10A9C0003E4905A814F094FB0A22E16908A814F096
:10A9D000C3FB08A905A814F049FC394914F072FC1E
:10A9E0000A22216A05460BA814F0B6FB0BA92846DB
:10A9F00014F03CFC014602A814F094FB0BA814F0E0
:10AA0000DFFB08A814F0DCFB05A814F0D9FB029DBD
:10AA10002C49E06813F0ECFE2946E06813F0E8FEEC
:10AA2000217CE06813F036FF002302A8636114F074
:10AA3000C7FB19E0D4E993329342C3BFC3F5FF7556
:10AA40000135AD18D51A042DD4F854023EDC6FD070
:10AA50001C49E06813F0CCFE1B49E06813F0C8FE07
:10AA6000217CE06813F016FFD4F85032C4F84C3261
:10AA700000236361E7E6237C834200F09B80D4F8E7
:10AA80005032E2180133B3F5007F82F84C00C4F86D
:10AA90005032FFF6D8AE0023C4F85032D3E600BFE0
:10AAA00068940020AC630020BCB10400A8670020BB
:10AAB000A967002020670020D763002094B104001C
:10AAC000B0B10400B4B1040058B50400E21892F823
:10AAD0004C20532A41F03F83591CB1F5007FC0F24E
:10AAE0002B8394F84C20452A3AD194F84D204E2AD5
:10AAF00029D194F84E20442A25D10122B2F5FF7FB6
:10AB000002F1020C41F0DD8594F84C20202A16D188
:10AB100005335A42C2F30802C3F30803204658BF64
:10AB20005342C4F84C32FEF7A1F8D4F84C3200205E
:10AB3000E21892F84C20532A40F07582591CB1F566
:10AB4000007FC0F2438294F84C20452A06D194F845
:10AB50004D20542A08BF022200F04C82042D23DD30
:10AB6000D4F84C32E21892F84C20422A40F071821C
:10AB70005A1CB2F5007F80F2F682224492F84C20F3
:10AB8000452A11D1B3F5FF7F03F1020241F023857D
:10AB900094F84C20472A41F0D48394F84D20492A58
:10ABA00008BF022200F0F082D4F8543283427FF4CE
:10ABB0005BAF4DE7D4E993329342C3BFC3F5FF784F
:10ABC00008F101089044A2EB0308B8F1040FD4F88F
:10ABD000540240F34A83E21892F84C20532A41F081
:10ABE000C18303F1010CBCF5007FC0F2928794F899
:10ABF0004C20452A40F07F870122A11891F84C1083
:10AC00004E2925D1511CB1F5007F41F0188694F8EA
:10AC10004C20442A1CD10122224492F84C102029B5
:10AC200016D105335A42C2F30802C3F30803204683
:10AC300058BF5342C4F84C32FEF718F8D4F84C32DF
:10AC40000020E21892F84C20532A2ED103F1010C77
:10AC5000BCF5007F80F24F8704EB0C0292F84C2089
:10AC6000452A4DD10CF10102B2F5007F41F0F58586
:10AC700094F84C20542A43D10122224492F84C20CB
:10AC8000202A3DD104335A42C2F30802C3F3080319
:10AC9000204658BF5342C4F84C32FEF729FCD4F882
:10ACA0004C32E218002092F84C20472A28D15A1C36
:10ACB000B2F5007F80F20E87224492F84C20452A9C
:10ACC00040F01387B3F5FF7F03F1020241F0A58541
:10ACD00094F84C20542A13D10122224492F84C209B
:10ACE000202A40F0028704335A42C2F30802C3F319
:10ACF0000803204658BF5342C4F84C32FCF752FFB9
:10AD0000B8F1040F7FF750AFD4F84C32E21892F844
:10AD10004C20422A5BD15A1CB2F5007F80F2C786D4
:10AD2000224492F84C20452A7FF43EAFB3F5FF7FD2
:10AD300003F1020241F01C8594F84C20472A40F0B0
:10AD4000D08794F84D20492A08BF02227FF42CAF07
:10AD5000224492F84C204E2A7FF426AF05335A4203
:10AD6000C2F30802D4F85012C3F3080358BF534289
:10AD70008B42C4F84C3240F2FF1241F3E281D21A06
:10AD80005018002841F35E82E01890F84C0020280B
:10AD900000F09C870A44002A41F35482234493F82C
:10ADA0004C00302804D03038FDF7E6FFD4F85012BC
:10ADB000C4F84C12E068394613F01AFD217CE068B3
:10ADC00013F068FDD4F85032C4F84C320020B8F1CA
:10ADD000060F7FF7E9AEE21892F84C20562A7FF46E
:10ADE000E3AE5A1CB2F5007F80F23A86224492F814
:10ADF0004C20452A7FF4D8AEB3F5FF7F03F1020261
:10AE000041F0D08494F84C20522A7FF4CDAE94F8CF
:10AE10004D20532A7FF4C8AE94F84E20492A7FF47F
:10AE2000C3AE94F84F204F2A7FF4BEAE042501F044
:10AE3000D5BC94F84C204C2A1ED194F84D20452ABC
:10AE40001AD194F84E20572A16D194F84F20522A3E
:10AE500012D10422A11891F84C1049290CD10132C9
:10AE6000B2F5007F69D194F84C20542A04D194F8AB
:10AE70004D20452A02F02D8201236361E3E4237C07
:10AE8000834200F04783D4F85032E2180133B3F51F
:10AE9000007FA8BF0023202882F84C00C4F850325D
:10AEA0007FF4D1ACD4F84C229A42C3BFC2F5FF71F3
:10AEB0000131C918991A092940F34686A11891F859
:10AEC0004C104229D8D1501CB0F5007F81F2EB80A4
:10AED000211891F84C104C2910D1B2F5FF7F02F1E6
:10AEE000020141F07F8694F84C10452906D194F870
:10AEF0004D104E2908BF022101F03486B0F5007FC5
:10AF000097DA204490F84C104C29B5D1B2F5FF7F68
:10AF100002F1020141F00A8794F84C20452AABD196
:10AF200094F84D20572AA7D194F84E20522AA3D145
:10AF300094F84F20492A9FD10422A11891F84C106F
:10AF4000542999D10132B2F5007F41F00F8794F86E
:10AF50004C20452A90D1012502F0BBB9237C8342C5
:10AF600000F08C81D4F85032E2180133B3F5007F41
:10AF7000A8BF0023202882F84C00C4F850327FF488
:10AF800062ACD4F84C22C4F84C32A318042293F8D3
:10AF90004C306261303B0022C4E9073253E404EBD9
:10AFA000020C9CF84CC0BCF14E0F40F0D58003F170
:10AFB000030CBCF5007F42F0AB8194F84C20442A8E
:10AFC00004D194F84D20202A3FF4A2AD214491F8F9
:10AFD0004C20452A7FF4C2ADB3F5FF7F03F1020296
:10AFE00041F04B8394F84C30542B7FF4B7AD4FF4C1
:10AFF000FF730122224492F84C20202A7FF4AEAD48
:10B0000004335A42C2F30802C3F30803204658BF70
:10B010005342C4F84C32FEF76BFAD4F84C32E218C3
:10B02000002092F84C20472A7FF498AD5A1CB2F5C4
:10B03000007FC0F2F48094F84C20452A06D194F8A1
:10B040004D20542A08BF022200F0FB80042D7FF718
:10B05000ABAD062D7FF7A8ADE21892F84C20562A2A
:10B060007FF4A2AD5A1CB2F5007F80F2B280224478
:10B0700092F84C20452A7FF497ADB3F5FF7F03F19A
:10B08000020241F0BB8294F84C20522A7FF48CAD2E
:10B0900094F84D20532A7FF487AD94F84E20492A26
:10B0A0007FF482AD94F84F204F2A7FF47DAD0422C7
:10B0B00001F0BFBA192017F02DFC34E494F84C309D
:10B0C0004C2B7FF4D9AE0123234493F84C30452B0D
:10B0D0007FF4D2AE02220023C4E90523FFF7FCBBB4
:10B0E000237C834200F08A83D4F85032E218013383
:10B0F000B3F5007FA8BF0023202882F84C00C4F8D5
:10B1000050327FF4A0ABD4F84C22C4F84C32A318D0
:10B11000052293F84C306261303B0022C4E90832CA
:10B12000FFF791BB52495348FDF7E6FD504952489D
:10B13000FDF7E2FDFFF7DDBB621892F84C20452ACF
:10B140000AD1B3F5FF7F03F102027FF428AF94F830
:10B150004C204E2A02F0D980214491F84C20452AF7
:10B160003FF43AAFFCE494F84C20452A7FF41CAD40
:10B1700094F84D20472A7FF417AD94F84E20492AC1
:10B1800008BF03227FF410AD224492F84C204E2ACF
:10B190007FF40AAD05335A42C2F30802D4F85012C4
:10B1A000C3F3080358BF53428B42C4F84C3240F2F9
:10B1B000FF1240F32E84D21A5018002840F37985EC
:10B1C000E01890F84C00202800F075850A4400F043
:10B1D00029BC94F84C20452A7FF4E6AC94F84D2025
:10B1E000522A7FF4E1AC94F84E20532A7FF4DCAC71
:10B1F00094F84F20492A7FF4D7AC0422A11891F883
:10B200004C104F297FF4D0AC0132B2F5007F41F0F1
:10B21000108294F84C204E2A01F01182C4E422449A
:10B2200092F84C20452A7FF411AFB3F5FF7F03F16C
:10B23000020241F0348294F84C20542A7FF48EAC00
:10B240000122224492F84C20202A7FF4FFAE0433DE
:10B250005A42C2F30802C3F30803204658BF5342C0
:10B26000C4F84C32FCF79EFC78E47FF4F1ABE8E4E0
:10B2700068940020F0680020B8670020D4E9933279
:10B280009342C3BFC3F5FF7808F101089044A2EBD5
:10B290000308B8F1040FD4F8540240F3AC82E2186A
:10B2A00092F84C20532A40F0208503F1010CBCF5A4
:10B2B000007FC0F2DD8694F84C20452A40F0CA8613
:10B2C0000122A11891F84C104E2925D1511CB1F53D
:10B2D000007F41F0748594F84C20442A1CD101224F
:10B2E000224492F84C10202916D105335A42C2F359
:10B2F0000802C3F30803204658BF5342C4F84C3237
:10B30000FDF7B4FCD4F84C320020E21892F84C203F
:10B31000532A2ED103F1010CBCF5007F80F29A86EE
:10B3200004EB0C0292F84C20452A4DD10CF101029D
:10B33000B2F5007F41F0BF8594F84C20542A43D1E8
:10B340000122224492F84C20202A3DD104335A4253
:10B35000C2F30802C3F30803204658BF5342C4F89F
:10B360004C32FEF7C5F8D4F84C32E218002092F8BF
:10B370004C20472A28D15A1CB2F5007F80F259860A
:10B38000224492F84C20452A40F05E86B3F5FF7FB8
:10B3900003F1020241F0AF8594F84C20542A13D1F6
:10B3A0000122224492F84C20202A40F04D8604339A
:10B3B0005A42C2F30802C3F30803204658BF53425F
:10B3C000C4F84C32FCF7EEFBB8F1040F7FF7ECAB9E
:10B3D000D4F84C32E21892F84C20422A5CD15A1C24
:10B3E000B2F5007F80F2EB85224492F84C20452A8A
:10B3F0007FF4DAABB3F5FF7F03F1020241F0498538
:10B4000094F84C20472A41F0648194F84D20492A51
:10B4100008BF02227FF4C8AB224492F84C204E2A87
:10B420007FF4C2AB05335A42C2F30802D4F850127B
:10B43000C3F3080358BF53428B42C4F84C3240F266
:10B44000FF1240F38287D21A5018002840F38787F2
:10B45000E01890F84C00202800F056840A44002A96
:10B4600040F37D87234493F84C30302B05D0A3F173
:10B470003000FDF781FCD4F85012C4F84C12E0689B
:10B48000394613F0B5F9217CE06813F003FAD4F8DB
:10B490005032C4F84C320020B8F1060F7FF784AB6D
:10B4A000E21892F84C20562A7FF47EAB5A1CB2F573
:10B4B000007F80F29785224492F84C20452A7FF441
:10B4C00073ABB3F5FF7F03F1020241F0E38394F81D
:10B4D0004C20522A7FF468AB94F84D20532A7FF415
:10B4E00063AB94F84E20492A7FF45EAB94F84F206A
:10B4F0004F2A7FF459AB042501F0E6BBA3180132B3
:10B50000B2F5007F83F84C00C4F85022BFF6C3AAFE
:10B51000FFF799B9D4E993329342C3BFC3F5FF78DB
:10B5200008F101089044A2EB0308B8F1040FD4F825
:10B53000540240F35D81E21892F84C20532A40F007
:10B540002387591CB1F5007FC0F2098394F84C2081
:10B55000452A40F06783012204EB020C9CF84CC0A2
:10B56000BCF14E0F25D102F1010CBCF5007F41F07A
:10B570001E8294F84C20442A1BD10122224492F8C6
:10B580004C20202A15D105335A42C2F30802C3F3D6
:10B590000803204658BF5342C4F84C32FDF766FBFF
:10B5A000D4F84C320020E21892F84C20532A2BD1C8
:10B5B000591CB1F5007F80F23583621892F84C2057
:10B5C000452A4CD14A1CB2F5007F41F0BC8194F869
:10B5D0004C20542A43D10122224492F84C20202AA4
:10B5E0003DD104335A42C2F30802C3F30803204694
:10B5F00058BF5342C4F84C32FDF77AFFD4F84C32AE
:10B60000E218002092F84C20472A28D15A1CB2F5A3
:10B61000007F80F2BD82224492F84C20452A40F0FF
:10B62000C282B3F5FF7F03F1020241F0328294F847
:10B630004C20542A13D10122224492F84C20202A73
:10B6400040F0B18204335A42C2F30802C3F3080344
:10B65000204658BF5342C4F84C32FCF7A3FAB8F165
:10B66000040F7FF7A1AAD4F84C32E21892F84C20CC
:10B67000422A5CD15A1CB2F5007F80F29A822244A1
:10B6800092F84C20452A7FF48FAAB3F5FF7F03F18F
:10B69000020241F0798194F84C20472A40F09287C9
:10B6A00094F84D20492A08BF02227FF47DAA224443
:10B6B00092F84C204E2A7FF477AA05335A42C2F3FF
:10B6C0000802D4F85012C3F3080358BF53428B4208
:10B6D000C4F84C3240F2FF1240F3B785D21A50182A
:10B6E000002840F32B86E01890F84C00202800F04A
:10B6F00001830A44002A40F32186234493F84C3006
:10B70000302B05D0A3F13000FDF736FBD4F85012F2
:10B71000C4F84C12E068394613F06AF8217CE068FE
:10B7200013F0B8F8D4F85032C4F84C320020B8F115
:10B73000060F7FF739AAE21892F84C20562A7FF4B8
:10B7400033AA5A1CB2F5007F80F24582224492F857
:10B750004C20452A7FF428AAB3F5FF7F03F10202AB
:10B7600041F05C8194F84C20522A7FF41DAA94F891
:10B770004D20532A7FF418AA94F84E20492A7FF4CA
:10B7800013AA94F84F204F2A7FF40EAA042501F043
:10B7900061B9237C834200F0CC82D4F85032E218A5
:10B7A0000133B3F5007FA8BF0023202882F84C00A6
:10B7B000C4F850327FF447A8D4F84C22A1180132C3
:10B7C000504291F84C10C0F30800C2F3080258BF71
:10B7D0004242A1F1300031397E29C4F84C22606226
:10B7E0003FF64AAB0622C4F84C326261FFF72BB831
:10B7F0007FF42EA9D7E67FF42BA986E5D4E993320E
:10B800009342C3BFC3F5FF7808F101089044A2EB4F
:10B810000308B8F1040FD4F8540200F310827FF447
:10B8200017A9E21892F84C20532A2ED103F1010CEB
:10B83000BCF5007F80F2DE8404EB0C0292F84C2011
:10B84000452A4DD10CF10102B2F5007F41F09D83F4
:10B8500094F84C20542A43D10122224492F84C20DF
:10B86000202A3DD104335A42C2F30802C3F308032D
:10B87000204658BF5342C4F84C32FDF739FED4F885
:10B880004C32E218002092F84C20472A28D15A1C4A
:10B89000B2F5007F80F29D84224492F84C20452A24
:10B8A00040F0A284B3F5FF7F03F1020241F09384DC
:10B8B00094F84C20542A13D10122224492F84C20AF
:10B8C000202A40F0918404335A42C2F30802C3F3A1
:10B8D0000803204658BF5342C4F84C32FCF762F9C3
:10B8E000B8F1040F7FF760A9D4F84C32E21892F84F
:10B8F0004C20422A5CD15A1CB2F5007F80F256845B
:10B90000224492F84C20452A7FF44EA9B3F5FF7FDC
:10B9100003F1020241F0018394F84C20472A40F0E1
:10B92000238794F84D20492A08BF02227FF43CA9BE
:10B93000224492F84C204E2A7FF436A905335A420D
:10B94000C2F30802D4F85012C3F3080358BF53429D
:10B950008B42C4F84C3240F2FF1240F30885D21AF1
:10B960005018002840F30D85E01890F84C0020286E
:10B9700000F0D5810A44002A40F30385234493F85C
:10B980004C30302B05D0A3F13000FDF7F5F9D4F899
:10B990005012C4F84C12E068394612F029FF217C9D
:10B9A000E06812F077FFD4F85032C4F84C3200202F
:10B9B000B8F1060F7FF7F8A8E21892F84C20562A43
:10B9C0007FF4F2A85A1CB2F5007F80F2C9832244AA
:10B9D00092F84C20452A7FF4E7A8B3F5FF7F03F1E6
:10B9E000020241F0BE8394F84C20522A7FF4DCA876
:10B9F00094F84D20532A7FF4D7A894F84E20492A72
:10BA00007FF4D2A894F84F204F2A01F0C583FFF7A6
:10BA1000CBB800F04E81E21892F84C20202A00F0BA
:10BA20004A81CA1A002A40F34481234493F84C0007
:10BA3000302804D03038FDF79FF9D4F85012C4F8FC
:10BA40004C12E068394612F0D3FE217CE06812F017
:10BA500021FFD4F85032C4F84C320020FFF7F9BA75
:10BA600094F84C20452A7FF49FA894F84D20522A40
:10BA70007FF49AA894F84E20532A7FF495A894F85E
:10BA80004F20492A7FF490A80422A11891F84C1065
:10BA90004F297FF489A8551CB5F5007F40F09E869C
:10BAA00094F84C204E2A00F09F86FFF77DB894F85A
:10BAB0004C20452A7FF478A894F84D20472A7FF43B
:10BAC00073A894F84E20492A08BF03227FF46CA87B
:10BAD000FFF73EB994F84C20452A06D194F84D2042
