:020000022000DC
:10600000000004203D2804007D2804007F280400AF
:106010008128040083280400852804000000000073
:1060200000000000000000000000000061260400E5
:106030008928040000000000812604008D28040047
:10604000912A04008F28040055FB03008F280400C8
:106050008F2804008F28040025FC03008F280400EB
:106060008F2804008F2804008F2804008F28040044
:106070008F2804008F2804008F2804008F28040034
:106080008F280400B12304008F2804008F28040007
:106090008F2804008F280400192003008F28040093
:1060A0008F2804008F2804008F2804008F28040004
:1060B0008F2804008F28040000000000000000006A
:1060C0008F2804008F2804008F2804007D2B0400F3
:1060D0008F2804008F2804008F28040081420300C9
:1060E0008F2804008F2804008F280400000000007F
:1060F000000000008F28040000000000F52B0400C1
:10610000000000000000000000000000000000008F
:10611000000000000000000000000000000000007F
:10612000000000000000000000000000000000006F
:10613000000000000000000000000000000000005F
:10614000000000000000000000000000000000004F
:10615000000000000000000000000000000000003F
:10616000000000000000000000000000000000002F
:10617000000000000000000000000000000000001F
:10618000000000000000000000000000000000000F
:1061900000000000000000000000000000000000FF
:1061A00000000000000000000000000000000000EF
:1061B00000000000000000000000000000000000DF
:1061C00000000000000000000000000000000000CF
:1061D00000000000000000000000000000000000BF
:1061E00000000000000000000000000000000000AF
:1061F000000000000000000000000000000000009F
:10620000F1EE103A43F08073E1EE103A704700BFB0
:1062100010B5054C237833B9044B13B10448AFF3E0
:1062200000800123237010BD906300200000000057
:1062300024FE040008B5034B1BB103490348AFF328
:10624000008008BD000000009463002024FE0400CC
:10625000154B002B08BF134B9D46A3F5803A002138
:106260008B460F461348144A121A22F0F5FB0F4BC7
:10627000002B00D098470E4B002B00D098470020F1
:10628000002104000D000D48002802D00C48AFF397
:10629000008022F077FB200029001CF027FB22F071
:1062A0004BFB00BF000008000000042000000000BD
:1062B000000000009063002008A300200000000000
:1062C000000000000020704703680021DB681847C9
:1062D00041600020704700BF0020704700207047D9
:1062E00000207047036853F80C3C1844704700BF07
:1062F000036853F8183CC25852F80C2C1844104448
:10630000704700BF036853F80C3C1844704700BF47
:10631000036853F8183CC25852F80C2C1844104427
:10632000704700BF036853F80C3C1844704700BF27
:10633000036853F8183CC25852F80C2C1844104407
:10634000704700BFD0F85032C2180133B3F5007F58
:10635000A8BF002382F84C10C0F85032704700BF2D
:1063600010B4D0F84C124B1C01445C42024691F828
:106370004C00C4F30801C3F3080358BF4B425DF857
:10638000044BC2F84C327047D0E993308342C3BF0C
:10639000C3F5FF730133C018C01A7047036853F880
:1063A0000C3C1844704700BF036853F8183CC258AF
:1063B00052F80C2C18441044704700BF806C704792
:1063C000036853F8183C1844806C704710B5044BB0
:1063D000044640F8083B19F037FD204610BD00BFC9
:1063E000BCCA0400016810B451F80C4C114620449A
:1063F0001A465DF8044B0CF00BBB00BF016830B4CB
:1064000051F81C4C015951F80C5C204411462844A9
:106410001A4630BC0CF0FCBA016810B451F80C4CB0
:10642000114620441A465DF8044B0CF0F1BA00BF47
:10643000016830B451F81C4C015951F80C5C2044EF
:10644000114628441A4630BC0CF0E2BA016810B478
:1064500051F80C4C114620441A465DF8044B0CF0E0
:10646000D7BA00BF016830B451F8204C015951F837
:106470000C5C2044114628441A4630BC0CF0C8BAC3
:10648000016810B451F80C4C114620441A465DF8CE
:10649000044B0CF0BDBA00BF016830B451F8204C79
:1064A000015951F80C5C2044114628441A4630BC6E
:1064B0000CF0AEBA70B5014688B005461448154CCC
:1064C000154E0BF0A1FD154B20221D8069460023BF
:1064D000CDE90033CDE90333CDE9053302930793CA
:1064E00009F042FE01230E493370204618F016FFD2
:1064F0006946204618F012FF0A49204618F00EFFA0
:10650000317820460A2219F02DF808B070BD00BF7E
:10651000206D0020A0750020B5670020BC6C002015
:10652000B8BE0400ECBE040070B50C4C0C4E002349
:106530000D4620460B49337018F0F0FE2946102214
:10654000204619F035F80849204618F0E7FE317862
:1065500020460A22BDE8704019F004B8A07500205A
:10656000B567002000BF0400ECBE0400026852F8CA
:10657000103C0344596052F80C3C18440BF0AEBF79
:10658000036810B453F8144C025952F8103C2044DC
:1065900003445DF8044B596052F80C3C18440BF06E
:1065A0009DBF00BF026852F8103C0344596052F886
:1065B0000C3C18440CF040BC036810B453F8144C65
:1065C000025952F8103C204403445DF8044B5960D2
:1065D00052F80C3C18440CF02FBC00BF026852F873
:1065E000103C0344596052F80C3C18440BF096BD23
:1065F000036810B453F8144C025952F8103C20446C
:1066000003445DF8044B596052F80C3C18440BF0FD
:1066100085BD00BF036810B553F80C3C0446806C80
:106620002344026892685960904794F84410E06CE3
:1066300009F0F0F911221146E06C09F003FA94F820
:106640003410E06C09F0ECF9616DE06C09F01CFAB3
:10665000E06C03689B68984794F8443013F0120F7D
:1066600007D094F83410012938D002294ED00429DB
:1066700038D094F84510206D09F0CCF9112211465C
:10668000206D09F0DFF994F83410206D09F0C8F995
:10669000216E206D09F0F8F9206D03689B6898471A
:1066A00094F8453013F0120F07D094F834100129F4
:1066B0000ED0022922D0042919D01B0701D40020B2
:1066C00010BD206D1449012209F0C2F9002010BD4F
:1066D000206D09F0FDF994F84530EEE7E06C09F023
:1066E000F7F9C6E70D49E06C09F032FAC1E70C4949
:1066F000206D09F02DFA94F84530DEE7206D40F268
:10670000054109F005FA94F84530D6E7E06C4FF4FE
:10671000817109F0FDF9ACE7EDE902000302010027
:1067200006050400036853F8143C10B5C418C35898
:10673000A06C53F80C3C026823449268596090475F
:1067400094F84410E06C09F065F911221146E06CF0
:1067500009F078F994F83410E06C09F061F9616D92
:10676000E06C09F091F9E06C03689B68984794F835
:10677000443013F0120F07D094F83410012938D0A8
:1067800002294ED0042938D094F84510206D09F024
:1067900041F911221146206D09F054F994F8341092
:1067A000206D09F03DF9216E206D09F06DF9206D25
:1067B00003689B68984794F8453013F0120F07D090
:1067C00094F8341001290ED0022922D0042919D0BE
:1067D0001B0701D4002010BD206D1549012209F0CE
:1067E00037F9002010BD206D09F072F994F845309A
:1067F000EEE7E06C09F06CF9C6E70E49E06C09F0D1
:10680000A7F9C1E70C49206D09F0A2F994F84530C9
:10681000DEE7206D40F2054109F07AF994F8453041
:10682000D6E7E06C4FF4817109F072F9ACE700BF74
:10683000EDE90200030201000605040008B5036843
:10684000117853F80C3C18440BF038FC08BD00BF1D
:1068500008B50368117853F81C3CC25852F80C2C48
:10686000184410440BF02AFC08BD00BF38B504469C
:106870001D46082962D8DFE801F019222B343D4675
:106880004F580500036853F80C0C11462044EAB237
:106890000BF0EAFD94F82C3033B12DB1236853F896
:1068A0000C0C20440BF01AFE284638BD036853F840
:1068B0000C0C11462044EAB20BF0B6FDEAE703687F
:1068C00053F80C0C11462044EAB20BF0B1FDE1E79D
:1068D000036853F80C0C11462044EAB20BF0ACFDEF
:1068E000D8E7036853F80C0C11462044EAB20BF0C9
:1068F000A7FDCFE7036853F80C0C11462044EAB219
:106900000BF0A2FDC6E7036853F80C0C11462044B7
:10691000EAB20BF09DFDBDE7036853F80C0C11467D
:106920002044EAB20BF098FDB4E7036853F80C0C6E
:1069300011462044EAB20BF093FDABE70025B3E724
:10694000F8B50446006850F8206C1D46A7190829C0
:1069500062D8DFE801F019222B343D464F5805007C
:10696000A35953F80C0C11463844EAB20BF07CFDE5
:1069700097F82C3033B12DB1A35953F80C0C38448F
:106980000BF0ACFD2846F8BDA35953F80C0C11468A
:106990003844EAB20BF048FDEAE7A35953F80C0C6F
:1069A00011463844EAB20BF043FDE1E7A35953F82E
:1069B0000C0C11463844EAB20BF03EFDD8E7A3595F
:1069C00053F80C0C11463844EAB20BF039FDCFE70E
:1069D000A35953F80C0C11463844EAB20BF034FDBD
:1069E000C6E7A35953F80C0C11463844EAB20BF031
:1069F0002FFDBDE7A35953F80C0C11463844EAB2F9
:106A00000BF02AFDB4E7A35953F80C0C1146384497
:106A1000EAB20BF025FDABE70025B3E708B5036844
:106A2000117853F80C3C18440BF050FB08BD00BF24
:106A300008B50368117853F8203CC25852F80C2C62
:106A4000184410440BF042FB08BD00BF38B58A68FB
:106A50000C4605460846002119F0DCFA05F108014C
:106A6000204619F023FA204638BD00BF10B5054B6B
:106A7000044640F8083B19F0E7F920461BF078FF80
:106A8000204610BDBCCA040010B50446006808B119
:106A90001BF06EFF204610BD10B50B4B0B4A044691
:106AA00003F1980103F158002360E0606162C4F8CB
:106AB000002104F5847019F0C7F904F10C000CF002
:106AC00077F9204610BD00BFFCCA0400BCCA040010
:106AD00002680C4952F80C2C38B50B4B83508418C3
:106AE00003F1580598336362C4F80011E56004F5BA
:106AF000847019F0A9F904F10C000CF059F9204642
:106B000038BD00BFBCCA0400FCCA040002680C49BE
:106B100052F8182C38B50B4B8350841803F15805E4
:106B200098336362C4F80011E56004F5847019F0CD
:106B30008BF904F10C000CF03BF9204638BD00BF86
:106B4000BCCA0400FCCA04000C4B0D4A10B5044634
:106B500003F1980103F1580023606162C4F8002139
:106B6000E06004F5847019F06FF904F10C000CF08A
:106B70001FF920461BF0FCFE204610BDFCCA040095
:106B8000BCCA040002680D4952F8182C38B50C4BE9
:106B90008350841803F1580598336362C4F80011D8
:106BA000E56004F5847019F04FF904F10C000CF065
:106BB000FFF820461BF0DCFE204638BDBCCA0400AE
:106BC000FCCA040002680D4952F80C2C38B50C4B75
:106BD0008350841803F1580598336362C4F8001198
:106BE000E56004F5847019F02FF904F10C000CF045
:106BF000DFF820461BF0BCFE204638BDBCCA0400AE
:106C0000FCCA040010B50F4B0446406A236003F130
:106C10005C0103F19C02DC332163A264C4F82431DB
:106C200010B103685B689847074BC4F8243104F53A
:106C3000967019F009F904F130000CF0B9F820460B
:106C400010BD00BFACCC0400BCCA0400026852F8FE
:106C5000181C38B544180F4B626A435003F15C05A9
:106C600003F19C01DC332563A164C4F824311AB11B
:106C7000136810465B689847074BC4F8243104F545
:106C8000967019F0E1F804F130000CF091F820460C
:106C900038BD00BFACCC0400BCCA0400026852F886
:106CA0000C1C38B544180F4B626A435003F15C0565
:106CB00003F19C01DC332563A164C4F824311AB1CB
:106CC000136810465B689847074BC4F8243104F5F5
:106CD000967019F0B9F804F130000CF069F820460C
:106CE00038BD00BFACCC0400BCCA040010B51446CB
:106CF00019B1012907D0002010BD9AB22146C06CFD
:106D000008F0CAFE10BD9AB22146006D08F0C4FE1C
:106D100010BD00BFD0F800C0ACF11C0CDCF800C006
:106D20006044E3E710B5144619B1012907D00020EB
:106D300010BD9AB22146C06C08F066FF10BD9AB231
:106D40002146006D08F060FF10BD00BFD0F800C004
:106D5000ACF1200CDCF800C06044E3E703688A680B
:106D600053F80C3C2DE9F04303440F461A63D1E974
:106D70000321C3E90D21397DFA8ADA8783F83C10B3
:106D8000D7E90612386A9864C3E910123D463C46BA
:106D90003A4655F8266F34F82FCF52F8321FB88C88
:106DA000D5F8048097F82EE0A3F84C0007F13C09D1
:106DB000A07883F85900C3F84E60C3F85280A3F856
:106DC00057C083F856E0D2F804E0C3F85A1099E8A7
:106DD000030003F1640CC3F85EE08CE8030097F84D
:106DE000441083F86C10D7E912E0D7E91416C3E910
:106DF0001CE0DE679967B968C3F88810D7E903100B
:106E0000C3E92310387DF98AA3F8961083F894001B
:106E1000D7E906013E6AC3F8A060C3E92601B98C30
:106E2000A3F8A41099E80300D5F80480D5F80090E1
:106E3000B4F800C0A6781568546897F82EE083F877
:106E4000AEE003F1BC02C3F8A690C3F8AA80A3F891
:106E5000AFC083F8B160C3F8B250C3F8B64082E85F
:106E6000030097F8442083F8C420D7E91201D7E93A
:106E70001424C3E93201C3F8D440C3F8D020BDE8DC
:106E8000F08300BF026852F80C1C38B54418104B50
:106E9000626A435003F15C0503F19C01DC33256316
:106EA000A164C4F824311AB1136810465B6898478E
:106EB000084BC4F8243104F5967018F0C5FF04F1AE
:106EC00030000BF075FF20461BF052FD204638BD08
:106ED000ACCC0400BCCA0400026852F8181C38B5D7
:106EE0004418104B626A435003F15C0503F19C01A6
:106EF000DC332563A164C4F824311AB11368104649
:106F00005B689847084BC4F8243104F5967018F074
:106F10009BFF04F130000BF04BFF20461BF028FDD7
:106F2000204638BDACCC0400BCCA040010B5104BE0
:106F30000446406A236003F15C0103F19C02DC33E8
:106F40002163A264C4F8243110B103685B689847D8
:106F5000084BC4F8243104F5967018F075FF04F15D
:106F600030000BF025FF20461BF002FD204610BD2F
:106F7000ACCC0400BCCA04002DE9F04145690446CC
:106F80000B462DBB027C8A4229D00668414F7268AD
:106F9000BA426BD1D0F8502281180132B2F5007F8D
:106FA000A8BF2A4681F84C30C0F8502233693A4ACB
:106FB00093425ED1D4E993308342C3BFC3F5FF73DC
:106FC0000133C018C01A032827D00020BDE8F08183
:106FD000012D0BD00368BDE8F041DB68184703685A
:106FE0005B69984765610020BDE8F081027C8A42B8
:106FF00042D00268274D5268AA4243D1D0F85022AD
:1070000081180132B2F5007F81F84C30AABF00230D
:10701000C0F85022C0F85032D7E7D4F84C32E2180A
:1070200092F84C20422A1ED15A1CB2F5007F12DA87
:10703000224492F84C204C2A15D1B3F5FF7F03F17E
:10704000020221D194F84C30452B0CD102220023AE
:10705000C4E90523B9E794F84C304C2B03D194F8DC
:107060004D30452BF2D001236361AEE7904726688F
:107070009CE720469847A6E703685B69984700238A
:107080006361A2E79047A0E7224492F84C30452B79
:10709000DCD0E8E745630200896302002DE9F04790
:1070A00004460068DFF8E08050F81C6C54F806C015
:1070B000DCF810E0C64504EB060704D03846F44679
:1070C000BDE8F04760471D4608295AD8DFE801F0BF
:1070D000514941393129211905005CF80C0C114640
:1070E0003844EAB20BF0C0F997F82C3033B12DB127
:1070F000A35953F80C0C38440BF0F0F92846BDE8BE
:10710000F0875CF80C0C11463844EAB20BF0A8F991
:10711000EAE75CF80C0C11463844EAB20BF09CF933
:10712000E2E75CF80C0C11463844EAB20BF090F937
:10713000DAE75CF80C0C11463844EAB20BF084F93B
:10714000D2E75CF80C0C11463844EAB20BF078F93F
:10715000CAE75CF80C0C11463844EAB20BF06CF943
:10716000C2E75CF80C0C11463844EAB20BF060F947
:10717000BAE75CF80C0C11463844EAB20BF054F94B
:10718000B2E70025B0E700BF6D6802002DE9F041CD
:107190000768DFF8D4C0D7F810E0E6455ED10446B2
:1071A0001E4608295ED8DFE801F01921293139414E
:1071B0004951050057F80C0C11462044F2B20BF06F
:1071C00053F994F82C3033B12EB1236853F80C0CDA
:1071D00020440BF083F93046BDE8F08157F80C0CE1
:1071E00011462044F2B20BF01FF9EAE757F80C0CF5
:1071F00011462044F2B20BF01BF9E2E757F80C0CF1
:1072000011462044F2B20BF017F9DAE757F80C0CEC
:1072100011462044F2B20BF013F9D2E757F80C0CE8
:1072200011462044F2B20BF00FF9CAE757F80C0CE4
:1072300011462044F2B20BF00BF9C2E757F80C0CE0
:1072400011462044F2B20BF007F9BAE757F80C0CDC
:1072500011462044F2B20BF003F9B2E7F446BDE860
:10726000F04160470026B6E76D6802002DE9F04F57
:107270004669022E8DB004460D4600F0C980032EEB
:1072800000F09080042E00F09B81052E00F03F81DD
:10729000062E40F0B9800368C34A1B69934240F050
:1072A0005582D0E993039842C3BFC0F5FF70013007
:1072B000C018181A666AB042C0F26481237CAB42DF
:1072C00040F06081A36A9E42A8BF1E46002E1CDDCE
:1072D00004F12B05DFF8E482AF1923681B684345EE
:1072E00040F0EE81D4F84C124A1C50422144C0F3C5
:1072F000080091F84C30C2F3080258BF4242C4F86B
:107300004C2205F8013FBD42E7D1D4E906A9BAF104
:10731000020F276A04F12C0800F09E82BAF1010FD7
:1073200000F01E82A14906A818F0BEFC0A22E169FD
:1073300003A818F021FD03A906A818F005FE9C4932
:1073400018F02EFE0A220546216A09A818F014FD3D
:1073500009A9284618F0F8FD0146684618F0BEFC59
:1073600009A818F071FD03A818F06EFD06A818F022
:107370006BFD009D8F49E06817F0D0FF2946E0685B
:1073800017F0CCFF217CE06818F060F80023684615
:10739000636118F059FDD4F85032C4F84C32002320
:1073A000636131E0037C8B42036829D0824A5B68C9
:1073B000934240F04081D0F85032C2180133B3F507
:1073C000007FA8BF002382F84C10C0F85032202D57
:1073D0001AD12368794A1B68934240F02981D4F876
:1073E0004C32234493F84C00D4F85022C4F84C2279
:1073F000A0F1300300210420E3616061216203E019
:107400005B6998470023636100200DB0BDE8F08FF1
:10741000037C8B420368F3D0674A5B68934240F079
:10742000FE80D0F85032C2180133B3F5007FA8BFF8
:10743000002382F84C10C0F85032202DE4D123688C
:10744000594D1B69AB4240F04381D4E99303984204
:10745000C3BFC0F5FF700130C018181A092821DD1C
:10746000D4F84C32E21892F84C20422A1AD15A1C15
:10747000B2F5007F80F2E380224492F84C204C2A3F
:1074800010D1B3F5FF7F03F1020240F0948394F82A
:107490004C30452B06D194F84D304E2B08BF0223BB
:1074A00000F0548323681B69AB4240F0BA80D4E9F2
:1074B00093039842C3BFC0F5FF700130C018181A7B
:1074C000082821DDD4F84C32E21892F84C20422AE8
:1074D0001AD15A1CB2F5007F80F2FD80224492F846
:1074E0004C204C2A10D1B3F5FF7F03F1020240F08B
:1074F000C48394F84C30452B06D194F84D30572B6B
:1075000008BF022300F09583012363617CE7037CBD
:107510008B4203683FF474AF274A5B68934240F0A4
:107520001781D0F85032C2180133B3F5007FA8BFDD
:10753000002382F84C10C0F85032202D7FF464AF45
:1075400023681E4A1B68934240F00781D4F84C22FE
:10755000531C59422244C1F30801C3F3080358BF26
:107560004B4292F84C00C4F84C32A0F13003313851
:107570007E286362C8D8D4F85032C4F84C32062250
:10758000626141E723680C4A5B6893424CD1D4F8AE
:107590005032E2180133B3F5007FA8BF002382F810
:1075A0004C50C4F850322FE78963020044BF0400F6
:1075B00060BF040064BF0400456302006163020011
:1075C000037C8B4203683FF41BAF9F4A5B68934286
:1075D00033D1D0F85032C2180133B3F5007FA8BFC1
:1075E000002382F84C10C0F85032202D7FF40CAFED
:1075F0002368964A1B68934240F0AC80D4F84C3222
:10760000234493F84C00D4F85022C4F84C22A0F143
:10761000300300210520236260616162F4E698472F
:107620000BE7204698474BE7294620469847EBE66C
:1076300020469847D8E69847C9E69847D5E794F892
:107640004C304C2B7FF42EAF94F84D30452B08BFB7
:1076500002237FF427AFE21892F84C204E2A7FF4E1
:1076600021AF0133B3F5007F40F0708294F84C30C5
:107670004F2B7FF417AF94F84D30542B08BF0223E3
:107680007FF410AFE21892F84C20492A7FF40AAF39
:107690000133B3F5007F40F06F8294F84C30462BF5
:1076A0007FF400AF94F84D30592B08BF02237FF4CC
:1076B000F9AE234493F84C30202B00F07182F1E6B0
:1076C0002046984705F8010FBD427FF406AE1CE640
:1076D00020469847C2E694F84C304C2B7FF414AF08
:1076E00094F84D30452B08BF02237FF40DAFE2180C
:1076F00092F84C20572A7FF407AF0133B3F5007F8F
:1077000040F0978294F84C30522B7FF4FDAE94F801
:107710004D30492B08BF02237FF4F6AEE21892F8F1
:107720004C20542A7FF4F0AE5E1CB6F5007F40F08A
:10773000948294F84C30452B7FF4E6AE94F84D30AB
:10774000202B7FF4E1AE0123A3612BE29847B1E542
:107750009847F2E62046984755E72046984704E7C1
:107760003B4D286818B14268914500F05C810023C8
:10777000686818B14268914500F0E980A86818B1BE
:107780004268914500F0EC80E86818B14268914584
:1077900000F0EF80286918B14268914500F0F2804E
:1077A000686918B14268914500F0F580A86918B180
:1077B0004268914500F0F880E86918B14268914547
:1077C00000F0FB80286A18B14268914500F0FE8005
:1077D000686A18B14268914500F00181A86A18B141
:1077E0004268914500F00481E86A18B14268914509
:1077F00000F00781286B18B14268914500F00A81BA
:10780000686B18B14268914500F08F80A86B18B181
:107810004268914500F09280E86B10B14268914552
:107820000BD0002B3FF47EAD0A49E06817F076FDDF
:10783000217CE06817F00AFEADE5056833466D6906
:1078400042463946A847EFE74563020061630200FC
:10785000346700206CBF0400A94D286818B1436844
:10786000994500F0E9800023686818B142689145A5
:1078700000F0EB80A86818B14268914500F0EE80F6
:10788000E86818B14268914500F01581286918B17F
:107890004268914500F01881686918B142689145C5
:1078A00000F01B81A86918B14268914500F01E8163
:1078B000E86918B14268914500F02481286A18B13E
:1078C0004268914500F02781686A18B14268914585
:1078D00000F02A81A86A18B14268914500F02D8114
:1078E000E86A18B14268914500F0C180286B18B170
:1078F0004268914500F0C480686B18B142689145B8
:1079000000F0C780A86B18B14268914500F0CA80AA
:10791000E86B002885D04268914582D105683346DE
:10792000AD6942463946A8477EE703684246D3F828
:1079300014A039463346D047012367E7036842461F
:10794000D3F814A039463346D047012364E70368CF
:107950004246D3F814A039463346D04701230DE7F9
:1079600003684246D3F814A039463346D047012372
:107970000AE703684246D3F814A039463346D04795
:10798000012307E703684246D3F814A0394633467B
:10799000D047012304E703684246D3F814A03946D0
:1079A0003346D047012301E703684246D3F814A0C9
:1079B00039463346D0470123FEE603684246D3F8F2
:1079C00014A039463346D0470123FBE603684246FC
:1079D000D3F814A039463346D0470123F8E60368AC
:1079E0004246D3F814A039463346D0470123F5E682
:1079F00003684246D3F814A039463346D0470123E2
:107A0000F2E603684246D3F814A039463346D0471D
:107A10000123EFE603684246D3F814A03946334603
:107A2000D0470123ECE603684246D3F814B0394648
:107A30003346D84753469BE603684246D3F818A01E
:107A400039463346D04701230EE703684246D3F850
:107A500018A039463346D04701230BE70368424656
:107A6000D3F818A039463346D047012308E7036806
:107A70004246D3F818A039463346D047012335E7AC
:107A800003684246D3F818A039463346D04701234D
:107A900032E703684246D3F818A039463346D04748
:107AA00001232FE703684246D3F818A0394633462E
:107AB000D04701232CE703684246D3F818A0394683
:107AC0003346D0470123E1E603684246D3F818A0C5
:107AD00039463346D0470123DEE603684246D3F8F1
:107AE00018A039463346D0470123DBE603684246F7
:107AF000D3F818A039463346D0470123D8E600BF53
:107B00003467002003684246D3F818A0394633464C
:107B1000D0470123D2E603684246D3F818A039467D
:107B20003346D0470123CFE603684246D3F818A076
:107B300039463346D0470123CCE603684246D3F8A2
:107B400018A039463346D0470123C9E6E21892F817
:107B50004C204F2A7FF4A6AC0133B3F5007F41D10E
:107B600094F84C30542B7FF49DAC94F84D30492B55
:107B700008BF02237FF496ACE21892F84C20462A04
:107B80007FF490AC0133B3F5007F42D194F84C30D0
:107B9000592B7FF487AC94F84D30202B7FF482ACC6
:107BA0000223A361D4F85032C4F84C3203210022DE
:107BB0006161E26128E4224492F84C20452A7FF476
:107BC00071AC0333B3F5007F7FF445AD94F84C30CE
:107BD0004E2B7FF467AC94F84D304F2B08BF022337
:107BE0007FF460ACE21892F84C20542A7FF45AAC2F
:107BF0000133B3F5007F7FF445AD94F84C30492B49
:107C00007FF450AC94F84D30462B08BF02237FF42C
:107C100049ACE21892F84C20592A7FF443AC013366
:107C2000B3F5007F7FF445AD94F84C30202BB7D0EE
:107C300038E4E21892F84C20522A7FF465AC013304
:107C4000B3F5007F30D194F84C30492B7FF45CAC15
:107C500094F84D30542B7FF457ACA31993F84C3063
:107C6000452B7FF451AC0136B6F5007F31D194F845
:107C70004C30202B3FF467AD46E4224492F84C2070
:107C8000452A7FF441AC0333B3F5007F7FF42FAD79
:107C900094F84C30572B7FF437AC94F84D30522B7E
:107CA00008BF02237FF430ACE21892F84C20492A36
:107CB0007FF42AAC0133B3F5007F7FF42FAD94F845
:107CC0004C30542B7FF420AC94F84D30452B7FF48E
:107CD0001BAC264496F84C30202B3FF434AD13E413
:107CE00070B5D0F84C32C11890B091F84C20422AAF
:107CF00004461AD15A1CB2F5007F80F22583024453
:107D000092F84C20412A10D1B3F5FF7F03F1020213
:107D100040F0CA8590F84C20552A06D190F84D20A5
:107D2000442A08BF022200F07485D4F8585291F812
:107D30004C204E2A48D15A1CB2F5007F80F2C283F3
:107D4000224492F84C20412A40F0A180B3F5FF7FF5
:107D500003F1020240F0BC8394F84C204D2A40F01D
:107D600096800122224492F84C20452A40F08F80D0
:107D70001A1DB2F5007FA4BFA3F5FE73C3F308027A
:107D8000D4F85032934206D02244237C92F84C20FF
:107D90009A4240F01B8540226946DF480AF07EF88F
:107DA00010AB0344DD49E068002503F8405C17F0A0
:107DB000B5FA6946E06817F0B1FA217CE06817F07F
:107DC00045FBD4F84C32E11891F84C20522A5ED190
:107DD0005A1CB2F5007F80F28C83224492F84C202A
:107DE000462A40F0A981B3F5FF7F03F1020240F07B
:107DF000868394F84C20532A40F09E810122A018DB
:107E000090F84C00542840F097810132B2F5007F81
:107E100040F0868394F84C20412A40F08D81012265
:107E2000A01890F84C00542840F086810132B2F539
:107E3000007F40F0868394F84C20452A40F07C81F6
:107E4000DA1DB2F5007F04DB6FF4FC7C6344C3F3FE
:107E50000802D4F85032B249934206D02244237C1F
:107E600092F84C209A4240F0A984E068D4F8645219
:107E700017F054FAAB49E06817F050FA217CE0683B
:107E800017F0E4FAD4F85032C4F84C32E11891F803
:107E90004C20412A40F05081581CB0F5007F80F200
:107EA000C082221892F84C20442A7CD1B3F5FF7F7F
:107EB00003F1020240F0BB8294F84C20562A72D1A2
:107EC0000122A61896F84C60452E6CD10132B2F50D
:107ED000007F40F0BD8294F84C20522A63D10122E9
:107EE000A61896F84C60542E5DD10132B2F5007F91
:107EF00040F0BF8294F84C20492A54D10122A618A0
:107F000096F84C60532E4ED10132B2F5007F40F00E
:107F1000C18294F84C20492A45D10122A61896F82E
:107F20004C604E2E3FD10132B2F5007F40F0C3824B
:107F300094F84C20472A36D103F10B02B2F5007FAA
:107F400004DB6FF4FA763344C3F30802D4F85032FA
:107F5000934206D02244237C92F84C209A4240F06F
:107F60001D84714806F0F8FF704B714A6B49054655
:107F7000002D14BF1D461546E06817F0CFF92946BD
:107F8000E06817F0CBF9217CE06817F05FFA002574
:107F9000D4F85032C4F84C32E11891F84C20412A00
:107FA00040F0CA80581CB0F5007F80F2E182204486
:107FB00090F84C20442A40F02581B3F5FF7F03F16F
:107FC000020240F0DB8294F84C20562A40F01A81DD
:107FD0000122A01890F84C00452840F0138101328E
:107FE000B2F5007F40F0DB8294F84C20522A40F03A
:107FF00009810122A01890F84C00542840F0028119
:108000000132B2F5007F40F0DB8294F84C205F2A09
:1080100040F0F8800122A01890F84C00532840F05E
:10802000F1800132B2F5007F40F0DB8294F84C2001
:10803000452A40F0E7800122A01890F84C00522811
:1080400040F0E0800132B2F5007F40F0DB8294F82E
:108050004C20562A40F0D6800122A01890F84C00FF
:10806000492840F0CF800132B2F5007F40F0DB823A
:1080700094F84C20432A40F0C5800122A01890F8C3
:108080004C00452840F0BE800132B2F5007F40F040
:10809000DB8294F84C205F2A40F0B4800122A018C3
:1080A00090F84C00492840F0AD800132B2F5007FD5
:1080B00040F0DB8294F84C20442A40F0A38003F186
:1080C0001102B2F5007F04DB6FF4F7752B44C3F3A4
:1080D0000802D4F85032934206D02244237C92F80E
:1080E0004C209A4240F04B83124B0C491B68E068CD
:1080F00030338DF8003017F011F96946E06817F059
:108100000DF9217CE06817F0A1F90025D4F8503270
:10811000C4F84C32E1180FE0206D00206CBF040061
:1081200064BF0400E8BF04006073002070BF040057
:1081300078BF0400F06C002091F84C204C2A61D1EB
:108140005A1CB2F5007F80F24081224492F84C2004
:10815000452A40F0CE80B3F5FF7F03F1020240F0E4
:10816000398194F84C20442A40F0C3800122A018A1
:1081700090F84C004D2840F0BC800132B2F5007FF1
:1081800040F0378194F84C204F2A40F0B280012211
:10819000A01890F84C00442840F0AB800132B2F5B2
:1081A000007F40F0378194F84C20452A40F0A180B0
:1081B000DA1DB2F5007F04DB6FF4FC700344C3F3F7
:1081C0000802D4F85032934206D02244237C92F81D
:1081D0004C209A4240F0CB82DD4BDE499D69E0683D
:1081E000002D40F0B38217F099F8DB49E06817F0F2
:1081F00095F8217CE06817F029F9D4F85032C4F8DA
:108200004C32E11891F84C20432A72D15A1CB2F535
:10821000007F80F23182224492F84C204F2A40F0B5
:108220008780B3F5FF7F03F1020240F02B8294F8C0
:108230004C204E2A7CD10122A11891F84C104E29D5
:1082400076D10132B2F5007F40F02D8294F84C20B7
:10825000452A6DD10122A11891F84C10432967D10C
:108260000132B2F5007F40F02F8294F84C20542A5E
:108270005ED10122A11891F84C10452958D1013244
:10828000B2F5007F40F0318294F84C20442A4FD15F
:1082900003F10902B2F5007F04DB6FF4FB710B44BC
:1082A000C3F30802D4F85032934206D02244237C10
:1082B00092F84C209A4240F09D82A84809F07AFE3C
:1082C000A74BA84AA3490546002D14BF1D461546D5
:1082D000E06817F023F82946E06817F01FF8217CC2
:1082E000E06817F0B3F80025D4F85032C4F84C32E7
:1082F000E11891F84C20562A1AD15A1CB2F5007F89
:1083000080F2FA81224492F84C20452A10D1B3F52C
:10831000FF7F03F1020240F03C8394F84C20522A84
:1083200006D194F84D20532A08BF022200F0E982BA
:10833000D4F85832AB423BD01DB1D4F85032C4F817
:108340004C32284610B070BD90F84C20412A7FF482
:10835000ECAC90F84D20552A08BF02227FF4E5AC22
:10836000A01890F84C0044287FF4DFAC0132B2F53D
:10837000007F40F04E8294F84C20522A7FF4D5AC16
:1083800094F84D20412A08BF02227FF4CEACA018F9
:1083900090F84C0054287FF4C8AC0132B2F5007F4D
:1083A00040F04D8294F84C20452A00F04E82BCE407
:1083B0006D49E06816F0B2FF6C49E06816F0AEFF58
:1083C000217CE06817F042F8B6E794F84C20452A83
:1083D0008FD10122A01890F84C00442889D1013295
:1083E000B2F5007F7FF4C3AE94F84C204D2A80D1C3
:1083F0000122A01890F84C004F287FF47AAF013288
:10840000B2F5007F7FF4C4AE94F84C20442A7FF488
:1084100070AF0122224492F84C20452A3FF4C8AEA6
:1084200067E794F84C20442A7FF4BDAD0122A618DA
:1084300096F84C60562E7FF4B6AD0132B2F5007F4F
:108440007FF43FAD94F84C20452A7FF4ACAD012277
:10845000A61896F84C60522E7FF4A5AD0132B2F505
:10846000007F7FF43DAD94F84C20542A7FF49BADFF
:108470000122A61896F84C60492E7FF494AD013283
:10848000B2F5007F7FF43BAD94F84C20532A7FF483
:108490008AAD0122A61896F84C60492E7FF483AD70
:1084A0000132B2F5007F7FF439AD94F84C204E2AAA
:1084B0007FF479AD0122224492F84C20472A3FF400
:1084C0003BAD70E594F84C20412A7FF4E0AC0122EA
:1084D000A01890F84C004D287FF4D9AC0132B2F5C9
:1084E000007F7FF43FAC94F84C20452A3FF440AC29
:1084F000CDE494F84C20462A7FF41EAE0122A01849
:1085000090F84C0053287FF417AE0132B2F5007F8B
:108510007FF475AC94F84C20542A7FF40DAE012200
:10852000A01890F84C0041287FF406AE0132B2F555
:10853000007F7FF475AC94F84C20542A7FF4FCAD96
:108540000122224492F84C20452A3FF479ACF3E50D
:10855000C06C00206CBF040088D60400206D002091
:1085600070BF040078BF040064BF0400F4C00400BE
:1085700094F84C20442A7FF445AE0122A01890F8CC
:108580004C0056287FF43EAE0132B2F5007F7FF4F6
:1085900020AD94F84C20452A7FF434AE0122A01877
:1085A00090F84C0052287FF42DAE0132B2F5007FD6
:1085B0007FF420AD94F84C20542A7FF423AE01229E
:1085C000A01890F84C005F287FF41CAE0132B2F581
:1085D000007F7FF420AD94F84C20532A7FF412AE34
:1085E0000122A01890F84C0045287FF40BAE013210
:1085F000B2F5007F7FF420AD94F84C20522A7FF42E
:1086000001AE0122A01890F84C0056287FF4FAAD74
:108610000132B2F5007F7FF420AD94F84C20492A56
:108620007FF4F0AD0122A01890F84C0043287FF4AD
:10863000E9AD0132B2F5007F7FF420AD94F84C2013
:10864000452A7FF4DFAD0122A01890F84C005F2886
:108650007FF4D8AD0132B2F5007F7FF420AD94F8FD
:108660004C20492A7FF4CEAD0122224492F84C20BE
:10867000442A3FF424ADC5E594F84C204F2A7FF4FA
:1086800057AE0122A11891F84C104E297FF450AE3C
:108690000132B2F5007F7FF4CFAD94F84C204E2A22
:1086A0007FF446AE0122A11891F84C1045297FF4C1
:1086B0003FAE0132B2F5007F7FF4CDAD94F84C208F
:1086C000432A7FF435AE0122A11891F84C105429A9
:1086D0007FF42EAE0132B2F5007F7FF4CBAD94F87B
:1086E0004C20452A7FF424AE0122224492F84C20EB
:1086F000442A3FF4CDAD1BE694F84C20452A7FF484
:1087000017AE94F84D20522A08BF02227FF410AE13
:10871000A11891F84C1053297FF40AAE0132B2F53A
:10872000007F40F0EE8094F84C20492A7FF400AEA0
:1087300094F84D204F2A08BF02227FF4F9AD22445D
:1087400092F84C204E2A00F0F080F1E516F0E6FD9C
:10875000A349E06816F0E2FD217CE06816F076FEA1
:10876000D4F85032C4F84C320025E1184AE59D494E
:10877000E068D4F85C5216F0D1FD9B4936E5994982
:10878000E068D4F85C5216F0C9FD9849E06816F02C
:10879000C5FD217CE06816F059FEB7E49149E06818
:1087A000D4F85C5216F0BAFD9149E06816F0B6FDB7
:1087B000217CE06816F04AFEFFF7EABBE068D4F8D7
:1087C0005C5216F0ABFD8B49FFF755BB8549E0685D
:1087D00016F0A4FD8849E06816F0A0FD217CE06851
:1087E00016F034FED4F85032C4F84C32E1180225A9
:1087F000FFF7EABA7B49E068D4F85C5216F08EFDC8
:108800007E49E06816F08AFD217CE06816F01EFEC5
:108810006AE5A01890F84C0052287FF486AA01322D
:10882000B2F5007F57D194F84C20412A7FF47DAAFD
:1088300094F84D20542A08BF02227FF476AA2244DD
:1088400092F84C20452A7FF470AA03F10802B2F591
:10885000007FA4BFA3F5FC73C3F30802D4F8503221
:108860006049934219D02244237C92F84C209A42CA
:1088700013D0E068D4F85C5216F050FD6049E0680F
:1088800016F04CFD217CE06816F0E0FDD4F8503283
:10889000C4F84C32E118FFF74ABAE068D4F86452E1
:1088A00016F03CFD5749EAE7024492F84C20552A5D
:1088B0007FF43BAADA1CB2F5007F7FF451AD90F84B
:1088C0004C20442A7FF431AA90F84D20522A08BF48
:1088D00002227FF42AAAA01890F84C0041287FF4C5
:1088E00024AA0132B2F5007F7FF451AD94F84C20F8
:1088F000542A7FF41AAA94F84D20452A7FF415AA29
:10890000A3E7A11891F84C1049297FF411AD013269
:10891000B2F5007F54D194F84C204F2A7FF408AD73
:1089200094F84D204E2A7FF403ADDA1DB2F5007F96
:1089300004DB6FF4FC721344C3F30802D4F8503222
:10894000934218D02244237C92F84C209A4212D0B1
:108950002449E068D4F85C5216F0E0FC2A49E0684B
:1089600016F0DCFC217CE06816F070FDD4F8503283
:10897000C4F84C32DCE42549E06816F0CFFC244909
:10898000E06816F0CBFC217CE06816F05FFD002566
:10899000ECE7224492F84C20522A7FF4C9ACDA1C4E
:1089A000B2F5007F7FF4B4AE94F84C20532A7FF4E4
:1089B000BFAC94F84D20492A08BF02227FF4B8AC1E
:1089C000A11891F84C104F297FF4B2AC0132B2F5E6
:1089D000007F7FF4B4AE94F84C204E2AA5D0A7E4D3
:1089E0000CD2040064BF040084C0040054C004001E
:1089F0002CC0040008C00400C8BF0400A8C00400C4
:108A0000A4BF040080BF0400D0C004006CBF0400F9
:108A100058D0040070B5D0F84C32067CC21886B02D
:108A200092F84C20B24240D00021CDE901110391CF
:108A300004918DF8141001AC5D1C04F8012B6FF447
:108A4000FF72B5F5007F134401F10101ACBFC3F320
:108A500008032B46102900EB030223D092F84C2088
:108A6000964203D0D0F85052AB42E5D1C0F84C3218
:108A700001ABC1F11102581800211FF0EDFF1E4893
:108A800006F04CFB1C4806F041FA1C4806F03EFA82
:108A90001B4801A909F0EEF91A4B1B784BB90020CD
:108AA00006B070BDC0F84C32E9E7D0F8600206B0FD
:108AB00070BD0621104806F015FA0F4806F0FAF9C5
:108AC000114B196811B10C4806F0B0F90B4806F0CB
:108AD000C3F90948012106F043FAF422064820218F
:108AE00006F036FA04481E2106F030FA002102484A
:108AF00006F0A2FAD3E700BF60730020A473002041
:108B0000206D0020B4670020EC6C0020F8B50368ED
:108B1000394F1B69D0F86062BB4204463ED1D0E9B0
:108B200093508542C3BFC5F5FF7201328018401BC8
:108B3000002807DD621992F84C20202A04BF013575
:108B4000C4F84C52BB4226D1D4F850028542C3BF70
:108B5000C5F5FF730133C018401B01280DDD6B1CE8
:108B6000B3F5007F04DB6FF4FF73EB18C3F3080366
:108B7000254495F84C204F2A01D03046F8BD1C44BE
:108B800094F84C304E2B0FD0462BF6D11B4806F0F4
:108B9000C5FA0026F1E720469847DEE798472368A4
:108BA000D4F84C521B69C3E7154B1E78002EE4D055
:108BB0000621124806F096F9104806F07BF9114B91
:108BC000196811B10D4806F031F90F4806F044F963
:108BD0000A48012106F0C4F9F4220848202106F0D1
:108BE000B7F906481E2106F0B1F90448002106F045
:108BF00023FA0026C1E700BF8963020060730020EA
:108C0000B4670020EC6C0020A4730020036870B5EA
:108C10001A69284ED0F86052B24204463DD1D0E9DC
:108C200093308342C3BFC3F5FF730133C018C01A2A
:108C3000002809DDD4F84C32E11891F84C102029B5
:108C400004BF0133C4F84C32B2422AD1D4E9933084
:108C50008342C3BFC3F5FF730133C018C01A002895
:108C600019DDD4F84C02044494F84C40A4F13103CB
:108C70000E2BA4F130041AD80F4B104E53F82400D9
:108C8000346088B103681B6998470D4A33681060E7
:108C90009C4208BF0025284670BD904723681A698A
:108CA000C6E720469047DAE70546284670BD4FF0F4
:108CB000FF33EDE78963020034670020F06C002089
:108CC000EC6C0020F8B50368384F1B69D0F860627F
:108CD000D0F84C52BB42044641D1D0F850028542F4
:108CE000C3BFC5F5FF7201328018401B002805DDA7
:108CF000621992F84C20202A08BF0135B5F5007F93
:108D0000A8BFC5F30805BB4226D1D4E993308342FE
:108D1000C3BFC3F5FF730133C018C01A002806DDB6
:108D20002C4494F84C30302B03D0312B1BD03046E0
:108D3000F8BD1F4CFF210023206AC4E905131AF077
:108D4000B1FB6169606A1AF0ADFB6169A06A1AF053
:108D5000A9FB00263046F8BD20469847DEE7984735
:108D600023681B69C2E7124C2568A3699D4215D090
:108D7000FF21206A61611AF095FB6169606A1AF04F
:108D800091FB6169A06A1AF08DFB23689D4205D0B2
:108D900063689D4202D0A3689D42DAD13223A56167
:108DA000E36017F085F9E061D3E700BF8963020053
:108DB000C06C002070B50546D0E99320904232D0B7
:108DC0001C4B0024A918013291F84C1003F8011B28
:108DD000B2F5007F04F1010409DA8242F2D1C5F84C
:108DE0004C22154B1B783BB9D5F8700270BD08B109
:108DF0000022E7E70246F2E7686858B103680F4AC5
:108E00001E69964211D153F80C3C0A491844224677
:108E100009F0FEFDA86820B1036806491B6A2246D6
:108E20009847204670BD0024DBE7024A2346002114
:108E3000B047EFE720660020B5670020E563020039
:108E4000F0B5036883B0DB6A04460E4698470028F5
:108E50002DD018481849074616F060FA23682046B6
:108E6000DB6A98470A220146384616F07BFB134915
:108E7000384616F053FA0CE023685B699847C1B294
:108E80003846019116F078FA336801991B6830462C
:108E9000984723682046DB6A984705462046002D00
:108EA000EAD1044816F06CFA284603B0F0BD4FF042
:108EB000FF35F9E7A07500200CC104003CC1040097
:108EC0002DE9F843DFF8FC9031493248324D334FF9
:108ED000DFF8E080012389F8003008F0C3FF304953
:108EE0002C4808F0C7FF2F492A4807F089FB2E4974
:108EF000284807F087FB2D4809F02AFA05F11006EB
:108F0000002415F8013F214643B157F824000368B7
:108F1000DB68984757F8243048F82430AE4204F113
:108F20000104EED1224B1B685A1E0E2A08D8214A92
:108F300052F8230020B103681B6998471E4B186044
:108F400099F800300BB9BDE8F88306211B4805F0FD
:108F5000C9FF1A4805F0AEFF174B196811B1174841
:108F600005F064FF164805F077FF1448012105F06D
:108F7000F7FF1248F422202105F0EAFF0F481E21D6
:108F800005F0E4FFBDE8F8430C48002106F054B8B2
:108F9000F46C0020206D0020AB6C00207467002072
:108FA00004600020B5640200296502003C6C0020CA
:108FB000F06C002034670020EC6C0020607300200F
:108FC000A4730020B467002038B503681F4D1A69E8
:108FD000AA42044636D1D0E993308342C3BFC3F5D9
:108FE000FF730133C018C01A002809DDD4F84C32D1
:108FF000E11891F84C10202904BF0133C4F84C3219
:10900000AA421CD1D4E993308342C3BFC3F5FF7396
:109010000133C018C01A00280FDDD4F84C322344A5
:1090200093F84C00302802D03038FFF749FFD4F8CD
:109030005032C4F84C32002038BD0120F5E72046FC
:109040009047E8E7904723681A69CDE789630200F3
:10905000F8B5334C334F344E344D2046002108F0E0
:109060007FFF2046042108F025FD00222046012133
:1090700008F050FD2046042108F024FF2C4920462A
:1090800008F0DEFE38460B2116F0BAFF0C2103462D
:109090003846337216F0B4FF0D210346384673721A
:1090A00016F0AEFF0E2103463846B37216F0A8FF45
:1090B00005F130071F4C204903460C223846F37255
:1090C00009F0CAF9402638461C491D4F1A2209F0FA
:1090D000AFF93246002120461FF0BEFC3246002187
:1090E0001848194E1FF0B8FC184B194AE2600022CC
:1090F000C3E9002217481849A060C3E902221748B3
:10910000266178356560012640F20115A0610220D4
:1091100067619A809A715E705D800860F8BD00BFDB
:10912000206D0020FC6C002004600020946A002068
:10913000F56C00207467002028D0040058D004008B
:10914000986B002034670020806A0020AC6C0020FF
:10915000B8680020F0690020F06C0020286C002026
:1091600010B4BA4A13786FF3470313700178447848
:10917000A1F13003DBB2092B40F2BB80A1F1410326
:10918000052B40F2B480A1F16103052B00F253815D
:1091900057390901CBB2A4F13001C9B2092900F253
:1091A000B0800B44DBB293718178C478A1F13003B5
:1091B000DBB2092B40F2B680A1F14103052B40F24E
:1091C000AF80A1F16103052B00F239815739090104
:1091D000CBB2A4F13001C9B2092900F2AB800B4433
:1091E000DBB2537101794479A1F13003DBB2092B71
:1091F00040F2B080A1F14103052B40F2A980A1F11A
:109200006103052B00F21F8157390901CBB2A4F18C
:109210003001C9B2092900F2A5800B44DBB21371F9
:109220008179C479A1F13003DBB2092B40F2AA8025
:10923000A1F14103052B40F2A380A1F16103052BAD
:1092400000F2F78057390901CBB2A4F13001C9B25D
:10925000092900F29F800B44DBB2D370017A447A73
:10926000A1F13003DBB2092B40F2A480A1F141034C
:10927000052B40F29D80A1F16103052B00F2E180F6
:1092800057390901CBB2A4F13001C9B2092900F262
:1092900099800B44DBB2817A9370A1F13003DBB289
:1092A000092BC07A40F2BB80A1F14103052B40F2AB
:1092B0009A80A1F16103052B00F2BF8057390901A3
:1092C000CBB2A0F13001C9B2092940F29680A0F1D9
:1092D0004101052940F2A680A0F16101052902D8CB
:1092E00057380344DBB253705DF8044B7047A1F16B
:1092F00037031B01DBB2A4F13001C9B209297FF6A3
:1093000050AFA4F14101052940F28680A4F161012A
:1093100005293FF648AFA4F157010B44DBB242E701
:10932000A1F137031B01DBB2A4F13001C9B2092955
:109330007FF655AFA4F1410105296AD9A4F1610175
:1093400005293FF64EAFA4F157010B44DBB248E7C5
:10935000A1F137031B01DBB2A4F13001C9B2092925
:109360007FF65BAFA4F14101052939D9A4F1610170
:1093700005293FF654AFA4F157010B44DBB24EE789
:10938000A1F137031B01DBB2A4F13001C9B20929F5
:109390007FF661AFA4F14101052934D9A4F161013F
:1093A00005293FF65AAFA4F157010B44DBB254E74D
:1093B000A1F137031B01DBB2A4F13001C9B20929C5
:1093C0007FF667AFA4F1410105291FD9A4F161011E
:1093D00005293FF660AFA4F157010B44DBB25AE711
:1093E000A4F1370119E7A1F13703A0F13001C9B2A7
:1093F0001B010929DBB23FF66AAF0B44DBB25370A5
:109400005DF8044B7047A4F1370124E7A4F137015C
:109410003FE7A4F13701E2E6A4F13701C1E61B0101
:10942000DBB24EE737380344DBB253705DF8044BD0
:1094300070470023A8E700235DE7002341E70023EE
:1094400072E70023B8E7002386E700BFF46C002032
:1094500030B5844B1B7885B00446CBB90368824A8B
:109460001B69934240F0D980D0E993308342C3BF57
:10947000C3F5FF730133C018C01A0B2810DCD4F8F1
:109480006852D4F85032C4F84C32284605B030BD8A
:10949000D4F85032C4F84C320025284605B030BD0F
:1094A000D4F84C1262184B1C92F84C20A2F13000F8
:1094B000092812D922F02000413805280DD9D4F806
:1094C0006C52C4F84C326846FFF74AFED4F850326A
:1094D000C4F84C32284605B030BD23448DF8002036
:1094E00093F84C20A2F13000092801F1020300F2A8
:1094F0008D8023448DF8012093F84C20A2F1300098
:10950000092801F1030304D922F02000413805287D
:10951000D5D823448DF8022093F84C20A2F13000D6
:10952000092801F1040304D922F02000413805285C
:10953000C5D823448DF8032093F84C20A2F13000C5
:10954000092801F1050304D922F02000413805283B
:10955000B5D823448DF8042093F84C20A2F13000B4
:10956000092801F1060304D922F02000413805281A
:10957000A5D823448DF8052093F84C20A2F13000A3
:10958000092801F1070304D922F0200041380528F9
:1095900095D823448DF8062093F84C20A2F1300092
:1095A000092801F108033AD823448DF8072093F8DD
:1095B0004C20A2F13000092801F1090336D82344D8
:1095C0008DF8082093F84C20A2F13000092801F111
:1095D0000A0332D823448DF8092093F84C20A2F1D5
:1095E0003000092801F10B032ED823448DF80A20FE
:1095F00093F84C20A2F13000092801F10C032AD87D
:109600008DF80B20C4F84C3200255CE722F02000D6
:10961000413805283FF653AF6BE798472DE722F016
:109620002000413805283FF64AAFBDE722F0200070
:10963000413805283FF643AFC1E722F0200041380A
:1096400005283FF63CAFC5E722F020004138052849
:109650003FF635AFC9E722F0200141390529CFD9BE
:109660002DE700BFB467002089630200F8B5D0F889
:109670004C32C118044691F84C20422A1AD15A1C87
:10968000B2F5007F80F2CA82024492F84C20452A4B
:1096900010D1B3F5FF7F03F1020240F0C78590F8C7
:1096A0004C20472A06D190F84D20492A08BF0222B3
:1096B00000F0DA85D4F8586291F84C20422A60D143
:1096C0005A1CB2F5007F80F27883224492F84C2035
:1096D000412A40F09480B3F5FF7F03F1020240F08D
:1096E000728394F84C20552A40F089800122A018FA
:1096F00090F84C00442840F082800132B2F5007F9F
:1097000040F0728394F84C20522A78D10122A0189C
:1097100090F84C00412872D10132B2F5007F40F040
:10972000748394F84C20542A69D10122A01890F82F
:109730004C00452863D10132B2F5007F40F07683BA
:1097400094F84C203D2A5AD109335A42C2F30802F8
:10975000C3F3080358BF5342C4F84C32D849E068F9
:10976000D4F8646215F0DAFDD649E06815F0D6FD4C
:10977000217CE06815F06AFED4F85032C4F84C320F
:10978000E11891F84C204D2A39D15A1CB2F5007FCE
:1097900080F25383224492F84C20412A7FD1B3F5C2
:1097A000FF7F03F1020240F04E8394F84C20432ADD
:1097B00075D10122224492F84C203D2A6FD1043306
:1097C000C1495A42C2F308020978C3F3080358BFDB
:1097D0005342C4F84C32002900F00E84B849E068C6
:1097E00015F09CFDB949E06815F098FD217CE06812
:1097F00015F02CFED4F85032C4F84C32E11891F830
:109800004C204E2A4BD15A1CB2F5007F80F22C839B
:10981000224492F84C20412A40F09A80B3F5FF7F11
:1098200003F1020240F0268394F84C204D2A40F0C8
:109830008F800122A01890F84C00452840F08880C5
:109840000132B2F5007F40F0268394F84C203D2A87
:109850007ED105335A42C2F30802C3F3080358BF4E
:109860005342C4F84C322046FFF7D4F898490646D4
:10987000E06815F053FD217CE06815F0E7FD052058
:1098800016F022FC1825E06810B1217C15F074FD5B
:10989000013DF8D1D4F85032C4F84C32E11891F8B7
:1098A0004C20522A54D15A1CB2F5007F80F2FE821D
:1098B000224492F84C20462A69D1B3F5FF7F03F188
:1098C000020240F0F98294F84C20532A5FD1012221
:1098D000A11891F84C10542959D10132B2F5007FEA
:1098E00040F0FB8294F84C20412A50D10122A1186B
:1098F00091F84C1054294AD10132B2F5007F40F062
:10990000FD8294F84C20452A41D10122224492F84C
:109910004C203D2A3BD108335A42C2F30802C3F31C
:10992000080358BF5342C4F84C326549E068D4F884
:10993000646215F0F3FC6749E06815F0EFFC217CE8
:10994000E06815F083FDD4F85032C4F84C32E118C9
:1099500091F84C20412A1AD15A1CB2F5007F80F2AE
:10996000DE82224492F84C20442A10D1B3F5FF7FC6
:1099700003F1020240F00D8494F84C20562A06D1DF
:1099800094F84D20452A08BF022200F0C5835249B1
:109990001A4601F11207A51811F8010B95F84C5061
:1099A000854202F1010228D1B2F5007FA8BF002252
:1099B000B942F0D112335A42C2F30802C3F308038A
:1099C00058BF5342C4F84C322046FFF71FF90646F1
:1099D000002800F04A833A49E068D4F8606215F044
:1099E0009DFC3E49E06815F099FC217CE06815F08B
:1099F0002DFDD4F85032C4F84C32E11891F84C20C7
:109A0000452A40F0E2805A1CB2F5007F80F2568170
:109A1000224492F84C204E2A40F0F580B3F5FF7FA7
:109A200003F1020240F04F8194F84C20412A40F0AB
:109A3000EA800122A11891F84C10422940F0E380FD
:109A40000132B2F5007F40F04D8194F84C204C2A51
:109A500040F0D9800122A11891F84C10452940F01E
:109A6000D2800132B2F5007F40F04B8194F84C2057
:109A70005F2A40F0C8800122A11891F84C105329A8
:109A800040F0C1800132B2F5007F40F04B8194F884
:109A90004C20452A40F0B7800122A11891F84C10C3
:109AA000522940F0B0800132B2F5007F40F04B8186
:109AB00094F84C20562A40F0A680012210E000BF06
:109AC00064BF040064C10400B467002088C10400BE
:109AD0006CBF040038C2040070C2040084C20400D9
:109AE000A11891F84C10492940F08D800132B2F54F
:109AF000007F40F0398194F84C20432A40F0838065
:109B00000122A11891F84C1045297CD10132B2F5FF
:109B1000007F40F03A8194F84C205F2A73D10122F3
:109B2000A11891F84C1049296DD10132B2F5007F8E
:109B300040F03C8194F84C20442A64D12268D94DED
:109B4000116811335A42C2F30802C3F3080358BF25
:109B50005342A942C4F84C3240F0BC825A1C5142D4
:109B60002344C1F30801C2F3080258BF4A4293F8E4
:109B70004C70C4F84C222F2F16D923681B68AB42B7
:109B800040F0AC82D4F84C22531C59422244C1F319
:109B90000801C3F3080358BF4B4292F84C00C4F8C5
:109BA0004C323D2800F06382002E40F08482BE4992
:109BB000E06815F0B3FB217CE06815F047FC002657
:109BC000D4F85032C4F84C32E11891F84C204C2AA9
:109BD00019D15A1CB2F5007F42DA224492F84C2087
:109BE000452A10D1B3F5FF7F03F1020240F08483D0
:109BF00094F84C20442A06D194F84D204D2A08BFF1
:109C0000022200F0C783D4F85832B34200F01B821E
:109C1000D4F85032C4F84C323046F8BD90F84C209D
:109C2000452A7FF447AD90F84D20472A08BF02220D
:109C30007FF440ADA01890F84C0049287FF43AAD6D
:109C40000132B2F5007F40F00F8394F84C204E2A89
:109C50007FF430AD94F84D203D2A7FF42BAD12E314
:109C600094F84C20452ACED194F84D20442A08BFC0
:109C70000222C8D1A11891F84C104D29C3D101324C
:109C8000B2F5007F40F0868394F84C204F2ABAD179
:109C900094F84D20442A08BF0222B4D1A11891F8AB
:109CA0004C104529AFD10132B2F5007F40F08883D6
:109CB00094F84C203D2A00F04B83A4E794F84C2004
:109CC0004E2AA0D10122A11891F84C1041299AD115
:109CD0000132B2F5007F7FF4ADAE94F84C20422AF9
:109CE00091D10122A11891F84C104C298BD101324D
:109CF000B2F5007F7FF4AFAE94F84C20452A82D1B4
:109D00000122A11891F84C105F297FF47CAF013239
:109D1000B2F5007F7FF4B0AE94F84C20532A7FF464
:109D200072AF0122A11891F84C1045297FF46BAF56
:109D30000132B2F5007F7FF4B0AE94F84C20522A85
:109D40007FF461AF0122A11891F84C1056297FF4DD
:109D50005AAF0132B2F5007F7FF4C2AE94F84C20C6
:109D6000492A7FF450AF0122A11891F84C104329E1
:109D70007FF449AF0132B2F5007F7FF4C2AE94F8B0
:109D80004C20452A7FF43FAF0122A11891F84C10D6
:109D90005F297FF438AF0132B2F5007F7FF4C0AEA7
:109DA00094F84C20492A7FF42EAF0122224492F8E5
:109DB0004C20442A3FF4C2AE25E794F84C20412AB7
:109DC0007FF41DAD0122A01890F84C0055287FF4B7
:109DD00016AD0132B2F5007F7FF489AC94F84C20C7
:109DE000442A7FF40CAD0122A01890F84C005228B0
:109DF0007FF405AD0132B2F5007F7FF488AC94F8B2
:109E00004C20412A7FF4FBAC0122A01890F84C00B2
:109E100054287FF4F4AC0132B2F5007F7FF486ACB5
:109E200094F84C20452A7FF4EAAC0122224492F8AF
:109E30004C203D2A3FF488ACE1E494F84C20412AC0
:109E40007FF42DAD0122A01890F84C0043287FF438
:109E500026AD0132B2F5007F7FF4ACAC94F84C2013
:109E60003D2A3FF4ACAC1AE594F84C20412A7FF42B
:109E70006FAD0122A01890F84C004D287FF468AD1A
:109E80000132B2F5007F7FF4D5AC94F84C20452A1E
:109E90007FF45EAD0122224492F84C203D2A3FF42B
:109EA000D8AC55E5616302006CBF040094F84C2007
:109EB000462A7FF46CAD0122A11891F84C10532969
:109EC0007FF465AD0132B2F5007F7FF401AD94F807
:109ED0004C20542A7FF45BAD0122A11891F84C105C
:109EE00041297FF454AD0132B2F5007F7FF4FFAC1D
:109EF00094F84C20542A7FF44AAD0122A11891F81D
:109F00004C1045297FF443AD0132B2F5007F7FF458
:109F1000FDAC94F84C203D2A3FF4FDAC37E594F8B5
:109F20004C20442A7FF433AD94F84D20562A08BFC4
:109F300002227FF42CADA11891F84C1045297FF432
:109F400026AD0132B2F5007F40F0E68094F84C2057
:109F5000522A7FF41CAD94F84D20542A08BF0222E7
:109F60007FF415ADA11891F84C1049297FF40FAD7D
:109F70000132B2F5007F40F0E58094F84C20532A7E
:109F80007FF405AD94F84D20492A08BF02227FF4E2
:109F9000FEACA11891F84C104E297FF4F8AC0132B8
:109FA000B2F5007F40F0E48094F84C20472A7FF41B
:109FB000EEAC94F84D203D2A7FF4E9AC0C335A42C4
:109FC000C2F30802C3F3080358BF5342C4F84C322B
:109FD0002046FEF79BFD0646002840F09780BC49CE
:109FE000E06815F09BF9217CE06815F02FFAD4F8B1
:109FF0005032C4F84C32CAE42046FFF729FA06462C
:10A00000002856D0D4F8683283426ED0D4F86C322F
:10A01000B049E068B34264D015F080F9AE49E06819
:10A0200015F07CF9217CE06815F010FA052016F097
:10A030004BF81825E06810B1217C15F09DF9013D21
:10A04000F8D1FFF7D7BBA349E06815F067F9A3493A
:10A05000E06815F063F9217CE06815F0F7F9D4F8B1
:10A060005032C4F84C323046F8BD9949BAE42368FE
:10A070001B68AB4247D1D4F84C22531C59422244AE
:10A08000C1F30801C3F3080358BF4B4292F84C00D8
:10A09000C4F84C325428A7F130032CD046287FF462
:10A0A00083AD313F0E2F3FF682AD8D4A0021D15452
:10A0B0007DE58749B3E78749E068D4F8606215F029
:10A0C0002DF98849E06815F029F9217CE06815F040
:10A0D000BDF975E52046884707464CE52046984778
:10A0E0005FE515F01BF9804999E77A49E06815F0BA
:10A0F00015F97E4993E7313F0E2F3FF655AD784A6B
:10A100000121D15453E520469847C3E77149E068DF
:10A1100015F004F9764963E7A11891F84C1052291B
:10A120007FF435AC0132B2F5007F49D194F84C2070
:10A13000542A7FF42CAC94F84D20492A08BF0222FF
:10A140007FF425ACA11891F84C1053297FF41FAC73
:10A150000132B2F5007F4AD194F84C20492A7FF4AD
:10A1600016AC94F84D204E2A08BF02227FF40FACA3
:10A17000A11891F84C1047297FF409AC0132B2F5CF
:10A18000007F4BD194F84C203D2A3FF417AFFFF7E6
:10A19000FEBB224492F84C20562A7FF4F8ABDA1C1E
:10A1A000B2F5007F7FF4C7AE94F84C20452A7FF4C7
:10A1B000EEAB94F84D20522A08BF02227FF4E7ABA1
:10A1C000A11891F84C1054297FF4E1AB0132B2F59B
:10A1D000007F7FF4C7AE94F84C20492A7FF4D7ABB8
:10A1E00094F84D20532A08BF02227FF4D0ABA11867
:10A1F00091F84C1049297FF4CAAB0132B2F5007FC7
:10A200007FF4C7AE94F84C204E2A7FF4C0AB94F88C
:10A210004D20472A08BF02227FF4B9AB224492F8AE
:10A220004C203D2A3FF4CAAEFFF7B1BB024492F87E
:10A230004C20472A7FF43EAADA1CB2F5007F7FF457
:10A24000F9AC90F84C20492A7FF434AA90F84D20BC
:10A250004E2A08BF02227FF42DAA224492F84C20F5
:10A260003D2A10D0FFF726BAA01890F84C004E28CF
:10A270007FF420AA0132B2F5007FEED194F84C2091
:10A280003D2A7FF417AA06335A42C2F30802C3F3E9
:10A29000080358BF5342C4F84C322046FEF794FEE0
:10A2A000064670B90A49E06815F038F8217CE06884
:10A2B00015F0CCF8D4F85032C4F84C32E118FFF75E
:10A2C000FBB90449E06815F029F80A49EBE700BF3B
:10A2D0006CBF040064BF040014C20400D8C20400B0
:10A2E000AC6C0020A4C20400E8C10400BCC104009E
:10A2F00058C2040050C10400224492F84C20442A61
:10A300007FF481ACDA1CB2F5007F7FF4B3AC94F833
:10A310004C204D2A7FF477AC94F84D204F2A08BF8B
:10A3200002227FF470ACA11891F84C1044297FF4FC
:10A330006AAC0132B2F5007F7FF4B0AC94F84C20E7
:10A34000452A7FF460AC94F84D203D2A7FF45BAC45
:10A3500008335A42C2F30802C3F3080358BF5342FA
:10A36000C4F84C322046FEF7ADFC064660B91749EA
:10A37000E06814F0D3FF217CE06815F067F8D4F8AA
:10A380005032C4F84C323EE41149E06814F0C6FF84
:10A390001049EDE7A11891F84C104F297FF433AC28
:10A3A0000132B2F5007FBED194F84C20442A7FF4EC
:10A3B0002AAC94F84D20452A08BF02227FF423AC32
:10A3C000224492F84C203D2AC2D01CE46CBF040009
:10A3D00064BF0400C4C204000368DB4A1B699342E3
:10A3E00070B5D0F85462044640F0F781D0E9933557
:10A3F000AB42C3BFC3F5FF730133ED18ED1A042D53
:10A4000040F39C80D4F84C32E21892F84C20532A46
:10A4100040F0E681591CB1F5007F80F24E81621850
:10A4200092F84C20452A19D1B3F5FF7F03F10202BF
:10A4300040F0498194F84C204E2A0FD10122A018F7
:10A4400090F84C00442809D10132B2F5007F40F069
:10A450004B8194F84C20202A00F04C81B1F5007F0C
:10A4600080F21481214491F84C20452A3DD1B3F566
:10A47000FF7F03F1020240F00F8194F84C20542A30
:10A4800033D10122224492F84C20202A2DD11A1DCA
:10A490005342C3F30803C2F3080258BF5A42C4F838
:10A4A0004C222046FFF7E2F8D4F84C320026E2189E
:10A4B00092F84C20472A18D15A1CB2F5007F80F23E
:10A4C0003181224492F84C20452A0ED1B3F5FF7F0A
:10A4D00003F1020240F0BC8094F84C20542A04D1CD
:10A4E00094F84D20202A00F0C280042D28DDD4F8F5
:10A4F0004C32E1181A4691F84C1042295ED15A1C90
:10A50000B2F5007F26DA224492F84C20452A17D172
:10A51000B3F5FF7F03F1020240F06F8194F84C2005
:10A52000472A0DD194F84D20492A08BF022207D1AD
:10A53000224492F84C204E2A23D001E000F05481AE
:10A54000D4F85432B34271D0D4F85032C4F84C32FB
:10A55000304670BD94F84C20452AF1D194F84D2036
:10A56000472A08BF0222EBD1A11891F84C104929C3
:10A57000E6D10132B2F5007FDAD194F84C204E2AB0
:10A58000DED105335A42C2F30802C3F3080358BFB1
:10A590005342C4F84C322046FEF716FD064600280A
:10A5A00040F025816949E06814F0B8FE217CE0683C
:10A5B00014F04CFFD4F85022C4F84C22062DBFDD15
:10A5C000A31893F84C30562BBAD1531CB3F5007F27
:10A5D00080F2C280234493F84C30452BB0D1B2F5C1
:10A5E000FF7F02F1020340F01E8194F84C30522BA1
:10A5F000A6D194F84D30532B08BF0223A0D1E11807
:10A6000091F84C1049299BD10133B3F5007F40F0FC
:10A61000208194F84C304F2B92D194F84D304E2B32
:10A6200000F0C380D4F85432B3428DD14849E06879
:10A6300014F074FE4749E06814F070FE217CE06875
:10A6400014F004FFD4F85032C4F84C32304670BDD8
:10A65000224492F84C20542A7FF447AFDA1CB2F51A
:10A66000007F6BD194F84C20202A7FF43EAF1A1D56
:10A670005342C3F30803C2F3080258BF5A42C4F856
:10A680004C222046FDF72CFB06462EE794F84C2082
:10A69000452A7FF42AAF0122A11891F84C105429C1
:10A6A0007FF423AF0132B2F5007F7FF4EBAE94F874
:10A6B0004C20202A3FF4EBAE17E794F84C20452AB3
:10A6C0007FF4CCAE0122A01890F84C004E287FF405
:10A6D000C5AE0132B2F5007F7FF4B1AE94F84C20E4
:10A6E000442A7FF4BBAE0122224492F84C20202A57
:10A6F0007FF4B4AE05335A42C2F30802C3F3080331
:10A7000058BF5342C4F84C322046FEF753FBD4F8EE
:10A710004C320026E21892F84C1053297FF4C8AE50
:10A72000591C9BE694F84C20452A7FF4DEAE94F841
:10A730004D20542A08BF02227FF4D7AE224492F85B
:10A740004C20202A93D0D0E6896302006CBF04001D
:10A7500064BF0400F0C2040094F84C30452B7FF431
:10A76000EFAE94F84D30522B08BF02237FF4E8AED1
:10A77000E11891F84C1053297FF4E2AE0133B3F5A0
:10A78000007F7FF43CAF94F84C30492B7FF4D8AE77
:10A7900094F84D304F2B08BF02237FF4D1AE2344F1
:10A7A00093F84C304E2B7FF4CBAE07325342C3F3B9
:10A7B0000803C2F3080258BF5A42C4F84C222C497D
:10A7C000E06814F0ABFD2B49E06814F0A7FD217C94
:10A7D000E06814F03BFE0026B2E6984705460EE618
:10A7E000472A3FF469AE84E6D4F84C3292E7224916
:10A7F000E06814F093FD2149D5E6224492F84C20FC
:10A80000472A7FF49DAEDA1CB2F5007F7FF4ACAE30
:10A8100094F84C20492A7FF493AE94F84D204E2AA8
:10A820007FF48EAEADE6234493F84C30522B7FF488
:10A8300087AED31CB3F5007F9AD194F84C30532BDC
:10A840007FF47EAE94F84D30492B08BF02237FF48D
:10A8500077AEE11891F84C104F297FF471AE0133B7
:10A86000B3F5007F9BD194F84C304E2B9DD067E61A
:10A870006CBF040058D0040064BF040050C1040041
:10A88000F8B5454E3368834285BF00233360C31A51
:10A890000346642B04463DD9404B1B78002B3AD02D
:10A8A0003F4DAB69002B26DDAF68BB424AD12A6819
:10A8B0001F46EB699C423CBF0023EB61974205D0E9
:10A8C000AA68974202D06A68974222D1EA68134484
:10A8D0009C421ED9D5E904311944FE29EC6154DCAF
:10A8E0007F29DDBF08237F21C5E90431696138462E
:10A8F00018F0D8FDAB6963B9FF21286A696118F0C7
:10A90000D1FD6969686A18F0CDFD6969A86A18F017
:10A91000C9FD3460F8BD234B214D1B783BB9AB69B1
:10A92000002BE8DD2F68BB420CD13A46C1E71E4838
:10A9300004F012FB0028F2D0AB69002BDBDD6F685E
:10A94000BB42B4D0FF21286A696118F0ABFD696988
:10A95000686A18F0A7FD6969A86A18F0A3FD2B685A
:10A960009F420BD06B689F4208D0AB689F4205D0D6
:10A97000AB69002BBFDD2A681F469AE73223AF611F
:10A98000EB6015F095FBE861F2E76FF00703FF213C
:10A99000C5E90431ABE700BF30670020B567002090
:10A9A000C06C0020B4670020607300202DE9F041E6
:10A9B000D0E901239A4282B0054606D00B6842F8DE
:10A9C000043B426002B0BDE8F08107686FF060466A
:10A9D000D41BB6EBA40F4FEAA40214D0012A1346ED
:10A9E00038BF01239B1826D2CBB91E4698460B6868
:10A9F00048F80430002C07DC043444445FB9C5E94E
:10AA00000084AE60DEE7FEE72246394640461EF08F
:10AA100009F804344444384617F0AAFFEFE7B3427C
:10AA200028BF33469E003046019117F09FFF0199E1
:10AA300080460644DBE7014EF5E700BFFCFFFF7FE1
:10AA40002DE9F84FD0E900850646A5EB08046FF024
:10AA50006040B0EBA40F23D0A310012B1C4638BFDD
:10AA600001241C190F469246A1EB08093ED29CBB5B
:10AA7000A346DAF800304BF80930B9F1000F10DCCA
:10AA8000ED1B09F10409002D0BEB09031DDC1D442E
:10AA9000B8F1000F11D1C6E900B5B460BDE8F88F78
:10AAA000FEE74A4641465846ED1B1DF0BBFF09F143
:10AAB0000403002D5B4408DC1D44404617F058FF9A
:10AAC000C6E900B5B460BDE8F88F184639462A4695
:10AAD0001DF09AFF0346DAE7844228BF0446A4002B
:10AAE000204617F043FF83460444C2E7004CF7E7D3
:10AAF000FCFFFF7F2DE9F04F9A488FB014F0AEFDB8
:10AB0000002850D0974E984C984F304614F0A6FD30
:10AB1000002848D0304614F0A9FD6569C0B2002D68
:10AB200067D1237C834200F0E780D4F85032E218EA
:10AB30000133B3F5007F82F84C00D4F84C22B2BF49
:10AB4000C4F850322B46C4F850529A42C3BFC2F5E3
:10AB5000FF7101315B189B1A032BD6D1A31893F810
:10AB60004C30422B40F0EA82531CB3F5007F80F258
:10AB70000784234493F84C304C2B40F0DF82B2F52D
:10AB8000FF7F02F1020340F0018494F84C30452B22
:10AB900040F0D48202220023C4E90523304614F099
:10ABA0005DFD0028B6D1724B1B7823B1714B1B7829
:10ABB000002B40F0198415F07BFA6F4DFFF760FE13
:10ABC00015F076FA2B6898423BBF00232B60C31A1E
:10ABD0000346642B044609D9664B1978002900F016
:10ABE000CB830121192018F069FD2C600FB0BDE85E
:10ABF000F08F012D00F0A180022D00F0A282032D24
:10AC000000F00E83042D00F0CD83052D00F0238786
:10AC1000062D7FF47AAFD4E993129142C4BFC1F5F7
:10AC2000FF750135636ACCBFAD18551AAB4200F30E
:10AC3000C785257C854240F0C385A56A9D42A8BF93
:10AC40001D46002D13DD4D4800EB050C6318013146
:10AC500093F84C3000F8013F4B42C3F30803C1F3B3
:10AC6000080158BF59428445F0D1C4F84C12D4E9C8
:10AC700006A9BAF1020F216A01F08685BAF1010F27
:10AC800001F0F3843E4905A815F00EF80A22E169A7
:10AC900008A815F071F808A905A815F055F9394963
:10ACA00015F07EF90A22216A05460BA815F064F812
:10ACB0000BA9284615F048F9014602A815F00EF830
:10ACC0000BA815F0C1F808A815F0BEF805A815F0F6
:10ACD000BBF8029D2C49E06814F020FB2946E0688F
:10ACE00014F01CFB217CE06814F0B0FB002302A8E8
:10ACF000636115F0A9F819E0D4E993329342C3BF18
:10AD0000C3F5FF750135AD18D51A042DD4F85402DA
:10AD10003EDC6FD01C49E06814F000FB1B49E06882
:10AD200014F0FCFA217CE06814F090FBD4F8503267
:10AD3000C4F84C3200236361E7E6237C834200F0D1
:10AD40009B80D4F85032E2180133B3F5007F82F8CB
:10AD50004C00C4F85032FFF6D8AE0023C4F850328D
:10AD6000D3E600BFC4940020AC6300206CBF040095
:10AD7000B4670020B56700202C670020D76300204F
:10AD800044BF040060BF040064BF0400F0C20400BC
:10AD9000E21892F84C20532A41F03F83591CB1F538
:10ADA000007FC0F22B8394F84C20452A3AD194F8C6
:10ADB0004D204E2A29D194F84E20442A25D1012233
:10ADC000B2F5FF7F02F1020C41F0DD8594F84C20D2
:10ADD000202A16D105335A42C2F30802C3F30803EE
:10ADE000204658BF5342C4F84C32FDF7E3FFD4F875
:10ADF0004C320020E21892F84C20532A40F0758221
:10AE0000591CB1F5007FC0F2438294F84C20452ACA
:10AE100006D194F84D20542A08BF022200F04C823B
:10AE2000042D23DDD4F84C32E21892F84C20422A4B
:10AE300040F071825A1CB2F5007F80F2F682224403
:10AE400092F84C20452A11D1B3F5FF7F03F102029D
:10AE500041F0238594F84C20472A41F0D48394F89C
:10AE60004D20492A08BF022200F0F082D4F8543263
:10AE700083427FF45BAF4DE7D4E993329342C3BF83
:10AE8000C3F5FF7808F101089044A2EB0308B8F17C
:10AE9000040FD4F8540240F34A83E21892F84C208D
:10AEA000532A41F0C18303F1010CBCF5007FC0F2CD
:10AEB000928794F84C20452A40F07F870122A11800
:10AEC00091F84C104E2925D1511CB1F5007F41F06D
:10AED000188694F84C20442A1CD10122224492F86E
:10AEE0004C10202916D105335A42C2F30802C3F38D
:10AEF0000803204658BF5342C4F84C32FDF75AFFAE
:10AF0000D4F84C320020E21892F84C20532A2ED16B
:10AF100003F1010CBCF5007F80F24F8704EB0C02BB
:10AF200092F84C20452A4DD10CF10102B2F5007F78
:10AF300041F0F58594F84C20542A43D10122224453
:10AF400092F84C20202A3DD104335A42C2F3080221
:10AF5000C3F30803204658BF5342C4F84C32FEF7EF
:10AF600085FBD4F84C32E218002092F84C20472A96
:10AF700028D15A1CB2F5007F80F20E87224492F845
:10AF80004C20452A40F01387B3F5FF7F03F10202FE
:10AF900041F0A58594F84C20542A13D10122224473
:10AFA00092F84C20202A40F0028704335A42C2F320
:10AFB0000802C3F30803204658BF5342C4F84C327A
:10AFC000FCF78EFEB8F1040F7FF750AFD4F84C3287
:10AFD000E21892F84C20422A5BD15A1CB2F5007F4D
:10AFE00080F2C786224492F84C20452A7FF43EAF77
:10AFF000B3F5FF7F03F1020241F01C8594F84C2069
:10B00000472A40F0D08794F84D20492A08BF0222F1
:10B010007FF42CAF224492F84C204E2A7FF426AFC6
:10B0200005335A42C2F30802D4F85012C3F308039E
:10B0300058BF53428B42C4F84C3240F2FF1241F3E6
:10B04000E281D21A5018002841F35E82E01890F88D
:10B050004C00202800F09C870A44002A41F35482C7
:10B06000234493F84C00302804D03038FDF728FFF3
:10B07000D4F85012C4F84C12E068394614F04EF976
:10B08000217CE06814F0E2F9D4F85032C4F84C3274
:10B090000020B8F1060F7FF7E9AEE21892F84C20D5
:10B0A000562A7FF4E3AE5A1CB2F5007F80F23A864E
:10B0B000224492F84C20452A7FF4D8AEB3F5FF7FA6
:10B0C00003F1020241F0D08494F84C20522A7FF41C
:10B0D000CDAE94F84D20532A7FF4C8AE94F84E209C
:10B0E000492A7FF4C3AE94F84F204F2A7FF4BEAEB6
:10B0F000042501F0D5BC94F84C204C2A1ED194F8BC
:10B100004D20452A1AD194F84E20572A16D194F88A
:10B110004F20522A12D10422A11891F84C1049292B
:10B120000CD10132B2F5007F69D194F84C20542A39
:10B1300004D194F84D20452A02F02D820123636149
:10B14000E3E4237C834200F04783D4F85032E218D2
:10B150000133B3F5007FA8BF0023202882F84C00FC
:10B16000C4F850327FF4D1ACD4F84C229A42C3BF19
:10B17000C2F5FF710131C918991A092940F34686B1
:10B18000A11891F84C104229D8D1501CB0F5007F7D
:10B1900081F2EB80211891F84C104C2910D1B2F5B6
:10B1A000FF7F02F1020141F07F8694F84C1045299F
:10B1B00006D194F84D104E2908BF022101F03486C3
:10B1C000B0F5007F97DA204490F84C104C29B5D1A7
:10B1D000B2F5FF7F02F1020141F00A8794F84C209A
:10B1E000452AABD194F84D20572AA7D194F84E2088
:10B1F000522AA3D194F84F20492A9FD10422A118A2
:10B2000091F84C10542999D10132B2F5007F41F0E8
:10B210000F8794F84C20452A90D1012502F0BBB944
:10B22000237C834200F08C81D4F85032E218013341
:10B23000B3F5007FA8BF0023202882F84C00C4F893
:10B2400050327FF462ACD4F84C22C4F84C32A318CC
:10B25000042293F84C306261303B0022C4E907328B
:10B2600053E404EB020C9CF84CC0BCF14E0F40F0D0
:10B27000D58003F1030CBCF5007F42F0AB8194F85C
:10B280004C20442A04D194F84D20202A3FF4A2AD4A
:10B29000214491F84C20452A7FF4C2ADB3F5FF7FDD
:10B2A00003F1020241F04B8394F84C30542B7FF4AD
:10B2B000B7AD4FF4FF730122224492F84C20202AAC
:10B2C0007FF4AEAD04335A42C2F30802C3F308035D
:10B2D000204658BF5342C4F84C32FEF7C7F9D4F8A1
:10B2E0004C32E218002092F84C20472A7FF498ADA7
:10B2F0005A1CB2F5007FC0F2F48094F84C20452A25
:10B3000006D194F84D20542A08BF022200F0FB8099
:10B31000042D7FF7ABAD062D7FF7A8ADE21892F8AC
:10B320004C20562A7FF4A2AD5A1CB2F5007F80F261
:10B33000B280224492F84C20452A7FF497ADB3F5B1
:10B34000FF7F03F1020241F0BB8294F84C20522AA5
:10B350007FF48CAD94F84D20532A7FF487AD94F898
:10B360004E20492A7FF482AD94F84F204F2A7FF473
:10B370007DAD042201F0BFBA192018F09FF934E422
:10B3800094F84C304C2B7FF4D9AE0123234493F82E
:10B390004C30452B7FF4D2AE02220023C4E90523B2
:10B3A000FFF7FCBB237C834200F08A83D4F8503241
:10B3B000E2180133B3F5007FA8BF0023202882F8EC
:10B3C0004C00C4F850327FF4A0ABD4F84C22C4F83F
:10B3D0004C32A318052293F84C306261303B0022B6
:10B3E000C4E90832FFF791BB52495348FDF728FDE5
:10B3F00050495248FDF724FDFFF7DDBB621892F873
:10B400004C20452A0AD1B3F5FF7F03F102027FF4F5
:10B4100028AF94F84C204E2A02F0D980214491F8AC
:10B420004C20452A3FF43AAFFCE494F84C20452ADE
:10B430007FF41CAD94F84D20472A7FF417AD94F8A3
:10B440004E20492A08BF03227FF410AD224492F80F
:10B450004C204E2A7FF40AAD05335A42C2F308024B
:10B46000D4F85012C3F3080358BF53428B42C4F8B8
:10B470004C3240F2FF1240F32E84D21A50180028AA
:10B4800040F37985E01890F84C00202800F075858D
:10B490000A4400F029BC94F84C20452A7FF4E6AC1D
:10B4A00094F84D20522A7FF4E1AC94F84E20532AB0
:10B4B0007FF4DCAC94F84F20492A7FF4D7AC042207
:10B4C000A11891F84C104F297FF4D0AC0132B2F59D
:10B4D000007F41F0108294F84C204E2A01F0118236
:10B4E000C4E4224492F84C20452A7FF411AFB3F50E
:10B4F000FF7F03F1020241F0348294F84C20542A79
:10B500007FF48EAC0122224492F84C20202A7FF452
:10B51000FFAE04335A42C2F30802C3F308032046C5
:10B5200058BF5342C4F84C32FCF7DAFB78E47FF49E
:10B53000F1ABE8E4C4940020FC680020C46700205C
:10B54000D4E993329342C3BFC3F5FF7808F10108F1
:10B550009044A2EB0308B8F1040FD4F8540240F36E
:10B56000AC82E21892F84C20532A40F0208503F177
:10B57000010CBCF5007FC0F2DD8694F84C20452A12
:10B5800040F0CA860122A11891F84C104E2925D10D
:10B59000511CB1F5007F41F0748594F84C20442A89
:10B5A0001CD10122224492F84C10202916D10533D7
:10B5B0005A42C2F30802C3F30803204658BF53425D
:10B5C000C4F84C32FDF7F6FBD4F84C320020E218F8
:10B5D00092F84C20532A2ED103F1010CBCF5007FC8
:10B5E00080F29A8604EB0C0292F84C20452A4DD149
:10B5F0000CF10102B2F5007F41F0BF8594F84C20B8
:10B60000542A43D10122224492F84C20202A3DD1D1
:10B6100004335A42C2F30802C3F30803204658BF5A
:10B620005342C4F84C32FEF721F8D4F84C32E218F9
:10B63000002092F84C20472A28D15A1CB2F5007FEE
:10B6400080F25986224492F84C20452A40F05E86CA
:10B65000B3F5FF7F03F1020241F0AF8594F84C206F
:10B66000542A13D10122224492F84C20202A40F07F
:10B670004D8604335A42C2F30802C3F3080320463E
:10B6800058BF5342C4F84C32FCF72AFBB8F1040F00
:10B690007FF7ECABD4F84C32E21892F84C20422AF7
:10B6A0005CD15A1CB2F5007F80F2EB85224492F8FF
:10B6B0004C20452A7FF4DAABB3F5FF7F03F1020299
:10B6C00041F0498594F84C20472A41F0648194F870
:10B6D0004D20492A08BF02227FF4C8AB224492F8C9
:10B6E0004C204E2A7FF4C2AB05335A42C2F3080203
:10B6F000D4F85012C3F3080358BF53428B42C4F826
:10B700004C3240F2FF1240F38287D21A50180028C0
:10B7100040F38787E01890F84C00202800F056840A
:10B720000A44002A40F37D87234493F84C30302BA1
:10B7300005D0A3F13000FDF7C3FBD4F85012C4F8D4
:10B740004C12E068394613F0E9FD217CE06813F003
:10B750007DFED4F85032C4F84C320020B8F1060F08
:10B760007FF784ABE21892F84C20562A7FF47EAB28
:10B770005A1CB2F5007F80F29785224492F84C2043
:10B78000452A7FF473ABB3F5FF7F03F1020241F06A
:10B79000E38394F84C20522A7FF468AB94F84D2050
:10B7A000532A7FF463AB94F84E20492A7FF45EABB2
:10B7B00094F84F204F2A7FF459AB042501F0E6BBE3
:10B7C000A3180132B2F5007F83F84C00C4F8502270
:10B7D000BFF6C3AAFFF799B9D4E993329342C3BF26
:10B7E000C3F5FF7808F101089044A2EB0308B8F113
:10B7F000040FD4F8540240F35D81E21892F84C2013
:10B80000532A40F02387591CB1F5007FC0F2098309
:10B8100094F84C20452A40F06783012204EB020C87
:10B820009CF84CC0BCF14E0F25D102F1010CBCF5C7
:10B83000007F41F01E8294F84C20442A1BD1012243
:10B84000224492F84C20202A15D105335A42C2F3E3
:10B850000802C3F30803204658BF5342C4F84C32D1
:10B86000FDF7A8FAD4F84C320020E21892F84C20E8
:10B87000532A2BD1591CB1F5007F80F23583621811
:10B8800092F84C20452A4CD14A1CB2F5007F41F079
:10B89000BC8194F84C20542A43D10122224492F8CE
:10B8A0004C20202A3DD104335A42C2F30802C3F38C
:10B8B0000803204658BF5342C4F84C32FDF7D6FE69
:10B8C000D4F84C32E218002092F84C20472A28D1B4
:10B8D0005A1CB2F5007F80F2BD82224492F84C20BF
:10B8E000452A40F0C282B3F5FF7F03F1020241F026
:10B8F000328294F84C20542A13D10122224492F827
:10B900004C20202A40F0B18204335A42C2F308028C
:10B91000C3F30803204658BF5342C4F84C32FCF727
:10B92000DFF9B8F1040F7FF7A1AAD4F84C32E2187E
:10B9300092F84C20422A5CD15A1CB2F5007F80F26A
:10B940009A82224492F84C20452A7FF48FAAB3F5BC
:10B95000FF7F03F1020241F0798194F84C20472ADD
:10B9600040F0928794F84D20492A08BF02227FF4C4
:10B970007DAA224492F84C204E2A7FF477AA053300
:10B980005A42C2F30802D4F85012C3F3080358BF56
:10B9900053428B42C4F84C3240F2FF1240F3B78559
:10B9A000D21A5018002840F32B86E01890F84C006B
:10B9B000202800F001830A44002A40F32186234412
:10B9C00093F84C30302B05D0A3F13000FDF778FA16
:10B9D000D4F85012C4F84C12E068394613F09EFCBB
:10B9E000217CE06813F032FDD4F85032C4F84C32B8
:10B9F0000020B8F1060F7FF739AAE21892F84C2020
:10BA0000562A7FF433AA5A1CB2F5007F80F2458291
:10BA1000224492F84C20452A7FF428AAB3F5FF7FF0
:10BA200003F1020241F05C8194F84C20522A7FF429
:10BA30001DAA94F84D20532A7FF418AA94F84E209A
:10BA4000492A7FF413AA94F84F204F2A7FF40EAAB4
:10BA5000042501F061B9237C834200F0CC82D4F844
:10BA60005032E2180133B3F5007FA8BF002320282D
:10BA700082F84C00C4F850327FF447A8D4F84C2226
:10BA8000A1180132504291F84C10C0F30800C2F3E3
:10BA9000080258BF4242A1F1300031397E29C4F872
:10BAA0004C2260623FF64AAB0622C4F84C32626117
:10BAB000FFF72BB87FF42EA9D7E67FF42BA986E5F4
:10BAC000D4E993329342C3BFC3F5FF7808F101086C
:10BAD0009044A2EB0308B8F1040FD4F8540200F329
