:020000022000DC
:1060000000000420C9740400097504000B75040025
:106010000D7504000F7504001175040000000000E8
:10602000000000000000000000000000ED7204000D
:1060300015750400000000000D73040019750400BC
:106040001D7704001B750400A94604001B7504009D
:106050001B7504001B750400794704001B750400C0
:106060001B7504001B7504001B7504001B750400E0
:106070001B7504001B7504001B7504001B750400D0
:106080001B7504003D7004001B7504001B750400A3
:106090001B7504001B750400756903001B75040063
:1060A0001B7504001B7504001B7504001B750400A0
:1060B0001B7504001B7504000000000000000000B8
:1060C0001B7504001B7504001B750400097804008F
:1060D0001B7504001B7504001B750400DD8B030099
:1060E0001B7504001B7504001B75040000000000F4
:1060F000000000001B75040000000000817804000F
:10610000000000000000000000000000000000008F
:10611000000000000000000000000000000000007F
:10612000000000000000000000000000000000006F
:10613000000000000000000000000000000000005F
:10614000000000000000000000000000000000004F
:10615000000000000000000000000000000000003F
:10616000000000000000000000000000000000002F
:10617000000000000000000000000000000000001F
:10618000000000000000000000000000000000000F
:1061900000000000000000000000000000000000FF
:1061A00000000000000000000000000000000000EF
:1061B00000000000000000000000000000000000DF
:1061C00000000000000000000000000000000000CF
:1061D00000000000000000000000000000000000BF
:1061E00000000000000000000000000000000000AF
:1061F000000000000000000000000000000000009F
:10620000F1EE103A43F08073E1EE103A704700BFB0
:1062100010B5054C237833B9044B13B10448AFF3E0
:1062200000800123237010BD906300200000000057
:10623000DC5D050008B5034B1BB103490348AFF310
:10624000008008BD0000000094630020DC5D0500B4
:10625000154B002B08BF134B9D46A3F5803A002138
:106260008B460F461348144A121A27F03BFA0F4B7D
:10627000002B00D098470E4B002B00D098470020F1
:10628000002104000D000D48002802D00C48AFF397
:10629000008027F0BDF92000290021F06DF927F0DA
:1062A00091F900BF00000800000004200000000079
:1062B000000000009063002040A4002000000000C7
:1062C000000000000020704703680021DB681847C9
:1062D0000123416003720020704700BF0020704717
:1062E0000020704700207047114A124938B5D2E9A2
:1062F00000320546D21A01F1540029609108E86580
:1063000009D0043B1A44002153F8040FA84208BFE7
:1063100019609A42F8D1D5E912239B1A1C1F105913
:1063200018B103685B689847AA6C043CF7E700BFA4
:10633000B0630020A02F050038B5124A0368124947
:1063400053F80C5CD2E90032415105445431D21A61
:10635000E965910809D0043B1A44002153F8040F61
:10636000854208BF19609A42F8D1D5E912239B1AD9
:106370001C1F105918B103685B689847AA6C043C4D
:10638000F7E700BFB0630020A02F050008B5FFF7B6
:10639000ABFF00BF08B5036853F80C3C1844FFF787
:1063A000A3FF00BF10B4D0E90F431B1BB1EBA30F39
:1063B0003DBF54F821305A75002001205DF8044B90
:1063C000704700BF10B4D0E90F431B1BB1EBA30F04
:1063D0003DBF54F821301A75002001205DF8044BB0
:1063E000704700BF406D7047036853F8183C18446D
:1063F000406D7047036853F80C3C1844704700BF69
:10640000036853F8183CC25852F80C2C1844104436
:10641000704700BF036853F80C3C1844704700BF36
:10642000036853F8183CC25852F80C2C1844104416
:10643000704700BF036853F80C3C1844704700BF16
:10644000036853F8183CC25852F80C2C18441044F6
:10645000704700BFD0F85032C2180133B3F5007F47
:10646000A8BF002382F84C10C0F85032704700BF1C
:1064700010B4D0F84C124B1C01445C42024691F817
:106480004C00C4F30801C3F3080358BF4B425DF846
:10649000044BC2F84C327047D0E993308342C3BFFB
:1064A000C3F5FF730133C018C01A7047036853F86F
:1064B0000C3C1844704700BF036853F8183CC2589E
:1064C00052F80C2C18441044704700BF406E7047BF
:1064D000036853F8183C1844406E7047026852F83D
:1064E000103C034410B4596052F80C2C01241C7267
:1064F00010445DF8044B10F09FBC00BF036810B45B
:1065000053F8144C025952F8103C2044034401241F
:10651000596052F80C2C1C7210445DF8044B10F0BA
:106520008BBC00BF026852F8103C034410B45960A1
:1065300052F80C2C01241C7210445DF8044B11F02D
:1065400029B900BF036810B453F8144C025952F82B
:10655000103C204403440124596052F80C2C1C7256
:1065600010445DF8044B11F015B900BF026852F8F1
:10657000103C034410B4596052F80C2C01241C72D6
:1065800010445DF8044B10F077BA00BF036810B4F4
:1065900053F8144C025952F8103C2044034401248F
:1065A000596052F80C2C1C7210445DF8044B10F02A
:1065B00063BA00BF10B50446006808B121F01EF8A8
:1065C000204610BD10B50446006808B121F016F849
:1065D000204610BD10B5044B044640F80C3B1EF09D
:1065E00031FA204610BD00BFCC29050010B5054B7F
:1065F000044640F80C3B1EF025FA204620F0FEFF32
:10660000204610BDCC29050030B4056855F8104C63
:106610000444247A14B9204630BC704755F80C4C19
:10662000114620441A4630BC10F0A0BE016870B478
:1066300051F81C4C065956F8105C04442544287A3D
:1066400008B970BC704756F80C0C114620441A4625
:1066500070BC10F08BBE00BF30B4056855F8104C0C
:106660000444247A14B9204630BC704755F80C4CC9
:10667000114620441A4630BC10F078BE016870B450
:1066800051F81C4C065956F8105C04442544287AED
:1066900008B970BC704756F80C0C114620441A46D5
:1066A00070BC10F063BE00BF30B4056855F8104CE4
:1066B0000444247A14B9204630BC704755F80C4C79
:1066C000114620441A4630BC10F050BE016870B428
:1066D00051F8204C065956F8105C04442544287A99
:1066E00008B970BC704756F80C0C114620441A4685
:1066F00070BC10F03BBE00BF30B4056855F8104CBC
:106700000444247A14B9204630BC704755F80C4C28
:10671000114620441A4630BC10F028BE016870B4FF
:1067200051F8204C065956F8105C04442544287A48
:1067300008B970BC704756F80C0C114620441A4634
:1067400070BC10F013BE00BF38B5036853F80C3CA2
:10675000034404460D4603F10C005A6900211EF063
:106760009FFA236853F80C0C204429460C30BDE8EE
:1067700038401EF0BFB900BF38B58A680C460546E0
:10678000084600211EF08CFA05F10C0120461EF08F
:10679000B1F9204638BD00BF70B5014688B0054646
:1067A0001448154C154E10F0DDF8154B20221D80B5
:1067B00069460023CDE90033CDE90333CDE9053344
:1067C000029307930EF07EF901230E4933702046A1
:1067D0001DF02EFA694620461DF07CFA0A49204633
:1067E0001DF026FA317820460A221DF037FC08B049
:1067F00070BD00BF586E0020D8760020956700203D
:10680000F26D0020380B05006C0B050070B50C4CC8
:106810000C4E00230D4620460B4933701DF008FA3C
:106820002946102220461DF04BFC084920461DF049
:10683000FFF9317820460A22BDE870401DF00EBCF9
:10684000D876002095670020800B05006C0B0500B2
:1068500038B50368044653F80C3C406E2344026884
:10686000596001251D729368984794F86010A06ED6
:106870000DF07EFD11221146A06E0DF091FD94F8F1
:106880003410A06E0DF07AFD216FA06E0DF0AAFD00
:10689000A06E03689B68984794F8603013F0120F5D
:1068A00007D094F83410A94238D002294ED00429D8
:1068B00038D094F86110E06E0DF05AFD11221146A7
:1068C000E06E0DF06DFD94F83410E06E0DF056FDA5
:1068D000E16FE06E0DF086FDE06E03689B689847FF
:1068E00094F8613013F0120F07D094F83410012996
:1068F0000ED0022922D0042919D01B0701D4002070
:1069000038BDE06E144901220DF050FD002038BD65
:10691000E06E0DF08BFD94F86130EEE7A06E0DF0A7
:1069200085FDC6E70D49A06E0DF0C0FDC1E70C491D
:10693000E06E0DF0BBFD94F86130DEE7E06E40F2F2
:1069400005410DF093FD94F86130D6E7A06E4FF449
:1069500081710DF08BFDACE74933030003020100A8
:106960000605040038B5036853F8143CC418C3582E
:10697000606E53F80C3C02682344012559601D7277
:106980009368984794F86010A06E0DF0F1FC112206
:106990001146A06E0DF004FD94F83410A06E0DF0B9
:1069A000EDFC216FA06E0DF01DFDA06E03689B68CD
:1069B000984794F8603013F0120F07D094F8341011
:1069C000A94238D002294ED0042938D094F8611059
:1069D000E06E0DF0CDFC11221146E06E0DF0E0FCF2
:1069E00094F83410E06E0DF0C9FCE16FE06E0DF02C
:1069F000F9FCE06E03689B68984794F8613013F0E7
:106A0000120F07D094F8341001290ED0022922D099
:106A1000042919D01B0701D4002038BDE06E1549A8
:106A200001220DF0C3FC002038BDE06E0DF0FEFC2D
:106A300094F86130EEE7A06E0DF0F8FCC6E70E4961
:106A4000A06E0DF033FDC1E70C49E06E0DF02EFD98
:106A500094F86130DEE7E06E40F205410DF006FD8E
:106A600094F86130D6E7A06E4FF481710DF0FEFC12
:106A7000ACE700BF49330300030201000605040030
:106A800008B50368117853F80C3C18440FF0C4FFA4
:106A900008BD00BF08B50368117853F81C3CC25804
:106AA00052F80C2C184410440FF0B6FF08BD00BF7C
:106AB00038B504461D46082962D8DFE801F01922DE
:106AC0002B343D464F580500036853F80C0C114613
:106AD0002044EAB210F076F994F82C3033B12DB19D
:106AE000236853F80C0C204410F0A6F9284638BD52
:106AF000036853F80C0C11462044EAB210F042F936
:106B0000EAE7036853F80C0C11462044EAB210F08F
:106B10003DF9E1E7036853F80C0C11462044EAB252
:106B200010F038F9D8E7036853F80C0C11462044EC
:106B3000EAB210F033F9CFE7036853F80C0C1146B2
:106B40002044EAB210F02EF9C6E7036853F80C0CA3
:106B500011462044EAB210F029F9BDE7036853F862
:106B60000C0C11462044EAB210F024F9B4E7036893
:106B700053F80C0C11462044EAB210F01FF9ABE7B1
:106B80000025B3E7F8B50446006850F8206C1D46B0
:106B9000A719082962D8DFE801F019222B343D46F5
:106BA0004F580500A35953F80C0C11463844EAB26B
:106BB00010F008F997F82C3033B12DB1A35953F8E0
:106BC0000C0C384410F038F92846F8BDA35953F896
:106BD0000C0C11463844EAB210F0D4F8EAE7A35995
:106BE00053F80C0C11463844EAB210F0CFF8E1E744
:106BF000A35953F80C0C11463844EAB210F0CAF805
:106C0000D8E7A35953F80C0C11463844EAB210F0F7
:106C1000C5F8CFE7A35953F80C0C11463844EAB233
:106C200010F0C0F8C6E7A35953F80C0C11463844CD
:106C3000EAB210F0BBF8BDE7A35953F80C0C1146AB
:106C40003844EAB210F0B6F8B4E7A35953F80C0C84
:106C500011463844EAB210F0B1F8ABE70025B3E7CB
:106C600008B50368117853F80C3C18440FF0DCFEAB
:106C700008BD00BF08B50368117853F8203CC2581E
:106C800052F80C2C184410440FF0CEFE08BD00BF83
:106C900010B5D0E90F431B1BB1EBA30F01D30120AB
:106CA00010BD54F82100114618301DF0D3FE00200D
:106CB00010BD00BF10B50B4B0B4A044603F1980101
:106CC00003F158002360E0606162C4F8002104F51C
:106CD00086701DF0B7FE04F10C0010F017FD204681
:106CE00010BD00BF0C2A0500CC29050002680C4924
:106CF00052F80C2C38B50B4B8350841803F158050F
:106D000098336362C4F80011E56004F586701DF0E5
:106D100099FE04F10C0010F0F9FC204638BD00BFCC
:106D2000CC2905000C2A050002680C4952F8182CE1
:106D300038B50B4B8350841803F1580598336362C0
:106D4000C4F80011E56004F586701DF07BFE04F1C7
:106D50000C0010F0DBFC204638BD00BFCC2905003C
:106D60000C2A05000C4B0D4A10B5044603F198019E
:106D700003F1580023606162C4F80021E06004F56B
:106D800086701DF05FFE04F10C0010F0BFFC204681
:106D900020F034FC204610BD0C2A0500CC2905004B
:106DA00002680D4952F80C2C38B50C4B83508418EE
:106DB00003F1580598336362C4F80011E56004F5E7
:106DC00086701DF03FFE04F10C0010F09FFC204681
:106DD00020F014FC204638BDCC2905000C2A050003
:106DE00002680D4952F8182C38B50C4B83508418A2
:106DF00003F1580598336362C4F80011E56004F5A7
:106E000086701DF01FFE04F10C0010F07FFC204680
:106E100020F0F4FB204638BDCC2905000C2A0500E3
:106E200010B50F4B0446406A236003F15C0103F187
:106E30009C02DC332163A264C4F8243110B10368DE
:106E40005B689847074BC4F8243104F598701DF02F
:106E5000F9FD04F1300010F059FC204610BD00BFD0
:106E6000BC2B0500CC290500026852F80C1C38B573
:106E700044180F4B626A435003F15C0503F19C0117
:106E8000DC332563A164C4F824311AB113681046B9
:106E90005B689847074BC4F8243104F598701DF0DF
:106EA000D1FD04F1300010F031FC204638BD00BFA8
:106EB000BC2B0500CC290500026852F8181C38B517
:106EC00044180F4B626A435003F15C0503F19C01C7
:106ED000DC332563A164C4F824311AB11368104669
:106EE0005B689847074BC4F8243104F598701DF08F
:106EF000A9FD04F1300010F009FC204638BD00BFA8
:106F0000BC2B0500CC29050010B5144619B1012988
:106F100007D0002010BD9AB22146806E0DF06AFAAB
:106F200010BD9AB22146C06E0DF064FA10BD00BFCC
:106F3000D0F800C0ACF11C0CDCF800C06044E3E702
:106F400010B5144619B1012907D0002010BD9AB21E
:106F50002146806E0DF006FB10BD9AB22146C06E30
:106F60000DF000FB10BD00BFD0F800C0ACF1200C4C
:106F7000DCF800C06044E3E738B50C1E0EDB1546B4
:106F8000D0E91212521AB4EBA20F07D251F8240022
:106F900018B19AB229460DF02DFA38BD002038BD3F
:106FA000D0F800C0ACF11C0CDCF800C06044E3E792
:106FB00038B50C1E0EDB1546D0E91212521AB4EB8E
:106FC000A20F07D251F8240018B19AB229460DF049
:106FD000C9FA38BD002038BDD0F800C0ACF1200C93
:106FE000DCF800C06044E3E72DE9F843D0E90F2363
:106FF0009B1A1F2B02D90120BDE8F88305462420E7
:107000000C4620F0F9FA0646102241F601232B49DE
:10701000326100271830B382C6E90077C6E90277EB
:107020001DF0ECFB0FCCB446ACE80F00D5E9102303
:107030002168CCF800109A4205D042F8046B38461B
:107040002A64BDE8F883D5F83C806FF06047A2EB76
:107050000804B7EBA40F4FEAA40216D0012A134686
:1070600038BF01239B1826D2DBB91F469946002C56
:1070700049F804600ADC04344C44B8F1000F0CD128
:10708000C5E90F946F640020B6E7FEE7224641464B
:10709000484626F00DFB04344C44404620F0AEFA3E
:1070A000EEE7BB4228BF3B469F00384620F0A4FADB
:1070B00081460744DBE7024FF7E700BFC43A05000B
:1070C000FCFFFF7F03688A6853F80C3C2DE9F0430E
:1070D00003440F461A63D1E90321C3E90D21397D29
:1070E000FA8ADA8783F83C10D7E90612386A98647E
:1070F000C3E910123D463C463A4655F8266F34F82F
:107100002FCF52F8321FB88CD5F8048097F82EE0B4
:10711000A3F84C0007F13C09A07883F85900C3F8A4
:107120004E60C3F85280A3F857C083F856E0D2F8F7
:1071300004E0C3F85A1099E8030003F1640CC3F8A3
:107140005EE08CE8030097F8441083F86C10D7E9F0
:1071500012E0D7E91416C3E91CE0DE679967B96845
:10716000C3F88810D7E90310C3E92310387DF98AE2
:10717000A3F8961083F89400D7E906013E6AC3F895
:10718000A060C3E92601B98CA3F8A41099E8030014
:10719000D5F80480D5F80090B4F800C0A67815683A
:1071A000546897F82EE083F8AEE003F1BC02C3F810
:1071B000A690C3F8AA80A3F8AFC083F8B160C3F863
:1071C000B250C3F8B64082E8030097F8442083F831
:1071D000C420D7E91201D7E91424C3E93201C3F866
:1071E000D440C3F8D020BDE8F08300BF026852F855
:1071F000181C38B54418104B626A435003F15C0503
:1072000003F19C01DC332563A164C4F824311AB175
:10721000136810465B689847084BC4F8243104F59E
:1072200098701DF00FFC04F1300010F06FFA20464A
:1072300020F0E4F9204638BDBC2B0500CC29050020
:10724000026852F80C1C38B54418104B626A43505F
:1072500003F15C0503F19C01DC332563A164C4F8F0
:1072600024311AB1136810465B689847084BC4F87C
:10727000243104F598701DF0E5FB04F1300010F0A6
:1072800045FA204620F0BAF9204638BDBC2B05004F
:10729000CC29050010B5104B0446406A236003F169
:1072A0005C0103F19C02DC332163A264C4F8243145
:1072B00010B103685B689847084BC4F8243104F5A3
:1072C00098701DF0BFFB04F1300010F01FFA20464B
:1072D00020F094F9204610BDBC2B0500CC290500F8
:1072E0002DE9F041456904460B462DBB027C8A42DC
:1072F00029D00668414F7268BA426BD1D0F850224B
:1073000081180132B2F5007FA8BF2A4681F84C30BF
:10731000C0F8502233693A4A93425ED1D4E993309F
:107320008342C3BFC3F5FF730133C018C01A0328DB
:1073300027D00020BDE8F081012D0BD00368BDE807
:10734000F041DB68184703685B6998476561002076
:10735000BDE8F081027C8A4242D00268274D526823
:10736000AA4243D1D0F8502281180132B2F5007FF1
:1073700081F84C30AABF0023C0F85022C0F8503228
:10738000D7E7D4F84C32E21892F84C20422A1ED1AA
:107390005A1CB2F5007F12DA224492F84C204C2A93
:1073A00015D1B3F5FF7F03F1020221D194F84C30DF
:1073B000452B0CD102220023C4E90523B9E794F838
:1073C0004C304C2B03D194F84D30452BF2D0012397
:1073D0006361AEE7904726689CE720469847A6E79A
:1073E00003685B69984700236361A2E79047A0E7C1
:1073F000224492F84C30452BDCD0E8E7556402007B
:10740000996402002DE9F04704460068DFF8E08047
:1074100050F81C6C54F806C0DCF810E0C64504EBCC
:10742000060704D03846F446BDE8F04760471D46DD
:1074300008295AD8DFE801F0514941393129211989
:1074400005005CF80C0C11463844EAB20FF0BAFCA7
:1074500097F82C3033B12DB1A35953F80C0C3844A4
:107460000FF0EAFC2846BDE8F0875CF80C0C1146EA
:107470003844EAB20FF0A2FCEAE75CF80C0C1146C3
:107480003844EAB20FF096FCE2E75CF80C0C1146C7
:107490003844EAB20FF08AFCDAE75CF80C0C1146CB
:1074A0003844EAB20FF07EFCD2E75CF80C0C1146CF
:1074B0003844EAB20FF072FCCAE75CF80C0C1146D3
:1074C0003844EAB20FF066FCC2E75CF80C0C1146D7
:1074D0003844EAB20FF05AFCBAE75CF80C0C1146DB
:1074E0003844EAB20FF04EFCB2E70025B0E700BF27
:1074F000B16A02002DE9F0410768DFF8D4C0D7F87F
:1075000010E0E6455ED104461E4608295ED8DFE855
:1075100001F01921293139414951050057F80C0C66
:1075200011462044F2B20FF04DFC94F82C3033B1E8
:107530002EB1236853F80C0C20440FF07DFC30462C
:10754000BDE8F08157F80C0C11462044F2B20FF060
:1075500019FCEAE757F80C0C11462044F2B20FF080
:1075600015FCE2E757F80C0C11462044F2B20FF07C
:1075700011FCDAE757F80C0C11462044F2B20FF078
:107580000DFCD2E757F80C0C11462044F2B20FF074
:1075900009FCCAE757F80C0C11462044F2B20FF070
:1075A00005FCC2E757F80C0C11462044F2B20FF06C
:1075B00001FCBAE757F80C0C11462044F2B20FF068
:1075C000FDFBB2E7F446BDE8F04160470026B6E7B0
:1075D000B16A0200F8B5036853F8147CC359C519A1
:1075E00053F80C3CEC18EB58064653F80C3C606E14
:1075F000234402689268596001211972904794F8F7
:107600006010A06E0CF0B4FE11221146A06E0CF0BA
:10761000C7FE94F83410A06E0CF0B0FE216FA06E7F
:107620000CF0E0FEA06E03689B68984794F8603009
:1076300013F0120F08D094F83410012968D00229F1
:1076400000F09380042974D094F86110E06E0CF07F
:107650008FFE11221146E06E0CF0A2FE94F8341059
:10766000E06E0CF08BFEE16FE06E0CF0BBFEE06EA6
:1076700003689B68984794F8613013F0120F07D0A5
:1076800094F8341001293DD002295ED0042955D048
:107690001A072AD495F8241068690CF069FE1122A3
:1076A000114668690CF07CFE686901210CF066FEE9
:1076B000D5E905010CF096FE686903689B68984758
:1076C00095F8243013F0120F0BD0F25952F80C2C0D
:1076D0002A4492F8341001291ED002293DD00429F1
:1076E00020D01B0707D40020F8BDE06E22490122FC
:1076F0000CF05CFECEE768691F4901220CF056FED3
:107700000020F8BDE06E0CF091FE94F86130BFE708
:10771000A06E0CF08BFE97E768690CF087FE95F879
:107720002430DEE7154968690CF0C0FE95F8243076
:10773000D7E71249A06E0CF0B9FE85E71049E06E5C
:107740000CF0B4FE94F86130A2E7E06E40F205411F
:107750000CF08CFE94F861309AE768694FF48171FF
:107760000CF084FE95F82430BBE7A06E4FF48171D5
:107770000CF07CFE68E700BF493303000302010000
:107780000605040038B5036853F80C3CC418C35808
:10779000054653F80C3C606E2344026892685960B9
:1077A00001211972904794F86010A06E0CF0E0FD72
:1077B00011221146A06E0CF0F3FD94F83410A06E67
:1077C0000CF0DCFD216FA06E0CF00CFEA06E0368C7
:1077D0009B68984794F8603013F0120F08D094F823
:1077E0003410012968D0022900F09380042974D054
:1077F00094F86110E06E0CF0BBFD11221146E06EB2
:107800000CF0CEFD94F83410E06E0CF0B7FDE16F93
:10781000E06E0CF0E7FDE06E03689B68984794F813
:10782000613013F0120F07D094F8341001293DD0C5
:1078300002295ED0042955D01A072AD495F82410BD
:1078400068690CF095FD1122114668690CF0A8FDDD
:10785000686901210CF092FDD5E905010CF0C2FD2B
:10786000686903689B68984795F8243013F0120FF5
:107870000BD02A6852F80C2C2A4492F834100129B3
:107880001ED002293DD0042920D01B0707D4002098
:1078900038BDE06E224901220CF088FDCEE7686910
:1078A0001F4901220CF082FD002038BDE06E0CF073
:1078B000BDFD94F86130BFE7A06E0CF0B7FD97E70F
:1078C00068690CF0B3FD95F82430DEE71549686966
:1078D0000CF0ECFD95F82430D7E71249A06E0CF0BF
:1078E000E5FD85E71049E06E0CF0E0FD94F86130AD
:1078F000A2E7E06E40F205410CF0B8FD94F861306B
:107900009AE768694FF481710CF0B0FD95F8243066
:10791000BBE7A06E4FF481710CF0A8FD68E700BFD3
:107920004933030003020100060504002DE9F04776
:1079300004460025474BC36500F1680746492566A4
:107940008AB0384684F864501CF058FF434A2260DD
:1079500002F15401424EE1651022C4E90525C4E953
:1079600002552022656004F11C002561294625F09E
:10797000B9FED6E901239A42C4E90F55C4E911556D
:10798000C4E9135584F8585028D042F8044B72606B
:10799000344904A81CF032FF04A901A81CF048FFD8
:1079A000D6E90031C91A89100A22013907A81CF04A
:1079B000E1FF07A901A81DF00DF9014638461DF0A9
:1079C00049F807A81DF03EF801A81DF03BF804A8EF
:1079D0001DF038F820460AB0BDE8F087D6F80090D0
:1079E0006FF06048A2EB0905B8EBA50F4FEAA503BD
:1079F00016D0012B1A4638BF01229B1827D2DBB9BB
:107A000098469A46002D4AF805400ADC043555444C
:107A1000B9F1000F0CD1C6E900A5C6F80880B7E798
:107A2000FEE72A464946504625F042FE04355544B5
:107A300048461FF0E3FDEEE7434528BF43464FEAC3
:107A4000830840461FF0D8FD82468044DAE7DFF81D
:107A50001880F6E7CC290500C40B0500A02F05000F
:107A6000B0630020D00B0500FCFFFF7F70B5D0F89D
:107A70004C32C11896B091F84C20422A04461AD1D3
:107A80005A1CB2F5007F80F2DF83024492F84C204A
:107A9000412A10D1B3F5FF7F03F1020240F05C8769
:107AA00090F84C20552A06D190F84D20442A08BF62
:107AB000022200F0C886D4F8585291F84C204E2A81
:107AC0005ED15A1CB2F5007F80F29584224492F870
:107AD0004C20412A40F0CD80B3F5FF7F03F1020234
:107AE00040F08F8494F84C204D2A40F0C28001224F
:107AF000224492F84C20452A40F0BB801A1DB2F572
:107B0000007FA4BFA3F5FE73C3F30802D4F850327C
:107B1000934206D02244237C92F84C209A4240F0B3
:107B20004386402206A9DB480EF066FE16AB0344EE
:107B3000D949E068002503F8405C1CF0CBF806A9A1
:107B4000E0681CF0C7F8217CE0681CF0FBF9D34921
:107B500003A81CF053FE06A968461CF04FFE6946B8
:107B600003A81DF037F80146CD481CF055F96846CA
:107B70001CF068FF03A81CF065FFD4F84C32E11834
:107B800091F84C20522A74D15A1CB2F5007F80F231
:107B90004984224492F84C20462A40F00982B3F5E9
:107BA000FF7F03F1020240F0438494F84C20532AF3
:107BB00040F0FE810122A01890F84C00542840F0BB
:107BC000F7810132B2F5007F40F0438494F84C20F5
:107BD000412A40F0ED810122A01890F84C00542871
:107BE00040F0E6810132B2F5007F40F0438494F822
:107BF0004C20452A40F0DC81DA1DB2F5007F04DB21
:107C00006FF4FC7C6344C3F30802D4F85032A549F6
:107C1000934206D02244237C92F84C209A4240F0B2
:107C2000AE85E068D4F864521CF054F89E49E068D0
:107C30001CF050F8217CE0681CF084F99B4906A8F0
:107C40001CF0DCFD984903A81CF0D8FD03A906A888
:107C50001CF0C0FF014692481CF0DEF803A81CF09F
:107C6000F1FE06A81CF0EEFED4F85032C4F84C32F7
:107C7000E11891F84C20412A40F09A81581CB0F547
:107C8000007F80F26783221892F84C20442A40F04B
:107C90009580B3F5FF7F03F1020240F0618394F811
:107CA0004C20562A40F08A800122A61896F84C6093
:107CB000452E40F083800132B2F5007F40F06183B1
:107CC00094F84C20522A79D10122A61896F84C60DB
:107CD000542E73D10132B2F5007F40F0638394F8E3
:107CE0004C20492A6AD10122A61896F84C60532EDE
:107CF00064D10132B2F5007F40F0658394F84C20E6
:107D0000492A5BD10122A61896F84C604E2E55D117
:107D10000132B2F5007F40F0678394F84C20472A87
:107D20004CD103F10B02B2F5007F04DB6FF4FA765D
:107D30003344C3F30802D4F85032934206D02244AD
:107D4000237C92F84C209A4240F0F38458480BF080
:107D5000B1FD584B584A50490546002D14BF1D46E9
:107D60001546E0681BF0B6FF2946E0681BF0B2FF3D
:107D7000217CE0681CF0E6F8484906A81CF03EFDAE
:107D8000294603A81CF03AFD03A906A81CF022FF0F
:107D9000014643481CF040F803A81CF053FE06A817
:107DA0001CF050FE0025D4F85032C4F84C32E118D3
:107DB00091F84C20412A40F0FB80581CB0F5007F20
:107DC00080F25F83204490F84C20442A40F06C817C
:107DD000B3F5FF7F03F1020240F0598394F84C2081
:107DE000562A40F061810122A01890F84C004528E5
:107DF00040F05A810132B2F5007F40F0598394F887
:107E00004C20522A40F050810122A01890F84C00DA
:107E1000542840F049810132B2F5007F40F0598387
:107E200094F84C205F2A40F03F810122A01890F87E
:107E30004C00532840F038810132B2F5007F40F009
:107E4000598394F84C20452A40F02E810122A01835
:107E500090F84C00522840F027810132B2F5007FA3
:107E600040F0598394F84C20562A40F01D8101229D
:107E7000A01890F84C00492840F016810132B2F564
:107E8000007F40F0598394F84C20432A40F00C8145
:107E9000012213E0586E00204C0C0500500C050028
:107EA000D8760020EC0B0500800C0500180C0500AE
:107EB00098740020DC0B0500E40B0500A01890F876
:107EC0004C00452840F0F0800132B2F5007F40F0D0
:107ED000448394F84C205F2A40F0E6800122A018E9
:107EE00090F84C00492840F0DF800132B2F5007F65
:107EF00040F0448394F84C20442A40F0D58003F1AC
:107F00001102B2F5007F04DB6FF4F7752B44C3F365
:107F10000802D4F85032934206D02244237C92F8CF
:107F20004C209A4240F0E083BD4DBE492B68E0688A
:107F300030338DF800301BF0CDFE6946E0681BF051
:107F4000C9FE217CE0681BF0FDFFB74906A81CF0C4
:107F500055FC694603A81CF051FC03A906A81CF0B7
:107F600039FE0146B1481BF057FF03A81CF06AFD1B
:107F700006A81CF067FDAE4906A81CF03FFC0A22CB
:107F8000296803A81CF0C2FC03A906A81CF022FE65
:107F90000146A6481BF040FF03A81CF053FD06A8AD
:107FA0001CF050FD0025D4F85032C4F84C32E118D2
:107FB00091F84C204C2A77D15A1CB2F5007F80F200
:107FC0009A81224492F84C20452A40F0FE80B3F575
:107FD000FF7F03F1020240F0948194F84C20442A80
:107FE00040F0F3800122A01890F84C004D2840F09A
:107FF000EC800132B2F5007F40F0948194F84C207F
:108000004F2A40F0E2800122A01890F84C0044284A
:1080100040F0DB800132B2F5007F40F0948194F8AB
:108020004C20452A40F0D180DA1DB2F5007F04DBF8
:108030006FF4FC700344C3F30802D4F85032934247
:1080400006D02244237C92F84C209A4240F0378399
:10805000784B74499D69E068002D40F009831BF05E
:1080600039FE7549E0681BF035FE217CE0681BF0A5
:1080700069FF6D4906A81CF0C1FB6F4903A81CF0FD
:10808000BDFB03A906A81CF0A5FD014667481BF02F
:10809000C3FE03A81CF0D6FC06A81CF0D3FCD4F841
:1080A0005032C4F84C32E11891F84C20432A40F089
:1080B0008C805A1CB2F5007F80F26782224492F8CD
:1080C0004C204F2A40F0A080B3F5FF7F03F102025D
:1080D00040F0618294F84C204E2A40F095800122B5
:1080E000A11891F84C104E2940F08E800132B2F563
:1080F000007F40F0618294F84C20452A40F0848053
:108100000122A11891F84C1043297DD10132B2F51A
:10811000007F40F0628294F84C20542A74D10122EE
:10812000A11891F84C1045296ED10132B2F5007FAB
:1081300040F0648294F84C20442A65D103F109028E
:10814000B2F5007F04DB6FF4FB710B44C3F308024C
:10815000D4F85032934206D02244237C92F84C202B
:108160009A4240F04B8335480EF0D2FB344B354AEF
:108170002C490546002D14BF1D461546E0681BF02E
:10818000A9FD2946E0681BF0A5FD217CE0681BF0F5
:10819000D9FE254906A81CF031FB294603A81CF08E
:1081A0002DFB03A906A81CF015FD01461F481BF076
:1081B00033FE03A81CF046FC06A81CF043FC002577
:1081C000D4F85032C4F84C32E11891F84C20562AB9
:1081D0001AD15A1CB2F5007F80F21782224492F81D
:1081E0004C20452A10D1B3F5FF7F03F1020240F085
:1081F000568494F84C20522A06D194F84D20532AE4
:1082000008BF022200F0D583D4F85832AB424FD0D9
:108210001DB1D4F85032C4F84C32284616B070BDA7
:10822000246E00204C0C0500500C0500D876002070
:10823000EC0C0500F46D002040360500586E00205F
:10824000DC0B0500E40B050090F84C20412A7FF47C
:1082500032AC90F84D20552A08BF02227FF42BAC97
:10826000A01890F84C0044287FF425AC0132B2F5F8
:10827000007F40F0E88294F84C20522A7FF41BAC37
:1082800094F84D20412A08BF02227FF414ACA018B4
:1082900090F84C0054287FF40EAC0132B2F5007F08
:1082A00040F0E88294F84C20452A00F0E98202E48C
:1082B000EB49E0681BF00EFDEA49E0681BF00AFD9F
:1082C000217CE0681BF03EFEE74906A81CF096FA08
:1082D000E44903A81CF092FA03A906A81CF07AFC52
:1082E0000146E2481BF098FD03A81CF0ABFB06A872
:1082F0001CF0A8FB8CE794F84C20452A7FF465AF6E
:108300000122A01890F84C0044287FF45EAF01329F
:10831000B2F5007F7FF467AE94F84C204D2A7FF4CD
:1083200054AF0122A01890F84C004F287FF44DAFB5
:108330000132B2F5007F7FF467AE94F84C20442AF6
:108340007FF443AF0122224492F84C20452A3FF4A7
:108350006BAE3AE794F84C20442A7FF42FAD01220B
:10836000A61896F84C60562E7FF428AD0132B2F56F
:10837000007F7FF49AAC94F84C20452A7FF41EAD20
:108380000122A61896F84C60522E7FF417AD0132E8
:10839000B2F5007F7FF499AC94F84C20542A7FF416
:1083A0000DAD0122A61896F84C60492E7FF406AD5B
:1083B0000132B2F5007F7FF497AC94F84C20532A39
:1083C0007FF4FCAC0122A61896F84C60492E7FF48D
:1083D000F5AC0132B2F5007F7FF495AC94F84C20F7
:1083E0004E2A7FF4EBAC0122224492F84C20472A1B
:1083F0003FF497ACE2E494F84C20412A7FF439AC86
:108400000122A01890F84C004D287FF432AC0132C4
:10841000B2F5007F7FF46CAB94F84C20452A3FF412
:108420006DAB26E494F84C20462A7FF4C1AD0122BE
:10843000A01890F84C0053287FF4BAAD0132B2F581
:10844000007F7FF4B8AB94F84C20542A7FF4B0AD91
:108450000122A01890F84C0041287FF4A9AD013208
:10846000B2F5007F7FF4B8AB94F84C20542A7FF427
:108470009FAD0122224492F84C20452A3FF4BCAB28
:1084800096E594F84C20442A7FF40EAE0122A01801
:1084900090F84C0056287FF407AE0132B2F5007F09
:1084A0007FF4A2AC94F84C20452A7FF4FDAD012264
:1084B000A01890F84C0052287FF4F6AD0132B2F5C6
:1084C000007F7FF4A2AC94F84C20542A7FF4ECADEA
:1084D0000122A01890F84C005F287FF4E5AD01322E
:1084E000B2F5007F7FF4A2AC94F84C20532A7FF4BD
:1084F000DBAD0122A01890F84C0045287FF4D4ADE4
:108500000132B2F5007F7FF4A2AC94F84C20522ADD
:108510007FF4CAAD0122A01890F84C0056287FF4D1
:10852000C3AD0132B2F5007F7FF4A2AC94F84C20C9
:10853000492A7FF4B9AD0122A01890F84C004328D5
:108540007FF4B2AD0132B2F5007F7FF4B7AC94F89E
:108550004C20452A7FF4A8AD0122A01890F84C00C9
:108560005F287FF4A1AD0132B2F5007F7FF4B7AC94
:1085700094F84C20492A7FF497AD0122224492F8C6
:108580004C20442A3FF4BBAC8EE594F84C204F2A93
:108590007FF43AAE0122A11891F84C104E297FF4D5
:1085A00033AE0132B2F5007F7FF49AAD94F84C20DF
:1085B0004E2A7FF429AE0122A11891F84C104529CA
:1085C0007FF422AE0132B2F5007F7FF49AAD94F8C9
:1085D0004C20432A7FF418AE0122A11891F84C10C8
:1085E00054297FF411AE0132B2F5007F7FF498ADCB
:1085F00094F84C20452A7FF407AE0122224492F8D9
:108600004C20442A3FF49AADFEE594F84C20452ACC
:108610007FF4FAAD94F84D20522A08BF02227FF46D
:10862000F3ADA11891F84C1053297FF4EDAD013250
:10863000B2F5007F40F0BD8194F84C20492A7FF4C8
:10864000E3AD94F84D204F2A08BF02227FF4DCAD41
:10865000224492F84C204E2A00F0C081D4E500BF9D
:10866000EC0B0500AC0D0500180C0500D8760020B9
:108670001BF030FBAB49E0681BF02CFB217CE06871
:108680001BF060FCA84906A81CF0B8F8A54903A88F
:108690001CF0B4F803A906A81CF09CFA0146A348F4
:1086A0001BF0BAFB03A81CF0CDF906A81CF0CAF910
:1086B000D4F85032C4F84C320025E118F4E49C4957
:1086C000E068D4F85C521BF005FB9A49E0681BF0A7
:1086D00001FB217CE0681BF035FC974906A81CF0E3
:1086E0008DF8944903A8CAE49149E068D4F85C5233
:1086F0001BF0F0FA9149E0681BF0ECFA217CE0688D
:108700001BF020FC8C4906A81CF078F88B4903A8C4
:108710001CF074F803A906A81CF05CFA0146834813
:108720001BF07AFB03A81CF08DF906A81CF08AF94F
:1087300039E47F49E068D4F85C521BF0CBFA8049F9
:10874000E0681BF0C7FA217CE0681BF0FBFB7A496C
:1087500006A81CF053F87A4903A81CF04FF803A9A7
:1087600006A81CF037FA014670481BF055FB03A819
:108770001CF068F906A81CF065F9FFF714BBE06867
:10878000D4F85C521BF0A6FA6E49E0681BF0A2FA1E
:10879000217CE0681BF0D6FB674906A81CF02EF888
:1087A000684903A8FFF750BA6149E0681BF092FAE4
:1087B0006549E0681BF08EFA217CE0681BF0C2FB83
:1087C0005D4906A81CF01AF85F4903A81CF016F8CA
:1087D00003A906A81CF0FEF9014654481BF01CFB37
:1087E00003A81CF02FF906A81CF02CF9D4F850327D
:1087F000C4F84C32E1180225FFF7C2B94C49E068D1
:10880000D4F85C521BF066FA5049E0681BF062FA3B
:10881000217CE0681BF096FB474906A81BF0EEFFA1
:108820004A4903A81BF0EAFF03A906A81CF0D2F9E5
:1088300001463E481BF0F0FA03A81CF003F906A815
:108840001CF000F9BCE4A01890F84C0052287FF40A
:1088500032A90132B2F5007F40F0958094F84C20A7
:10886000412A7FF428A994F84D20542A08BF0222F7
:108870007FF421A9224492F84C20452A7FF41BA9B9
:1088800003F10802B2F5007FA4BFA3F5FC73C3F3A4
:108890000802D4F85032264993422FD02244237C38
:1088A00092F84C209A4229D0E068D4F85C521BF030
:1088B00011FA2749E0681BF00DFA217CE0681BF0F3
:1088C00041FB1D4906A81BF099FF214903A81BF095
:1088D00095FF03A906A81CF07DF9014613481BF07B
:1088E0009BFA03A81CF0AEF806A81CF0ABF8D4F86D
:1088F0005032C4F84C32E118FFF7DFB8E068D4F822
:1089000064521BF0E7F91349E0681BF0E3F9217C9E
:10891000E0681BF017FB084906A81BF06FFF0D4924
:1089200003A8D4E7C8310500500C0500D876002014
:10893000EC0B05003C0D0500180C05000C0D0500A6
:10894000C40C0500A00C0500600C0500600D0500BE
:10895000280C0500F40B0500024492F84C20552A1F
:108960007FF4A9A8DA1CB2F5007F7FF479AC90F807
:108970004C20442A7FF49FA890F84D20522A08BF2B
:1089800002227FF498A8A01890F84C0041287FF4A8
:1089900092A80132B2F5007F7FF479AC94F84C20B4
:1089A000542A7FF488A894F84D20452A7FF483A8A0
:1089B00066E7A11891F84C1049297FF425AC0132E3
:1089C000B2F5007F40F0828094F84C204F2A7FF46B
:1089D0001BAC94F84D204E2A7FF416ACDA1DB2F58C
:1089E000007F04DB6FF4FC721344C3F30802D4F875
:1089F000503293422FD02244237C92F84C209A424A
:108A000029D03B49E068D4F85C521BF063F939493E
:108A1000E0681BF05FF9217CE0681BF093FA3649AF
:108A200006A81BF0EBFE334903A81BF0E7FE03A9E1
:108A300006A81CF0CFF8014630481BF0EDF903A85A
:108A40001CF000F806A81BF0FDFFD4F85032C4F863
:108A50004C32FFF7D9BB2A49E0681BF03BF92949A2
:108A6000E0681BF037F9217CE0681BF06BFA2649BF
:108A700006A81BF0C3FE234903A81BF0BFFE03A9F1
:108A800006A81CF0A7F801461C481BF0C5F903A86E
:108A90001BF0D8FF06A81BF0D5FF0025D5E7224420
:108AA00092F84C20522A7FF4AFABDA1CB2F5007F6B
:108AB0007FF4B7AD94F84C20532A7FF4A5AB94F81B
:108AC0004D20492A08BF02227FF49EABA11891F8DD
:108AD0004C104F297FF498AB0132B2F5007F7FF440
:108AE000B7AD94F84C204E2A3FF478AFFFF78CBB1B
:108AF000EC0B0500880D0500180C0500D876002049
:108B00004C0C050014300500500C050070B5D0F871
:108B10004C32067CC2188CB092F84C20B24256D02F
:108B20000021CDE9071109910A918DF82C1007ACAD
:108B30005D1C04F8012B6FF4FF72B5F5007F134440
:108B400001F10101ACBFC3F308032B46102900EB70
:108B5000030239D092F84C20964203D0D0F85052FC
:108B6000AB42E5D1C0F84C3207ABC1F11102581845
:108B7000002124F0B7FD294904A81BF03FFE07A9F6
:108B800001A81BF03BFE01A904A81CF023F8014634
:108B900023481BF041F901A81BF054FF04A81BF067
:108BA00051FF20480AF068FF1E480AF05DFE1E488B
:108BB0000AF05AFE1D4807A90DF00AFE1C4B1B784F
:108BC0004BB900200CB070BDC0F84C32D3E7D0F8E0
:108BD00060020CB070BD062112480AF031FE114847
:108BE0000AF016FE134B196811B10E480AF0CCFDBD
:108BF0000D480AF0DFFD0B4801210AF05FFEF42268
:108C0000084820210AF052FE06481E210AF04CFEB8
:108C1000002104480AF0BEFED3E700BFC40D0500E2
:108C2000D876002098740020DC740020586E002054
:108C300094670020206E0020F8B50368394F1B6947
:108C4000D0F86062BB4204463ED1D0E993508542E1
:108C5000C3BFC5F5FF7201328018401B002807DD35
:108C6000621992F84C20202A04BF0135C4F84C52F6
:108C7000BB4226D1D4F850028542C3BFC5F5FF736D
:108C80000133C018401B01280DDD6B1CB3F5007FBC
:108C900004DB6FF4FF73EB18C3F30803254495F866
:108CA0004C204F2A01D03046F8BD1C4494F84C307B
:108CB0004E2B0FD0462BF6D11B480AF0DDFE0026C6
:108CC000F1E720469847DEE798472368D4F84C52EE
:108CD0001B69C3E7154B1E78002EE4D0062112480D
:108CE0000AF0AEFD10480AF093FD114B196811B15E
:108CF0000D480AF049FD0F480AF05CFD0A480121C1
:108D00000AF0DCFDF422084820210AF0CFFD0648D5
:108D10001E210AF0C9FD044800210AF03BFE00268E
:108D2000C1E700BF99640200987400209467002096
:108D3000206E0020DC740020036870B51A69274E8D
:108D4000D0F86052B242044644D1D0E99330834215
:108D5000C3BFC3F5FF730133C018C01A002809DD73
:108D6000D4F84C32E11891F84C10202904BF01339B
:108D7000C4F84C32B2422AD1D4E993308342C3BF03
:108D8000C3F5FF730133C018C01A002809DDD4F8F9
:108D90004C02044494F84C30A3F13004E2B2092AA6
:108DA00001D9284670BD313B082BFAD80C4B0D4E2B
:108DB00053F82400346038B103681B69984733685E
:108DC000094AA3421060ECD10025284670BD204618
:108DD0009047DAE7904723681A69BFE79964020071
:108DE00044670020246E0020206E0020F8B5036840
:108DF000384F1B69D0F86062D0F84C52BB42044631
:108E000041D1D0F850028542C3BFC5F5FF7201328F
:108E10008018401B002805DD621992F84C20202A9A
:108E200008BF0135B5F5007FA8BFC5F30805BB42F3
:108E300026D1D4E993308342C3BFC3F5FF73013316
:108E4000C018C01A002806DD2C4494F84C30302B92
:108E500003D0312B1BD03046F8BD1F4CFF2100231F
:108E6000206AC4E905131FF063F96169606A1FF0A5
:108E70005FF96169A06A1FF05BF900263046F8BD12
:108E800020469847DEE7984723681B69C2E7124CE3
:108E90002568A3699D4215D0FF21206A61611FF0FA
:108EA00047F96169606A1FF043F96169A06A1FF0C0
:108EB0003FF923689D4205D063689D4202D0A368B4
:108EC0009D42DAD13223A561E3601BF037FFE061F8
:108ED000D3E700BF99640200F46D002070B5054629
:108EE000D0E99320904237D01F4B0024A9180132BB
:108EF00091F84C1003F8011BB2F5007F04F1010456
:108F000009DA9042F2D1C5F84C22184B1B783BB9D4
:108F1000D5F8700270BD08B10022E7E70246F2E71B
:108F2000686880B10268124B16699E4216D152F8E9
:108F3000103C03441B7A33B152F80C3C0A491844E4
:108F400022460EF013FAA86820B1036806491B6A8E
:108F500022469847204670BD0024D6E7024A2346A1
:108F60000021B047EFE700BF306600209567002082
:108F70000966020010B504460649C0681AF0AAFE48
:108F8000217CE0681AF0DEFFBDE81040024903488A
:108F90001AF088BF4C0C0500F80D0500D8760020AB
:108FA00030B5044687B00D46C06811491AF092FEEC
:108FB0002946E0681AF08EFE217CE0681AF0C2FFB4
:108FC0000C4903A81BF01AFC294668461BF016FC46
:108FD000694603A81BF0FEFD014607481AF01CFF76
:108FE00068461BF02FFD03A81BF02CFD07B030BD19
:108FF000EC0B0500180C0500D8760020F8B50368C6
:109000001D4F1B69BB4204460E46154632D1D0E9BE
:1090100093308342C3BFC3F5FF730133C018C01A36
:10902000B04225DB002E19DD013D144F2E4423688C
:109030001B68BB4214D1D4F84C22531C5942224421
:10904000C1F3080192F84C20C3F3080358BF4B4208
:10905000C4F84C3205F8012FAE42E8D10020F8BD2B
:109060002046984705F8010FAE42E0D10020F6E710
:109070000120F8BD9847D3E79964020071640200AB
:109080002DE9F84304468A6808460F4600211BF084
:1090900007FE23681F4A1B69934236D1D4E99336F1
:1090A000B342C3BFC3F5FF730133F618F61A002E9F
:1090B00021DD0025DFF86090A84623681B684B453A
:1090C0001FD1D4F84C22531C5942C1F30801224449
:1090D000C3F3080358BF4B4292F84C10C4F84C320B
:1090E000B8F1000F04D10D29384607D01BF050FD10
:1090F0000135AE42E1D10020BDE8F8834FF0010810
:10910000F6E7204698470146EAE720469847064694
:10911000CDE700BF996402007164020002682DE986
:10912000F843DFF8C4801369434504460D4658D11F
:10913000D0E993308342C3BFC3F5FF730133C01836
:10914000C01A00284AD02268DFF8A090136943456E
:109150004FF0000740F2FF1628D1D4E99330834244
:10916000C6BFF31AC018C01A002823DD226813688E
:109170004B4529D1D4F84C32E118013391F84C0019
:109180005942C1F30801A0F1300CC3F3080358BFE2
:109190004B425FFA8CF10929C4F84C320ED813699E
:1091A00007EB870743450CEB4707D6D02046984787
:1091B0000028DBDC2F600020BDE8F8830D2818BFF5
:1091C0000220F7D0BDE8F88320469847A0F1300C84
:1091D0005FFA8CF3092BF1D82268E0E70120BDE8A3
:1091E000F8839847ADE700BF9964020071640200FC
:1091F00003682DE9F0471B69244CA34205468946C4
:10920000174640D1D0E993308342C3BFC3F5FF7303
:109210000133C018C01A484532DBB9F1000F4FF0D6
:10922000000426DDDFF868A0A04605E0302827D13D
:1092300008F10108C1451CD02B681B686400534528
:10924000E4B21AD1D5F84C02431C5E422844C6F35E
:109250000806C3F3080358BF734290F84C00C5F8E2
:109260004C323128E2D108F101080134C145E4B2A1
:10927000E2D13C700020BDE8F08728469847F0E72F
:109280000120BDE8F0879847C5E700BF9964020058
:1092900071640200F0B5036883B0DB6A04460E46D1
:1092A000984700282DD01848184907461AF012FD93
:1092B00023682046DB6A98470A22014638461AF09E
:1092C000CDFE134938461AF005FD0CE023685B69B2
:1092D0009847C1B2384601911AF02AFD33680199C6
:1092E0001B683046984723682046DB6A9847054646
:1092F0002046002DEAD104481AF06EFD284603B03E
:10930000F0BD4FF0FF35F9E7D8760020080E0500D4
:10931000380E05002DE9F04F584BDFF8A4A11B785B
:1093200001228BB08AF8002023B9554A117863F3E3
:1093300047011170534F52495348544DDFF88491FF
:10934000DFF884810DF03CFA514938461AF0C2FC2E
:10935000504938461AF0A6FD4E494B480DF038FAF0
:109360004D4949480BF0FAFD4C4947480BF0F8FDD0
:109370004B480DF09BFC012402E001340A2C1CD068
:1093800015F8013F002BF8D0494638461AF0A2FCE8
:109390000A22214638461AF061FE58F82400036874
:1093A0002146DB6898470646D8B93E4B58F824203A
:1093B00043F8242001340A2CE2D13B4B1B685A1E8F
:1093C000082A08D8374A52F8230020B103681B69DD
:1093D0009847364B18609AF8003053BB0BB0BDE885
:1093E000F08F334904A81BF009FA0A22214601A88C
:1093F0001BF08CFA01A904A81BF0ECFB2D491BF013
:1094000015FC0A228346314607A81BF0E7FA07A994
:1094100058461BF0DFFB014638461AF037FC07A818
:109420001BF010FB01A81BF00DFB04A81BF00AFBAE
:10943000BBE7062120480AF003FA1F480AF0E8F9C2
:109440001A4B196811B11C480AF09EF91B480AF022
:10945000B1F9194801210AF031FAF4221648202105
:109460000AF024FA14481E210AF01EFA00211248BC
:109470000AF090FA0BB0BDE8F08F00BF3C6E002000
:10948000286E0020D8760020586E0020E86D00205D
:109490004C0E050004600020996702000D68020070
:1094A000786D002044670020246E0020206E00208C
:1094B000B40E0500DC0E050098740020DC7400205A
:1094C000946700207C0E05006C67002038B50368A7
:1094D0002A4D1A69AA42044648D1D0E99330834202
:1094E000C3BFC3F5FF730133C018C01A002809DDDC
:1094F000D4F84C32E11891F84C10202904BF013304
:10950000C4F84C32AA422ED1D4E993308342C3BF6F
:10951000C3F5FF730133C018C01A00281FDDD4F84B
:109520004C32234493F84C00302812D0A0F1300381
:10953000DAB2092A98BF184609D9A0F14103052BD0
:1095400018D9A0F16103052B8CBF0D485738FFF7E0
:10955000E1FED4F85032C4F84C32002038BD01206E
:10956000FFF7D8FEF5E720469047D6E790472368F7
:109570001A69BBE73738FFF7CDFEEAE799640200C6
:1095800019FCFFFFF8B5344C344F354E354D2046AD
:1095900000210DF093F9204604210CF039FF002240
:1095A000204601210CF064FF204604210DF038F91B
:1095B0002D4920460DF0F2F838460B211BF066FBD2
:1095C0000C210346384633721BF060FB0D21034625
:1095D000384673721BF05AFB0E2103463846B372AD
:1095E0001BF054FB05F13007204C214903460C22A7
:1095F0003846F3720DF0DEFB282638461D491E4F13
:109600001A220DF0C3FB32460021204624F06AF8EE
:109610003246002119481A4E24F064F8194A1A4BB0
:109620001A48A26078351A4A1A49656020611A4DB5
:109630001A48626100221A60A661E561012640F2C3
:10964000011520621A8102205A60E7601A725E706A
:109650005D800860F8BD00BF586E0020306E0020AD
:1096600004600020806A0020296E00206C670020C2
:10967000642F05001430050098680020446700201E
:10968000606D0020D4690020E86D0020686A002029
:109690008C6C0020246E00206C6B0020E06B00209E
:1096A00010B4B84A13786FF3470313700178447805
:1096B000A1F13003DBB2092B40F2BE80A1F14103DE
:1096C000052B40F2B780A1F16103052B00F2508118
:1096D00057390901CBB2A4F13001C9B2092900F20E
:1096E000B3800B44DBB293718178C478A1F130036D
:1096F000DBB2092B40F2B980A1F14103052B40F206
:10970000B280A1F16103052B00F2368157390901BE
:10971000CBB2A4F13001C9B2092900F2AE800B44EA
:10972000DBB2537101794479A1F13003DBB2092B2B
:1097300040F2B380A1F14103052B40F2AC80A1F1CE
:109740006103052B00F21C8157390901CBB2A4F14A
:109750003001C9B2092900F2A8800B44DBB21371B1
:109760008179C479A1F13003DBB2092B40F2AD80DD
:10977000A1F14103052B40F2A680A1F16103052B65
:1097800000F2F48057390901CBB2A4F13001C9B21B
:10979000092900F2A2800B44DBB2D370017A447A2B
:1097A000A1F13003DBB2092B40F2A780A1F1410304
:1097B000052B40F2A080A1F16103052B00F2DE80B1
:1097C00057390901CBB2A4F13001C9B2092900F21D
:1097D0009C800B44DBB2817A9370A1F13003DBB241
:1097E000092BC07A40F2BB80A1F14103052B40F266
:1097F0009D80A1F16103052B00F2BC80573909015E
:10980000CBB2A0F13001C9B2092940F29980A0F190
:109810004101052940F2A680A0F16101052902D885
:1098200057380344DBB25849537001235DF8044BA9
:109830000B707047A1F137031B01DBB2A4F13001BB
:10984000C9B209297FF64DAFA4F14101052940F2C3
:109850008380A4F1610105293FF645AFA4F15701CA
:109860000B44DBB23FE7A1F137031B01DBB2A4F1EC
:109870003001C9B209297FF652AFA4F1410105298F
:1098800067D9A4F1610105293FF64BAFA4F1570157
:109890000B44DBB245E7A1F137031B01DBB2A4F1B6
:1098A0003001C9B209297FF658AFA4F14101052959
:1098B00039D9A4F1610105293FF651AFA4F157014F
:1098C0000B44DBB24BE7A1F137031B01DBB2A4F180
:1098D0003001C9B209297FF65EAFA4F14101052923
:1098E00031D9A4F1610105293FF657AFA4F1570121
:1098F0000B44DBB251E7A1F137031B01DBB2A4F14A
:109900003001C9B209297FF664AFA4F141010529EC
:109910001CD9A4F1610105293FF65DAFA4F15701FF
:109920000B44DBB257E7A4F1370116E7A1F1370387
:10993000A0F13001C9B21B010929DBB23FF667AFC4
:109940000B44DBB26FE7A4F1370124E7A4F1370140
:109950003FE7A4F13701E2E6A4F13701C1E61B01BC
:10996000DBB24EE737380344DBB25CE70023AEE7F7
:10997000002363E7002344E7002378E70023BEE7E2
:1099800000238CE7286E00203C6E002030B5834B0E
:109990001B7885B00446002B40F0F1800368804AB4
:1099A0001B69934240F0F780D0E993308342C3BFF4
:1099B000C3F5FF730133C018C01A0B2808DCD4F8B4
:1099C0006852D4F85032C4F84C32284605B030BD45
:1099D000D4F84C022218431C92F84C20A2F130011A
:1099E000092912D922F02001413905290DD9D4F8CD
:1099F0006C52C4F84C326846FFF752FED4F850322D
:109A0000C4F84C32284605B030BD23448DF8002000
:109A100093F84C20A2F13001092900F1020304D986
:109A200022F0200141390529E1D823448DF8012095
:109A300093F84C20A2F13001092900F1030304D965
:109A400022F0200141390529D1D823448DF8022084
:109A500093F84C20A2F13001092900F1040304D944
:109A600022F0200141390529C1D823448DF8032073
:109A700093F84C20A2F13001092900F1050304D923
:109A800022F0200141390529B1D823448DF8042062
:109A900093F84C20A2F13001092900F1060304D902
:109AA00022F0200141390529A1D823448DF8052051
:109AB00093F84C20A2F13001092900F1070304D9E1
:109AC00022F020014139052991D823448DF8062040
:109AD00093F84C20A2F13001092900F1080304D9C0
:109AE00022F020014139052981D823448DF807202F
:109AF00093F84C20A2F13001092900F1090305D99E
:109B000022F02001413905293FF671AF23448DF839
:109B1000082093F84C20A2F13001092900F10A0332
:109B200005D922F02001413905293FF660AF2344D1
:109B30008DF8092093F84C20A2F13001092900F199
:109B40000B0305D922F02001413905293FF64FAF1B
:109B500023448DF80A2093F84C20A2F13001092902
:109B600000F10C0305D922F02001413905293FF607
:109B70003EAF8DF80B20C4F84C3200253BE7094975
:109B800009481AF08FF90025D4F85032C4F84C3245
:109B9000284605B030BD98470FE700BF9467002006
:109BA00099640200F40E0500D87600202DE9F041FA
:109BB000D0F84C32C11886B091F84C20422A0446A5
:109BC0001AD15A1CB2F5007F80F24081024492F80B
:109BD0004C20452A10D1B3F5FF7F03F1020240F07B
:109BE000E98790F84C20472A06D190F84D20492A61
:109BF00008BF022200F0FD87D4F8586291F84C208B
:109C0000422A7BD15A1CB2F5007F80F2A483224401
:109C100092F84C20412A40F0CC80B3F5FF7F03F14D
:109C2000020240F09E8394F84C20552A40F0C180F7
:109C30000122A01890F84C00442840F0BA8001326C
:109C4000B2F5007F40F09E8394F84C20522A40F0F9
:109C5000B0800122A01890F84C00412840F0A98063
:109C60000132B2F5007F40F09E8394F84C20542AD4
:109C700040F09F800122A01890F84C00452840F049
:109C800098800132B2F5007F40F09E8394F84C201A
:109C90003D2A40F08E8009335A42C2F30802C3F3D2
:109CA000080358BF5342C4F84C328A49E068D4F8DC
:109CB00064621AF00FF88849E0681AF00BF8217C0A
:109CC000E0681AF03FF9854968461AF097FD824925
:109CD00003A81AF093FD03A968461AF07BFF01461A
:109CE0007F481AF099F803A81AF0ACFE68461AF0FB
:109CF000A9FED4F85032C4F84C32E11891F84C2047
:109D00004D2A56D15A1CB2F5007F80F20D832244B1
:109D100092F84C20412A40F01681B3F5FF7F03F101
:109D2000020240F0078394F84C20432A40F00B8154
:109D30000122224492F84C203D2A40F00481043351
:109D400068495A42C2F308020978C3F3080358BFAE
:109D50005342C4F84C32002900F0E4846249604860
:109D60001AF0A0F85B49E06819F0B4FF5F49E068B9
:109D700019F0B0FF217CE0681AF0E4F85749684612
:109D80001AF03CFD594903A81AF038FD03A96846AA
:109D90001AF020FF014652481AF03EF803A81AF0C4
:109DA00051FE68461AF04EFED4F85032C4F84C32D8
:109DB000E11891F84C204E2A40F0C5805A1CB2F5AB
:109DC000007F80F2BD83224492F84C20412A40F06B
:109DD0002981B3F5FF7F03F1020240F0B78394F8C5
:109DE0004C204D2A40F01E810122A01890F84C0012
:109DF000452840F017810132B2F5007F40F0B7836B
:109E000094F84C203D2A40F00D8105335A42C2F3AC
:109E10000802C3F3080358BF534235493048C4F819
:109E20004C3219F057FFD4E99356B54268D02C4F05
:109E30006319384693F84C10013519F079FFB5F5E0
:109E4000007F5BDB002E5BD00025F1E790F84C2013
:109E5000452A7FF4D1AE90F84D20472A08BF022250
:109E60007FF4CAAEA01890F84C0049287FF4C4AE25
:109E70000132B2F5007F40F0BC8694F84C204E2AA7
:109E80007FF4BAAE94F84D203D2A7FF4B5AE063388
:109E90005A42C2F30802C3F3080358BF5342C4F83E
:109EA0004C322046FFF712FB0646002840F05E8643
:109EB0001049E06819F00EFF217CE0681AF042F8C2
:109EC0000D49074819F0EEFFD4F85032C4F84C326F
:109ED000E11893E6EC0B05005C0F0500180C05007B
:109EE000D876002094670020800F0500D40F05006D
:109EF000D41105004C0C0500F80D0500AE4297D1B9
:109F0000DD4819F069FF2046FEF700FEDB490646F2
:109F1000E06819F0DFFE217CE0681AF013F8D849F8
:109F2000D54819F0BFFF05201AF014FF1825E06886
:109F300010B1217C19F0FCFE013DF8D1D4F850326B
:109F4000C4F84C32E11891F84C20522A6AD15A1CBC
:109F5000B2F5007F80F21283224492F84C20462A08
:109F60007FD1B3F5FF7F03F1020240F00D8394F837
:109F70004C20532A75D10122A11891F84C10542974
:109F80006FD10132B2F5007F40F00F8394F84C207E
:109F9000412A66D10122A11891F84C10542960D1B0
:109FA0000132B2F5007F40F0118394F84C20452A2D
:109FB00057D10122224492F84C203D2A51D1083336
:109FC0005A42C2F30802C3F3080358BF5342C4F80D
:109FD0004C32AC49E068D4F8646219F07BFEAA49BF
:109FE000E06819F077FE217CE06819F0ABFFA74923
:109FF00068461AF003FCA44903A81AF0FFFB03A962
:10A0000068461AF0E7FD01469B4819F005FF03A8D2
:10A010001AF018FD68461AF015FDD4F85032C4F84D
:10A020004C32E11891F84C20412A1AD15A1CB2F551
:10A03000007F80F2E382224492F84C20442A10D11F
:10A04000B3F5FF7F03F1020240F0B68494F84C2090
:10A05000562A06D194F84D20452A08BF022200F066
:10A0600006848B491A4601F11207A51811F8010B55
:10A0700095F84C50854202F1010220D1B2F5007FE3
:10A08000A8BF0022B942F0D112335A42C2F30802EB
:10A09000C3F3080358BF5342C4F84C322046FEF7BE
:10A0A0004BFE0646002800F07B837A49D4F86062B4
:10A0B0002046FEF775FFD4F85032C4F84C32E11850
:10A0C00091F84C20452A40F000815A1CB2F5007FDF
:10A0D00080F28181224492F84C204E2A40F0148173
:10A0E000B3F5FF7F03F1020240F07A8194F84C202F
:10A0F000412A40F009810122A11891F84C1042290F
:10A1000040F002810132B2F5007F40F0788194F88E
:10A110004C204C2A40F0F8800122A11891F84C10F4
:10A12000452940F0F1800132B2F5007F40F078819E
:10A1300094F84C205F2A40F0E7800122A11891F8A2
:10A140004C10532940F0E0800132B2F5007F40F01E
:10A15000788194F84C20452A40F0D6800122A1183D
:10A1600091F84C10522940F0CF800132B2F5007FB7
:10A1700040F0788194F84C20562A40F0C5800122A6
:10A18000A11891F84C10492940F0BE800132B2F577
:10A19000007F40F0788194F84C20432A40F0B4804E
:10A1A0000122A11891F84C10452940F0AD800132F0
:10A1B000B2F5007F40F0788194F84C205F2A40F09F
:10A1C000A3800122A11891F84C10492940F09C80ED
:10A1D0000132B2F5007F40F0788194F84C20442A97
:10A1E00040F0928022682C4D116811335A42C2F31C
:10A1F0000802C3F3080358BF5342A942C4F84C32C3
:10A2000040F00F835A1C51422344C1F30801C2F3AA
:10A21000080258BF4A4293F84C00C4F84C222F2839
:10A220003ED9A0F13007FBB2092B0DD9A0F14103B3
:10A23000DBB2052B40F2F882A0F16103DBB2052B03
:10A240008CBF164FA0F1570723681B68AB4240F044
:10A25000EE82D4F84C22531C59422244C1F3080127
:10A26000C3F3080358BF4B4292F84C00C4F84C3279
:10A270003D2800F0A28213E0D87600204C0C0500A7
:10A28000F80D0500EC0B050014120500180C050074
:10A290004C120500601205007164020019FCFFFFFA
:10A2A000002E40F0B782D249E06819F013FD217CFE
:10A2B000E06819F047FECF49CF4819F0F3FD0026BA
:10A2C000D4F85032C4F84C32E11891F84C204C2AA2
:10A2D0001AD15A1CB2F5007F80F2FE80224492F817
:10A2E0004C20452A10D1B3F5FF7F03F1020240F064
:10A2F000B08394F84C20442A06D194F84D204D2A7E
:10A3000008BF022200F0D283002E40F0C781D4F8AB
:10A310005832B34200F0E381D4F85032C4F84C32E2
:10A32000304606B0BDE8F08194F84C20412A7FF415
:10A330000AAE0122A01890F84C0043287FF403AE27
:10A340000132B2F5007F7FF4F4AC94F84C203D2A42
:10A350003FF4F5ACF7E594F84C20412A7FF429ADA1
:10A360000122A01890F84C0055287FF422AD01324C
:10A37000B2F5007F7FF45DAC94F84C20442A7FF462
:10A3800018AD0122A01890F84C0052287FF411ADAE
:10A390000132B2F5007F7FF45DAC94F84C20412A85
:10A3A0007FF407AD0122A01890F84C0054287FF4E8
:10A3B00000AD0132B2F5007F7FF45DAC94F84C2023
:10A3C000452A7FF4F6AC0122224492F84C203D2A23
:10A3D0003FF461ACEDE494F84C204E2A94D1012274
:10A3E000A11891F84C1041298ED10132B2F5007FAD
:10A3F0007FF482AE94F84C20422A85D10122A11824
:10A4000091F84C104C297FF47FAF0132B2F5007FF8
:10A410007FF483AE94F84C20452A7FF475AF012277
:10A42000A11891F84C105F297FF46EAF0132B2F59C
:10A43000007F7FF483AE94F84C20532A7FF464AFFE
:10A440000122A11891F84C1045297FF45DAF01322B
:10A45000B2F5007F7FF483AE94F84C20522A7FF44B
:10A4600053AF0122A11891F84C1056297FF44CAF3C
:10A470000132B2F5007F7FF483AE94F84C20492A74
:10A480007FF442AF0122A11891F84C1043297FF4C8
:10A490003BAF0132B2F5007F7FF483AE94F84C20DD
:10A4A000452A7FF431AF0122A11891F84C105F29A1
:10A4B0007FF42AAF0132B2F5007F7FF483AE94F8C7
:10A4C0004C20492A7FF420AF0122224492F84C20EC
:10A4D000442A3FF487AE17E794F84C20452A7FF4CE
:10A4E00013AF94F84D20442A08BF02227FF40CAF2A
:10A4F000A11891F84C104D297FF406AF0132B2F546
:10A50000007F40F0D38294F84C204F2A7FF4FCAEB9
:10A5100094F84D20442A08BF02227FF4F5AEA1181A
:10A5200091F84C1045297FF4EFAE0132B2F5007F6F
:10A5300040F0D28294F84C203D2A00F0D382E3E62A
:10A5400094F84C20412A7FF46DAD0122A01890F8B8
:10A550004C004D287FF466AD0132B2F5007F7FF4E8
:10A5600044AC94F84C20452A7FF45CAD012222448F
:10A5700092F84C203D2A3FF448AC53E594F84C2027
:10A58000462A7FF46EAD0122A11891F84C10532990
:10A590007FF467AD0132B2F5007F7FF4EDAC94F843
:10A5A0004C20542A7FF45DAD0122A11891F84C1083
:10A5B00041297FF456AD0132B2F5007F7FF4EBAC58
:10A5C00094F84C20542A7FF44CAD0122A11891F844
:10A5D0004C1045297FF445AD0132B2F5007F7FF480
:10A5E000E9AC94F84C203D2A3FF4E9AC39E500BFD2
:10A5F0004C0C0500F80D0500D876002094F84C208E
:10A60000442A7FF42EAD94F84D20562A08BF02222A
:10A610007FF427ADA11891F84C1045297FF421ADA6
:10A620000132B2F5007F40F0228194F84C20522A8A
:10A630007FF417AD94F84D20542A08BF02227FF40E
:10A6400010ADA11891F84C1049297FF40AAD0132E0
:10A65000B2F5007F40F0228194F84C20532A7FF419
:10A6600000AD94F84D20492A08BF02227FF4F9ACCE
:10A67000A11891F84C104E297FF4F3AC0132B2F5D9
:10A68000007F40F0228194F84C20472A7FF4E9AC07
:10A6900094F84D203D2A7FF4E4AC26E1B549B64854
:10A6A00019F018FBD4E99357BD423FF430AEDFF800
:10A6B000C8826319404693F84C10013519F038FBF5
:10A6C000B5F5007F04DB002F3FF421AE0025F0E755
:10A6D000AF42EED1D4F85832B3427FF41DAEA74951
:10A6E000E06819F0F7FAA649E06819F0F3FA217C5E
:10A6F000E06819F027FCA34968461AF07FF8A049E2
:10A7000003A81AF07BF803A968461AF063FA014619
:10A71000994819F081FB03A81AF094F968461AF0D9
:10A7200091F9F9E59849944819F0D4FAD4E9935687
:10A73000B5420FD0904F6319384693F84C1001354D
:10A7400019F0F6FAB5F5007F02DB1EB10025F2E73D
:10A75000AE42F0D1884819F03FFB2046FFF716F9CA
:10A760000646002849D0D4F8683283426BD0D4F82A
:10A770006C3283425ED085492046FEF711FC844945
:10A780007D4819F08FFB05201AF0E4FA1825E068DF
:10A7900010B1217C19F0CCFA013DF8D1FFF704BBD0
:10A7A0007C49E06819F096FA217CE06819F0CAFB50
:10A7B0007949714819F076FB7DE423681B68AB4248
:10A7C00052D1D4F84C22531C59422244C1F30801FF
:10A7D000C3F3080358BF4B4292F84C00C4F84C3204
:10A7E000542839D046287FF45BAD7B1E082B3FF6FA
:10A7F0005AAD6A4B0022DA5555E56649E06819F012
:10A8000069FA217CE06819F09DFB63495A4819F008
:10A8100049FBB8E76249D4F860622046FEF7C0FB06
:10A820004EE520468847FAE4A0F137070CE52046BC
:10A8300098471DE520465B49FEF7B2FB5A494E4852
:10A8400019F030FB9FE720465849FEF7A9FB58490D
:10A85000494819F027FB96E77B1E082B3FF620ADF1
:10A860004E4B0122DA551EE520469847B8E7A1185D
:10A8700091F84C1052297FF4F4AB0132B2F5007F0D
:10A8800040F0B18094F84C20542A7FF4EAAB94F85D
:10A890004D20492A08BF02227FF4E3ABA11891F8AA
:10A8A0004C1053297FF4DDAB0132B2F5007F40F04C
:10A8B000B18094F84C20492A7FF4D3AB94F84D2012
:10A8C0004E2A08BF02227FF4CCABA11891F84C109D
:10A8D00047297FF4C6AB0132B2F5007F40F0B1806A
:10A8E00094F84C203D2A7FF4BCAB0C335A42C2F39F
:10A8F0000802C3F3080358BF5342C4F84C32204641
:10A90000FEF79AF9064688B92249E06819F0E2F99B
:10A91000217CE06819F016FB1F49174819F0C2FAAC
:10A92000D4F85032C4F84C32FFF79BBB1349E068AF
:10A9300019F0D0F91F49E06819F0CCF9217CE068E2
:10A9400019F000FB0F49684619F058FF194903A890
:10A9500019F054FF03A968461AF03CF9014606486D
:10A9600019F05AFA03A81AF06DF868461AF06AF856
:10A97000D6E700BFB4120500D8760020EC0B050026
:10A98000EC120500180C0500081005006011050008
:10A99000841105004C0C0500F80D0500E86D002041
:10A9A00080120500D41005000011050048100500B4
:10A9B0007410050034120500224492F84C20562AE7
:10A9C0007FF44FABDA1CB2F5007F7FF423AE94F82E
:10A9D0004C20452A7FF445AB94F84D20522A08BFFD
:10A9E00002227FF43EABA11891F84C1054297FF459
:10A9F00038AB0132B2F5007F7FF423AE94F84C20DF
:10AA0000492A7FF42EAB94F84D20532A08BF022226
:10AA10007FF427ABA11891F84C1049297FF421ABA2
:10AA20000132B2F5007F7FF423AE94F84C204E2A19
:10AA30007FF417AB94F84D20472A08BF02227FF419
:10AA400010AB224492F84C203D2A3FF44EAFFFF762
:10AA500008BB224492F84C20442A7FF455ACDA1CFF
:10AA6000B2F5007F7FF444AD94F84C204D2A7FF47A
:10AA70004BAC94F84D204F2A08BF02227FF444AC1F
:10AA8000A11891F84C1044297FF43EAC0132B2F584
:10AA9000007F7FF444AD94F84C20452A7FF434AC19
:10AAA00094F84D203D2A7FF42FAC1BE0A11891F8BB
:10AAB0004C104F297FF428AC0132B2F5007FDFD172
:10AAC00094F84C20442A7FF41FAC94F84D20452A7A
:10AAD00008BF02227FF418AC224492F84C203D2A91
:10AAE0007FF412AC08335A42C2F30802C3F30803DE
:10AAF00058BF5342C4F84C322046FEF777F9064659
:10AB000088B94449E06819F0E5F8217CE06819F05B
:10AB100019FA4149414819F0C5F9D4F85032C4F83E
:10AB20004C32FFF7F1BB3E49E06819F0D3F83D49DC
:10AB3000E06819F0CFF8217CE06819F003FA3A498F
:10AB4000684619F05BFE374903A819F057FE03A9C0
:10AB500068461AF03FF80146304819F05DF903A83D
:10AB600019F070FF684619F06DFFD6E72C49E068D0
:10AB700019F0B0F82D49E06819F0ACF8217CE068D4
:10AB800019F0E0F92849684619F038FE274903A86A
:10AB900019F034FE03A968461AF01CF801461F4854
:10ABA00019F03AF903A819F04DFF684619F04AFF69
:10ABB000FFF78AB9024492F84C20472A7FF41CA878
:10ABC000DA1CB2F5007F7FF44DA990F84C20492A99
:10ABD0007FF412A890F84D204E2A08BF02227FF47D
:10ABE0000BA8224492F84C203D2A3FF450A9FFF7CD
:10ABF00003B8A01890F84C004E287EF4FDAF013247
:10AC0000B2F5007FEDD194F84C203D2A3FF43FA9E6
:10AC1000FEF7F2BF4C0C0500F80D0500D8760020B9
:10AC2000EC0B0500A0120500180C0500480F0500EC
:10AC300070B4146901EBD173B4EB630F3AD10129FD
:10AC400035DD5D1000EB4504511E13E0A6F1410017
:10AC5000052835D9A6F16100052802D8573E3344AE
:10AC6000DBB2881C801A85424B70A4F1020401F10A
:10AC700001011CDD14F8020C14F8016CA0F1300382
:10AC8000DBB2092B19D9A0F14103052B1CD9A0F186
:10AC90006103052B9DBF57380001C3B20023A6F105
:10ACA0003000C0B20928D1D80344DBB2D9E7002074
:10ACB00070BC7047012070BC70471B01DBB2EEE72F
:10ACC000373E3344DBB2CCE737380001C3B2E6E7A6
:10ACD0002DE9F0474F4D0F46944606460FCD86B0FE
:10ACE00001AC0FC42B6823606146384601AAFFF708
:10ACF0009FFF08BB072E044611D0082E47D1464DB2
:10AD0000464A2B681B6993420FD1D5E90F239B1A42
:10AD10001F2B16D90324204606B0BDE8F087404D0E
:10AD20003E4A2B681B699342EFD001A928469847F9
:10AD300004460028EFD0EDE70124204606B0BDE828
:10AD4000F08724201CF058FC0646002341F601221F
:10AD50001027C6E90033C6E9023332493761B282AF
:10AD6000183019F04BFD0DF1040CBCE80F0037460C
:10AD70000FC7D5E91023DCF8001039609A420BD0D8
:10AD800042F8046B20462A6406B0BDE8F08702242E
:10AD9000204606B0BDE8F087D5F83C906FF06048DB
:10ADA000A2EB0907B8EBA70F4FEAA70317D0012BB7
:10ADB0001A4638BF01229B1829D2EBB998469A4609
:10ADC000002F4AF807600BDC3A1D0AEB0206B9F1C6
:10ADD000000F0DD1C5E90FA6C5F844809BE7FEE73B
:10ADE0003A464946504622F063FC3A1D0AEB0206F9
:10ADF00048461CF003FCEDE7434528BF43464FEAB5
:10AE0000830840461CF0F8FB82468044D8E7DFF810
:10AE10001880F6E7D42E0500846B0020E96F02004D
:10AE2000106B0020C43A0500FCFFFF7FF0B58BB02B
:10AE3000AE49AF4C01A819F0E1FCAE49AE4819F09B
:10AE400031F8AE49AC4818F045FFAD49AA4819F0B1
:10AE500029F8AC49A84819F025F8AB49A64818F0DC
:10AE600039FF0A222178A44819F0F8F8A749A24826
:10AE700018F030FFA64BA04819780A2219F0EEF816
:10AE8000A4499D4819F00EF8A3499B4819F00AF807
:10AE90002678002E40F0C282A0499748A04DA14CD0
:10AEA00019F000F8A049944818F0FCFF9F4907A842
:10AEB00019F0A4FC6F683B68DB69A34240F0E782AD
:10AEC000039A314601A819F0EBFE07F10C0101A825
:10AED00019F010FE01A904A819F0AAFC04A907A8FA
:10AEE00019F078FE0146844818F096FF04A819F07E
:10AEF000A9FD07A819F0A6FD8D4907A819F07EFC49
:10AF00006E683368DB69A34240F00C83039A00212A
:10AF100001A819F0C5FE06F10C0101A819F0EAFD1F
:10AF200001A904A819F084FC04A907A819F052FE8D
:10AF30000146714818F070FF04A819F083FD07A8B6
:10AF400019F080FD7B4907A819F058FCAE683368FA
:10AF5000DB69A34240F0E182039A002101A819F0C5
:10AF60009FFE06F10C0101A819F0C4FD01A904A877
:10AF700019F05EFC04A907A819F02CFE01465E48F2
:10AF800018F04AFF04A819F05DFD07A819F05AFD52
:10AF9000694907A819F032FCAE683368DB69A3423F
:10AFA00040F0B682039A002101A819F079FE06F15B
:10AFB0000C0101A819F09EFD01A904A819F038FCA4
:10AFC00004A907A819F006FE01464B4818F024FF13
:10AFD00004A819F037FD07A819F034FD574907A850
:10AFE00019F00CFCEE683368DB69A34240F08B82F9
:10AFF000039A002101A819F053FE06F10C0101A8E3
:10B0000019F078FD01A904A819F012FC04A907A8F9
:10B0100019F0E0FD0146384818F0FEFE04A819F0CA
:10B0200011FD07A819F00EFD454907A819F0E6FB28
:10B03000EE683368DB69A34240F06082039A002126
:10B0400001A819F02DFE06F10C0101A819F052FD1E
:10B0500001A904A819F0ECFB04A907A819F0BAFD8E
:10B060000146254818F0D8FE04A819F0EBFC07A803
:10B0700019F0E8FC334907A819F0C0FB2E693368C2
:10B08000DB69A34240F03582039A002101A819F040
:10B0900007FE06F10C0101A819F02CFD01A904A876
:10B0A00019F0C6FB04A907A819F094FD014612483F
:10B0B00018F0B2FE04A819F0C5FC07A819F0C2FCEC
:10B0C000214907A819F09AFB2E693368DB69A3426E
:10B0D00040F00A82039A002101A819F0E1FD06F16F
:10B0E0000C0101A819F006FD01A92FE0C43A0500E2
:10B0F0009467002004130500D87600202013050073
:10B1000014300500381305004413050054130500DE
:10B11000956700206813050090130500C013050013
:10B120006C67002079670200D4130500081405003D
:10B130002C1405006014050084140500B8140500E3
:10B14000DC140500101505003415050004A819F0DD
:10B150006FFB04A907A819F03DFD0146A34818F0AC
:10B160005BFE04A819F06EFC07A819F06BFCA0495F
:10B1700007A819F043FB6E693368DB69A34240F00E
:10B18000AE81039A002101A819F08AFD06F10C0195
:10B1900001A819F0AFFC01A904A819F049FB04A902
:10B1A00007A819F017FD0146904818F035FE04A8CD
:10B1B00019F048FC07A819F045FC8E4907A819F0BA
:10B1C0001DFB6E693368DB69A34240F08381039AFB
:10B1D000002101A819F064FD06F10C0101A819F085
:10B1E00089FC01A904A819F023FB04A907A819F0F8
:10B1F000F1FC01467D4818F00FFE04A819F022FC6E
:10B2000007A819F01FFC7C4907A819F0F7FAAE69E6
:10B210003368DB69A34240F05881039A002101A8FA
:10B2200019F03EFD06F10C0101A819F063FC01A91B
:10B2300004A819F0FDFA04A907A819F0CBFC0146EF
:10B240006A4818F0E9FD04A819F0FCFB07A819F0FA
:10B25000F9FB6A4907A819F0D1FAAE693368DB69CE
:10B26000A34240F02D81039A002101A819F018FD96
:10B2700006F10C0101A819F03DFC01A904A819F080
:10B28000D7FA04A907A819F0A5FC0146574818F0F9
:10B29000C3FD04A819F0D6FB07A819F0D3FB584941
:10B2A00007A819F0ABFAEE693368DB69A34240F0F6
:10B2B0000281039A002101A819F0F2FC06F10C01A9
:10B2C00001A819F017FC01A904A819F0B1FA04A902
:10B2D00007A819F07FFC4B4919F0A8FC0146434828
:10B2E00018F09AFD04A819F0ADFB07A819F0AAFB05
:10B2F000454907A819F082FAEE693368DB69A34271
:10B3000040F0D480039A002101A819F0C9FC06F18D
:10B310000C0101A819F0EEFB01A904A819F088FAA4
:10B3200004A907A819F056FC0146304818F074FD2E
:10B3300004A819F087FB07A819F084FB334907A874
:10B3400019F05CFA2E6A3368DB69A34240F0A980E9
:10B35000039A002101A819F0A3FC06F10C0101A831
:10B3600019F0C8FB01A904A819F062FA04A907A8FA
:10B3700019F030FC264919F059FC01461B4818F019
:10B380004BFD04A819F05EFB07A819F05BFB2149EF
:10B3900007A819F033FA2D6A2B68DB69A3427BD129
:10B3A000039A002101A819F07BFC05F10C0101A80A
:10B3B00019F0A0FB01A904A819F03AFA04A907A8FA
:10B3C00019F008FC0146094818F026FD04A819F0F8
:10B3D00039FB07A819F036FB0F49044818F062FD45
:10B3E00001A819F02FFB0BB0F0BD00BFD8760020EC
:10B3F000681505008C150500C0150500E41505004D
:10B40000181605003C1605005416050088160500A0
:10B41000AC160500C4160500F81605004449454859
:10B4200018F040FD4449434818F03CFD4349414869
:10B4300018F038FD42493F4818F034FD41493D4875
:10B4400018F030FD40493B4818F02CFD3F49394881
:10B4500018F028FD3E49374818F024FD3D4935488D
:10B4600018F020FD3C49334818F01CFD3B49314899
:10B4700018F018FD3A492F4818F014FD39492D48A5
:10B4800018F010FD01A819F0DDFA0BB0F0BD01A90C
:10B490003846984701461EE501A9284698470146C7
:10B4A00089E701A93046984701465CE701A9304683
:10B4B0009847014631E701A930469847014603E71E
:10B4C00001A9304698470146D8E601A93046984779
:10B4D0000146ADE601A930469847014682E601A93A
:10B4E00030469847014657E601A93046984701463D
:10B4F0002CE601A9304698470146D0E501A930461F
:10B5000098470146A5E501A93046984701467AE5E6
:10B5100001A93046984701464FE501A930469847B2
:10B52000014624E501A9304698470146F9E400BFE9
:10B530002C170500D8760020401705007C17050061
:10B54000B4170500EC170500241805006C18050059
:10B55000A4180500EC18050034190500841905002D
:10B56000BC190500F4190500F8B5454E336883424F
:10B5700085BF00233360C31A0346642B04463DD9BC
:10B58000404B1B78002B3AD03F4DAB69002B26DD9A
:10B59000AF68BB424AD12A681F46EB699C423CBF58
:10B5A0000023EB61974205D0AA68974202D06A68EF
:10B5B000974222D1EA6813449C421ED9D5E904314E
:10B5C0001944FE29EC6154DC7F29DDBF08237F216B
:10B5D000C5E90431696138461CF0AAFDAB6963B95D
:10B5E000FF21286A69611CF0A3FD6969686A1CF083
:10B5F0009FFD6969A86A1CF09BFD3460F8BD234B70
:10B60000214D1B783BB9AB69002BE8DD2F68BB42AD
:10B610000CD13A46C1E71E4808F04CF90028F2D098
:10B62000AB69002BDBDD6F68BB42B4D0FF21286A19
:10B6300069611CF07DFD6969686A1CF079FD6969C2
:10B64000A86A1CF075FD2B689F420BD06B689F4267
:10B6500008D0AB689F4205D0AB69002BBFDD2A68DC
:10B660001F469AE73223AF61EB6019F067FBE86190
:10B67000F2E76FF00703FF21C5E90431ABE700BF34
:10B680004067002095670020F46D0020946700203B
:10B69000987400202DE9F84FD0E900850646A5EB07
:10B6A00008046FF06040B0EBA40F23D0A310012B6F
:10B6B0001C4638BF01241C190F469246A1EB08090D
:10B6C0003ED29CBBA346DAF800304BF80930B9F102
:10B6D000000F10DCED1B09F10409002D0BEB090331
:10B6E0001DDC1D44B8F1000F11D1C6E900B5B460EE
:10B6F000BDE8F88FFEE74A4641465846ED1B21F06B
:10B70000D7FF09F10403002D5B4408DC1D444046CB
:10B710001BF074FFC6E900B5B460BDE8F88F1846A9
:10B7200039462A4621F0B6FF0346DAE7844228BFAD
:10B730000446A40020461BF05FFF83460444C2E792
:10B74000004CF7E7FCFFFF7F2DE9F041D0E9012332
:10B750009A4282B0054606D00B6842F8043B42602C
:10B7600002B0BDE8F08107686FF06046D41BB6EB0D
:10B77000A40F4FEAA40214D0012A134638BF0123B4
:10B780009B1826D2CBB91E4698460B6848F8043061
:10B79000002C07DC043444445FB9C5E90084AE6082
:10B7A000DEE7FEE722463946404621F081FF0434B9
:10B7B000444438461BF022FFEFE7B34228BF33462C
:10B7C0009E00304601911BF017FF01998046064408
:10B7D000DBE7014EF5E700BFFCFFFF7F90F8583034
:10B7E000002B00F0828003682DE9F04353F80C3CF5
:10B7F0000446406D23440268596001251D7287B0DC
:10B8000093689847D4E90F138B4247D0DFF8E8904C
:10B8100004F118080025D4E912239B1A1C2B02A856
:10B820005FDC51F8256031460AF0DAFA58201BF047
:10B83000E3FE02A9074608F01FFD02A801970AF0DF
:10B84000AFFA0198002852D0717D08F091FD1122C5
:10B850001146019808F0A4FD317D019808F08EFD95
:10B86000B169019808F0BEFD019803689B6898478C
:10B87000737D1B0716D4D4E9131291420B461BD0DB
:10B88000019A43F8042BD4E90F12A561E364521A1C
:10B8900048F8045F0135B5EBA20FBCD3002007B018
:10B8A000BDE8F08301224946019808F07FFDD4E904
:10B8B000131291420B46E3D101AA04F14800FFF7AD
:10B8C000E9FED4E90F13A5615B1A48F8045F01355E
:10B8D000B5EBA30FE2D2D4E912239B1A1C2B02A8CA
:10B8E0009FDD022007B0BDE8F083012070470320F0
:10B8F00007B0BDE8F08300BF05310300D0F800C0F9
:10B90000ACF1140CDCF800C06044FFF767BF00BF67
:10B91000026852F8103C2DE9F047034484B05960A6
:10B9200052F80C5C0446012018722544211D68461B
:10B930000AF056FA694628460AF01EFA68460AF0E6
:10B940002FFA236876499D68626A8D4240F0E38051
:10B9500053F80C3C9168234417461963D2E903104D
:10B96000C3E90D10107DD18AD98783F83C00D2E954
:10B970000601156A9D64C3E910011646154657F87D
:10B98000261F36F82F8F55F8320FB2F824E0D7F87B
:10B9900004C092F82E90A3F84CE096F802E0C3F8A9
:10B9A0004E106968C3F852C002F13C0C83F85690FF
:10B9B000A3F8578083F859E0C3F85A00C3F85E1023
:10B9C0009CE8030003F1640E8EE8030092F8441033
:10B9D00083F86C10D2E91280D2E914E1C3E91C802B
:10B9E000D967C3F878E09168C3F88810D2E90310EA
:10B9F000C3E92310107DD18AA3F8961083F8940030
:10BA0000D2E9060E116AC3F8A010C3E9260E918C84
:10BA1000A3F8A4103968D7F8049092F82E80B6F8ED
:10BA200000E096F802A02F686E68C3F8A6109CE8A4
:10BA3000030003F1BC05C3F8AA9083F8AE80A3F815
:10BA4000AFE083F8B1A0C3F8B270C3F8B66085E880
:10BA5000030092F8441083F8C410D2E91250D2E9DE
:10BA60001412C3E93250C3F8D420C3F8D010182000
:10BA70001BF0C2FD0022012105461CF0C1F923681C
:10BA800053F80C3C23442846B3F8DC10C3F8D850D4
:10BA90001CF0C8F9236853F80C0C20440AF03AF95A
:10BAA000B0BB01211F480AF055FF2368054653F833
:10BAB0000C0C204428301C2108F05AFC236853F851
:10BAC0000C0C112220441146283008F069FC236830
:10BAD00053F80C3C234403F12800294608F04CFCA1
